{
  "_format": "hh-sol-artifact-1",
  "contractName": "SoundVerseERC1155",
  "sourceName": "contracts/SoundVerseERC1155.sol",
  "abi": [
    {
      "inputs": [
        {
          "internalType": "address",
          "name": "_nftTokenSaleAddress",
          "type": "address"
        }
      ],
      "stateMutability": "nonpayable",
      "type": "constructor"
    },
    {
      "anonymous": false,
      "inputs": [
        {
          "indexed": true,
          "internalType": "address",
          "name": "account",
          "type": "address"
        },
        {
          "indexed": true,
          "internalType": "address",
          "name": "operator",
          "type": "address"
        },
        {
          "indexed": false,
          "internalType": "bool",
          "name": "approved",
          "type": "bool"
        }
      ],
      "name": "ApprovalForAll",
      "type": "event"
    },
    {
      "anonymous": false,
      "inputs": [
        {
          "indexed": true,
          "internalType": "address",
          "name": "previousOwner",
          "type": "address"
        },
        {
          "indexed": true,
          "internalType": "address",
          "name": "newOwner",
          "type": "address"
        }
      ],
      "name": "OwnershipTransferred",
      "type": "event"
    },
    {
      "anonymous": false,
      "inputs": [
        {
          "indexed": false,
          "internalType": "address",
          "name": "account",
          "type": "address"
        }
      ],
      "name": "Paused",
      "type": "event"
    },
    {
      "anonymous": false,
      "inputs": [
        {
          "indexed": true,
          "internalType": "bytes32",
          "name": "role",
          "type": "bytes32"
        },
        {
          "indexed": true,
          "internalType": "bytes32",
          "name": "previousAdminRole",
          "type": "bytes32"
        },
        {
          "indexed": true,
          "internalType": "bytes32",
          "name": "newAdminRole",
          "type": "bytes32"
        }
      ],
      "name": "RoleAdminChanged",
      "type": "event"
    },
    {
      "anonymous": false,
      "inputs": [
        {
          "indexed": true,
          "internalType": "bytes32",
          "name": "role",
          "type": "bytes32"
        },
        {
          "indexed": true,
          "internalType": "address",
          "name": "account",
          "type": "address"
        },
        {
          "indexed": true,
          "internalType": "address",
          "name": "sender",
          "type": "address"
        }
      ],
      "name": "RoleGranted",
      "type": "event"
    },
    {
      "anonymous": false,
      "inputs": [
        {
          "indexed": true,
          "internalType": "bytes32",
          "name": "role",
          "type": "bytes32"
        },
        {
          "indexed": true,
          "internalType": "address",
          "name": "account",
          "type": "address"
        },
        {
          "indexed": true,
          "internalType": "address",
          "name": "sender",
          "type": "address"
        }
      ],
      "name": "RoleRevoked",
      "type": "event"
    },
    {
      "anonymous": false,
      "inputs": [
        {
          "indexed": true,
          "internalType": "address",
          "name": "operator",
          "type": "address"
        },
        {
          "indexed": true,
          "internalType": "address",
          "name": "from",
          "type": "address"
        },
        {
          "indexed": true,
          "internalType": "address",
          "name": "to",
          "type": "address"
        },
        {
          "indexed": false,
          "internalType": "uint256[]",
          "name": "ids",
          "type": "uint256[]"
        },
        {
          "indexed": false,
          "internalType": "uint256[]",
          "name": "values",
          "type": "uint256[]"
        }
      ],
      "name": "TransferBatch",
      "type": "event"
    },
    {
      "anonymous": false,
      "inputs": [
        {
          "indexed": true,
          "internalType": "address",
          "name": "operator",
          "type": "address"
        },
        {
          "indexed": true,
          "internalType": "address",
          "name": "from",
          "type": "address"
        },
        {
          "indexed": true,
          "internalType": "address",
          "name": "to",
          "type": "address"
        },
        {
          "indexed": false,
          "internalType": "uint256",
          "name": "id",
          "type": "uint256"
        },
        {
          "indexed": false,
          "internalType": "uint256",
          "name": "value",
          "type": "uint256"
        }
      ],
      "name": "TransferSingle",
      "type": "event"
    },
    {
      "anonymous": false,
      "inputs": [
        {
          "indexed": false,
          "internalType": "string",
          "name": "value",
          "type": "string"
        },
        {
          "indexed": true,
          "internalType": "uint256",
          "name": "id",
          "type": "uint256"
        }
      ],
      "name": "URI",
      "type": "event"
    },
    {
      "anonymous": false,
      "inputs": [
        {
          "indexed": false,
          "internalType": "address",
          "name": "account",
          "type": "address"
        }
      ],
      "name": "Unpaused",
      "type": "event"
    },
    {
      "inputs": [],
      "name": "DEFAULT_ADMIN_ROLE",
      "outputs": [
        {
          "internalType": "bytes32",
          "name": "",
          "type": "bytes32"
        }
      ],
      "stateMutability": "view",
      "type": "function"
    },
    {
      "inputs": [],
      "name": "MAX_SUPPLY",
      "outputs": [
        {
          "internalType": "uint256",
          "name": "",
          "type": "uint256"
        }
      ],
      "stateMutability": "view",
      "type": "function"
    },
    {
      "inputs": [],
      "name": "PAUSER_ROLE",
      "outputs": [
        {
          "internalType": "bytes32",
          "name": "",
          "type": "bytes32"
        }
      ],
      "stateMutability": "view",
      "type": "function"
    },
    {
      "inputs": [
        {
          "internalType": "address",
          "name": "account",
          "type": "address"
        },
        {
          "internalType": "uint256",
          "name": "id",
          "type": "uint256"
        }
      ],
      "name": "balanceOf",
      "outputs": [
        {
          "internalType": "uint256",
          "name": "",
          "type": "uint256"
        }
      ],
      "stateMutability": "view",
      "type": "function"
    },
    {
      "inputs": [
        {
          "internalType": "address[]",
          "name": "accounts",
          "type": "address[]"
        },
        {
          "internalType": "uint256[]",
          "name": "ids",
          "type": "uint256[]"
        }
      ],
      "name": "balanceOfBatch",
      "outputs": [
        {
          "internalType": "uint256[]",
          "name": "",
          "type": "uint256[]"
        }
      ],
      "stateMutability": "view",
      "type": "function"
    },
    {
      "inputs": [
        {
          "internalType": "address",
          "name": "account",
          "type": "address"
        },
        {
          "internalType": "uint256",
          "name": "id",
          "type": "uint256"
        },
        {
          "internalType": "uint256",
          "name": "value",
          "type": "uint256"
        }
      ],
      "name": "burn",
      "outputs": [],
      "stateMutability": "nonpayable",
      "type": "function"
    },
    {
      "inputs": [
        {
          "internalType": "address",
          "name": "account",
          "type": "address"
        },
        {
          "internalType": "uint256[]",
          "name": "ids",
          "type": "uint256[]"
        },
        {
          "internalType": "uint256[]",
          "name": "values",
          "type": "uint256[]"
        }
      ],
      "name": "burnBatch",
      "outputs": [],
      "stateMutability": "nonpayable",
      "type": "function"
    },
    {
      "inputs": [
        {
          "internalType": "bytes32",
          "name": "role",
          "type": "bytes32"
        }
      ],
      "name": "getRoleAdmin",
      "outputs": [
        {
          "internalType": "bytes32",
          "name": "",
          "type": "bytes32"
        }
      ],
      "stateMutability": "view",
      "type": "function"
    },
    {
      "inputs": [
        {
          "internalType": "bytes32",
          "name": "role",
          "type": "bytes32"
        },
        {
          "internalType": "uint256",
          "name": "index",
          "type": "uint256"
        }
      ],
      "name": "getRoleMember",
      "outputs": [
        {
          "internalType": "address",
          "name": "",
          "type": "address"
        }
      ],
      "stateMutability": "view",
      "type": "function"
    },
    {
      "inputs": [
        {
          "internalType": "bytes32",
          "name": "role",
          "type": "bytes32"
        }
      ],
      "name": "getRoleMemberCount",
      "outputs": [
        {
          "internalType": "uint256",
          "name": "",
          "type": "uint256"
        }
      ],
      "stateMutability": "view",
      "type": "function"
    },
    {
      "inputs": [
        {
          "internalType": "bytes32",
          "name": "role",
          "type": "bytes32"
        },
        {
          "internalType": "address",
          "name": "account",
          "type": "address"
        }
      ],
      "name": "grantRole",
      "outputs": [],
      "stateMutability": "nonpayable",
      "type": "function"
    },
    {
      "inputs": [
        {
          "internalType": "bytes32",
          "name": "role",
          "type": "bytes32"
        },
        {
          "internalType": "address",
          "name": "account",
          "type": "address"
        }
      ],
      "name": "hasRole",
      "outputs": [
        {
          "internalType": "bool",
          "name": "",
          "type": "bool"
        }
      ],
      "stateMutability": "view",
      "type": "function"
    },
    {
      "inputs": [
        {
          "internalType": "address",
          "name": "account",
          "type": "address"
        },
        {
          "internalType": "address",
          "name": "operator",
          "type": "address"
        }
      ],
      "name": "isApprovedForAll",
      "outputs": [
        {
          "internalType": "bool",
          "name": "",
          "type": "bool"
        }
      ],
      "stateMutability": "view",
      "type": "function"
    },
    {
      "inputs": [
        {
          "internalType": "address",
          "name": "to",
          "type": "address"
        },
        {
          "internalType": "uint256",
          "name": "id",
          "type": "uint256"
        },
        {
          "internalType": "string",
          "name": "_mintUri",
          "type": "string"
        },
        {
          "internalType": "uint256",
          "name": "amount",
          "type": "uint256"
        },
        {
          "internalType": "bytes",
          "name": "data",
          "type": "bytes"
        }
      ],
      "name": "mint",
      "outputs": [],
      "stateMutability": "nonpayable",
      "type": "function"
    },
    {
      "inputs": [
        {
          "internalType": "address",
          "name": "to",
          "type": "address"
        },
        {
          "internalType": "uint256[]",
          "name": "ids",
          "type": "uint256[]"
        },
        {
          "internalType": "string[]",
          "name": "_batchMintUris",
          "type": "string[]"
        },
        {
          "internalType": "uint256[]",
          "name": "amounts",
          "type": "uint256[]"
        },
        {
          "internalType": "bytes",
          "name": "data",
          "type": "bytes"
        }
      ],
      "name": "mintBatch",
      "outputs": [],
      "stateMutability": "nonpayable",
      "type": "function"
    },
    {
      "inputs": [],
      "name": "nftTokenSaleAddress",
      "outputs": [
        {
          "internalType": "address",
          "name": "",
          "type": "address"
        }
      ],
      "stateMutability": "view",
      "type": "function"
    },
    {
      "inputs": [],
      "name": "owner",
      "outputs": [
        {
          "internalType": "address",
          "name": "",
          "type": "address"
        }
      ],
      "stateMutability": "view",
      "type": "function"
    },
    {
      "inputs": [],
      "name": "pause",
      "outputs": [],
      "stateMutability": "nonpayable",
      "type": "function"
    },
    {
      "inputs": [],
      "name": "paused",
      "outputs": [
        {
          "internalType": "bool",
          "name": "",
          "type": "bool"
        }
      ],
      "stateMutability": "view",
      "type": "function"
    },
    {
      "inputs": [],
      "name": "renounceOwnership",
      "outputs": [],
      "stateMutability": "nonpayable",
      "type": "function"
    },
    {
      "inputs": [
        {
          "internalType": "bytes32",
          "name": "role",
          "type": "bytes32"
        },
        {
          "internalType": "address",
          "name": "account",
          "type": "address"
        }
      ],
      "name": "renounceRole",
      "outputs": [],
      "stateMutability": "nonpayable",
      "type": "function"
    },
    {
      "inputs": [
        {
          "internalType": "bytes32",
          "name": "role",
          "type": "bytes32"
        },
        {
          "internalType": "address",
          "name": "account",
          "type": "address"
        }
      ],
      "name": "revokeRole",
      "outputs": [],
      "stateMutability": "nonpayable",
      "type": "function"
    },
    {
      "inputs": [
        {
          "internalType": "address",
          "name": "from",
          "type": "address"
        },
        {
          "internalType": "address",
          "name": "to",
          "type": "address"
        },
        {
          "internalType": "uint256[]",
          "name": "ids",
          "type": "uint256[]"
        },
        {
          "internalType": "uint256[]",
          "name": "amounts",
          "type": "uint256[]"
        },
        {
          "internalType": "bytes",
          "name": "data",
          "type": "bytes"
        }
      ],
      "name": "safeBatchTransferFrom",
      "outputs": [],
      "stateMutability": "nonpayable",
      "type": "function"
    },
    {
      "inputs": [
        {
          "internalType": "address",
          "name": "from",
          "type": "address"
        },
        {
          "internalType": "address",
          "name": "to",
          "type": "address"
        },
        {
          "internalType": "uint256",
          "name": "id",
          "type": "uint256"
        },
        {
          "internalType": "uint256",
          "name": "amount",
          "type": "uint256"
        },
        {
          "internalType": "bytes",
          "name": "data",
          "type": "bytes"
        }
      ],
      "name": "safeTransferFrom",
      "outputs": [],
      "stateMutability": "nonpayable",
      "type": "function"
    },
    {
      "inputs": [
        {
          "internalType": "address",
          "name": "operator",
          "type": "address"
        },
        {
          "internalType": "bool",
          "name": "approved",
          "type": "bool"
        }
      ],
      "name": "setApprovalForAll",
      "outputs": [],
      "stateMutability": "nonpayable",
      "type": "function"
    },
    {
      "inputs": [
        {
          "internalType": "bytes4",
          "name": "interfaceId",
          "type": "bytes4"
        }
      ],
      "name": "supportsInterface",
      "outputs": [
        {
          "internalType": "bool",
          "name": "",
          "type": "bool"
        }
      ],
      "stateMutability": "view",
      "type": "function"
    },
    {
      "inputs": [
        {
          "internalType": "address",
          "name": "newOwner",
          "type": "address"
        }
      ],
      "name": "transferOwnership",
      "outputs": [],
      "stateMutability": "nonpayable",
      "type": "function"
    },
    {
      "inputs": [],
      "name": "unpause",
      "outputs": [],
      "stateMutability": "nonpayable",
      "type": "function"
    },
    {
      "inputs": [
        {
          "internalType": "uint256",
          "name": "tokenId",
          "type": "uint256"
        }
      ],
      "name": "uri",
      "outputs": [
        {
          "internalType": "string",
          "name": "",
          "type": "string"
        }
      ],
      "stateMutability": "view",
      "type": "function"
    }
  ],
  "bytecode": "0x60806040523480156200001157600080fd5b5060405162005f4738038062005f47833981810160405281019062000037919062000580565b6040518060200160405280600081525062000058816200014160201b60201c565b506000600560006101000a81548160ff02191690831515021790555062000094620000886200015d60201b60201c565b6200016560201b60201c565b620000b86000801b620000ac6200015d60201b60201c565b6200022b60201b60201c565b620000f97f65d7a28e3265b37a6474929f336521b332c1681b933f6cb9f3376673440d862a620000ed6200015d60201b60201c565b6200022b60201b60201c565b80600660006101000a81548173ffffffffffffffffffffffffffffffffffffffff021916908373ffffffffffffffffffffffffffffffffffffffff160217905550506200065f565b806004908051906020019062000159929190620004b9565b5050565b600033905090565b6000600560019054906101000a900473ffffffffffffffffffffffffffffffffffffffff16905081600560016101000a81548173ffffffffffffffffffffffffffffffffffffffff021916908373ffffffffffffffffffffffffffffffffffffffff1602179055508173ffffffffffffffffffffffffffffffffffffffff168173ffffffffffffffffffffffffffffffffffffffff167f8be0079c531659141344cd1fd0a4f28419497f9722a3daafe3b4186f6b6457e060405160405180910390a35050565b6200023d82826200024160201b60201c565b5050565b6200025882826200028960201b620013ca1760201c565b6200028481600160008581526020019081526020016000206200037a60201b620014aa1790919060201c565b505050565b6200029b8282620003b260201b60201c565b6200037657600160008084815260200190815260200160002060000160008373ffffffffffffffffffffffffffffffffffffffff1673ffffffffffffffffffffffffffffffffffffffff16815260200190815260200160002060006101000a81548160ff0219169083151502179055506200031b6200015d60201b60201c565b73ffffffffffffffffffffffffffffffffffffffff168173ffffffffffffffffffffffffffffffffffffffff16837f2f8788117e7eff1d82e926ec794901d17c78024a50270940304540a733656f0d60405160405180910390a45b5050565b6000620003aa836000018373ffffffffffffffffffffffffffffffffffffffff1660001b6200041c60201b60201c565b905092915050565b600080600084815260200190815260200160002060000160008373ffffffffffffffffffffffffffffffffffffffff1673ffffffffffffffffffffffffffffffffffffffff16815260200190815260200160002060009054906101000a900460ff16905092915050565b60006200043083836200049660201b60201c565b6200048b57826000018290806001815401808255809150506001900390600052602060002001600090919091909150558260000180549050836001016000848152602001908152602001600020819055506001905062000490565b600090505b92915050565b600080836001016000848152602001908152602001600020541415905092915050565b828054620004c790620005e0565b90600052602060002090601f016020900481019282620004eb576000855562000537565b82601f106200050657805160ff191683800117855562000537565b8280016001018555821562000537579182015b828111156200053657825182559160200191906001019062000519565b5b5090506200054691906200054a565b5090565b5b80821115620005655760008160009055506001016200054b565b5090565b6000815190506200057a8162000645565b92915050565b6000602082840312156200059357600080fd5b6000620005a38482850162000569565b91505092915050565b6000620005b982620005c0565b9050919050565b600073ffffffffffffffffffffffffffffffffffffffff82169050919050565b60006002820490506001821680620005f957607f821691505b6020821081141562000610576200060f62000616565b5b50919050565b7f4e487b7100000000000000000000000000000000000000000000000000000000600052602260045260246000fd5b6200065081620005ac565b81146200065c57600080fd5b50565b6158d8806200066f6000396000f3fe608060405234801561001057600080fd5b50600436106101ce5760003560e01c80638c18991e11610104578063ca15c873116100a2578063e985e9c511610071578063e985e9c514610505578063f242432a14610535578063f2fde38b14610551578063f5298aca1461056d576101ce565b8063ca15c8731461047f578063cf237fc0146104af578063d547741f146104cb578063e63ab1e9146104e7576101ce565b806391d14854116100de57806391d14854146103f9578063a217fddf14610429578063a22cb46514610447578063b8c3729d14610463576101ce565b80638c18991e1461038d5780638da5cb5b146103ab5780639010d07c146103c9576101ce565b806336568abe116101715780635c975abb1161014b5780635c975abb1461033f5780636b20c4541461035d578063715018a6146103795780638456cb5914610383576101ce565b806336568abe146102e95780633f4ba83a146103055780634e1273f41461030f576101ce565b8063248a9ca3116101ad578063248a9ca3146102635780632eb2c2d6146102935780632f2ff15d146102af57806332cb6b0c146102cb576101ce565b8062fdd58e146101d357806301ffc9a7146102035780630e89341c14610233575b600080fd5b6101ed60048036038101906101e89190613e1f565b610589565b6040516101fa9190614b5c565b60405180910390f35b61021d6004803603810190610218919061405e565b610653565b60405161022a91906147a4565b60405180910390f35b61024d600480360381019061024891906140b0565b610665565b60405161025a91906147da565b60405180910390f35b61027d60048036038101906102789190613fbd565b61070a565b60405161028a91906147bf565b60405180910390f35b6102ad60048036038101906102a89190613b3f565b610729565b005b6102c960048036038101906102c49190613fe6565b6107ca565b005b6102d36107f3565b6040516102e09190614b5c565b60405180910390f35b61030360048036038101906102fe9190613fe6565b6107f9565b005b61030d61087c565b005b61032960048036038101906103249190613f51565b6108f6565b604051610336919061474b565b60405180910390f35b610347610aa7565b60405161035491906147a4565b60405180910390f35b61037760048036038101906103729190613d64565b610abe565b005b610381610b5b565b005b61038b610be3565b005b610395610c5d565b6040516103a2919061466e565b60405180910390f35b6103b3610c83565b6040516103c0919061466e565b60405180910390f35b6103e360048036038101906103de9190614022565b610cad565b6040516103f0919061466e565b60405180910390f35b610413600480360381019061040e9190613fe6565b610cdc565b60405161042091906147a4565b60405180910390f35b610431610d46565b60405161043e91906147bf565b60405180910390f35b610461600480360381019061045c9190613de3565b610d4d565b005b61047d60048036038101906104789190613c8d565b610d63565b005b61049960048036038101906104949190613fbd565b610fbb565b6040516104a69190614b5c565b60405180910390f35b6104c960048036038101906104c49190613e5b565b610fdf565b005b6104e560048036038101906104e09190613fe6565b6110b3565b005b6104ef6110dc565b6040516104fc91906147bf565b60405180910390f35b61051f600480360381019061051a9190613b03565b611100565b60405161052c91906147a4565b60405180910390f35b61054f600480360381019061054a9190613bfe565b611194565b005b61056b60048036038101906105669190613ada565b611235565b005b61058760048036038101906105829190613f02565b61132d565b005b60008073ffffffffffffffffffffffffffffffffffffffff168373ffffffffffffffffffffffffffffffffffffffff1614156105fa576040517f08c379a00000000000000000000000000000000000000000000000000000000081526004016105f1906148bc565b60405180910390fd5b6002600083815260200190815260200160002060008473ffffffffffffffffffffffffffffffffffffffff1673ffffffffffffffffffffffffffffffffffffffff16815260200190815260200160002054905092915050565b600061065e826114da565b9050919050565b606060076000838152602001908152602001600020805461068590614ef5565b80601f01602080910402602001604051908101604052809291908181526020018280546106b190614ef5565b80156106fe5780601f106106d3576101008083540402835291602001916106fe565b820191906000526020600020905b8154815290600101906020018083116106e157829003601f168201915b50505050509050919050565b6000806000838152602001908152602001600020600101549050919050565b6107316115bc565b73ffffffffffffffffffffffffffffffffffffffff168573ffffffffffffffffffffffffffffffffffffffff1614806107775750610776856107716115bc565b611100565b5b6107b6576040517f08c379a00000000000000000000000000000000000000000000000000000000081526004016107ad906149fc565b60405180910390fd5b6107c385858585856115c4565b5050505050565b6107d38261070a565b6107e4816107df6115bc565b611927565b6107ee83836119c4565b505050565b6101f481565b6108016115bc565b73ffffffffffffffffffffffffffffffffffffffff168173ffffffffffffffffffffffffffffffffffffffff161461086e576040517f08c379a000000000000000000000000000000000000000000000000000000000815260040161086590614b3c565b60405180910390fd5b61087882826119f8565b5050565b6108ad7f65d7a28e3265b37a6474929f336521b332c1681b933f6cb9f3376673440d862a6108a86115bc565b610cdc565b6108ec576040517f08c379a00000000000000000000000000000000000000000000000000000000081526004016108e390614abc565b60405180910390fd5b6108f4611a2c565b565b6060815183511461093c576040517f08c379a000000000000000000000000000000000000000000000000000000000815260040161093390614adc565b60405180910390fd5b6000835167ffffffffffffffff81111561097f577f4e487b7100000000000000000000000000000000000000000000000000000000600052604160045260246000fd5b6040519080825280602002602001820160405280156109ad5781602001602082028036833780820191505090505b50905060005b8451811015610a9c57610a468582815181106109f8577f4e487b7100000000000000000000000000000000000000000000000000000000600052603260045260246000fd5b6020026020010151858381518110610a39577f4e487b7100000000000000000000000000000000000000000000000000000000600052603260045260246000fd5b6020026020010151610589565b828281518110610a7f577f4e487b7100000000000000000000000000000000000000000000000000000000600052603260045260246000fd5b60200260200101818152505080610a9590614f58565b90506109b3565b508091505092915050565b6000600560009054906101000a900460ff16905090565b610ac66115bc565b73ffffffffffffffffffffffffffffffffffffffff168373ffffffffffffffffffffffffffffffffffffffff161480610b0c5750610b0b83610b066115bc565b611100565b5b610b4b576040517f08c379a0000000000000000000000000000000000000000000000000000000008152600401610b429061495c565b60405180910390fd5b610b56838383611ace565b505050565b610b636115bc565b73ffffffffffffffffffffffffffffffffffffffff16610b81610c83565b73ffffffffffffffffffffffffffffffffffffffff1614610bd7576040517f08c379a0000000000000000000000000000000000000000000000000000000008152600401610bce90614a7c565b60405180910390fd5b610be16000611dcd565b565b610c147f65d7a28e3265b37a6474929f336521b332c1681b933f6cb9f3376673440d862a610c0f6115bc565b610cdc565b610c53576040517f08c379a0000000000000000000000000000000000000000000000000000000008152600401610c4a9061499c565b60405180910390fd5b610c5b611e93565b565b600660009054906101000a900473ffffffffffffffffffffffffffffffffffffffff1681565b6000600560019054906101000a900473ffffffffffffffffffffffffffffffffffffffff16905090565b6000610cd48260016000868152602001908152602001600020611f3690919063ffffffff16565b905092915050565b600080600084815260200190815260200160002060000160008373ffffffffffffffffffffffffffffffffffffffff1673ffffffffffffffffffffffffffffffffffffffff16815260200190815260200160002060009054906101000a900460ff16905092915050565b6000801b81565b610d5f610d586115bc565b8383611f50565b5050565b8251845114610da7576040517f08c379a0000000000000000000000000000000000000000000000000000000008152600401610d9e9061491c565b60405180910390fd5b60005b8451811015610ed0576000848281518110610dee577f4e487b7100000000000000000000000000000000000000000000000000000000600052603260045260246000fd5b6020026020010151511415610e38576040517f08c379a0000000000000000000000000000000000000000000000000000000008152600401610e2f9061497c565b60405180910390fd5b6101f4838281518110610e74577f4e487b7100000000000000000000000000000000000000000000000000000000600052603260045260246000fd5b60200260200101511115610ebd576040517f08c379a0000000000000000000000000000000000000000000000000000000008152600401610eb49061485c565b60405180910390fd5b8080610ec890614f58565b915050610daa565b5060005b8451811015610f7a57610f67858281518110610f19577f4e487b7100000000000000000000000000000000000000000000000000000000600052603260045260246000fd5b6020026020010151858381518110610f5a577f4e487b7100000000000000000000000000000000000000000000000000000000600052603260045260246000fd5b60200260200101516120bd565b8080610f7290614f58565b915050610ed4565b50610fa8600660009054906101000a900473ffffffffffffffffffffffffffffffffffffffff166001610d4d565b610fb48585848461214b565b5050505050565b6000610fd8600160008481526020019081526020016000206123b6565b9050919050565b600083511415611024576040517f08c379a000000000000000000000000000000000000000000000000000000000815260040161101b9061489c565b60405180910390fd5b6101f4821115611069576040517f08c379a00000000000000000000000000000000000000000000000000000000081526004016110609061485c565b60405180910390fd5b61107384846120bd565b6110a0600660009054906101000a900473ffffffffffffffffffffffffffffffffffffffff166001610d4d565b6110ac858584846123cb565b5050505050565b6110bc8261070a565b6110cd816110c86115bc565b611927565b6110d783836119f8565b505050565b7f65d7a28e3265b37a6474929f336521b332c1681b933f6cb9f3376673440d862a81565b6000600360008473ffffffffffffffffffffffffffffffffffffffff1673ffffffffffffffffffffffffffffffffffffffff16815260200190815260200160002060008373ffffffffffffffffffffffffffffffffffffffff1673ffffffffffffffffffffffffffffffffffffffff16815260200190815260200160002060009054906101000a900460ff16905092915050565b61119c6115bc565b73ffffffffffffffffffffffffffffffffffffffff168573ffffffffffffffffffffffffffffffffffffffff1614806111e257506111e1856111dc6115bc565b611100565b5b611221576040517f08c379a00000000000000000000000000000000000000000000000000000000081526004016112189061495c565b60405180910390fd5b61122e8585858585612562565b5050505050565b61123d6115bc565b73ffffffffffffffffffffffffffffffffffffffff1661125b610c83565b73ffffffffffffffffffffffffffffffffffffffff16146112b1576040517f08c379a00000000000000000000000000000000000000000000000000000000081526004016112a890614a7c565b60405180910390fd5b600073ffffffffffffffffffffffffffffffffffffffff168173ffffffffffffffffffffffffffffffffffffffff161415611321576040517f08c379a0000000000000000000000000000000000000000000000000000000008152600401611318906148dc565b60405180910390fd5b61132a81611dcd565b50565b6113356115bc565b73ffffffffffffffffffffffffffffffffffffffff168373ffffffffffffffffffffffffffffffffffffffff16148061137b575061137a836113756115bc565b611100565b5b6113ba576040517f08c379a00000000000000000000000000000000000000000000000000000000081526004016113b19061495c565b60405180910390fd5b6113c58383836127e7565b505050565b6113d48282610cdc565b6114a657600160008084815260200190815260200160002060000160008373ffffffffffffffffffffffffffffffffffffffff1673ffffffffffffffffffffffffffffffffffffffff16815260200190815260200160002060006101000a81548160ff02191690831515021790555061144b6115bc565b73ffffffffffffffffffffffffffffffffffffffff168173ffffffffffffffffffffffffffffffffffffffff16837f2f8788117e7eff1d82e926ec794901d17c78024a50270940304540a733656f0d60405160405180910390a45b5050565b60006114d2836000018373ffffffffffffffffffffffffffffffffffffffff1660001b612a06565b905092915050565b60007fd9b67a26000000000000000000000000000000000000000000000000000000007bffffffffffffffffffffffffffffffffffffffffffffffffffffffff1916827bffffffffffffffffffffffffffffffffffffffffffffffffffffffff191614806115a557507f0e89341c000000000000000000000000000000000000000000000000000000007bffffffffffffffffffffffffffffffffffffffffffffffffffffffff1916827bffffffffffffffffffffffffffffffffffffffffffffffffffffffff1916145b806115b557506115b482612a76565b5b9050919050565b600033905090565b8151835114611608576040517f08c379a00000000000000000000000000000000000000000000000000000000081526004016115ff90614afc565b60405180910390fd5b600073ffffffffffffffffffffffffffffffffffffffff168473ffffffffffffffffffffffffffffffffffffffff161415611678576040517f08c379a000000000000000000000000000000000000000000000000000000000815260040161166f906149dc565b60405180910390fd5b60006116826115bc565b9050611692818787878787612af0565b60005b84518110156118925760008582815181106116d9577f4e487b7100000000000000000000000000000000000000000000000000000000600052603260045260246000fd5b60200260200101519050600085838151811061171e577f4e487b7100000000000000000000000000000000000000000000000000000000600052603260045260246000fd5b6020026020010151905060006002600084815260200190815260200160002060008b73ffffffffffffffffffffffffffffffffffffffff1673ffffffffffffffffffffffffffffffffffffffff168152602001908152602001600020549050818110156117c0576040517f08c379a00000000000000000000000000000000000000000000000000000000081526004016117b790614a5c565b60405180910390fd5b8181036002600085815260200190815260200160002060008c73ffffffffffffffffffffffffffffffffffffffff1673ffffffffffffffffffffffffffffffffffffffff16815260200190815260200160002081905550816002600085815260200190815260200160002060008b73ffffffffffffffffffffffffffffffffffffffff1673ffffffffffffffffffffffffffffffffffffffff16815260200190815260200160002060008282546118779190614d27565b925050819055505050508061188b90614f58565b9050611695565b508473ffffffffffffffffffffffffffffffffffffffff168673ffffffffffffffffffffffffffffffffffffffff168273ffffffffffffffffffffffffffffffffffffffff167f4a39dc06d4c0dbc64b70af90fd698a233a518aa5d07e595d983b8c0526c8f7fb878760405161190992919061476d565b60405180910390a461191f818787878787612b06565b505050505050565b6119318282610cdc565b6119c0576119568173ffffffffffffffffffffffffffffffffffffffff166014612ced565b6119648360001c6020612ced565b604051602001611975929190614634565b6040516020818303038152906040526040517f08c379a00000000000000000000000000000000000000000000000000000000081526004016119b791906147da565b60405180910390fd5b5050565b6119ce82826113ca565b6119f381600160008581526020019081526020016000206114aa90919063ffffffff16565b505050565b611a028282612fe7565b611a2781600160008581526020019081526020016000206130c890919063ffffffff16565b505050565b611a34610aa7565b611a73576040517f08c379a0000000000000000000000000000000000000000000000000000000008152600401611a6a9061487c565b60405180910390fd5b6000600560006101000a81548160ff0219169083151502179055507f5db9ee0a495bf2e6ff9c91a7834c1ba4fdd244a5e8aa4e537bd38aeae4b073aa611ab76115bc565b604051611ac4919061466e565b60405180910390a1565b600073ffffffffffffffffffffffffffffffffffffffff168373ffffffffffffffffffffffffffffffffffffffff161415611b3e576040517f08c379a0000000000000000000000000000000000000000000000000000000008152600401611b3590614a3c565b60405180910390fd5b8051825114611b82576040517f08c379a0000000000000000000000000000000000000000000000000000000008152600401611b7990614afc565b60405180910390fd5b6000611b8c6115bc565b9050611bac81856000868660405180602001604052806000815250612af0565b60005b8351811015611d47576000848281518110611bf3577f4e487b7100000000000000000000000000000000000000000000000000000000600052603260045260246000fd5b602002602001015190506000848381518110611c38577f4e487b7100000000000000000000000000000000000000000000000000000000600052603260045260246000fd5b6020026020010151905060006002600084815260200190815260200160002060008973ffffffffffffffffffffffffffffffffffffffff1673ffffffffffffffffffffffffffffffffffffffff16815260200190815260200160002054905081811015611cda576040517f08c379a0000000000000000000000000000000000000000000000000000000008152600401611cd1906148fc565b60405180910390fd5b8181036002600085815260200190815260200160002060008a73ffffffffffffffffffffffffffffffffffffffff1673ffffffffffffffffffffffffffffffffffffffff168152602001908152602001600020819055505050508080611d3f90614f58565b915050611baf565b50600073ffffffffffffffffffffffffffffffffffffffff168473ffffffffffffffffffffffffffffffffffffffff168273ffffffffffffffffffffffffffffffffffffffff167f4a39dc06d4c0dbc64b70af90fd698a233a518aa5d07e595d983b8c0526c8f7fb8686604051611dbf92919061476d565b60405180910390a450505050565b6000600560019054906101000a900473ffffffffffffffffffffffffffffffffffffffff16905081600560016101000a81548173ffffffffffffffffffffffffffffffffffffffff021916908373ffffffffffffffffffffffffffffffffffffffff1602179055508173ffffffffffffffffffffffffffffffffffffffff168173ffffffffffffffffffffffffffffffffffffffff167f8be0079c531659141344cd1fd0a4f28419497f9722a3daafe3b4186f6b6457e060405160405180910390a35050565b611e9b610aa7565b15611edb576040517f08c379a0000000000000000000000000000000000000000000000000000000008152600401611ed2906149bc565b60405180910390fd5b6001600560006101000a81548160ff0219169083151502179055507f62e78cea01bee320cd4e420270b5ea74000d11b0c9f74754ebdbfc544b05a258611f1f6115bc565b604051611f2c919061466e565b60405180910390a1565b6000611f4583600001836130f8565b60001c905092915050565b8173ffffffffffffffffffffffffffffffffffffffff168373ffffffffffffffffffffffffffffffffffffffff161415611fbf576040517f08c379a0000000000000000000000000000000000000000000000000000000008152600401611fb690614a9c565b60405180910390fd5b80600360008573ffffffffffffffffffffffffffffffffffffffff1673ffffffffffffffffffffffffffffffffffffffff16815260200190815260200160002060008473ffffffffffffffffffffffffffffffffffffffff1673ffffffffffffffffffffffffffffffffffffffff16815260200190815260200160002060006101000a81548160ff0219169083151502179055508173ffffffffffffffffffffffffffffffffffffffff168373ffffffffffffffffffffffffffffffffffffffff167f17307eab39ab6107e8899845ad3d59bd9653f200f220920489ca2b5937696c31836040516120b091906147a4565b60405180910390a3505050565b60006007600084815260200190815260200160002080546120dd90614ef5565b90501461211f576040517f08c379a000000000000000000000000000000000000000000000000000000000815260040161211690614a1c565b60405180910390fd5b8060076000848152602001908152602001600020908051906020019061214692919061370d565b505050565b600073ffffffffffffffffffffffffffffffffffffffff168473ffffffffffffffffffffffffffffffffffffffff1614156121bb576040517f08c379a00000000000000000000000000000000000000000000000000000000081526004016121b290614b1c565b60405180910390fd5b81518351146121ff576040517f08c379a00000000000000000000000000000000000000000000000000000000081526004016121f690614afc565b60405180910390fd5b60006122096115bc565b905061221a81600087878787612af0565b60005b84518110156123205783818151811061225f577f4e487b7100000000000000000000000000000000000000000000000000000000600052603260045260246000fd5b6020026020010151600260008784815181106122a4577f4e487b7100000000000000000000000000000000000000000000000000000000600052603260045260246000fd5b6020026020010151815260200190815260200160002060008873ffffffffffffffffffffffffffffffffffffffff1673ffffffffffffffffffffffffffffffffffffffff16815260200190815260200160002060008282546123069190614d27565b92505081905550808061231890614f58565b91505061221d565b508473ffffffffffffffffffffffffffffffffffffffff16600073ffffffffffffffffffffffffffffffffffffffff168273ffffffffffffffffffffffffffffffffffffffff167f4a39dc06d4c0dbc64b70af90fd698a233a518aa5d07e595d983b8c0526c8f7fb878760405161239892919061476d565b60405180910390a46123af81600087878787612b06565b5050505050565b60006123c482600001613149565b9050919050565b600073ffffffffffffffffffffffffffffffffffffffff168473ffffffffffffffffffffffffffffffffffffffff16141561243b576040517f08c379a000000000000000000000000000000000000000000000000000000000815260040161243290614b1c565b60405180910390fd5b60006124456115bc565b9050612466816000876124578861315a565b6124608861315a565b87612af0565b826002600086815260200190815260200160002060008773ffffffffffffffffffffffffffffffffffffffff1673ffffffffffffffffffffffffffffffffffffffff16815260200190815260200160002060008282546124c69190614d27565b925050819055508473ffffffffffffffffffffffffffffffffffffffff16600073ffffffffffffffffffffffffffffffffffffffff168273ffffffffffffffffffffffffffffffffffffffff167fc3d58168c5ae7397731d063d5bbf3d657854427343f4c083240f7aacaa2d0f628787604051612544929190614b77565b60405180910390a461255b81600087878787613220565b5050505050565b600073ffffffffffffffffffffffffffffffffffffffff168473ffffffffffffffffffffffffffffffffffffffff1614156125d2576040517f08c379a00000000000000000000000000000000000000000000000000000000081526004016125c9906149dc565b60405180910390fd5b60006125dc6115bc565b90506125fc8187876125ed8861315a565b6125f68861315a565b87612af0565b60006002600086815260200190815260200160002060008873ffffffffffffffffffffffffffffffffffffffff1673ffffffffffffffffffffffffffffffffffffffff16815260200190815260200160002054905083811015612694576040517f08c379a000000000000000000000000000000000000000000000000000000000815260040161268b90614a5c565b60405180910390fd5b8381036002600087815260200190815260200160002060008973ffffffffffffffffffffffffffffffffffffffff1673ffffffffffffffffffffffffffffffffffffffff16815260200190815260200160002081905550836002600087815260200190815260200160002060008873ffffffffffffffffffffffffffffffffffffffff1673ffffffffffffffffffffffffffffffffffffffff168152602001908152602001600020600082825461274b9190614d27565b925050819055508573ffffffffffffffffffffffffffffffffffffffff168773ffffffffffffffffffffffffffffffffffffffff168373ffffffffffffffffffffffffffffffffffffffff167fc3d58168c5ae7397731d063d5bbf3d657854427343f4c083240f7aacaa2d0f6288886040516127c8929190614b77565b60405180910390a46127de828888888888613220565b50505050505050565b600073ffffffffffffffffffffffffffffffffffffffff168373ffffffffffffffffffffffffffffffffffffffff161415612857576040517f08c379a000000000000000000000000000000000000000000000000000000000815260040161284e90614a3c565b60405180910390fd5b60006128616115bc565b9050612891818560006128738761315a565b61287c8761315a565b60405180602001604052806000815250612af0565b60006002600085815260200190815260200160002060008673ffffffffffffffffffffffffffffffffffffffff1673ffffffffffffffffffffffffffffffffffffffff16815260200190815260200160002054905082811015612929576040517f08c379a0000000000000000000000000000000000000000000000000000000008152600401612920906148fc565b60405180910390fd5b8281036002600086815260200190815260200160002060008773ffffffffffffffffffffffffffffffffffffffff1673ffffffffffffffffffffffffffffffffffffffff16815260200190815260200160002081905550600073ffffffffffffffffffffffffffffffffffffffff168573ffffffffffffffffffffffffffffffffffffffff168373ffffffffffffffffffffffffffffffffffffffff167fc3d58168c5ae7397731d063d5bbf3d657854427343f4c083240f7aacaa2d0f6287876040516129f7929190614b77565b60405180910390a45050505050565b6000612a128383613407565b612a6b578260000182908060018154018082558091505060019003906000526020600020016000909190919091505582600001805490508360010160008481526020019081526020016000208190555060019050612a70565b600090505b92915050565b60007f5a05180f000000000000000000000000000000000000000000000000000000007bffffffffffffffffffffffffffffffffffffffffffffffffffffffff1916827bffffffffffffffffffffffffffffffffffffffffffffffffffffffff19161480612ae95750612ae88261342a565b5b9050919050565b612afe8686868686866134a4565b505050505050565b612b258473ffffffffffffffffffffffffffffffffffffffff16613502565b15612ce5578373ffffffffffffffffffffffffffffffffffffffff1663bc197c8187878686866040518663ffffffff1660e01b8152600401612b6b959493929190614689565b602060405180830381600087803b158015612b8557600080fd5b505af1925050508015612bb657506040513d601f19601f82011682018060405250810190612bb39190614087565b60015b612c5c57612bc261502e565b806308c379a01415612c1f5750612bd7615799565b80612be25750612c21565b806040517f08c379a0000000000000000000000000000000000000000000000000000000008152600401612c1691906147da565b60405180910390fd5b505b6040517f08c379a0000000000000000000000000000000000000000000000000000000008152600401612c53906147fc565b60405180910390fd5b63bc197c8160e01b7bffffffffffffffffffffffffffffffffffffffffffffffffffffffff1916817bffffffffffffffffffffffffffffffffffffffffffffffffffffffff191614612ce3576040517f08c379a0000000000000000000000000000000000000000000000000000000008152600401612cda9061483c565b60405180910390fd5b505b505050505050565b606060006002836002612d009190614d7d565b612d0a9190614d27565b67ffffffffffffffff811115612d49577f4e487b7100000000000000000000000000000000000000000000000000000000600052604160045260246000fd5b6040519080825280601f01601f191660200182016040528015612d7b5781602001600182028036833780820191505090505b5090507f300000000000000000000000000000000000000000000000000000000000000081600081518110612dd9577f4e487b7100000000000000000000000000000000000000000000000000000000600052603260045260246000fd5b60200101907effffffffffffffffffffffffffffffffffffffffffffffffffffffffffffff1916908160001a9053507f780000000000000000000000000000000000000000000000000000000000000081600181518110612e63577f4e487b7100000000000000000000000000000000000000000000000000000000600052603260045260246000fd5b60200101907effffffffffffffffffffffffffffffffffffffffffffffffffffffffffffff1916908160001a90535060006001846002612ea39190614d7d565b612ead9190614d27565b90505b6001811115612f99577f3031323334353637383961626364656600000000000000000000000000000000600f861660108110612f15577f4e487b7100000000000000000000000000000000000000000000000000000000600052603260045260246000fd5b1a60f81b828281518110612f52577f4e487b7100000000000000000000000000000000000000000000000000000000600052603260045260246000fd5b60200101907effffffffffffffffffffffffffffffffffffffffffffffffffffffffffffff1916908160001a905350600485901c945080612f9290614ecb565b9050612eb0565b5060008414612fdd576040517f08c379a0000000000000000000000000000000000000000000000000000000008152600401612fd49061481c565b60405180910390fd5b8091505092915050565b612ff18282610cdc565b156130c457600080600084815260200190815260200160002060000160008373ffffffffffffffffffffffffffffffffffffffff1673ffffffffffffffffffffffffffffffffffffffff16815260200190815260200160002060006101000a81548160ff0219169083151502179055506130696115bc565b73ffffffffffffffffffffffffffffffffffffffff168173ffffffffffffffffffffffffffffffffffffffff16837ff6391f5c32d9c69d2a47ea670b442974b53935d1edc7fd64eb21e047a839171b60405160405180910390a45b5050565b60006130f0836000018373ffffffffffffffffffffffffffffffffffffffff1660001b613515565b905092915050565b6000826000018281548110613136577f4e487b7100000000000000000000000000000000000000000000000000000000600052603260045260246000fd5b9060005260206000200154905092915050565b600081600001805490509050919050565b60606000600167ffffffffffffffff81111561319f577f4e487b7100000000000000000000000000000000000000000000000000000000600052604160045260246000fd5b6040519080825280602002602001820160405280156131cd5781602001602082028036833780820191505090505b509050828160008151811061320b577f4e487b7100000000000000000000000000000000000000000000000000000000600052603260045260246000fd5b60200260200101818152505080915050919050565b61323f8473ffffffffffffffffffffffffffffffffffffffff16613502565b156133ff578373ffffffffffffffffffffffffffffffffffffffff1663f23a6e6187878686866040518663ffffffff1660e01b81526004016132859594939291906146f1565b602060405180830381600087803b15801561329f57600080fd5b505af19250505080156132d057506040513d601f19601f820116820180604052508101906132cd9190614087565b60015b613376576132dc61502e565b806308c379a0141561333957506132f1615799565b806132fc575061333b565b806040517f08c379a000000000000000000000000000000000000000000000000000000000815260040161333091906147da565b60405180910390fd5b505b6040517f08c379a000000000000000000000000000000000000000000000000000000000815260040161336d906147fc565b60405180910390fd5b63f23a6e6160e01b7bffffffffffffffffffffffffffffffffffffffffffffffffffffffff1916817bffffffffffffffffffffffffffffffffffffffffffffffffffffffff1916146133fd576040517f08c379a00000000000000000000000000000000000000000000000000000000081526004016133f49061483c565b60405180910390fd5b505b505050505050565b600080836001016000848152602001908152602001600020541415905092915050565b60007f7965db0b000000000000000000000000000000000000000000000000000000007bffffffffffffffffffffffffffffffffffffffffffffffffffffffff1916827bffffffffffffffffffffffffffffffffffffffffffffffffffffffff1916148061349d575061349c8261369b565b5b9050919050565b6134b2868686868686613705565b6134ba610aa7565b156134fa576040517f08c379a00000000000000000000000000000000000000000000000000000000081526004016134f19061493c565b60405180910390fd5b505050505050565b600080823b905060008111915050919050565b6000808360010160008481526020019081526020016000205490506000811461368f5760006001826135479190614dd7565b905060006001866000018054905061355f9190614dd7565b905081811461361a5760008660000182815481106135a6577f4e487b7100000000000000000000000000000000000000000000000000000000600052603260045260246000fd5b90600052602060002001549050808760000184815481106135f0577f4e487b7100000000000000000000000000000000000000000000000000000000600052603260045260246000fd5b90600052602060002001819055508387600101600083815260200190815260200160002081905550505b85600001805480613654577f4e487b7100000000000000000000000000000000000000000000000000000000600052603160045260246000fd5b600190038181906000526020600020016000905590558560010160008681526020019081526020016000206000905560019350505050613695565b60009150505b92915050565b60007f01ffc9a7000000000000000000000000000000000000000000000000000000007bffffffffffffffffffffffffffffffffffffffffffffffffffffffff1916827bffffffffffffffffffffffffffffffffffffffffffffffffffffffff1916149050919050565b505050505050565b82805461371990614ef5565b90600052602060002090601f01602090048101928261373b5760008555613782565b82601f1061375457805160ff1916838001178555613782565b82800160010185558215613782579182015b82811115613781578251825591602001919060010190613766565b5b50905061378f9190613793565b5090565b5b808211156137ac576000816000905550600101613794565b5090565b60006137c36137be84614bc5565b614ba0565b905080838252602082019050828560208602820111156137e257600080fd5b60005b8581101561381257816137f8888261398a565b8452602084019350602083019250506001810190506137e5565b5050509392505050565b600061382f61382a84614bf1565b614ba0565b9050808382526020820190508285602086028201111561384e57600080fd5b60005b8581101561389857813567ffffffffffffffff81111561387057600080fd5b80860161387d8982613a9b565b85526020850194506020840193505050600181019050613851565b5050509392505050565b60006138b56138b084614c1d565b614ba0565b905080838252602082019050828560208602820111156138d457600080fd5b60005b8581101561390457816138ea8882613ac5565b8452602084019350602083019250506001810190506138d7565b5050509392505050565b600061392161391c84614c49565b614ba0565b90508281526020810184848401111561393957600080fd5b613944848285614e89565b509392505050565b600061395f61395a84614c7a565b614ba0565b90508281526020810184848401111561397757600080fd5b613982848285614e89565b509392505050565b6000813590506139998161582f565b92915050565b600082601f8301126139b057600080fd5b81356139c08482602086016137b0565b91505092915050565b600082601f8301126139da57600080fd5b81356139ea84826020860161381c565b91505092915050565b600082601f830112613a0457600080fd5b8135613a148482602086016138a2565b91505092915050565b600081359050613a2c81615846565b92915050565b600081359050613a418161585d565b92915050565b600081359050613a5681615874565b92915050565b600081519050613a6b81615874565b92915050565b600082601f830112613a8257600080fd5b8135613a9284826020860161390e565b91505092915050565b600082601f830112613aac57600080fd5b8135613abc84826020860161394c565b91505092915050565b600081359050613ad48161588b565b92915050565b600060208284031215613aec57600080fd5b6000613afa8482850161398a565b91505092915050565b60008060408385031215613b1657600080fd5b6000613b248582860161398a565b9250506020613b358582860161398a565b9150509250929050565b600080600080600060a08688031215613b5757600080fd5b6000613b658882890161398a565b9550506020613b768882890161398a565b945050604086013567ffffffffffffffff811115613b9357600080fd5b613b9f888289016139f3565b935050606086013567ffffffffffffffff811115613bbc57600080fd5b613bc8888289016139f3565b925050608086013567ffffffffffffffff811115613be557600080fd5b613bf188828901613a71565b9150509295509295909350565b600080600080600060a08688031215613c1657600080fd5b6000613c248882890161398a565b9550506020613c358882890161398a565b9450506040613c4688828901613ac5565b9350506060613c5788828901613ac5565b925050608086013567ffffffffffffffff811115613c7457600080fd5b613c8088828901613a71565b9150509295509295909350565b600080600080600060a08688031215613ca557600080fd5b6000613cb38882890161398a565b955050602086013567ffffffffffffffff811115613cd057600080fd5b613cdc888289016139f3565b945050604086013567ffffffffffffffff811115613cf957600080fd5b613d05888289016139c9565b935050606086013567ffffffffffffffff811115613d2257600080fd5b613d2e888289016139f3565b925050608086013567ffffffffffffffff811115613d4b57600080fd5b613d5788828901613a71565b9150509295509295909350565b600080600060608486031215613d7957600080fd5b6000613d878682870161398a565b935050602084013567ffffffffffffffff811115613da457600080fd5b613db0868287016139f3565b925050604084013567ffffffffffffffff811115613dcd57600080fd5b613dd9868287016139f3565b9150509250925092565b60008060408385031215613df657600080fd5b6000613e048582860161398a565b9250506020613e1585828601613a1d565b9150509250929050565b60008060408385031215613e3257600080fd5b6000613e408582860161398a565b9250506020613e5185828601613ac5565b9150509250929050565b600080600080600060a08688031215613e7357600080fd5b6000613e818882890161398a565b9550506020613e9288828901613ac5565b945050604086013567ffffffffffffffff811115613eaf57600080fd5b613ebb88828901613a9b565b9350506060613ecc88828901613ac5565b925050608086013567ffffffffffffffff811115613ee957600080fd5b613ef588828901613a71565b9150509295509295909350565b600080600060608486031215613f1757600080fd5b6000613f258682870161398a565b9350506020613f3686828701613ac5565b9250506040613f4786828701613ac5565b9150509250925092565b60008060408385031215613f6457600080fd5b600083013567ffffffffffffffff811115613f7e57600080fd5b613f8a8582860161399f565b925050602083013567ffffffffffffffff811115613fa757600080fd5b613fb3858286016139f3565b9150509250929050565b600060208284031215613fcf57600080fd5b6000613fdd84828501613a32565b91505092915050565b60008060408385031215613ff957600080fd5b600061400785828601613a32565b92505060206140188582860161398a565b9150509250929050565b6000806040838503121561403557600080fd5b600061404385828601613a32565b925050602061405485828601613ac5565b9150509250929050565b60006020828403121561407057600080fd5b600061407e84828501613a47565b91505092915050565b60006020828403121561409957600080fd5b60006140a784828501613a5c565b91505092915050565b6000602082840312156140c257600080fd5b60006140d084828501613ac5565b91505092915050565b60006140e58383614616565b60208301905092915050565b6140fa81614e0b565b82525050565b600061410b82614cbb565b6141158185614ce9565b935061412083614cab565b8060005b8381101561415157815161413888826140d9565b975061414383614cdc565b925050600181019050614124565b5085935050505092915050565b61416781614e1d565b82525050565b61417681614e29565b82525050565b600061418782614cc6565b6141918185614cfa565b93506141a1818560208601614e98565b6141aa81615050565b840191505092915050565b60006141c082614cd1565b6141ca8185614d0b565b93506141da818560208601614e98565b6141e381615050565b840191505092915050565b60006141f982614cd1565b6142038185614d1c565b9350614213818560208601614e98565b80840191505092915050565b600061422c603483614d0b565b91506142378261506e565b604082019050919050565b600061424f602083614d0b565b915061425a826150bd565b602082019050919050565b6000614272602883614d0b565b915061427d826150e6565b604082019050919050565b6000614295601383614d0b565b91506142a082615135565b602082019050919050565b60006142b8601483614d0b565b91506142c38261515e565b602082019050919050565b60006142db601483614d0b565b91506142e682615187565b602082019050919050565b60006142fe602b83614d0b565b9150614309826151b0565b604082019050919050565b6000614321602683614d0b565b915061432c826151ff565b604082019050919050565b6000614344602483614d0b565b915061434f8261524e565b604082019050919050565b6000614367601c83614d0b565b91506143728261529d565b602082019050919050565b600061438a602c83614d0b565b9150614395826152c6565b604082019050919050565b60006143ad602983614d0b565b91506143b882615315565b604082019050919050565b60006143d0602183614d0b565b91506143db82615364565b604082019050919050565b60006143f3601e83614d0b565b91506143fe826153b3565b602082019050919050565b6000614416601083614d0b565b9150614421826153dc565b602082019050919050565b6000614439602583614d0b565b915061444482615405565b604082019050919050565b600061445c603283614d0b565b915061446782615454565b604082019050919050565b600061447f601483614d0b565b915061448a826154a3565b602082019050919050565b60006144a2602383614d0b565b91506144ad826154cc565b604082019050919050565b60006144c5602a83614d0b565b91506144d08261551b565b604082019050919050565b60006144e8602083614d0b565b91506144f38261556a565b602082019050919050565b600061450b601783614d1c565b915061451682615593565b601782019050919050565b600061452e602983614d0b565b9150614539826155bc565b604082019050919050565b6000614551602083614d0b565b915061455c8261560b565b602082019050919050565b6000614574602983614d0b565b915061457f82615634565b604082019050919050565b6000614597602883614d0b565b91506145a282615683565b604082019050919050565b60006145ba602183614d0b565b91506145c5826156d2565b604082019050919050565b60006145dd601183614d1c565b91506145e882615721565b601182019050919050565b6000614600602f83614d0b565b915061460b8261574a565b604082019050919050565b61461f81614e7f565b82525050565b61462e81614e7f565b82525050565b600061463f826144fe565b915061464b82856141ee565b9150614656826145d0565b915061466282846141ee565b91508190509392505050565b600060208201905061468360008301846140f1565b92915050565b600060a08201905061469e60008301886140f1565b6146ab60208301876140f1565b81810360408301526146bd8186614100565b905081810360608301526146d18185614100565b905081810360808301526146e5818461417c565b90509695505050505050565b600060a08201905061470660008301886140f1565b61471360208301876140f1565b6147206040830186614625565b61472d6060830185614625565b818103608083015261473f818461417c565b90509695505050505050565b600060208201905081810360008301526147658184614100565b905092915050565b600060408201905081810360008301526147878185614100565b9050818103602083015261479b8184614100565b90509392505050565b60006020820190506147b9600083018461415e565b92915050565b60006020820190506147d4600083018461416d565b92915050565b600060208201905081810360008301526147f481846141b5565b905092915050565b600060208201905081810360008301526148158161421f565b9050919050565b6000602082019050818103600083015261483581614242565b9050919050565b6000602082019050818103600083015261485581614265565b9050919050565b6000602082019050818103600083015261487581614288565b9050919050565b60006020820190508181036000830152614895816142ab565b9050919050565b600060208201905081810360008301526148b5816142ce565b9050919050565b600060208201905081810360008301526148d5816142f1565b9050919050565b600060208201905081810360008301526148f581614314565b9050919050565b6000602082019050818103600083015261491581614337565b9050919050565b600060208201905081810360008301526149358161435a565b9050919050565b600060208201905081810360008301526149558161437d565b9050919050565b60006020820190508181036000830152614975816143a0565b9050919050565b60006020820190508181036000830152614995816143c3565b9050919050565b600060208201905081810360008301526149b5816143e6565b9050919050565b600060208201905081810360008301526149d581614409565b9050919050565b600060208201905081810360008301526149f58161442c565b9050919050565b60006020820190508181036000830152614a158161444f565b9050919050565b60006020820190508181036000830152614a3581614472565b9050919050565b60006020820190508181036000830152614a5581614495565b9050919050565b60006020820190508181036000830152614a75816144b8565b9050919050565b60006020820190508181036000830152614a95816144db565b9050919050565b60006020820190508181036000830152614ab581614521565b9050919050565b60006020820190508181036000830152614ad581614544565b9050919050565b60006020820190508181036000830152614af581614567565b9050919050565b60006020820190508181036000830152614b158161458a565b9050919050565b60006020820190508181036000830152614b35816145ad565b9050919050565b60006020820190508181036000830152614b55816145f3565b9050919050565b6000602082019050614b716000830184614625565b92915050565b6000604082019050614b8c6000830185614625565b614b996020830184614625565b9392505050565b6000614baa614bbb565b9050614bb68282614f27565b919050565b6000604051905090565b600067ffffffffffffffff821115614be057614bdf614fff565b5b602082029050602081019050919050565b600067ffffffffffffffff821115614c0c57614c0b614fff565b5b602082029050602081019050919050565b600067ffffffffffffffff821115614c3857614c37614fff565b5b602082029050602081019050919050565b600067ffffffffffffffff821115614c6457614c63614fff565b5b614c6d82615050565b9050602081019050919050565b600067ffffffffffffffff821115614c9557614c94614fff565b5b614c9e82615050565b9050602081019050919050565b6000819050602082019050919050565b600081519050919050565b600081519050919050565b600081519050919050565b6000602082019050919050565b600082825260208201905092915050565b600082825260208201905092915050565b600082825260208201905092915050565b600081905092915050565b6000614d3282614e7f565b9150614d3d83614e7f565b9250827fffffffffffffffffffffffffffffffffffffffffffffffffffffffffffffffff03821115614d7257614d71614fa1565b5b828201905092915050565b6000614d8882614e7f565b9150614d9383614e7f565b9250817fffffffffffffffffffffffffffffffffffffffffffffffffffffffffffffffff0483118215151615614dcc57614dcb614fa1565b5b828202905092915050565b6000614de282614e7f565b9150614ded83614e7f565b925082821015614e0057614dff614fa1565b5b828203905092915050565b6000614e1682614e5f565b9050919050565b60008115159050919050565b6000819050919050565b60007fffffffff0000000000000000000000000000000000000000000000000000000082169050919050565b600073ffffffffffffffffffffffffffffffffffffffff82169050919050565b6000819050919050565b82818337600083830152505050565b60005b83811015614eb6578082015181840152602081019050614e9b565b83811115614ec5576000848401525b50505050565b6000614ed682614e7f565b91506000821415614eea57614ee9614fa1565b5b600182039050919050565b60006002820490506001821680614f0d57607f821691505b60208210811415614f2157614f20614fd0565b5b50919050565b614f3082615050565b810181811067ffffffffffffffff82111715614f4f57614f4e614fff565b5b80604052505050565b6000614f6382614e7f565b91507fffffffffffffffffffffffffffffffffffffffffffffffffffffffffffffffff821415614f9657614f95614fa1565b5b600182019050919050565b7f4e487b7100000000000000000000000000000000000000000000000000000000600052601160045260246000fd5b7f4e487b7100000000000000000000000000000000000000000000000000000000600052602260045260246000fd5b7f4e487b7100000000000000000000000000000000000000000000000000000000600052604160045260246000fd5b600060033d111561504d5760046000803e61504a600051615061565b90505b90565b6000601f19601f8301169050919050565b60008160e01c9050919050565b7f455243313135353a207472616e7366657220746f206e6f6e204552433131353560008201527f526563656976657220696d706c656d656e746572000000000000000000000000602082015250565b7f537472696e67733a20686578206c656e67746820696e73756666696369656e74600082015250565b7f455243313135353a204552433131353552656365697665722072656a6563746560008201527f6420746f6b656e73000000000000000000000000000000000000000000000000602082015250565b7f4d617820737570706c7920657863656564656400000000000000000000000000600082015250565b7f5061757361626c653a206e6f7420706175736564000000000000000000000000600082015250565b7f5552492063616e206e6f7420626520656d707479000000000000000000000000600082015250565b7f455243313135353a2062616c616e636520717565727920666f7220746865207a60008201527f65726f2061646472657373000000000000000000000000000000000000000000602082015250565b7f4f776e61626c653a206e6577206f776e657220697320746865207a65726f206160008201527f6464726573730000000000000000000000000000000000000000000000000000602082015250565b7f455243313135353a206275726e20616d6f756e7420657863656564732062616c60008201527f616e636500000000000000000000000000000000000000000000000000000000602082015250565b7f49647320616e642055524973206c656e677468206d69736d6174636800000000600082015250565b7f455243313135355061757361626c653a20746f6b656e207472616e736665722060008201527f7768696c65207061757365640000000000000000000000000000000000000000602082015250565b7f455243313135353a2063616c6c6572206973206e6f74206f776e6572206e6f7260008201527f20617070726f7665640000000000000000000000000000000000000000000000602082015250565b7f546865726520697320616e20656d70747920555249206f6e20746865206c697360008201527f7400000000000000000000000000000000000000000000000000000000000000602082015250565b7f4d75737420686176652070617573657220726f6c6520746f2070617573650000600082015250565b7f5061757361626c653a2070617573656400000000000000000000000000000000600082015250565b7f455243313135353a207472616e7366657220746f20746865207a65726f20616460008201527f6472657373000000000000000000000000000000000000000000000000000000602082015250565b7f455243313135353a207472616e736665722063616c6c6572206973206e6f742060008201527f6f776e6572206e6f7220617070726f7665640000000000000000000000000000602082015250565b7f43616e6e6f742073657420757269207477696365000000000000000000000000600082015250565b7f455243313135353a206275726e2066726f6d20746865207a65726f206164647260008201527f6573730000000000000000000000000000000000000000000000000000000000602082015250565b7f455243313135353a20696e73756666696369656e742062616c616e636520666f60008201527f72207472616e7366657200000000000000000000000000000000000000000000602082015250565b7f4f776e61626c653a2063616c6c6572206973206e6f7420746865206f776e6572600082015250565b7f416363657373436f6e74726f6c3a206163636f756e7420000000000000000000600082015250565b7f455243313135353a2073657474696e6720617070726f76616c2073746174757360008201527f20666f722073656c660000000000000000000000000000000000000000000000602082015250565b7f4d75737420686176652070617573657220726f6c6520746f20756e7061757365600082015250565b7f455243313135353a206163636f756e747320616e6420696473206c656e67746860008201527f206d69736d617463680000000000000000000000000000000000000000000000602082015250565b7f455243313135353a2069647320616e6420616d6f756e7473206c656e6774682060008201527f6d69736d61746368000000000000000000000000000000000000000000000000602082015250565b7f455243313135353a206d696e7420746f20746865207a65726f2061646472657360008201527f7300000000000000000000000000000000000000000000000000000000000000602082015250565b7f206973206d697373696e6720726f6c6520000000000000000000000000000000600082015250565b7f416363657373436f6e74726f6c3a2063616e206f6e6c792072656e6f756e636560008201527f20726f6c657320666f722073656c660000000000000000000000000000000000602082015250565b600060443d10156157a95761582c565b6157b1614bbb565b60043d036004823e80513d602482011167ffffffffffffffff821117156157d957505061582c565b808201805167ffffffffffffffff8111156157f7575050505061582c565b80602083010160043d03850181111561581457505050505061582c565b61582382602001850186614f27565b82955050505050505b90565b61583881614e0b565b811461584357600080fd5b50565b61584f81614e1d565b811461585a57600080fd5b50565b61586681614e29565b811461587157600080fd5b50565b61587d81614e33565b811461588857600080fd5b50565b61589481614e7f565b811461589f57600080fd5b5056fea264697066735822122043448fded9c8096f443949af6f0473f1e6078017f4f8505c9e604e4826a3926364736f6c63430008040033",
  "linkReferences": {},
  "deployedLinkReferences": {}
}