{
  "_format": "hh-sol-artifact-1",
  "contractName": "SoundVerseERC1155",
  "sourceName": "contracts/SoundVerseERC1155.sol",
  "abi": [
    {
      "inputs": [],
      "stateMutability": "nonpayable",
      "type": "constructor"
    },
    {
      "anonymous": false,
      "inputs": [
        {
          "indexed": true,
          "internalType": "address",
          "name": "account",
          "type": "address"
        },
        {
          "indexed": true,
          "internalType": "address",
          "name": "operator",
          "type": "address"
        },
        {
          "indexed": false,
          "internalType": "bool",
          "name": "approved",
          "type": "bool"
        }
      ],
      "name": "ApprovalForAll",
      "type": "event"
    },
    {
      "anonymous": false,
      "inputs": [
        {
          "indexed": true,
          "internalType": "address",
          "name": "previousOwner",
          "type": "address"
        },
        {
          "indexed": true,
          "internalType": "address",
          "name": "newOwner",
          "type": "address"
        }
      ],
      "name": "OwnershipTransferred",
      "type": "event"
    },
    {
      "anonymous": false,
      "inputs": [
        {
          "indexed": false,
          "internalType": "address",
          "name": "account",
          "type": "address"
        }
      ],
      "name": "Paused",
      "type": "event"
    },
    {
      "anonymous": false,
      "inputs": [
        {
          "indexed": true,
          "internalType": "bytes32",
          "name": "role",
          "type": "bytes32"
        },
        {
          "indexed": true,
          "internalType": "bytes32",
          "name": "previousAdminRole",
          "type": "bytes32"
        },
        {
          "indexed": true,
          "internalType": "bytes32",
          "name": "newAdminRole",
          "type": "bytes32"
        }
      ],
      "name": "RoleAdminChanged",
      "type": "event"
    },
    {
      "anonymous": false,
      "inputs": [
        {
          "indexed": true,
          "internalType": "bytes32",
          "name": "role",
          "type": "bytes32"
        },
        {
          "indexed": true,
          "internalType": "address",
          "name": "account",
          "type": "address"
        },
        {
          "indexed": true,
          "internalType": "address",
          "name": "sender",
          "type": "address"
        }
      ],
      "name": "RoleGranted",
      "type": "event"
    },
    {
      "anonymous": false,
      "inputs": [
        {
          "indexed": true,
          "internalType": "bytes32",
          "name": "role",
          "type": "bytes32"
        },
        {
          "indexed": true,
          "internalType": "address",
          "name": "account",
          "type": "address"
        },
        {
          "indexed": true,
          "internalType": "address",
          "name": "sender",
          "type": "address"
        }
      ],
      "name": "RoleRevoked",
      "type": "event"
    },
    {
      "anonymous": false,
      "inputs": [
        {
          "indexed": true,
          "internalType": "address",
          "name": "operator",
          "type": "address"
        },
        {
          "indexed": true,
          "internalType": "address",
          "name": "from",
          "type": "address"
        },
        {
          "indexed": true,
          "internalType": "address",
          "name": "to",
          "type": "address"
        },
        {
          "indexed": false,
          "internalType": "uint256[]",
          "name": "ids",
          "type": "uint256[]"
        },
        {
          "indexed": false,
          "internalType": "uint256[]",
          "name": "values",
          "type": "uint256[]"
        }
      ],
      "name": "TransferBatch",
      "type": "event"
    },
    {
      "anonymous": false,
      "inputs": [
        {
          "indexed": true,
          "internalType": "address",
          "name": "operator",
          "type": "address"
        },
        {
          "indexed": true,
          "internalType": "address",
          "name": "from",
          "type": "address"
        },
        {
          "indexed": true,
          "internalType": "address",
          "name": "to",
          "type": "address"
        },
        {
          "indexed": false,
          "internalType": "uint256",
          "name": "id",
          "type": "uint256"
        },
        {
          "indexed": false,
          "internalType": "uint256",
          "name": "value",
          "type": "uint256"
        }
      ],
      "name": "TransferSingle",
      "type": "event"
    },
    {
      "anonymous": false,
      "inputs": [
        {
          "indexed": false,
          "internalType": "string",
          "name": "value",
          "type": "string"
        },
        {
          "indexed": true,
          "internalType": "uint256",
          "name": "id",
          "type": "uint256"
        }
      ],
      "name": "URI",
      "type": "event"
    },
    {
      "anonymous": false,
      "inputs": [
        {
          "indexed": false,
          "internalType": "address",
          "name": "account",
          "type": "address"
        }
      ],
      "name": "Unpaused",
      "type": "event"
    },
    {
      "inputs": [],
      "name": "DEFAULT_ADMIN_ROLE",
      "outputs": [
        {
          "internalType": "bytes32",
          "name": "",
          "type": "bytes32"
        }
      ],
      "stateMutability": "view",
      "type": "function"
    },
    {
      "inputs": [],
      "name": "PAUSER_ROLE",
      "outputs": [
        {
          "internalType": "bytes32",
          "name": "",
          "type": "bytes32"
        }
      ],
      "stateMutability": "view",
      "type": "function"
    },
    {
      "inputs": [
        {
          "internalType": "address",
          "name": "account",
          "type": "address"
        },
        {
          "internalType": "uint256",
          "name": "id",
          "type": "uint256"
        }
      ],
      "name": "balanceOf",
      "outputs": [
        {
          "internalType": "uint256",
          "name": "",
          "type": "uint256"
        }
      ],
      "stateMutability": "view",
      "type": "function"
    },
    {
      "inputs": [
        {
          "internalType": "address[]",
          "name": "accounts",
          "type": "address[]"
        },
        {
          "internalType": "uint256[]",
          "name": "ids",
          "type": "uint256[]"
        }
      ],
      "name": "balanceOfBatch",
      "outputs": [
        {
          "internalType": "uint256[]",
          "name": "",
          "type": "uint256[]"
        }
      ],
      "stateMutability": "view",
      "type": "function"
    },
    {
      "inputs": [
        {
          "internalType": "address",
          "name": "account",
          "type": "address"
        },
        {
          "internalType": "uint256",
          "name": "id",
          "type": "uint256"
        },
        {
          "internalType": "uint256",
          "name": "value",
          "type": "uint256"
        }
      ],
      "name": "burn",
      "outputs": [],
      "stateMutability": "nonpayable",
      "type": "function"
    },
    {
      "inputs": [
        {
          "internalType": "address",
          "name": "account",
          "type": "address"
        },
        {
          "internalType": "uint256[]",
          "name": "ids",
          "type": "uint256[]"
        },
        {
          "internalType": "uint256[]",
          "name": "values",
          "type": "uint256[]"
        }
      ],
      "name": "burnBatch",
      "outputs": [],
      "stateMutability": "nonpayable",
      "type": "function"
    },
    {
      "inputs": [
        {
          "internalType": "bytes32",
          "name": "role",
          "type": "bytes32"
        }
      ],
      "name": "getRoleAdmin",
      "outputs": [
        {
          "internalType": "bytes32",
          "name": "",
          "type": "bytes32"
        }
      ],
      "stateMutability": "view",
      "type": "function"
    },
    {
      "inputs": [
        {
          "internalType": "bytes32",
          "name": "role",
          "type": "bytes32"
        },
        {
          "internalType": "uint256",
          "name": "index",
          "type": "uint256"
        }
      ],
      "name": "getRoleMember",
      "outputs": [
        {
          "internalType": "address",
          "name": "",
          "type": "address"
        }
      ],
      "stateMutability": "view",
      "type": "function"
    },
    {
      "inputs": [
        {
          "internalType": "bytes32",
          "name": "role",
          "type": "bytes32"
        }
      ],
      "name": "getRoleMemberCount",
      "outputs": [
        {
          "internalType": "uint256",
          "name": "",
          "type": "uint256"
        }
      ],
      "stateMutability": "view",
      "type": "function"
    },
    {
      "inputs": [
        {
          "internalType": "bytes32",
          "name": "role",
          "type": "bytes32"
        },
        {
          "internalType": "address",
          "name": "account",
          "type": "address"
        }
      ],
      "name": "grantRole",
      "outputs": [],
      "stateMutability": "nonpayable",
      "type": "function"
    },
    {
      "inputs": [
        {
          "internalType": "bytes32",
          "name": "role",
          "type": "bytes32"
        },
        {
          "internalType": "address",
          "name": "account",
          "type": "address"
        }
      ],
      "name": "hasRole",
      "outputs": [
        {
          "internalType": "bool",
          "name": "",
          "type": "bool"
        }
      ],
      "stateMutability": "view",
      "type": "function"
    },
    {
      "inputs": [
        {
          "internalType": "address",
          "name": "account",
          "type": "address"
        },
        {
          "internalType": "address",
          "name": "operator",
          "type": "address"
        }
      ],
      "name": "isApprovedForAll",
      "outputs": [
        {
          "internalType": "bool",
          "name": "",
          "type": "bool"
        }
      ],
      "stateMutability": "view",
      "type": "function"
    },
    {
      "inputs": [
        {
          "internalType": "address",
          "name": "_to",
          "type": "address"
        },
        {
          "internalType": "string",
          "name": "_mintURI",
          "type": "string"
        },
        {
          "internalType": "uint256",
          "name": "_amount",
          "type": "uint256"
        },
        {
          "internalType": "bytes",
          "name": "_erc721Reference",
          "type": "bytes"
        }
      ],
      "name": "mintLicenses",
      "outputs": [],
      "stateMutability": "nonpayable",
      "type": "function"
    },
    {
      "inputs": [],
      "name": "owner",
      "outputs": [
        {
          "internalType": "address",
          "name": "",
          "type": "address"
        }
      ],
      "stateMutability": "view",
      "type": "function"
    },
    {
      "inputs": [],
      "name": "pause",
      "outputs": [],
      "stateMutability": "nonpayable",
      "type": "function"
    },
    {
      "inputs": [],
      "name": "paused",
      "outputs": [
        {
          "internalType": "bool",
          "name": "",
          "type": "bool"
        }
      ],
      "stateMutability": "view",
      "type": "function"
    },
    {
      "inputs": [],
      "name": "renounceOwnership",
      "outputs": [],
      "stateMutability": "nonpayable",
      "type": "function"
    },
    {
      "inputs": [
        {
          "internalType": "bytes32",
          "name": "role",
          "type": "bytes32"
        },
        {
          "internalType": "address",
          "name": "account",
          "type": "address"
        }
      ],
      "name": "renounceRole",
      "outputs": [],
      "stateMutability": "nonpayable",
      "type": "function"
    },
    {
      "inputs": [
        {
          "internalType": "bytes32",
          "name": "role",
          "type": "bytes32"
        },
        {
          "internalType": "address",
          "name": "account",
          "type": "address"
        }
      ],
      "name": "revokeRole",
      "outputs": [],
      "stateMutability": "nonpayable",
      "type": "function"
    },
    {
      "inputs": [
        {
          "internalType": "address",
          "name": "from",
          "type": "address"
        },
        {
          "internalType": "address",
          "name": "to",
          "type": "address"
        },
        {
          "internalType": "uint256[]",
          "name": "ids",
          "type": "uint256[]"
        },
        {
          "internalType": "uint256[]",
          "name": "amounts",
          "type": "uint256[]"
        },
        {
          "internalType": "bytes",
          "name": "data",
          "type": "bytes"
        }
      ],
      "name": "safeBatchTransferFrom",
      "outputs": [],
      "stateMutability": "nonpayable",
      "type": "function"
    },
    {
      "inputs": [
        {
          "internalType": "address",
          "name": "from",
          "type": "address"
        },
        {
          "internalType": "address",
          "name": "to",
          "type": "address"
        },
        {
          "internalType": "uint256",
          "name": "id",
          "type": "uint256"
        },
        {
          "internalType": "uint256",
          "name": "amount",
          "type": "uint256"
        },
        {
          "internalType": "bytes",
          "name": "data",
          "type": "bytes"
        }
      ],
      "name": "safeTransferFrom",
      "outputs": [],
      "stateMutability": "nonpayable",
      "type": "function"
    },
    {
      "inputs": [
        {
          "internalType": "address",
          "name": "operator",
          "type": "address"
        },
        {
          "internalType": "bool",
          "name": "approved",
          "type": "bool"
        }
      ],
      "name": "setApprovalForAll",
      "outputs": [],
      "stateMutability": "nonpayable",
      "type": "function"
    },
    {
      "inputs": [
        {
          "internalType": "bytes4",
          "name": "interfaceId",
          "type": "bytes4"
        }
      ],
      "name": "supportsInterface",
      "outputs": [
        {
          "internalType": "bool",
          "name": "",
          "type": "bool"
        }
      ],
      "stateMutability": "view",
      "type": "function"
    },
    {
      "inputs": [],
      "name": "totalTokens",
      "outputs": [
        {
          "internalType": "uint256",
          "name": "",
          "type": "uint256"
        }
      ],
      "stateMutability": "view",
      "type": "function"
    },
    {
      "inputs": [
        {
          "internalType": "address",
          "name": "newOwner",
          "type": "address"
        }
      ],
      "name": "transferOwnership",
      "outputs": [],
      "stateMutability": "nonpayable",
      "type": "function"
    },
    {
      "inputs": [],
      "name": "unpause",
      "outputs": [],
      "stateMutability": "nonpayable",
      "type": "function"
    },
    {
      "inputs": [
        {
          "internalType": "uint256",
          "name": "tokenId",
          "type": "uint256"
        }
      ],
      "name": "uri",
      "outputs": [
        {
          "internalType": "string",
          "name": "",
          "type": "string"
        }
      ],
      "stateMutability": "view",
      "type": "function"
    }
  ],
  "bytecode": "0x60806040523480156200001157600080fd5b50604051806020016040528060008152506200003381620000da60201b60201c565b506000600560006101000a81548160ff0219169083151502179055506200006f62000063620000f660201b60201c565b620000fe60201b60201c565b620000936000801b62000087620000f660201b60201c565b620001c460201b60201c565b620000d47f65d7a28e3265b37a6474929f336521b332c1681b933f6cb9f3376673440d862a620000c8620000f660201b60201c565b620001c460201b60201c565b62000567565b8060049080519060200190620000f292919062000452565b5050565b600033905090565b6000600560019054906101000a900473ffffffffffffffffffffffffffffffffffffffff16905081600560016101000a81548173ffffffffffffffffffffffffffffffffffffffff021916908373ffffffffffffffffffffffffffffffffffffffff1602179055508173ffffffffffffffffffffffffffffffffffffffff168173ffffffffffffffffffffffffffffffffffffffff167f8be0079c531659141344cd1fd0a4f28419497f9722a3daafe3b4186f6b6457e060405160405180910390a35050565b620001d68282620001da60201b60201c565b5050565b620001f182826200022260201b620010451760201c565b6200021d81600160008581526020019081526020016000206200031360201b620011251790919060201c565b505050565b6200023482826200034b60201b60201c565b6200030f57600160008084815260200190815260200160002060000160008373ffffffffffffffffffffffffffffffffffffffff1673ffffffffffffffffffffffffffffffffffffffff16815260200190815260200160002060006101000a81548160ff021916908315150217905550620002b4620000f660201b60201c565b73ffffffffffffffffffffffffffffffffffffffff168173ffffffffffffffffffffffffffffffffffffffff16837f2f8788117e7eff1d82e926ec794901d17c78024a50270940304540a733656f0d60405160405180910390a45b5050565b600062000343836000018373ffffffffffffffffffffffffffffffffffffffff1660001b620003b560201b60201c565b905092915050565b600080600084815260200190815260200160002060000160008373ffffffffffffffffffffffffffffffffffffffff1673ffffffffffffffffffffffffffffffffffffffff16815260200190815260200160002060009054906101000a900460ff16905092915050565b6000620003c983836200042f60201b60201c565b6200042457826000018290806001815401808255809150506001900390600052602060002001600090919091909150558260000180549050836001016000848152602001908152602001600020819055506001905062000429565b600090505b92915050565b600080836001016000848152602001908152602001600020541415905092915050565b828054620004609062000502565b90600052602060002090601f016020900481019282620004845760008555620004d0565b82601f106200049f57805160ff1916838001178555620004d0565b82800160010185558215620004d0579182015b82811115620004cf578251825591602001919060010190620004b2565b5b509050620004df9190620004e3565b5090565b5b80821115620004fe576000816000905550600101620004e4565b5090565b600060028204905060018216806200051b57607f821691505b6020821081141562000532576200053162000538565b5b50919050565b7f4e487b7100000000000000000000000000000000000000000000000000000000600052602260045260246000fd5b614f9680620005776000396000f3fe608060405234801561001057600080fd5b50600436106101a85760003560e01c80637e1c0c09116100f9578063ca15c87311610097578063e985e9c511610071578063e985e9c5146104a5578063f242432a146104d5578063f2fde38b146104f1578063f5298aca1461050d576101a8565b8063ca15c8731461043b578063d547741f1461046b578063e63ab1e914610487576101a8565b80639010d07c116100d35780639010d07c146103a157806391d14854146103d1578063a217fddf14610401578063a22cb4651461041f576101a8565b80637e1c0c091461035b5780638456cb59146103795780638da5cb5b14610383576101a8565b80633306029d116101665780634e1273f4116101405780634e1273f4146102e75780635c975abb146103175780636b20c45414610335578063715018a614610351576101a8565b80633306029d146102a557806336568abe146102c15780633f4ba83a146102dd576101a8565b8062fdd58e146101ad57806301ffc9a7146101dd5780630e89341c1461020d578063248a9ca31461023d5780632eb2c2d61461026d5780632f2ff15d14610289575b600080fd5b6101c760048036038101906101c29190613786565b610529565b6040516101d49190614310565b60405180910390f35b6101f760048036038101906101f2919061391e565b6105f3565b6040516102049190613fd8565b60405180910390f35b61022760048036038101906102229190613970565b610605565b604051610234919061400e565b60405180910390f35b6102576004803603810190610252919061387d565b6106aa565b6040516102649190613ff3565b60405180910390f35b610287600480360381019061028291906134ea565b6106c9565b005b6102a3600480360381019061029e91906138a6565b61076a565b005b6102bf60048036038101906102ba91906136f3565b610793565b005b6102db60048036038101906102d691906138a6565b6107b5565b005b6102e5610838565b005b61030160048036038101906102fc9190613811565b6108b2565b60405161030e9190613f7f565b60405180910390f35b61031f610a63565b60405161032c9190613fd8565b60405180910390f35b61034f600480360381019061034a9190613638565b610a7a565b005b610359610b17565b005b610363610b9f565b6040516103709190614310565b60405180910390f35b610381610bb0565b005b61038b610c2a565b6040516103989190613ea2565b60405180910390f35b6103bb60048036038101906103b691906138e2565b610c54565b6040516103c89190613ea2565b60405180910390f35b6103eb60048036038101906103e691906138a6565b610c83565b6040516103f89190613fd8565b60405180910390f35b610409610ced565b6040516104169190613ff3565b60405180910390f35b610439600480360381019061043491906136b7565b610cf4565b005b6104556004803603810190610450919061387d565b610d0a565b6040516104629190614310565b60405180910390f35b610485600480360381019061048091906138a6565b610d2e565b005b61048f610d57565b60405161049c9190613ff3565b60405180910390f35b6104bf60048036038101906104ba91906134ae565b610d7b565b6040516104cc9190613fd8565b60405180910390f35b6104ef60048036038101906104ea91906135a9565b610e0f565b005b61050b60048036038101906105069190613485565b610eb0565b005b610527600480360381019061052291906137c2565b610fa8565b005b60008073ffffffffffffffffffffffffffffffffffffffff168373ffffffffffffffffffffffffffffffffffffffff16141561059a576040517f08c379a0000000000000000000000000000000000000000000000000000000008152600401610591906140b0565b60405180910390fd5b6002600083815260200190815260200160002060008473ffffffffffffffffffffffffffffffffffffffff1673ffffffffffffffffffffffffffffffffffffffff16815260200190815260200160002054905092915050565b60006105fe82611155565b9050919050565b60606007600083815260200190815260200160002080546106259061467d565b80601f01602080910402602001604051908101604052809291908181526020018280546106519061467d565b801561069e5780601f106106735761010080835404028352916020019161069e565b820191906000526020600020905b81548152906001019060200180831161068157829003601f168201915b50505050509050919050565b6000806000838152602001908152602001600020600101549050919050565b6106d1611237565b73ffffffffffffffffffffffffffffffffffffffff168573ffffffffffffffffffffffffffffffffffffffff161480610717575061071685610711611237565b610d7b565b5b610756576040517f08c379a000000000000000000000000000000000000000000000000000000000815260040161074d906141b0565b60405180910390fd5b610763858585858561123f565b5050505050565b610773826106aa565b6107848161077f611237565b6115a2565b61078e838361163f565b505050565b600061079f6006611673565b90506107ae8582868686611681565b5050505050565b6107bd611237565b73ffffffffffffffffffffffffffffffffffffffff168173ffffffffffffffffffffffffffffffffffffffff161461082a576040517f08c379a0000000000000000000000000000000000000000000000000000000008152600401610821906142f0565b60405180910390fd5b61083482826116a8565b5050565b6108697f65d7a28e3265b37a6474929f336521b332c1681b933f6cb9f3376673440d862a610864611237565b610c83565b6108a8576040517f08c379a000000000000000000000000000000000000000000000000000000000815260040161089f90614270565b60405180910390fd5b6108b06116dc565b565b606081518351146108f8576040517f08c379a00000000000000000000000000000000000000000000000000000000081526004016108ef90614290565b60405180910390fd5b6000835167ffffffffffffffff81111561093b577f4e487b7100000000000000000000000000000000000000000000000000000000600052604160045260246000fd5b6040519080825280602002602001820160405280156109695781602001602082028036833780820191505090505b50905060005b8451811015610a5857610a028582815181106109b4577f4e487b7100000000000000000000000000000000000000000000000000000000600052603260045260246000fd5b60200260200101518583815181106109f5577f4e487b7100000000000000000000000000000000000000000000000000000000600052603260045260246000fd5b6020026020010151610529565b828281518110610a3b577f4e487b7100000000000000000000000000000000000000000000000000000000600052603260045260246000fd5b60200260200101818152505080610a51906146e0565b905061096f565b508091505092915050565b6000600560009054906101000a900460ff16905090565b610a82611237565b73ffffffffffffffffffffffffffffffffffffffff168373ffffffffffffffffffffffffffffffffffffffff161480610ac85750610ac783610ac2611237565b610d7b565b5b610b07576040517f08c379a0000000000000000000000000000000000000000000000000000000008152600401610afe90614130565b60405180910390fd5b610b1283838361177e565b505050565b610b1f611237565b73ffffffffffffffffffffffffffffffffffffffff16610b3d610c2a565b73ffffffffffffffffffffffffffffffffffffffff1614610b93576040517f08c379a0000000000000000000000000000000000000000000000000000000008152600401610b8a90614230565b60405180910390fd5b610b9d6000611a7d565b565b6000610bab6006611673565b905090565b610be17f65d7a28e3265b37a6474929f336521b332c1681b933f6cb9f3376673440d862a610bdc611237565b610c83565b610c20576040517f08c379a0000000000000000000000000000000000000000000000000000000008152600401610c1790614150565b60405180910390fd5b610c28611b43565b565b6000600560019054906101000a900473ffffffffffffffffffffffffffffffffffffffff16905090565b6000610c7b8260016000868152602001908152602001600020611be690919063ffffffff16565b905092915050565b600080600084815260200190815260200160002060000160008373ffffffffffffffffffffffffffffffffffffffff1673ffffffffffffffffffffffffffffffffffffffff16815260200190815260200160002060009054906101000a900460ff16905092915050565b6000801b81565b610d06610cff611237565b8383611c00565b5050565b6000610d2760016000848152602001908152602001600020611d6d565b9050919050565b610d37826106aa565b610d4881610d43611237565b6115a2565b610d5283836116a8565b505050565b7f65d7a28e3265b37a6474929f336521b332c1681b933f6cb9f3376673440d862a81565b6000600360008473ffffffffffffffffffffffffffffffffffffffff1673ffffffffffffffffffffffffffffffffffffffff16815260200190815260200160002060008373ffffffffffffffffffffffffffffffffffffffff1673ffffffffffffffffffffffffffffffffffffffff16815260200190815260200160002060009054906101000a900460ff16905092915050565b610e17611237565b73ffffffffffffffffffffffffffffffffffffffff168573ffffffffffffffffffffffffffffffffffffffff161480610e5d5750610e5c85610e57611237565b610d7b565b5b610e9c576040517f08c379a0000000000000000000000000000000000000000000000000000000008152600401610e9390614130565b60405180910390fd5b610ea98585858585611d82565b5050505050565b610eb8611237565b73ffffffffffffffffffffffffffffffffffffffff16610ed6610c2a565b73ffffffffffffffffffffffffffffffffffffffff1614610f2c576040517f08c379a0000000000000000000000000000000000000000000000000000000008152600401610f2390614230565b60405180910390fd5b600073ffffffffffffffffffffffffffffffffffffffff168173ffffffffffffffffffffffffffffffffffffffff161415610f9c576040517f08c379a0000000000000000000000000000000000000000000000000000000008152600401610f93906140d0565b60405180910390fd5b610fa581611a7d565b50565b610fb0611237565b73ffffffffffffffffffffffffffffffffffffffff168373ffffffffffffffffffffffffffffffffffffffff161480610ff65750610ff583610ff0611237565b610d7b565b5b611035576040517f08c379a000000000000000000000000000000000000000000000000000000000815260040161102c90614130565b60405180910390fd5b611040838383612007565b505050565b61104f8282610c83565b61112157600160008084815260200190815260200160002060000160008373ffffffffffffffffffffffffffffffffffffffff1673ffffffffffffffffffffffffffffffffffffffff16815260200190815260200160002060006101000a81548160ff0219169083151502179055506110c6611237565b73ffffffffffffffffffffffffffffffffffffffff168173ffffffffffffffffffffffffffffffffffffffff16837f2f8788117e7eff1d82e926ec794901d17c78024a50270940304540a733656f0d60405160405180910390a45b5050565b600061114d836000018373ffffffffffffffffffffffffffffffffffffffff1660001b612226565b905092915050565b60007fd9b67a26000000000000000000000000000000000000000000000000000000007bffffffffffffffffffffffffffffffffffffffffffffffffffffffff1916827bffffffffffffffffffffffffffffffffffffffffffffffffffffffff1916148061122057507f0e89341c000000000000000000000000000000000000000000000000000000007bffffffffffffffffffffffffffffffffffffffffffffffffffffffff1916827bffffffffffffffffffffffffffffffffffffffffffffffffffffffff1916145b80611230575061122f82612296565b5b9050919050565b600033905090565b8151835114611283576040517f08c379a000000000000000000000000000000000000000000000000000000000815260040161127a906142b0565b60405180910390fd5b600073ffffffffffffffffffffffffffffffffffffffff168473ffffffffffffffffffffffffffffffffffffffff1614156112f3576040517f08c379a00000000000000000000000000000000000000000000000000000000081526004016112ea90614190565b60405180910390fd5b60006112fd611237565b905061130d818787878787612310565b60005b845181101561150d576000858281518110611354577f4e487b7100000000000000000000000000000000000000000000000000000000600052603260045260246000fd5b602002602001015190506000858381518110611399577f4e487b7100000000000000000000000000000000000000000000000000000000600052603260045260246000fd5b6020026020010151905060006002600084815260200190815260200160002060008b73ffffffffffffffffffffffffffffffffffffffff1673ffffffffffffffffffffffffffffffffffffffff1681526020019081526020016000205490508181101561143b576040517f08c379a000000000000000000000000000000000000000000000000000000000815260040161143290614210565b60405180910390fd5b8181036002600085815260200190815260200160002060008c73ffffffffffffffffffffffffffffffffffffffff1673ffffffffffffffffffffffffffffffffffffffff16815260200190815260200160002081905550816002600085815260200190815260200160002060008b73ffffffffffffffffffffffffffffffffffffffff1673ffffffffffffffffffffffffffffffffffffffff16815260200190815260200160002060008282546114f291906144af565b9250508190555050505080611506906146e0565b9050611310565b508473ffffffffffffffffffffffffffffffffffffffff168673ffffffffffffffffffffffffffffffffffffffff168273ffffffffffffffffffffffffffffffffffffffff167f4a39dc06d4c0dbc64b70af90fd698a233a518aa5d07e595d983b8c0526c8f7fb8787604051611584929190613fa1565b60405180910390a461159a818787878787612326565b505050505050565b6115ac8282610c83565b61163b576115d18173ffffffffffffffffffffffffffffffffffffffff16601461250d565b6115df8360001c602061250d565b6040516020016115f0929190613e68565b6040516020818303038152906040526040517f08c379a0000000000000000000000000000000000000000000000000000000008152600401611632919061400e565b60405180910390fd5b5050565b6116498282611045565b61166e816001600085815260200190815260200160002061112590919063ffffffff16565b505050565b600081600001549050919050565b61168b6006612807565b611695848461281d565b6116a1858584846128ab565b5050505050565b6116b28282612a42565b6116d78160016000858152602001908152602001600020612b2390919063ffffffff16565b505050565b6116e4610a63565b611723576040517f08c379a000000000000000000000000000000000000000000000000000000000815260040161171a90614090565b60405180910390fd5b6000600560006101000a81548160ff0219169083151502179055507f5db9ee0a495bf2e6ff9c91a7834c1ba4fdd244a5e8aa4e537bd38aeae4b073aa611767611237565b6040516117749190613ea2565b60405180910390a1565b600073ffffffffffffffffffffffffffffffffffffffff168373ffffffffffffffffffffffffffffffffffffffff1614156117ee576040517f08c379a00000000000000000000000000000000000000000000000000000000081526004016117e5906141f0565b60405180910390fd5b8051825114611832576040517f08c379a0000000000000000000000000000000000000000000000000000000008152600401611829906142b0565b60405180910390fd5b600061183c611237565b905061185c81856000868660405180602001604052806000815250612310565b60005b83518110156119f75760008482815181106118a3577f4e487b7100000000000000000000000000000000000000000000000000000000600052603260045260246000fd5b6020026020010151905060008483815181106118e8577f4e487b7100000000000000000000000000000000000000000000000000000000600052603260045260246000fd5b6020026020010151905060006002600084815260200190815260200160002060008973ffffffffffffffffffffffffffffffffffffffff1673ffffffffffffffffffffffffffffffffffffffff1681526020019081526020016000205490508181101561198a576040517f08c379a0000000000000000000000000000000000000000000000000000000008152600401611981906140f0565b60405180910390fd5b8181036002600085815260200190815260200160002060008a73ffffffffffffffffffffffffffffffffffffffff1673ffffffffffffffffffffffffffffffffffffffff1681526020019081526020016000208190555050505080806119ef906146e0565b91505061185f565b50600073ffffffffffffffffffffffffffffffffffffffff168473ffffffffffffffffffffffffffffffffffffffff168273ffffffffffffffffffffffffffffffffffffffff167f4a39dc06d4c0dbc64b70af90fd698a233a518aa5d07e595d983b8c0526c8f7fb8686604051611a6f929190613fa1565b60405180910390a450505050565b6000600560019054906101000a900473ffffffffffffffffffffffffffffffffffffffff16905081600560016101000a81548173ffffffffffffffffffffffffffffffffffffffff021916908373ffffffffffffffffffffffffffffffffffffffff1602179055508173ffffffffffffffffffffffffffffffffffffffff168173ffffffffffffffffffffffffffffffffffffffff167f8be0079c531659141344cd1fd0a4f28419497f9722a3daafe3b4186f6b6457e060405160405180910390a35050565b611b4b610a63565b15611b8b576040517f08c379a0000000000000000000000000000000000000000000000000000000008152600401611b8290614170565b60405180910390fd5b6001600560006101000a81548160ff0219169083151502179055507f62e78cea01bee320cd4e420270b5ea74000d11b0c9f74754ebdbfc544b05a258611bcf611237565b604051611bdc9190613ea2565b60405180910390a1565b6000611bf58360000183612b53565b60001c905092915050565b8173ffffffffffffffffffffffffffffffffffffffff168373ffffffffffffffffffffffffffffffffffffffff161415611c6f576040517f08c379a0000000000000000000000000000000000000000000000000000000008152600401611c6690614250565b60405180910390fd5b80600360008573ffffffffffffffffffffffffffffffffffffffff1673ffffffffffffffffffffffffffffffffffffffff16815260200190815260200160002060008473ffffffffffffffffffffffffffffffffffffffff1673ffffffffffffffffffffffffffffffffffffffff16815260200190815260200160002060006101000a81548160ff0219169083151502179055508173ffffffffffffffffffffffffffffffffffffffff168373ffffffffffffffffffffffffffffffffffffffff167f17307eab39ab6107e8899845ad3d59bd9653f200f220920489ca2b5937696c3183604051611d609190613fd8565b60405180910390a3505050565b6000611d7b82600001612ba4565b9050919050565b600073ffffffffffffffffffffffffffffffffffffffff168473ffffffffffffffffffffffffffffffffffffffff161415611df2576040517f08c379a0000000000000000000000000000000000000000000000000000000008152600401611de990614190565b60405180910390fd5b6000611dfc611237565b9050611e1c818787611e0d88612bb5565b611e1688612bb5565b87612310565b60006002600086815260200190815260200160002060008873ffffffffffffffffffffffffffffffffffffffff1673ffffffffffffffffffffffffffffffffffffffff16815260200190815260200160002054905083811015611eb4576040517f08c379a0000000000000000000000000000000000000000000000000000000008152600401611eab90614210565b60405180910390fd5b8381036002600087815260200190815260200160002060008973ffffffffffffffffffffffffffffffffffffffff1673ffffffffffffffffffffffffffffffffffffffff16815260200190815260200160002081905550836002600087815260200190815260200160002060008873ffffffffffffffffffffffffffffffffffffffff1673ffffffffffffffffffffffffffffffffffffffff1681526020019081526020016000206000828254611f6b91906144af565b925050819055508573ffffffffffffffffffffffffffffffffffffffff168773ffffffffffffffffffffffffffffffffffffffff168373ffffffffffffffffffffffffffffffffffffffff167fc3d58168c5ae7397731d063d5bbf3d657854427343f4c083240f7aacaa2d0f628888604051611fe892919061432b565b60405180910390a4611ffe828888888888612c7b565b50505050505050565b600073ffffffffffffffffffffffffffffffffffffffff168373ffffffffffffffffffffffffffffffffffffffff161415612077576040517f08c379a000000000000000000000000000000000000000000000000000000000815260040161206e906141f0565b60405180910390fd5b6000612081611237565b90506120b18185600061209387612bb5565b61209c87612bb5565b60405180602001604052806000815250612310565b60006002600085815260200190815260200160002060008673ffffffffffffffffffffffffffffffffffffffff1673ffffffffffffffffffffffffffffffffffffffff16815260200190815260200160002054905082811015612149576040517f08c379a0000000000000000000000000000000000000000000000000000000008152600401612140906140f0565b60405180910390fd5b8281036002600086815260200190815260200160002060008773ffffffffffffffffffffffffffffffffffffffff1673ffffffffffffffffffffffffffffffffffffffff16815260200190815260200160002081905550600073ffffffffffffffffffffffffffffffffffffffff168573ffffffffffffffffffffffffffffffffffffffff168373ffffffffffffffffffffffffffffffffffffffff167fc3d58168c5ae7397731d063d5bbf3d657854427343f4c083240f7aacaa2d0f62878760405161221792919061432b565b60405180910390a45050505050565b60006122328383612e62565b61228b578260000182908060018154018082558091505060019003906000526020600020016000909190919091505582600001805490508360010160008481526020019081526020016000208190555060019050612290565b600090505b92915050565b60007f5a05180f000000000000000000000000000000000000000000000000000000007bffffffffffffffffffffffffffffffffffffffffffffffffffffffff1916827bffffffffffffffffffffffffffffffffffffffffffffffffffffffff19161480612309575061230882612e85565b5b9050919050565b61231e868686868686612eff565b505050505050565b6123458473ffffffffffffffffffffffffffffffffffffffff16612f5d565b15612505578373ffffffffffffffffffffffffffffffffffffffff1663bc197c8187878686866040518663ffffffff1660e01b815260040161238b959493929190613ebd565b602060405180830381600087803b1580156123a557600080fd5b505af19250505080156123d657506040513d601f19601f820116820180604052508101906123d39190613947565b60015b61247c576123e26147b6565b806308c379a0141561243f57506123f7614e57565b806124025750612441565b806040517f08c379a0000000000000000000000000000000000000000000000000000000008152600401612436919061400e565b60405180910390fd5b505b6040517f08c379a000000000000000000000000000000000000000000000000000000000815260040161247390614030565b60405180910390fd5b63bc197c8160e01b7bffffffffffffffffffffffffffffffffffffffffffffffffffffffff1916817bffffffffffffffffffffffffffffffffffffffffffffffffffffffff191614612503576040517f08c379a00000000000000000000000000000000000000000000000000000000081526004016124fa90614070565b60405180910390fd5b505b505050505050565b6060600060028360026125209190614505565b61252a91906144af565b67ffffffffffffffff811115612569577f4e487b7100000000000000000000000000000000000000000000000000000000600052604160045260246000fd5b6040519080825280601f01601f19166020018201604052801561259b5781602001600182028036833780820191505090505b5090507f3000000000000000000000000000000000000000000000000000000000000000816000815181106125f9577f4e487b7100000000000000000000000000000000000000000000000000000000600052603260045260246000fd5b60200101907effffffffffffffffffffffffffffffffffffffffffffffffffffffffffffff1916908160001a9053507f780000000000000000000000000000000000000000000000000000000000000081600181518110612683577f4e487b7100000000000000000000000000000000000000000000000000000000600052603260045260246000fd5b60200101907effffffffffffffffffffffffffffffffffffffffffffffffffffffffffffff1916908160001a905350600060018460026126c39190614505565b6126cd91906144af565b90505b60018111156127b9577f3031323334353637383961626364656600000000000000000000000000000000600f861660108110612735577f4e487b7100000000000000000000000000000000000000000000000000000000600052603260045260246000fd5b1a60f81b828281518110612772577f4e487b7100000000000000000000000000000000000000000000000000000000600052603260045260246000fd5b60200101907effffffffffffffffffffffffffffffffffffffffffffffffffffffffffffff1916908160001a905350600485901c9450806127b290614653565b90506126d0565b50600084146127fd576040517f08c379a00000000000000000000000000000000000000000000000000000000081526004016127f490614050565b60405180910390fd5b8091505092915050565b6001816000016000828254019250508190555050565b600060076000848152602001908152602001600020805461283d9061467d565b90501461287f576040517f08c379a0000000000000000000000000000000000000000000000000000000008152600401612876906141d0565b60405180910390fd5b806007600084815260200190815260200160002090805190602001906128a6929190613168565b505050565b600073ffffffffffffffffffffffffffffffffffffffff168473ffffffffffffffffffffffffffffffffffffffff16141561291b576040517f08c379a0000000000000000000000000000000000000000000000000000000008152600401612912906142d0565b60405180910390fd5b6000612925611237565b90506129468160008761293788612bb5565b61294088612bb5565b87612310565b826002600086815260200190815260200160002060008773ffffffffffffffffffffffffffffffffffffffff1673ffffffffffffffffffffffffffffffffffffffff16815260200190815260200160002060008282546129a691906144af565b925050819055508473ffffffffffffffffffffffffffffffffffffffff16600073ffffffffffffffffffffffffffffffffffffffff168273ffffffffffffffffffffffffffffffffffffffff167fc3d58168c5ae7397731d063d5bbf3d657854427343f4c083240f7aacaa2d0f628787604051612a2492919061432b565b60405180910390a4612a3b81600087878787612c7b565b5050505050565b612a4c8282610c83565b15612b1f57600080600084815260200190815260200160002060000160008373ffffffffffffffffffffffffffffffffffffffff1673ffffffffffffffffffffffffffffffffffffffff16815260200190815260200160002060006101000a81548160ff021916908315150217905550612ac4611237565b73ffffffffffffffffffffffffffffffffffffffff168173ffffffffffffffffffffffffffffffffffffffff16837ff6391f5c32d9c69d2a47ea670b442974b53935d1edc7fd64eb21e047a839171b60405160405180910390a45b5050565b6000612b4b836000018373ffffffffffffffffffffffffffffffffffffffff1660001b612f70565b905092915050565b6000826000018281548110612b91577f4e487b7100000000000000000000000000000000000000000000000000000000600052603260045260246000fd5b9060005260206000200154905092915050565b600081600001805490509050919050565b60606000600167ffffffffffffffff811115612bfa577f4e487b7100000000000000000000000000000000000000000000000000000000600052604160045260246000fd5b604051908082528060200260200182016040528015612c285781602001602082028036833780820191505090505b5090508281600081518110612c66577f4e487b7100000000000000000000000000000000000000000000000000000000600052603260045260246000fd5b60200260200101818152505080915050919050565b612c9a8473ffffffffffffffffffffffffffffffffffffffff16612f5d565b15612e5a578373ffffffffffffffffffffffffffffffffffffffff1663f23a6e6187878686866040518663ffffffff1660e01b8152600401612ce0959493929190613f25565b602060405180830381600087803b158015612cfa57600080fd5b505af1925050508015612d2b57506040513d601f19601f82011682018060405250810190612d289190613947565b60015b612dd157612d376147b6565b806308c379a01415612d945750612d4c614e57565b80612d575750612d96565b806040517f08c379a0000000000000000000000000000000000000000000000000000000008152600401612d8b919061400e565b60405180910390fd5b505b6040517f08c379a0000000000000000000000000000000000000000000000000000000008152600401612dc890614030565b60405180910390fd5b63f23a6e6160e01b7bffffffffffffffffffffffffffffffffffffffffffffffffffffffff1916817bffffffffffffffffffffffffffffffffffffffffffffffffffffffff191614612e58576040517f08c379a0000000000000000000000000000000000000000000000000000000008152600401612e4f90614070565b60405180910390fd5b505b505050505050565b600080836001016000848152602001908152602001600020541415905092915050565b60007f7965db0b000000000000000000000000000000000000000000000000000000007bffffffffffffffffffffffffffffffffffffffffffffffffffffffff1916827bffffffffffffffffffffffffffffffffffffffffffffffffffffffff19161480612ef85750612ef7826130f6565b5b9050919050565b612f0d868686868686613160565b612f15610a63565b15612f55576040517f08c379a0000000000000000000000000000000000000000000000000000000008152600401612f4c90614110565b60405180910390fd5b505050505050565b600080823b905060008111915050919050565b600080836001016000848152602001908152602001600020549050600081146130ea576000600182612fa2919061455f565b9050600060018660000180549050612fba919061455f565b9050818114613075576000866000018281548110613001577f4e487b7100000000000000000000000000000000000000000000000000000000600052603260045260246000fd5b906000526020600020015490508087600001848154811061304b577f4e487b7100000000000000000000000000000000000000000000000000000000600052603260045260246000fd5b90600052602060002001819055508387600101600083815260200190815260200160002081905550505b856000018054806130af577f4e487b7100000000000000000000000000000000000000000000000000000000600052603160045260246000fd5b6001900381819060005260206000200160009055905585600101600086815260200190815260200160002060009055600193505050506130f0565b60009150505b92915050565b60007f01ffc9a7000000000000000000000000000000000000000000000000000000007bffffffffffffffffffffffffffffffffffffffffffffffffffffffff1916827bffffffffffffffffffffffffffffffffffffffffffffffffffffffff1916149050919050565b505050505050565b8280546131749061467d565b90600052602060002090601f01602090048101928261319657600085556131dd565b82601f106131af57805160ff19168380011785556131dd565b828001600101855582156131dd579182015b828111156131dc5782518255916020019190600101906131c1565b5b5090506131ea91906131ee565b5090565b5b808211156132075760008160009055506001016131ef565b5090565b600061321e61321984614379565b614354565b9050808382526020820190508285602086028201111561323d57600080fd5b60005b8581101561326d5781613253888261335f565b845260208401935060208301925050600181019050613240565b5050509392505050565b600061328a613285846143a5565b614354565b905080838252602082019050828560208602820111156132a957600080fd5b60005b858110156132d957816132bf8882613470565b8452602084019350602083019250506001810190506132ac565b5050509392505050565b60006132f66132f1846143d1565b614354565b90508281526020810184848401111561330e57600080fd5b613319848285614611565b509392505050565b600061333461332f84614402565b614354565b90508281526020810184848401111561334c57600080fd5b613357848285614611565b509392505050565b60008135905061336e81614eed565b92915050565b600082601f83011261338557600080fd5b813561339584826020860161320b565b91505092915050565b600082601f8301126133af57600080fd5b81356133bf848260208601613277565b91505092915050565b6000813590506133d781614f04565b92915050565b6000813590506133ec81614f1b565b92915050565b60008135905061340181614f32565b92915050565b60008151905061341681614f32565b92915050565b600082601f83011261342d57600080fd5b813561343d8482602086016132e3565b91505092915050565b600082601f83011261345757600080fd5b8135613467848260208601613321565b91505092915050565b60008135905061347f81614f49565b92915050565b60006020828403121561349757600080fd5b60006134a58482850161335f565b91505092915050565b600080604083850312156134c157600080fd5b60006134cf8582860161335f565b92505060206134e08582860161335f565b9150509250929050565b600080600080600060a0868803121561350257600080fd5b60006135108882890161335f565b95505060206135218882890161335f565b945050604086013567ffffffffffffffff81111561353e57600080fd5b61354a8882890161339e565b935050606086013567ffffffffffffffff81111561356757600080fd5b6135738882890161339e565b925050608086013567ffffffffffffffff81111561359057600080fd5b61359c8882890161341c565b9150509295509295909350565b600080600080600060a086880312156135c157600080fd5b60006135cf8882890161335f565b95505060206135e08882890161335f565b94505060406135f188828901613470565b935050606061360288828901613470565b925050608086013567ffffffffffffffff81111561361f57600080fd5b61362b8882890161341c565b9150509295509295909350565b60008060006060848603121561364d57600080fd5b600061365b8682870161335f565b935050602084013567ffffffffffffffff81111561367857600080fd5b6136848682870161339e565b925050604084013567ffffffffffffffff8111156136a157600080fd5b6136ad8682870161339e565b9150509250925092565b600080604083850312156136ca57600080fd5b60006136d88582860161335f565b92505060206136e9858286016133c8565b9150509250929050565b6000806000806080858703121561370957600080fd5b60006137178782880161335f565b945050602085013567ffffffffffffffff81111561373457600080fd5b61374087828801613446565b935050604061375187828801613470565b925050606085013567ffffffffffffffff81111561376e57600080fd5b61377a8782880161341c565b91505092959194509250565b6000806040838503121561379957600080fd5b60006137a78582860161335f565b92505060206137b885828601613470565b9150509250929050565b6000806000606084860312156137d757600080fd5b60006137e58682870161335f565b93505060206137f686828701613470565b925050604061380786828701613470565b9150509250925092565b6000806040838503121561382457600080fd5b600083013567ffffffffffffffff81111561383e57600080fd5b61384a85828601613374565b925050602083013567ffffffffffffffff81111561386757600080fd5b6138738582860161339e565b9150509250929050565b60006020828403121561388f57600080fd5b600061389d848285016133dd565b91505092915050565b600080604083850312156138b957600080fd5b60006138c7858286016133dd565b92505060206138d88582860161335f565b9150509250929050565b600080604083850312156138f557600080fd5b6000613903858286016133dd565b925050602061391485828601613470565b9150509250929050565b60006020828403121561393057600080fd5b600061393e848285016133f2565b91505092915050565b60006020828403121561395957600080fd5b600061396784828501613407565b91505092915050565b60006020828403121561398257600080fd5b600061399084828501613470565b91505092915050565b60006139a58383613e4a565b60208301905092915050565b6139ba81614593565b82525050565b60006139cb82614443565b6139d58185614471565b93506139e083614433565b8060005b83811015613a115781516139f88882613999565b9750613a0383614464565b9250506001810190506139e4565b5085935050505092915050565b613a27816145a5565b82525050565b613a36816145b1565b82525050565b6000613a478261444e565b613a518185614482565b9350613a61818560208601614620565b613a6a816147d8565b840191505092915050565b6000613a8082614459565b613a8a8185614493565b9350613a9a818560208601614620565b613aa3816147d8565b840191505092915050565b6000613ab982614459565b613ac381856144a4565b9350613ad3818560208601614620565b80840191505092915050565b6000613aec603483614493565b9150613af7826147f6565b604082019050919050565b6000613b0f602083614493565b9150613b1a82614845565b602082019050919050565b6000613b32602883614493565b9150613b3d8261486e565b604082019050919050565b6000613b55601483614493565b9150613b60826148bd565b602082019050919050565b6000613b78602b83614493565b9150613b83826148e6565b604082019050919050565b6000613b9b602683614493565b9150613ba682614935565b604082019050919050565b6000613bbe602483614493565b9150613bc982614984565b604082019050919050565b6000613be1602c83614493565b9150613bec826149d3565b604082019050919050565b6000613c04602983614493565b9150613c0f82614a22565b604082019050919050565b6000613c27601e83614493565b9150613c3282614a71565b602082019050919050565b6000613c4a601083614493565b9150613c5582614a9a565b602082019050919050565b6000613c6d602583614493565b9150613c7882614ac3565b604082019050919050565b6000613c90603283614493565b9150613c9b82614b12565b604082019050919050565b6000613cb3601483614493565b9150613cbe82614b61565b602082019050919050565b6000613cd6602383614493565b9150613ce182614b8a565b604082019050919050565b6000613cf9602a83614493565b9150613d0482614bd9565b604082019050919050565b6000613d1c602083614493565b9150613d2782614c28565b602082019050919050565b6000613d3f6017836144a4565b9150613d4a82614c51565b601782019050919050565b6000613d62602983614493565b9150613d6d82614c7a565b604082019050919050565b6000613d85602083614493565b9150613d9082614cc9565b602082019050919050565b6000613da8602983614493565b9150613db382614cf2565b604082019050919050565b6000613dcb602883614493565b9150613dd682614d41565b604082019050919050565b6000613dee602183614493565b9150613df982614d90565b604082019050919050565b6000613e116011836144a4565b9150613e1c82614ddf565b601182019050919050565b6000613e34602f83614493565b9150613e3f82614e08565b604082019050919050565b613e5381614607565b82525050565b613e6281614607565b82525050565b6000613e7382613d32565b9150613e7f8285613aae565b9150613e8a82613e04565b9150613e968284613aae565b91508190509392505050565b6000602082019050613eb760008301846139b1565b92915050565b600060a082019050613ed260008301886139b1565b613edf60208301876139b1565b8181036040830152613ef181866139c0565b90508181036060830152613f0581856139c0565b90508181036080830152613f198184613a3c565b90509695505050505050565b600060a082019050613f3a60008301886139b1565b613f4760208301876139b1565b613f546040830186613e59565b613f616060830185613e59565b8181036080830152613f738184613a3c565b90509695505050505050565b60006020820190508181036000830152613f9981846139c0565b905092915050565b60006040820190508181036000830152613fbb81856139c0565b90508181036020830152613fcf81846139c0565b90509392505050565b6000602082019050613fed6000830184613a1e565b92915050565b60006020820190506140086000830184613a2d565b92915050565b600060208201905081810360008301526140288184613a75565b905092915050565b6000602082019050818103600083015261404981613adf565b9050919050565b6000602082019050818103600083015261406981613b02565b9050919050565b6000602082019050818103600083015261408981613b25565b9050919050565b600060208201905081810360008301526140a981613b48565b9050919050565b600060208201905081810360008301526140c981613b6b565b9050919050565b600060208201905081810360008301526140e981613b8e565b9050919050565b6000602082019050818103600083015261410981613bb1565b9050919050565b6000602082019050818103600083015261412981613bd4565b9050919050565b6000602082019050818103600083015261414981613bf7565b9050919050565b6000602082019050818103600083015261416981613c1a565b9050919050565b6000602082019050818103600083015261418981613c3d565b9050919050565b600060208201905081810360008301526141a981613c60565b9050919050565b600060208201905081810360008301526141c981613c83565b9050919050565b600060208201905081810360008301526141e981613ca6565b9050919050565b6000602082019050818103600083015261420981613cc9565b9050919050565b6000602082019050818103600083015261422981613cec565b9050919050565b6000602082019050818103600083015261424981613d0f565b9050919050565b6000602082019050818103600083015261426981613d55565b9050919050565b6000602082019050818103600083015261428981613d78565b9050919050565b600060208201905081810360008301526142a981613d9b565b9050919050565b600060208201905081810360008301526142c981613dbe565b9050919050565b600060208201905081810360008301526142e981613de1565b9050919050565b6000602082019050818103600083015261430981613e27565b9050919050565b60006020820190506143256000830184613e59565b92915050565b60006040820190506143406000830185613e59565b61434d6020830184613e59565b9392505050565b600061435e61436f565b905061436a82826146af565b919050565b6000604051905090565b600067ffffffffffffffff82111561439457614393614787565b5b602082029050602081019050919050565b600067ffffffffffffffff8211156143c0576143bf614787565b5b602082029050602081019050919050565b600067ffffffffffffffff8211156143ec576143eb614787565b5b6143f5826147d8565b9050602081019050919050565b600067ffffffffffffffff82111561441d5761441c614787565b5b614426826147d8565b9050602081019050919050565b6000819050602082019050919050565b600081519050919050565b600081519050919050565b600081519050919050565b6000602082019050919050565b600082825260208201905092915050565b600082825260208201905092915050565b600082825260208201905092915050565b600081905092915050565b60006144ba82614607565b91506144c583614607565b9250827fffffffffffffffffffffffffffffffffffffffffffffffffffffffffffffffff038211156144fa576144f9614729565b5b828201905092915050565b600061451082614607565b915061451b83614607565b9250817fffffffffffffffffffffffffffffffffffffffffffffffffffffffffffffffff048311821515161561455457614553614729565b5b828202905092915050565b600061456a82614607565b915061457583614607565b92508282101561458857614587614729565b5b828203905092915050565b600061459e826145e7565b9050919050565b60008115159050919050565b6000819050919050565b60007fffffffff0000000000000000000000000000000000000000000000000000000082169050919050565b600073ffffffffffffffffffffffffffffffffffffffff82169050919050565b6000819050919050565b82818337600083830152505050565b60005b8381101561463e578082015181840152602081019050614623565b8381111561464d576000848401525b50505050565b600061465e82614607565b9150600082141561467257614671614729565b5b600182039050919050565b6000600282049050600182168061469557607f821691505b602082108114156146a9576146a8614758565b5b50919050565b6146b8826147d8565b810181811067ffffffffffffffff821117156146d7576146d6614787565b5b80604052505050565b60006146eb82614607565b91507fffffffffffffffffffffffffffffffffffffffffffffffffffffffffffffffff82141561471e5761471d614729565b5b600182019050919050565b7f4e487b7100000000000000000000000000000000000000000000000000000000600052601160045260246000fd5b7f4e487b7100000000000000000000000000000000000000000000000000000000600052602260045260246000fd5b7f4e487b7100000000000000000000000000000000000000000000000000000000600052604160045260246000fd5b600060033d11156147d55760046000803e6147d26000516147e9565b90505b90565b6000601f19601f8301169050919050565b60008160e01c9050919050565b7f455243313135353a207472616e7366657220746f206e6f6e204552433131353560008201527f526563656976657220696d706c656d656e746572000000000000000000000000602082015250565b7f537472696e67733a20686578206c656e67746820696e73756666696369656e74600082015250565b7f455243313135353a204552433131353552656365697665722072656a6563746560008201527f6420746f6b656e73000000000000000000000000000000000000000000000000602082015250565b7f5061757361626c653a206e6f7420706175736564000000000000000000000000600082015250565b7f455243313135353a2062616c616e636520717565727920666f7220746865207a60008201527f65726f2061646472657373000000000000000000000000000000000000000000602082015250565b7f4f776e61626c653a206e6577206f776e657220697320746865207a65726f206160008201527f6464726573730000000000000000000000000000000000000000000000000000602082015250565b7f455243313135353a206275726e20616d6f756e7420657863656564732062616c60008201527f616e636500000000000000000000000000000000000000000000000000000000602082015250565b7f455243313135355061757361626c653a20746f6b656e207472616e736665722060008201527f7768696c65207061757365640000000000000000000000000000000000000000602082015250565b7f455243313135353a2063616c6c6572206973206e6f74206f776e6572206e6f7260008201527f20617070726f7665640000000000000000000000000000000000000000000000602082015250565b7f4d75737420686176652070617573657220726f6c6520746f2070617573650000600082015250565b7f5061757361626c653a2070617573656400000000000000000000000000000000600082015250565b7f455243313135353a207472616e7366657220746f20746865207a65726f20616460008201527f6472657373000000000000000000000000000000000000000000000000000000602082015250565b7f455243313135353a207472616e736665722063616c6c6572206973206e6f742060008201527f6f776e6572206e6f7220617070726f7665640000000000000000000000000000602082015250565b7f43616e6e6f742073657420757269207477696365000000000000000000000000600082015250565b7f455243313135353a206275726e2066726f6d20746865207a65726f206164647260008201527f6573730000000000000000000000000000000000000000000000000000000000602082015250565b7f455243313135353a20696e73756666696369656e742062616c616e636520666f60008201527f72207472616e7366657200000000000000000000000000000000000000000000602082015250565b7f4f776e61626c653a2063616c6c6572206973206e6f7420746865206f776e6572600082015250565b7f416363657373436f6e74726f6c3a206163636f756e7420000000000000000000600082015250565b7f455243313135353a2073657474696e6720617070726f76616c2073746174757360008201527f20666f722073656c660000000000000000000000000000000000000000000000602082015250565b7f4d75737420686176652070617573657220726f6c6520746f20756e7061757365600082015250565b7f455243313135353a206163636f756e747320616e6420696473206c656e67746860008201527f206d69736d617463680000000000000000000000000000000000000000000000602082015250565b7f455243313135353a2069647320616e6420616d6f756e7473206c656e6774682060008201527f6d69736d61746368000000000000000000000000000000000000000000000000602082015250565b7f455243313135353a206d696e7420746f20746865207a65726f2061646472657360008201527f7300000000000000000000000000000000000000000000000000000000000000602082015250565b7f206973206d697373696e6720726f6c6520000000000000000000000000000000600082015250565b7f416363657373436f6e74726f6c3a2063616e206f6e6c792072656e6f756e636560008201527f20726f6c657320666f722073656c660000000000000000000000000000000000602082015250565b600060443d1015614e6757614eea565b614e6f61436f565b60043d036004823e80513d602482011167ffffffffffffffff82111715614e97575050614eea565b808201805167ffffffffffffffff811115614eb55750505050614eea565b80602083010160043d038501811115614ed2575050505050614eea565b614ee1826020018501866146af565b82955050505050505b90565b614ef681614593565b8114614f0157600080fd5b50565b614f0d816145a5565b8114614f1857600080fd5b50565b614f24816145b1565b8114614f2f57600080fd5b50565b614f3b816145bb565b8114614f4657600080fd5b50565b614f5281614607565b8114614f5d57600080fd5b5056fea2646970667358221220928123284c8ee8bd7d290b5479fc1310d9251f02fe569f2d2f5c64cc24d4de5d64736f6c63430008040033",
  "linkReferences": {},
  "deployedLinkReferences": {}
}