{
  "_format": "hh-sol-artifact-1",
  "contractName": "SoundVerseERC721",
  "sourceName": "contracts/SoundVerseERC721.sol",
  "abi": [
    {
      "inputs": [
        {
          "internalType": "address",
          "name": "_commonUtilsAddress",
          "type": "address"
        }
      ],
      "stateMutability": "nonpayable",
      "type": "constructor"
    },
    {
      "anonymous": false,
      "inputs": [
        {
          "indexed": true,
          "internalType": "address",
          "name": "owner",
          "type": "address"
        },
        {
          "indexed": true,
          "internalType": "address",
          "name": "approved",
          "type": "address"
        },
        {
          "indexed": true,
          "internalType": "uint256",
          "name": "tokenId",
          "type": "uint256"
        }
      ],
      "name": "Approval",
      "type": "event"
    },
    {
      "anonymous": false,
      "inputs": [
        {
          "indexed": true,
          "internalType": "address",
          "name": "owner",
          "type": "address"
        },
        {
          "indexed": true,
          "internalType": "address",
          "name": "operator",
          "type": "address"
        },
        {
          "indexed": false,
          "internalType": "bool",
          "name": "approved",
          "type": "bool"
        }
      ],
      "name": "ApprovalForAll",
      "type": "event"
    },
    {
      "anonymous": false,
      "inputs": [
        {
          "indexed": true,
          "internalType": "uint256",
          "name": "id",
          "type": "uint256"
        }
      ],
      "name": "MasterMintEvent",
      "type": "event"
    },
    {
      "anonymous": false,
      "inputs": [
        {
          "indexed": true,
          "internalType": "address",
          "name": "previousOwner",
          "type": "address"
        },
        {
          "indexed": true,
          "internalType": "address",
          "name": "newOwner",
          "type": "address"
        }
      ],
      "name": "OwnershipTransferred",
      "type": "event"
    },
    {
      "anonymous": false,
      "inputs": [
        {
          "indexed": false,
          "internalType": "address",
          "name": "account",
          "type": "address"
        }
      ],
      "name": "Paused",
      "type": "event"
    },
    {
      "anonymous": false,
      "inputs": [
        {
          "indexed": true,
          "internalType": "bytes32",
          "name": "role",
          "type": "bytes32"
        },
        {
          "indexed": true,
          "internalType": "bytes32",
          "name": "previousAdminRole",
          "type": "bytes32"
        },
        {
          "indexed": true,
          "internalType": "bytes32",
          "name": "newAdminRole",
          "type": "bytes32"
        }
      ],
      "name": "RoleAdminChanged",
      "type": "event"
    },
    {
      "anonymous": false,
      "inputs": [
        {
          "indexed": true,
          "internalType": "bytes32",
          "name": "role",
          "type": "bytes32"
        },
        {
          "indexed": true,
          "internalType": "address",
          "name": "account",
          "type": "address"
        },
        {
          "indexed": true,
          "internalType": "address",
          "name": "sender",
          "type": "address"
        }
      ],
      "name": "RoleGranted",
      "type": "event"
    },
    {
      "anonymous": false,
      "inputs": [
        {
          "indexed": true,
          "internalType": "bytes32",
          "name": "role",
          "type": "bytes32"
        },
        {
          "indexed": true,
          "internalType": "address",
          "name": "account",
          "type": "address"
        },
        {
          "indexed": true,
          "internalType": "address",
          "name": "sender",
          "type": "address"
        }
      ],
      "name": "RoleRevoked",
      "type": "event"
    },
    {
      "anonymous": false,
      "inputs": [
        {
          "indexed": true,
          "internalType": "address",
          "name": "from",
          "type": "address"
        },
        {
          "indexed": true,
          "internalType": "address",
          "name": "to",
          "type": "address"
        },
        {
          "indexed": true,
          "internalType": "uint256",
          "name": "tokenId",
          "type": "uint256"
        }
      ],
      "name": "Transfer",
      "type": "event"
    },
    {
      "anonymous": false,
      "inputs": [
        {
          "indexed": false,
          "internalType": "address",
          "name": "account",
          "type": "address"
        }
      ],
      "name": "Unpaused",
      "type": "event"
    },
    {
      "inputs": [],
      "name": "DEFAULT_ADMIN_ROLE",
      "outputs": [
        {
          "internalType": "bytes32",
          "name": "",
          "type": "bytes32"
        }
      ],
      "stateMutability": "view",
      "type": "function"
    },
    {
      "inputs": [],
      "name": "MIN_SUPPLY",
      "outputs": [
        {
          "internalType": "uint256",
          "name": "",
          "type": "uint256"
        }
      ],
      "stateMutability": "view",
      "type": "function"
    },
    {
      "inputs": [],
      "name": "PAUSER_ROLE",
      "outputs": [
        {
          "internalType": "bytes32",
          "name": "",
          "type": "bytes32"
        }
      ],
      "stateMutability": "view",
      "type": "function"
    },
    {
      "inputs": [],
      "name": "SV1155",
      "outputs": [
        {
          "internalType": "string",
          "name": "",
          "type": "string"
        }
      ],
      "stateMutability": "view",
      "type": "function"
    },
    {
      "inputs": [
        {
          "internalType": "address",
          "name": "to",
          "type": "address"
        },
        {
          "internalType": "uint256",
          "name": "tokenId",
          "type": "uint256"
        }
      ],
      "name": "approve",
      "outputs": [],
      "stateMutability": "nonpayable",
      "type": "function"
    },
    {
      "inputs": [
        {
          "internalType": "address",
          "name": "owner",
          "type": "address"
        }
      ],
      "name": "balanceOf",
      "outputs": [
        {
          "internalType": "uint256",
          "name": "",
          "type": "uint256"
        }
      ],
      "stateMutability": "view",
      "type": "function"
    },
    {
      "inputs": [
        {
          "internalType": "uint256",
          "name": "tokenId",
          "type": "uint256"
        }
      ],
      "name": "burnUnpublishedItem",
      "outputs": [],
      "stateMutability": "nonpayable",
      "type": "function"
    },
    {
      "inputs": [],
      "name": "commonUtils",
      "outputs": [
        {
          "internalType": "contract ICommonUtils",
          "name": "",
          "type": "address"
        }
      ],
      "stateMutability": "view",
      "type": "function"
    },
    {
      "inputs": [
        {
          "internalType": "string",
          "name": "tokenURI",
          "type": "string"
        },
        {
          "internalType": "uint256",
          "name": "_licensesAmount",
          "type": "uint256"
        }
      ],
      "name": "createMasterItem",
      "outputs": [],
      "stateMutability": "nonpayable",
      "type": "function"
    },
    {
      "inputs": [
        {
          "internalType": "uint256",
          "name": "tokenId",
          "type": "uint256"
        }
      ],
      "name": "getApproved",
      "outputs": [
        {
          "internalType": "address",
          "name": "",
          "type": "address"
        }
      ],
      "stateMutability": "view",
      "type": "function"
    },
    {
      "inputs": [
        {
          "internalType": "bytes32",
          "name": "role",
          "type": "bytes32"
        }
      ],
      "name": "getRoleAdmin",
      "outputs": [
        {
          "internalType": "bytes32",
          "name": "",
          "type": "bytes32"
        }
      ],
      "stateMutability": "view",
      "type": "function"
    },
    {
      "inputs": [
        {
          "internalType": "bytes32",
          "name": "role",
          "type": "bytes32"
        },
        {
          "internalType": "uint256",
          "name": "index",
          "type": "uint256"
        }
      ],
      "name": "getRoleMember",
      "outputs": [
        {
          "internalType": "address",
          "name": "",
          "type": "address"
        }
      ],
      "stateMutability": "view",
      "type": "function"
    },
    {
      "inputs": [
        {
          "internalType": "bytes32",
          "name": "role",
          "type": "bytes32"
        }
      ],
      "name": "getRoleMemberCount",
      "outputs": [
        {
          "internalType": "uint256",
          "name": "",
          "type": "uint256"
        }
      ],
      "stateMutability": "view",
      "type": "function"
    },
    {
      "inputs": [
        {
          "internalType": "bytes32",
          "name": "role",
          "type": "bytes32"
        },
        {
          "internalType": "address",
          "name": "account",
          "type": "address"
        }
      ],
      "name": "grantRole",
      "outputs": [],
      "stateMutability": "nonpayable",
      "type": "function"
    },
    {
      "inputs": [
        {
          "internalType": "bytes32",
          "name": "role",
          "type": "bytes32"
        },
        {
          "internalType": "address",
          "name": "account",
          "type": "address"
        }
      ],
      "name": "hasRole",
      "outputs": [
        {
          "internalType": "bool",
          "name": "",
          "type": "bool"
        }
      ],
      "stateMutability": "view",
      "type": "function"
    },
    {
      "inputs": [
        {
          "internalType": "address",
          "name": "owner",
          "type": "address"
        },
        {
          "internalType": "address",
          "name": "operator",
          "type": "address"
        }
      ],
      "name": "isApprovedForAll",
      "outputs": [
        {
          "internalType": "bool",
          "name": "",
          "type": "bool"
        }
      ],
      "stateMutability": "view",
      "type": "function"
    },
    {
      "inputs": [],
      "name": "licensesContract",
      "outputs": [
        {
          "internalType": "contract ISoundVerseERC1155",
          "name": "",
          "type": "address"
        }
      ],
      "stateMutability": "view",
      "type": "function"
    },
    {
      "inputs": [],
      "name": "name",
      "outputs": [
        {
          "internalType": "string",
          "name": "",
          "type": "string"
        }
      ],
      "stateMutability": "view",
      "type": "function"
    },
    {
      "inputs": [],
      "name": "owner",
      "outputs": [
        {
          "internalType": "address",
          "name": "",
          "type": "address"
        }
      ],
      "stateMutability": "view",
      "type": "function"
    },
    {
      "inputs": [
        {
          "internalType": "uint256",
          "name": "tokenId",
          "type": "uint256"
        }
      ],
      "name": "ownerOf",
      "outputs": [
        {
          "internalType": "address",
          "name": "",
          "type": "address"
        }
      ],
      "stateMutability": "view",
      "type": "function"
    },
    {
      "inputs": [],
      "name": "pause",
      "outputs": [],
      "stateMutability": "nonpayable",
      "type": "function"
    },
    {
      "inputs": [],
      "name": "paused",
      "outputs": [
        {
          "internalType": "bool",
          "name": "",
          "type": "bool"
        }
      ],
      "stateMutability": "view",
      "type": "function"
    },
    {
      "inputs": [],
      "name": "renounceOwnership",
      "outputs": [],
      "stateMutability": "nonpayable",
      "type": "function"
    },
    {
      "inputs": [
        {
          "internalType": "bytes32",
          "name": "role",
          "type": "bytes32"
        },
        {
          "internalType": "address",
          "name": "account",
          "type": "address"
        }
      ],
      "name": "renounceRole",
      "outputs": [],
      "stateMutability": "nonpayable",
      "type": "function"
    },
    {
      "inputs": [
        {
          "internalType": "bytes32",
          "name": "role",
          "type": "bytes32"
        },
        {
          "internalType": "address",
          "name": "account",
          "type": "address"
        }
      ],
      "name": "revokeRole",
      "outputs": [],
      "stateMutability": "nonpayable",
      "type": "function"
    },
    {
      "inputs": [
        {
          "internalType": "address",
          "name": "from",
          "type": "address"
        },
        {
          "internalType": "address",
          "name": "to",
          "type": "address"
        },
        {
          "internalType": "uint256",
          "name": "tokenId",
          "type": "uint256"
        }
      ],
      "name": "safeTransferFrom",
      "outputs": [],
      "stateMutability": "nonpayable",
      "type": "function"
    },
    {
      "inputs": [
        {
          "internalType": "address",
          "name": "from",
          "type": "address"
        },
        {
          "internalType": "address",
          "name": "to",
          "type": "address"
        },
        {
          "internalType": "uint256",
          "name": "tokenId",
          "type": "uint256"
        },
        {
          "internalType": "bytes",
          "name": "_data",
          "type": "bytes"
        }
      ],
      "name": "safeTransferFrom",
      "outputs": [],
      "stateMutability": "nonpayable",
      "type": "function"
    },
    {
      "inputs": [
        {
          "internalType": "address",
          "name": "operator",
          "type": "address"
        },
        {
          "internalType": "bool",
          "name": "approved",
          "type": "bool"
        }
      ],
      "name": "setApprovalForAll",
      "outputs": [],
      "stateMutability": "nonpayable",
      "type": "function"
    },
    {
      "inputs": [
        {
          "internalType": "bytes4",
          "name": "interfaceId",
          "type": "bytes4"
        }
      ],
      "name": "supportsInterface",
      "outputs": [
        {
          "internalType": "bool",
          "name": "",
          "type": "bool"
        }
      ],
      "stateMutability": "view",
      "type": "function"
    },
    {
      "inputs": [],
      "name": "symbol",
      "outputs": [
        {
          "internalType": "string",
          "name": "",
          "type": "string"
        }
      ],
      "stateMutability": "view",
      "type": "function"
    },
    {
      "inputs": [
        {
          "internalType": "uint256",
          "name": "tokenId",
          "type": "uint256"
        }
      ],
      "name": "tokenURI",
      "outputs": [
        {
          "internalType": "string",
          "name": "",
          "type": "string"
        }
      ],
      "stateMutability": "view",
      "type": "function"
    },
    {
      "inputs": [],
      "name": "totalTokens",
      "outputs": [
        {
          "internalType": "uint256",
          "name": "",
          "type": "uint256"
        }
      ],
      "stateMutability": "view",
      "type": "function"
    },
    {
      "inputs": [
        {
          "internalType": "address",
          "name": "from",
          "type": "address"
        },
        {
          "internalType": "address",
          "name": "to",
          "type": "address"
        },
        {
          "internalType": "uint256",
          "name": "tokenId",
          "type": "uint256"
        }
      ],
      "name": "transferFrom",
      "outputs": [],
      "stateMutability": "nonpayable",
      "type": "function"
    },
    {
      "inputs": [
        {
          "internalType": "address",
          "name": "newOwner",
          "type": "address"
        }
      ],
      "name": "transferOwnership",
      "outputs": [],
      "stateMutability": "nonpayable",
      "type": "function"
    },
    {
      "inputs": [],
      "name": "unpause",
      "outputs": [],
      "stateMutability": "nonpayable",
      "type": "function"
    }
  ],
  "bytecode": "0x60806040523480156200001157600080fd5b50604051620055d0380380620055d08339818101604052810190620000379190620006ea565b6040518060400160405280601081526020017f536f756e6456657273654d6173746572000000000000000000000000000000008152506040518060400160405280600381526020017f53564d00000000000000000000000000000000000000000000000000000000008152508160029080519060200190620000bb92919062000623565b508060039080519060200190620000d492919062000623565b5050506000600960006101000a81548160ff0219169083151502179055506200011262000106620002c760201b60201c565b620002cf60201b60201c565b620001537f65d7a28e3265b37a6474929f336521b332c1681b933f6cb9f3376673440d862a62000147620002c760201b60201c565b6200039560201b60201c565b80600a60006101000a81548173ffffffffffffffffffffffffffffffffffffffff021916908373ffffffffffffffffffffffffffffffffffffffff1602179055506000600a60009054906101000a900473ffffffffffffffffffffffffffffffffffffffff1673ffffffffffffffffffffffffffffffffffffffff1663824ea29f6040518060400160405280601181526020017f536f756e645665727365455243313135350000000000000000000000000000008152506040518263ffffffff1660e01b815260040162000228919062000757565b60206040518083038186803b1580156200024157600080fd5b505afa15801562000256573d6000803e3d6000fd5b505050506040513d601f19601f820116820180604052508101906200027c9190620006ea565b905080600b60006101000a81548173ffffffffffffffffffffffffffffffffffffffff021916908373ffffffffffffffffffffffffffffffffffffffff160217905550505062000891565b600033905090565b6000600960019054906101000a900473ffffffffffffffffffffffffffffffffffffffff16905081600960016101000a81548173ffffffffffffffffffffffffffffffffffffffff021916908373ffffffffffffffffffffffffffffffffffffffff1602179055508173ffffffffffffffffffffffffffffffffffffffff168173ffffffffffffffffffffffffffffffffffffffff167f8be0079c531659141344cd1fd0a4f28419497f9722a3daafe3b4186f6b6457e060405160405180910390a35050565b620003a78282620003ab60201b60201c565b5050565b620003c28282620003f360201b620013ff1760201c565b620003ee8160016000858152602001908152602001600020620004e460201b620014df1790919060201c565b505050565b6200040582826200051c60201b60201c565b620004e057600160008084815260200190815260200160002060000160008373ffffffffffffffffffffffffffffffffffffffff1673ffffffffffffffffffffffffffffffffffffffff16815260200190815260200160002060006101000a81548160ff02191690831515021790555062000485620002c760201b60201c565b73ffffffffffffffffffffffffffffffffffffffff168173ffffffffffffffffffffffffffffffffffffffff16837f2f8788117e7eff1d82e926ec794901d17c78024a50270940304540a733656f0d60405160405180910390a45b5050565b600062000514836000018373ffffffffffffffffffffffffffffffffffffffff1660001b6200058660201b60201c565b905092915050565b600080600084815260200190815260200160002060000160008373ffffffffffffffffffffffffffffffffffffffff1673ffffffffffffffffffffffffffffffffffffffff16815260200190815260200160002060009054906101000a900460ff16905092915050565b60006200059a83836200060060201b60201c565b620005f5578260000182908060018154018082558091505060019003906000526020600020016000909190919091505582600001805490508360010160008481526020019081526020016000208190555060019050620005fa565b600090505b92915050565b600080836001016000848152602001908152602001600020541415905092915050565b828054620006319062000801565b90600052602060002090601f016020900481019282620006555760008555620006a1565b82601f106200067057805160ff1916838001178555620006a1565b82800160010185558215620006a1579182015b82811115620006a057825182559160200191906001019062000683565b5b509050620006b09190620006b4565b5090565b5b80821115620006cf576000816000905550600101620006b5565b5090565b600081519050620006e48162000877565b92915050565b600060208284031215620006fd57600080fd5b60006200070d84828501620006d3565b91505092915050565b600062000723826200077b565b6200072f818562000786565b935062000741818560208601620007cb565b6200074c8162000866565b840191505092915050565b6000602082019050818103600083015262000773818462000716565b905092915050565b600081519050919050565b600082825260208201905092915050565b6000620007a482620007ab565b9050919050565b600073ffffffffffffffffffffffffffffffffffffffff82169050919050565b60005b83811015620007eb578082015181840152602081019050620007ce565b83811115620007fb576000848401525b50505050565b600060028204905060018216806200081a57607f821691505b6020821081141562000831576200083062000837565b5b50919050565b7f4e487b7100000000000000000000000000000000000000000000000000000000600052602260045260246000fd5b6000601f19601f8301169050919050565b620008828162000797565b81146200088e57600080fd5b50565b614d2f80620008a16000396000f3fe608060405234801561001057600080fd5b50600436106102115760003560e01c80637e1c0c0911610125578063b88d4fde116100ad578063d547741f1161007c578063d547741f146105ee578063e63ab1e91461060a578063e985e9c514610628578063f2fde38b14610658578063f426ca0f1461067457610211565b8063b88d4fde14610556578063c28609c214610572578063c87b56dd1461058e578063ca15c873146105be57610211565b806391d14854116100f457806391d14854146104b057806395d89b41146104e057806397ed1328146104fe578063a217fddf1461051c578063a22cb4651461053a57610211565b80637e1c0c091461043a5780638456cb59146104585780638da5cb5b146104625780639010d07c1461048057610211565b806335917c64116101a85780634457f9bc116101775780634457f9bc146103945780635c975abb146103b25780636352211e146103d057806370a0823114610400578063715018a61461043057610211565b806335917c641461033457806336568abe146103525780633f4ba83a1461036e57806342842e0e1461037857610211565b806323b872dd116101e457806323b872dd146102b0578063248a9ca3146102cc5780632ec7297f146102fc5780632f2ff15d1461031857610211565b806301ffc9a71461021657806306fdde0314610246578063081812fc14610264578063095ea7b314610294575b600080fd5b610230600480360381019061022b9190613633565b610692565b60405161023d9190613d2c565b60405180910390f35b61024e6106a4565b60405161025b9190613d98565b60405180910390f35b61027e6004803603810190610279919061371a565b610736565b60405161028b9190613c72565b60405180910390f35b6102ae60048036038101906102a99190613556565b6107bb565b005b6102ca60048036038101906102c59190613450565b6108d3565b005b6102e660048036038101906102e19190613592565b610933565b6040516102f39190613d47565b60405180910390f35b610316600480360381019061031191906136c6565b610952565b005b610332600480360381019061032d91906135bb565b6109f0565b005b61033c610a19565b60405161034991906140fa565b60405180910390f35b61036c600480360381019061036791906135bb565b610a1e565b005b610376610aa1565b005b610392600480360381019061038d9190613450565b610b1b565b005b61039c610b3b565b6040516103a99190613d7d565b60405180910390f35b6103ba610b61565b6040516103c79190613d2c565b60405180910390f35b6103ea60048036038101906103e5919061371a565b610b78565b6040516103f79190613c72565b60405180910390f35b61041a600480360381019061041591906133eb565b610c2a565b60405161042791906140fa565b60405180910390f35b610438610ce2565b005b610442610d6a565b60405161044f91906140fa565b60405180910390f35b610460610d7b565b005b61046a610df5565b6040516104779190613c72565b60405180910390f35b61049a600480360381019061049591906135f7565b610e1f565b6040516104a79190613c72565b60405180910390f35b6104ca60048036038101906104c591906135bb565b610e4e565b6040516104d79190613d2c565b60405180910390f35b6104e8610eb8565b6040516104f59190613d98565b60405180910390f35b610506610f4a565b6040516105139190613d62565b60405180910390f35b610524610f70565b6040516105319190613d47565b60405180910390f35b610554600480360381019061054f919061351a565b610f77565b005b610570600480360381019061056b919061349f565b610f8d565b005b61058c6004803603810190610587919061371a565b610fef565b005b6105a860048036038101906105a3919061371a565b611077565b6040516105b59190613d98565b60405180910390f35b6105d860048036038101906105d39190613592565b6111c9565b6040516105e591906140fa565b60405180910390f35b610608600480360381019061060391906135bb565b6111ed565b005b610612611216565b60405161061f9190613d47565b60405180910390f35b610642600480360381019061063d9190613414565b61123a565b60405161064f9190613d2c565b60405180910390f35b610672600480360381019061066d91906133eb565b6112ce565b005b61067c6113c6565b6040516106899190613d98565b60405180910390f35b600061069d8261150f565b9050919050565b6060600280546106b390614426565b80601f01602080910402602001604051908101604052809291908181526020018280546106df90614426565b801561072c5780601f106107015761010080835404028352916020019161072c565b820191906000526020600020905b81548152906001019060200180831161070f57829003601f168201915b5050505050905090565b6000610741826115f1565b610780576040517f08c379a000000000000000000000000000000000000000000000000000000000815260040161077790613fda565b60405180910390fd5b6006600083815260200190815260200160002060009054906101000a900473ffffffffffffffffffffffffffffffffffffffff169050919050565b60006107c682610b78565b90508073ffffffffffffffffffffffffffffffffffffffff168373ffffffffffffffffffffffffffffffffffffffff161415610837576040517f08c379a000000000000000000000000000000000000000000000000000000000815260040161082e9061405a565b60405180910390fd5b8073ffffffffffffffffffffffffffffffffffffffff1661085661165d565b73ffffffffffffffffffffffffffffffffffffffff16148061088557506108848161087f61165d565b61123a565b5b6108c4576040517f08c379a00000000000000000000000000000000000000000000000000000000081526004016108bb90613f1a565b60405180910390fd5b6108ce8383611665565b505050565b6108e46108de61165d565b8261171e565b610923576040517f08c379a000000000000000000000000000000000000000000000000000000000815260040161091a9061407a565b60405180910390fd5b61092e8383836117fc565b505050565b6000806000838152602001908152602001600020600101549050919050565b6000825111610996576040517f08c379a000000000000000000000000000000000000000000000000000000000815260040161098d906140ba565b60405180910390fd5b60028110156109da576040517f08c379a00000000000000000000000000000000000000000000000000000000081526004016109d190613e5a565b60405180910390fd5b6109ec6109e561165d565b8383611a58565b5050565b6109f982610933565b610a0a81610a0561165d565b611bf9565b610a148383611c96565b505050565b600281565b610a2661165d565b73ffffffffffffffffffffffffffffffffffffffff168173ffffffffffffffffffffffffffffffffffffffff1614610a93576040517f08c379a0000000000000000000000000000000000000000000000000000000008152600401610a8a906140da565b60405180910390fd5b610a9d8282611cca565b5050565b610ad27f65d7a28e3265b37a6474929f336521b332c1681b933f6cb9f3376673440d862a610acd61165d565b610e4e565b610b11576040517f08c379a0000000000000000000000000000000000000000000000000000000008152600401610b089061409a565b60405180910390fd5b610b19611cfe565b565b610b3683838360405180602001604052806000815250610f8d565b505050565b600b60009054906101000a900473ffffffffffffffffffffffffffffffffffffffff1681565b6000600960009054906101000a900460ff16905090565b6000806004600084815260200190815260200160002060009054906101000a900473ffffffffffffffffffffffffffffffffffffffff169050600073ffffffffffffffffffffffffffffffffffffffff168173ffffffffffffffffffffffffffffffffffffffff161415610c21576040517f08c379a0000000000000000000000000000000000000000000000000000000008152600401610c1890613f5a565b60405180910390fd5b80915050919050565b60008073ffffffffffffffffffffffffffffffffffffffff168273ffffffffffffffffffffffffffffffffffffffff161415610c9b576040517f08c379a0000000000000000000000000000000000000000000000000000000008152600401610c9290613f3a565b60405180910390fd5b600560008373ffffffffffffffffffffffffffffffffffffffff1673ffffffffffffffffffffffffffffffffffffffff168152602001908152602001600020549050919050565b610cea61165d565b73ffffffffffffffffffffffffffffffffffffffff16610d08610df5565b73ffffffffffffffffffffffffffffffffffffffff1614610d5e576040517f08c379a0000000000000000000000000000000000000000000000000000000008152600401610d5590613ffa565b60405180910390fd5b610d686000611da0565b565b6000610d76600c611e66565b905090565b610dac7f65d7a28e3265b37a6474929f336521b332c1681b933f6cb9f3376673440d862a610da761165d565b610e4e565b610deb576040517f08c379a0000000000000000000000000000000000000000000000000000000008152600401610de290613eda565b60405180910390fd5b610df3611e74565b565b6000600960019054906101000a900473ffffffffffffffffffffffffffffffffffffffff16905090565b6000610e468260016000868152602001908152602001600020611f1790919063ffffffff16565b905092915050565b600080600084815260200190815260200160002060000160008373ffffffffffffffffffffffffffffffffffffffff1673ffffffffffffffffffffffffffffffffffffffff16815260200190815260200160002060009054906101000a900460ff16905092915050565b606060038054610ec790614426565b80601f0160208091040260200160405190810160405280929190818152602001828054610ef390614426565b8015610f405780601f10610f1557610100808354040283529160200191610f40565b820191906000526020600020905b815481529060010190602001808311610f2357829003601f168201915b5050505050905090565b600a60009054906101000a900473ffffffffffffffffffffffffffffffffffffffff1681565b6000801b81565b610f89610f8261165d565b8383611f31565b5050565b610f9e610f9861165d565b8361171e565b610fdd576040517f08c379a0000000000000000000000000000000000000000000000000000000008152600401610fd49061407a565b60405180910390fd5b610fe98484848461209e565b50505050565b610ff761165d565b73ffffffffffffffffffffffffffffffffffffffff16611015610df5565b73ffffffffffffffffffffffffffffffffffffffff161461106b576040517f08c379a000000000000000000000000000000000000000000000000000000000815260040161106290613ffa565b60405180910390fd5b611074816120fa565b50565b6060611082826115f1565b6110c1576040517f08c379a00000000000000000000000000000000000000000000000000000000081526004016110b890613fba565b60405180910390fd5b60006008600084815260200190815260200160002080546110e190614426565b80601f016020809104026020016040519081016040528092919081815260200182805461110d90614426565b801561115a5780601f1061112f5761010080835404028352916020019161115a565b820191906000526020600020905b81548152906001019060200180831161113d57829003601f168201915b50505050509050600061116b61214d565b90506000815114156111815781925050506111c4565b6000825111156111b657808260405160200161119e929190613c14565b604051602081830303815290604052925050506111c4565b6111bf84612164565b925050505b919050565b60006111e66001600084815260200190815260200160002061220b565b9050919050565b6111f682610933565b6112078161120261165d565b611bf9565b6112118383611cca565b505050565b7f65d7a28e3265b37a6474929f336521b332c1681b933f6cb9f3376673440d862a81565b6000600760008473ffffffffffffffffffffffffffffffffffffffff1673ffffffffffffffffffffffffffffffffffffffff16815260200190815260200160002060008373ffffffffffffffffffffffffffffffffffffffff1673ffffffffffffffffffffffffffffffffffffffff16815260200190815260200160002060009054906101000a900460ff16905092915050565b6112d661165d565b73ffffffffffffffffffffffffffffffffffffffff166112f4610df5565b73ffffffffffffffffffffffffffffffffffffffff161461134a576040517f08c379a000000000000000000000000000000000000000000000000000000000815260040161134190613ffa565b60405180910390fd5b600073ffffffffffffffffffffffffffffffffffffffff168173ffffffffffffffffffffffffffffffffffffffff1614156113ba576040517f08c379a00000000000000000000000000000000000000000000000000000000081526004016113b190613e1a565b60405180910390fd5b6113c381611da0565b50565b6040518060400160405280601181526020017f536f756e6456657273654552433131353500000000000000000000000000000081525081565b6114098282610e4e565b6114db57600160008084815260200190815260200160002060000160008373ffffffffffffffffffffffffffffffffffffffff1673ffffffffffffffffffffffffffffffffffffffff16815260200190815260200160002060006101000a81548160ff02191690831515021790555061148061165d565b73ffffffffffffffffffffffffffffffffffffffff168173ffffffffffffffffffffffffffffffffffffffff16837f2f8788117e7eff1d82e926ec794901d17c78024a50270940304540a733656f0d60405160405180910390a45b5050565b6000611507836000018373ffffffffffffffffffffffffffffffffffffffff1660001b612220565b905092915050565b60007f80ac58cd000000000000000000000000000000000000000000000000000000007bffffffffffffffffffffffffffffffffffffffffffffffffffffffff1916827bffffffffffffffffffffffffffffffffffffffffffffffffffffffff191614806115da57507f5b5e139f000000000000000000000000000000000000000000000000000000007bffffffffffffffffffffffffffffffffffffffffffffffffffffffff1916827bffffffffffffffffffffffffffffffffffffffffffffffffffffffff1916145b806115ea57506115e982612290565b5b9050919050565b60008073ffffffffffffffffffffffffffffffffffffffff166004600084815260200190815260200160002060009054906101000a900473ffffffffffffffffffffffffffffffffffffffff1673ffffffffffffffffffffffffffffffffffffffff1614159050919050565b600033905090565b816006600083815260200190815260200160002060006101000a81548173ffffffffffffffffffffffffffffffffffffffff021916908373ffffffffffffffffffffffffffffffffffffffff160217905550808273ffffffffffffffffffffffffffffffffffffffff166116d883610b78565b73ffffffffffffffffffffffffffffffffffffffff167f8c5be1e5ebec7d5bd14f71427d1e84f3dd0314c0f7b2291e5b200ac8c7c3b92560405160405180910390a45050565b6000611729826115f1565b611768576040517f08c379a000000000000000000000000000000000000000000000000000000000815260040161175f90613eba565b60405180910390fd5b600061177383610b78565b90508073ffffffffffffffffffffffffffffffffffffffff168473ffffffffffffffffffffffffffffffffffffffff1614806117e257508373ffffffffffffffffffffffffffffffffffffffff166117ca84610736565b73ffffffffffffffffffffffffffffffffffffffff16145b806117f357506117f2818561123a565b5b91505092915050565b8273ffffffffffffffffffffffffffffffffffffffff1661181c82610b78565b73ffffffffffffffffffffffffffffffffffffffff1614611872576040517f08c379a00000000000000000000000000000000000000000000000000000000081526004016118699061401a565b60405180910390fd5b600073ffffffffffffffffffffffffffffffffffffffff168273ffffffffffffffffffffffffffffffffffffffff1614156118e2576040517f08c379a00000000000000000000000000000000000000000000000000000000081526004016118d990613e7a565b60405180910390fd5b6118ed83838361230a565b6118f8600082611665565b6001600560008573ffffffffffffffffffffffffffffffffffffffff1673ffffffffffffffffffffffffffffffffffffffff168152602001908152602001600020600082825461194891906142c0565b925050819055506001600560008473ffffffffffffffffffffffffffffffffffffffff1673ffffffffffffffffffffffffffffffffffffffff168152602001908152602001600020600082825461199f91906141df565b92505081905550816004600083815260200190815260200160002060006101000a81548173ffffffffffffffffffffffffffffffffffffffff021916908373ffffffffffffffffffffffffffffffffffffffff160217905550808273ffffffffffffffffffffffffffffffffffffffff168473ffffffffffffffffffffffffffffffffffffffff167fddf252ad1be2c89b69c2b068fc378daa952ba7f163c4a11628f55a4df523b3ef60405160405180910390a4505050565b6000611a64600c611e66565b9050611a70600c61231a565b611a7a8482612330565b611a84818461234e565b807f69dd88a7ad6d8a464d4369a30cd49589b8b5123fe6382e59dd045b9a540aa26e60405160405180910390a2600b60009054906101000a900473ffffffffffffffffffffffffffffffffffffffff1673ffffffffffffffffffffffffffffffffffffffff16633306029d858585600a60009054906101000a900473ffffffffffffffffffffffffffffffffffffffff1673ffffffffffffffffffffffffffffffffffffffff1663775a8f5e876040518263ffffffff1660e01b8152600401611b4d91906140fa565b60006040518083038186803b158015611b6557600080fd5b505afa158015611b79573d6000803e3d6000fd5b505050506040513d6000823e3d601f19601f82011682018060405250810190611ba29190613685565b6040518563ffffffff1660e01b8152600401611bc19493929190613cd9565b600060405180830381600087803b158015611bdb57600080fd5b505af1158015611bef573d6000803e3d6000fd5b5050505050505050565b611c038282610e4e565b611c9257611c288173ffffffffffffffffffffffffffffffffffffffff1660146123c2565b611c368360001c60206123c2565b604051602001611c47929190613c38565b6040516020818303038152906040526040517f08c379a0000000000000000000000000000000000000000000000000000000008152600401611c899190613d98565b60405180910390fd5b5050565b611ca082826113ff565b611cc581600160008581526020019081526020016000206114df90919063ffffffff16565b505050565b611cd482826126bc565b611cf9816001600085815260200190815260200160002061279d90919063ffffffff16565b505050565b611d06610b61565b611d45576040517f08c379a0000000000000000000000000000000000000000000000000000000008152600401611d3c90613dda565b60405180910390fd5b6000600960006101000a81548160ff0219169083151502179055507f5db9ee0a495bf2e6ff9c91a7834c1ba4fdd244a5e8aa4e537bd38aeae4b073aa611d8961165d565b604051611d969190613c72565b60405180910390a1565b6000600960019054906101000a900473ffffffffffffffffffffffffffffffffffffffff16905081600960016101000a81548173ffffffffffffffffffffffffffffffffffffffff021916908373ffffffffffffffffffffffffffffffffffffffff1602179055508173ffffffffffffffffffffffffffffffffffffffff168173ffffffffffffffffffffffffffffffffffffffff167f8be0079c531659141344cd1fd0a4f28419497f9722a3daafe3b4186f6b6457e060405160405180910390a35050565b600081600001549050919050565b611e7c610b61565b15611ebc576040517f08c379a0000000000000000000000000000000000000000000000000000000008152600401611eb390613efa565b60405180910390fd5b6001600960006101000a81548160ff0219169083151502179055507f62e78cea01bee320cd4e420270b5ea74000d11b0c9f74754ebdbfc544b05a258611f0061165d565b604051611f0d9190613c72565b60405180910390a1565b6000611f2683600001836127cd565b60001c905092915050565b8173ffffffffffffffffffffffffffffffffffffffff168373ffffffffffffffffffffffffffffffffffffffff161415611fa0576040517f08c379a0000000000000000000000000000000000000000000000000000000008152600401611f9790613e9a565b60405180910390fd5b80600760008573ffffffffffffffffffffffffffffffffffffffff1673ffffffffffffffffffffffffffffffffffffffff16815260200190815260200160002060008473ffffffffffffffffffffffffffffffffffffffff1673ffffffffffffffffffffffffffffffffffffffff16815260200190815260200160002060006101000a81548160ff0219169083151502179055508173ffffffffffffffffffffffffffffffffffffffff168373ffffffffffffffffffffffffffffffffffffffff167f17307eab39ab6107e8899845ad3d59bd9653f200f220920489ca2b5937696c31836040516120919190613d2c565b60405180910390a3505050565b6120a98484846117fc565b6120b58484848461281e565b6120f4576040517f08c379a00000000000000000000000000000000000000000000000000000000081526004016120eb90613dfa565b60405180910390fd5b50505050565b612103816129b5565b600060086000838152602001908152602001600020805461212390614426565b90501461214a576008600082815260200190815260200160002060006121499190613152565b5b50565b606060405180602001604052806000815250905090565b606061216f826115f1565b6121ae576040517f08c379a00000000000000000000000000000000000000000000000000000000081526004016121a59061403a565b60405180910390fd5b60006121b861214d565b905060008151116121d85760405180602001604052806000815250612203565b806121e284612ac6565b6040516020016121f3929190613c14565b6040516020818303038152906040525b915050919050565b600061221982600001612c73565b9050919050565b600061222c8383612c84565b61228557826000018290806001815401808255809150506001900390600052602060002001600090919091909150558260000180549050836001016000848152602001908152602001600020819055506001905061228a565b600090505b92915050565b60007f5a05180f000000000000000000000000000000000000000000000000000000007bffffffffffffffffffffffffffffffffffffffffffffffffffffffff1916827bffffffffffffffffffffffffffffffffffffffffffffffffffffffff19161480612303575061230282612ca7565b5b9050919050565b612315838383612d21565b505050565b6001816000016000828254019250508190555050565b61234a828260405180602001604052806000815250612d26565b5050565b612357826115f1565b612396576040517f08c379a000000000000000000000000000000000000000000000000000000000815260040161238d90613f7a565b60405180910390fd5b806008600084815260200190815260200160002090805190602001906123bd929190613192565b505050565b6060600060028360026123d59190614266565b6123df91906141df565b67ffffffffffffffff81111561241e577f4e487b7100000000000000000000000000000000000000000000000000000000600052604160045260246000fd5b6040519080825280601f01601f1916602001820160405280156124505781602001600182028036833780820191505090505b5090507f3000000000000000000000000000000000000000000000000000000000000000816000815181106124ae577f4e487b7100000000000000000000000000000000000000000000000000000000600052603260045260246000fd5b60200101907effffffffffffffffffffffffffffffffffffffffffffffffffffffffffffff1916908160001a9053507f780000000000000000000000000000000000000000000000000000000000000081600181518110612538577f4e487b7100000000000000000000000000000000000000000000000000000000600052603260045260246000fd5b60200101907effffffffffffffffffffffffffffffffffffffffffffffffffffffffffffff1916908160001a905350600060018460026125789190614266565b61258291906141df565b90505b600181111561266e577f3031323334353637383961626364656600000000000000000000000000000000600f8616601081106125ea577f4e487b7100000000000000000000000000000000000000000000000000000000600052603260045260246000fd5b1a60f81b828281518110612627577f4e487b7100000000000000000000000000000000000000000000000000000000600052603260045260246000fd5b60200101907effffffffffffffffffffffffffffffffffffffffffffffffffffffffffffff1916908160001a905350600485901c945080612667906143fc565b9050612585565b50600084146126b2576040517f08c379a00000000000000000000000000000000000000000000000000000000081526004016126a990613dba565b60405180910390fd5b8091505092915050565b6126c68282610e4e565b1561279957600080600084815260200190815260200160002060000160008373ffffffffffffffffffffffffffffffffffffffff1673ffffffffffffffffffffffffffffffffffffffff16815260200190815260200160002060006101000a81548160ff02191690831515021790555061273e61165d565b73ffffffffffffffffffffffffffffffffffffffff168173ffffffffffffffffffffffffffffffffffffffff16837ff6391f5c32d9c69d2a47ea670b442974b53935d1edc7fd64eb21e047a839171b60405160405180910390a45b5050565b60006127c5836000018373ffffffffffffffffffffffffffffffffffffffff1660001b612d81565b905092915050565b600082600001828154811061280b577f4e487b7100000000000000000000000000000000000000000000000000000000600052603260045260246000fd5b9060005260206000200154905092915050565b600061283f8473ffffffffffffffffffffffffffffffffffffffff16612f07565b156129a8578373ffffffffffffffffffffffffffffffffffffffff1663150b7a0261286861165d565b8786866040518563ffffffff1660e01b815260040161288a9493929190613c8d565b602060405180830381600087803b1580156128a457600080fd5b505af19250505080156128d557506040513d601f19601f820116820180604052508101906128d2919061365c565b60015b612958573d8060008114612905576040519150601f19603f3d011682016040523d82523d6000602084013e61290a565b606091505b50600081511415612950576040517f08c379a000000000000000000000000000000000000000000000000000000000815260040161294790613dfa565b60405180910390fd5b805181602001fd5b63150b7a0260e01b7bffffffffffffffffffffffffffffffffffffffffffffffffffffffff1916817bffffffffffffffffffffffffffffffffffffffffffffffffffffffff1916149150506129ad565b600190505b949350505050565b60006129c082610b78565b90506129ce8160008461230a565b6129d9600083611665565b6001600560008373ffffffffffffffffffffffffffffffffffffffff1673ffffffffffffffffffffffffffffffffffffffff1681526020019081526020016000206000828254612a2991906142c0565b925050819055506004600083815260200190815260200160002060006101000a81549073ffffffffffffffffffffffffffffffffffffffff021916905581600073ffffffffffffffffffffffffffffffffffffffff168273ffffffffffffffffffffffffffffffffffffffff167fddf252ad1be2c89b69c2b068fc378daa952ba7f163c4a11628f55a4df523b3ef60405160405180910390a45050565b60606000821415612b0e576040518060400160405280600181526020017f30000000000000000000000000000000000000000000000000000000000000008152509050612c6e565b600082905060005b60008214612b40578080612b2990614489565b915050600a82612b399190614235565b9150612b16565b60008167ffffffffffffffff811115612b82577f4e487b7100000000000000000000000000000000000000000000000000000000600052604160045260246000fd5b6040519080825280601f01601f191660200182016040528015612bb45781602001600182028036833780820191505090505b5090505b60008514612c6757600182612bcd91906142c0565b9150600a85612bdc91906144d2565b6030612be891906141df565b60f81b818381518110612c24577f4e487b7100000000000000000000000000000000000000000000000000000000600052603260045260246000fd5b60200101907effffffffffffffffffffffffffffffffffffffffffffffffffffffffffffff1916908160001a905350600a85612c609190614235565b9450612bb8565b8093505050505b919050565b600081600001805490509050919050565b600080836001016000848152602001908152602001600020541415905092915050565b60007f7965db0b000000000000000000000000000000000000000000000000000000007bffffffffffffffffffffffffffffffffffffffffffffffffffffffff1916827bffffffffffffffffffffffffffffffffffffffffffffffffffffffff19161480612d1a5750612d1982612f1a565b5b9050919050565b505050565b612d308383612f84565b612d3d600084848461281e565b612d7c576040517f08c379a0000000000000000000000000000000000000000000000000000000008152600401612d7390613dfa565b60405180910390fd5b505050565b60008083600101600084815260200190815260200160002054905060008114612efb576000600182612db391906142c0565b9050600060018660000180549050612dcb91906142c0565b9050818114612e86576000866000018281548110612e12577f4e487b7100000000000000000000000000000000000000000000000000000000600052603260045260246000fd5b9060005260206000200154905080876000018481548110612e5c577f4e487b7100000000000000000000000000000000000000000000000000000000600052603260045260246000fd5b90600052602060002001819055508387600101600083815260200190815260200160002081905550505b85600001805480612ec0577f4e487b7100000000000000000000000000000000000000000000000000000000600052603160045260246000fd5b600190038181906000526020600020016000905590558560010160008681526020019081526020016000206000905560019350505050612f01565b60009150505b92915050565b600080823b905060008111915050919050565b60007f01ffc9a7000000000000000000000000000000000000000000000000000000007bffffffffffffffffffffffffffffffffffffffffffffffffffffffff1916827bffffffffffffffffffffffffffffffffffffffffffffffffffffffff1916149050919050565b600073ffffffffffffffffffffffffffffffffffffffff168273ffffffffffffffffffffffffffffffffffffffff161415612ff4576040517f08c379a0000000000000000000000000000000000000000000000000000000008152600401612feb90613f9a565b60405180910390fd5b612ffd816115f1565b1561303d576040517f08c379a000000000000000000000000000000000000000000000000000000000815260040161303490613e3a565b60405180910390fd5b6130496000838361230a565b6001600560008473ffffffffffffffffffffffffffffffffffffffff1673ffffffffffffffffffffffffffffffffffffffff168152602001908152602001600020600082825461309991906141df565b92505081905550816004600083815260200190815260200160002060006101000a81548173ffffffffffffffffffffffffffffffffffffffff021916908373ffffffffffffffffffffffffffffffffffffffff160217905550808273ffffffffffffffffffffffffffffffffffffffff16600073ffffffffffffffffffffffffffffffffffffffff167fddf252ad1be2c89b69c2b068fc378daa952ba7f163c4a11628f55a4df523b3ef60405160405180910390a45050565b50805461315e90614426565b6000825580601f10613170575061318f565b601f01602090049060005260206000209081019061318e9190613218565b5b50565b82805461319e90614426565b90600052602060002090601f0160209004810192826131c05760008555613207565b82601f106131d957805160ff1916838001178555613207565b82800160010185558215613207579182015b828111156132065782518255916020019190600101906131eb565b5b5090506132149190613218565b5090565b5b80821115613231576000816000905550600101613219565b5090565b60006132486132438461413a565b614115565b90508281526020810184848401111561326057600080fd5b61326b8482856143ba565b509392505050565b60006132866132818461413a565b614115565b90508281526020810184848401111561329e57600080fd5b6132a98482856143c9565b509392505050565b60006132c46132bf8461416b565b614115565b9050828152602081018484840111156132dc57600080fd5b6132e78482856143ba565b509392505050565b6000813590506132fe81614c86565b92915050565b60008135905061331381614c9d565b92915050565b60008135905061332881614cb4565b92915050565b60008135905061333d81614ccb565b92915050565b60008151905061335281614ccb565b92915050565b600082601f83011261336957600080fd5b8135613379848260208601613235565b91505092915050565b600082601f83011261339357600080fd5b81516133a3848260208601613273565b91505092915050565b600082601f8301126133bd57600080fd5b81356133cd8482602086016132b1565b91505092915050565b6000813590506133e581614ce2565b92915050565b6000602082840312156133fd57600080fd5b600061340b848285016132ef565b91505092915050565b6000806040838503121561342757600080fd5b6000613435858286016132ef565b9250506020613446858286016132ef565b9150509250929050565b60008060006060848603121561346557600080fd5b6000613473868287016132ef565b9350506020613484868287016132ef565b9250506040613495868287016133d6565b9150509250925092565b600080600080608085870312156134b557600080fd5b60006134c3878288016132ef565b94505060206134d4878288016132ef565b93505060406134e5878288016133d6565b925050606085013567ffffffffffffffff81111561350257600080fd5b61350e87828801613358565b91505092959194509250565b6000806040838503121561352d57600080fd5b600061353b858286016132ef565b925050602061354c85828601613304565b9150509250929050565b6000806040838503121561356957600080fd5b6000613577858286016132ef565b9250506020613588858286016133d6565b9150509250929050565b6000602082840312156135a457600080fd5b60006135b284828501613319565b91505092915050565b600080604083850312156135ce57600080fd5b60006135dc85828601613319565b92505060206135ed858286016132ef565b9150509250929050565b6000806040838503121561360a57600080fd5b600061361885828601613319565b9250506020613629858286016133d6565b9150509250929050565b60006020828403121561364557600080fd5b60006136538482850161332e565b91505092915050565b60006020828403121561366e57600080fd5b600061367c84828501613343565b91505092915050565b60006020828403121561369757600080fd5b600082015167ffffffffffffffff8111156136b157600080fd5b6136bd84828501613382565b91505092915050565b600080604083850312156136d957600080fd5b600083013567ffffffffffffffff8111156136f357600080fd5b6136ff858286016133ac565b9250506020613710858286016133d6565b9150509250929050565b60006020828403121561372c57600080fd5b600061373a848285016133d6565b91505092915050565b61374c816142f4565b82525050565b61375b81614306565b82525050565b61376a81614312565b82525050565b600061377b8261419c565b61378581856141b2565b93506137958185602086016143c9565b61379e816145bf565b840191505092915050565b6137b281614372565b82525050565b6137c181614396565b82525050565b60006137d2826141a7565b6137dc81856141c3565b93506137ec8185602086016143c9565b6137f5816145bf565b840191505092915050565b600061380b826141a7565b61381581856141d4565b93506138258185602086016143c9565b80840191505092915050565b600061383e6020836141c3565b9150613849826145d0565b602082019050919050565b60006138616014836141c3565b915061386c826145f9565b602082019050919050565b60006138846032836141c3565b915061388f82614622565b604082019050919050565b60006138a76026836141c3565b91506138b282614671565b604082019050919050565b60006138ca601c836141c3565b91506138d5826146c0565b602082019050919050565b60006138ed601d836141c3565b91506138f8826146e9565b602082019050919050565b60006139106024836141c3565b915061391b82614712565b604082019050919050565b60006139336019836141c3565b915061393e82614761565b602082019050919050565b6000613956602c836141c3565b91506139618261478a565b604082019050919050565b6000613979601e836141c3565b9150613984826147d9565b602082019050919050565b600061399c6010836141c3565b91506139a782614802565b602082019050919050565b60006139bf6038836141c3565b91506139ca8261482b565b604082019050919050565b60006139e2602a836141c3565b91506139ed8261487a565b604082019050919050565b6000613a056029836141c3565b9150613a10826148c9565b604082019050919050565b6000613a28602e836141c3565b9150613a3382614918565b604082019050919050565b6000613a4b6020836141c3565b9150613a5682614967565b602082019050919050565b6000613a6e6031836141c3565b9150613a7982614990565b604082019050919050565b6000613a91602c836141c3565b9150613a9c826149df565b604082019050919050565b6000613ab46020836141c3565b9150613abf82614a2e565b602082019050919050565b6000613ad76029836141c3565b9150613ae282614a57565b604082019050919050565b6000613afa602f836141c3565b9150613b0582614aa6565b604082019050919050565b6000613b1d6021836141c3565b9150613b2882614af5565b604082019050919050565b6000613b406031836141c3565b9150613b4b82614b44565b604082019050919050565b6000613b636017836141d4565b9150613b6e82614b93565b601782019050919050565b6000613b866020836141c3565b9150613b9182614bbc565b602082019050919050565b6000613ba96018836141c3565b9150613bb482614be5565b602082019050919050565b6000613bcc6011836141d4565b9150613bd782614c0e565b601182019050919050565b6000613bef602f836141c3565b9150613bfa82614c37565b604082019050919050565b613c0e81614368565b82525050565b6000613c208285613800565b9150613c2c8284613800565b91508190509392505050565b6000613c4382613b56565b9150613c4f8285613800565b9150613c5a82613bbf565b9150613c668284613800565b91508190509392505050565b6000602082019050613c876000830184613743565b92915050565b6000608082019050613ca26000830187613743565b613caf6020830186613743565b613cbc6040830185613c05565b8181036060830152613cce8184613770565b905095945050505050565b6000608082019050613cee6000830187613743565b8181036020830152613d0081866137c7565b9050613d0f6040830185613c05565b8181036060830152613d218184613770565b905095945050505050565b6000602082019050613d416000830184613752565b92915050565b6000602082019050613d5c6000830184613761565b92915050565b6000602082019050613d7760008301846137a9565b92915050565b6000602082019050613d9260008301846137b8565b92915050565b60006020820190508181036000830152613db281846137c7565b905092915050565b60006020820190508181036000830152613dd381613831565b9050919050565b60006020820190508181036000830152613df381613854565b9050919050565b60006020820190508181036000830152613e1381613877565b9050919050565b60006020820190508181036000830152613e338161389a565b9050919050565b60006020820190508181036000830152613e53816138bd565b9050919050565b60006020820190508181036000830152613e73816138e0565b9050919050565b60006020820190508181036000830152613e9381613903565b9050919050565b60006020820190508181036000830152613eb381613926565b9050919050565b60006020820190508181036000830152613ed381613949565b9050919050565b60006020820190508181036000830152613ef38161396c565b9050919050565b60006020820190508181036000830152613f138161398f565b9050919050565b60006020820190508181036000830152613f33816139b2565b9050919050565b60006020820190508181036000830152613f53816139d5565b9050919050565b60006020820190508181036000830152613f73816139f8565b9050919050565b60006020820190508181036000830152613f9381613a1b565b9050919050565b60006020820190508181036000830152613fb381613a3e565b9050919050565b60006020820190508181036000830152613fd381613a61565b9050919050565b60006020820190508181036000830152613ff381613a84565b9050919050565b6000602082019050818103600083015261401381613aa7565b9050919050565b6000602082019050818103600083015261403381613aca565b9050919050565b6000602082019050818103600083015261405381613aed565b9050919050565b6000602082019050818103600083015261407381613b10565b9050919050565b6000602082019050818103600083015261409381613b33565b9050919050565b600060208201905081810360008301526140b381613b79565b9050919050565b600060208201905081810360008301526140d381613b9c565b9050919050565b600060208201905081810360008301526140f381613be2565b9050919050565b600060208201905061410f6000830184613c05565b92915050565b600061411f614130565b905061412b8282614458565b919050565b6000604051905090565b600067ffffffffffffffff82111561415557614154614590565b5b61415e826145bf565b9050602081019050919050565b600067ffffffffffffffff82111561418657614185614590565b5b61418f826145bf565b9050602081019050919050565b600081519050919050565b600081519050919050565b600082825260208201905092915050565b600082825260208201905092915050565b600081905092915050565b60006141ea82614368565b91506141f583614368565b9250827fffffffffffffffffffffffffffffffffffffffffffffffffffffffffffffffff0382111561422a57614229614503565b5b828201905092915050565b600061424082614368565b915061424b83614368565b92508261425b5761425a614532565b5b828204905092915050565b600061427182614368565b915061427c83614368565b9250817fffffffffffffffffffffffffffffffffffffffffffffffffffffffffffffffff04831182151516156142b5576142b4614503565b5b828202905092915050565b60006142cb82614368565b91506142d683614368565b9250828210156142e9576142e8614503565b5b828203905092915050565b60006142ff82614348565b9050919050565b60008115159050919050565b6000819050919050565b60007fffffffff0000000000000000000000000000000000000000000000000000000082169050919050565b600073ffffffffffffffffffffffffffffffffffffffff82169050919050565b6000819050919050565b600061437d82614384565b9050919050565b600061438f82614348565b9050919050565b60006143a1826143a8565b9050919050565b60006143b382614348565b9050919050565b82818337600083830152505050565b60005b838110156143e75780820151818401526020810190506143cc565b838111156143f6576000848401525b50505050565b600061440782614368565b9150600082141561441b5761441a614503565b5b600182039050919050565b6000600282049050600182168061443e57607f821691505b6020821081141561445257614451614561565b5b50919050565b614461826145bf565b810181811067ffffffffffffffff821117156144805761447f614590565b5b80604052505050565b600061449482614368565b91507fffffffffffffffffffffffffffffffffffffffffffffffffffffffffffffffff8214156144c7576144c6614503565b5b600182019050919050565b60006144dd82614368565b91506144e883614368565b9250826144f8576144f7614532565b5b828206905092915050565b7f4e487b7100000000000000000000000000000000000000000000000000000000600052601160045260246000fd5b7f4e487b7100000000000000000000000000000000000000000000000000000000600052601260045260246000fd5b7f4e487b7100000000000000000000000000000000000000000000000000000000600052602260045260246000fd5b7f4e487b7100000000000000000000000000000000000000000000000000000000600052604160045260246000fd5b6000601f19601f8301169050919050565b7f537472696e67733a20686578206c656e67746820696e73756666696369656e74600082015250565b7f5061757361626c653a206e6f7420706175736564000000000000000000000000600082015250565b7f4552433732313a207472616e7366657220746f206e6f6e20455243373231526560008201527f63656976657220696d706c656d656e7465720000000000000000000000000000602082015250565b7f4f776e61626c653a206e6577206f776e657220697320746865207a65726f206160008201527f6464726573730000000000000000000000000000000000000000000000000000602082015250565b7f4552433732313a20746f6b656e20616c7265616479206d696e74656400000000600082015250565b7f537570706c79206d7573742062652067726561746572207468616e2032000000600082015250565b7f4552433732313a207472616e7366657220746f20746865207a65726f2061646460008201527f7265737300000000000000000000000000000000000000000000000000000000602082015250565b7f4552433732313a20617070726f766520746f2063616c6c657200000000000000600082015250565b7f4552433732313a206f70657261746f7220717565727920666f72206e6f6e657860008201527f697374656e7420746f6b656e0000000000000000000000000000000000000000602082015250565b7f4d75737420686176652070617573657220726f6c6520746f2070617573650000600082015250565b7f5061757361626c653a2070617573656400000000000000000000000000000000600082015250565b7f4552433732313a20617070726f76652063616c6c6572206973206e6f74206f7760008201527f6e6572206e6f7220617070726f76656420666f7220616c6c0000000000000000602082015250565b7f4552433732313a2062616c616e636520717565727920666f7220746865207a6560008201527f726f206164647265737300000000000000000000000000000000000000000000602082015250565b7f4552433732313a206f776e657220717565727920666f72206e6f6e657869737460008201527f656e7420746f6b656e0000000000000000000000000000000000000000000000602082015250565b7f45524337323155524953746f726167653a2055524920736574206f66206e6f6e60008201527f6578697374656e7420746f6b656e000000000000000000000000000000000000602082015250565b7f4552433732313a206d696e7420746f20746865207a65726f2061646472657373600082015250565b7f45524337323155524953746f726167653a2055524920717565727920666f722060008201527f6e6f6e6578697374656e7420746f6b656e000000000000000000000000000000602082015250565b7f4552433732313a20617070726f76656420717565727920666f72206e6f6e657860008201527f697374656e7420746f6b656e0000000000000000000000000000000000000000602082015250565b7f4f776e61626c653a2063616c6c6572206973206e6f7420746865206f776e6572600082015250565b7f4552433732313a207472616e73666572206f6620746f6b656e2074686174206960008201527f73206e6f74206f776e0000000000000000000000000000000000000000000000602082015250565b7f4552433732314d657461646174613a2055524920717565727920666f72206e6f60008201527f6e6578697374656e7420746f6b656e0000000000000000000000000000000000602082015250565b7f4552433732313a20617070726f76616c20746f2063757272656e74206f776e6560008201527f7200000000000000000000000000000000000000000000000000000000000000602082015250565b7f4552433732313a207472616e736665722063616c6c6572206973206e6f74206f60008201527f776e6572206e6f7220617070726f766564000000000000000000000000000000602082015250565b7f416363657373436f6e74726f6c3a206163636f756e7420000000000000000000600082015250565b7f4d75737420686176652070617573657220726f6c6520746f20756e7061757365600082015250565b7f546f6b656e5572692063616e206e6f74206265206e756c6c0000000000000000600082015250565b7f206973206d697373696e6720726f6c6520000000000000000000000000000000600082015250565b7f416363657373436f6e74726f6c3a2063616e206f6e6c792072656e6f756e636560008201527f20726f6c657320666f722073656c660000000000000000000000000000000000602082015250565b614c8f816142f4565b8114614c9a57600080fd5b50565b614ca681614306565b8114614cb157600080fd5b50565b614cbd81614312565b8114614cc857600080fd5b50565b614cd48161431c565b8114614cdf57600080fd5b50565b614ceb81614368565b8114614cf657600080fd5b5056fea2646970667358221220759c6405f0936c775dc6198f9d754178b17ad8cb82c56739ffb1dbe6abb81d7c64736f6c63430008040033",
  "linkReferences": {},
  "deployedLinkReferences": {}
}