{
  "_format": "hh-sol-artifact-1",
  "contractName": "MarketContract",
  "sourceName": "contracts/MarketContract.sol",
  "abi": [
    {
      "inputs": [
        {
          "internalType": "address",
          "name": "_commonUtilsAddress",
          "type": "address"
        }
      ],
      "stateMutability": "nonpayable",
      "type": "constructor"
    },
    {
      "anonymous": false,
      "inputs": [
        {
          "indexed": true,
          "internalType": "address",
          "name": "previousOwner",
          "type": "address"
        },
        {
          "indexed": true,
          "internalType": "address",
          "name": "newOwner",
          "type": "address"
        }
      ],
      "name": "OwnershipTransferred",
      "type": "event"
    },
    {
      "anonymous": false,
      "inputs": [
        {
          "indexed": true,
          "internalType": "bytes32",
          "name": "role",
          "type": "bytes32"
        },
        {
          "indexed": true,
          "internalType": "bytes32",
          "name": "previousAdminRole",
          "type": "bytes32"
        },
        {
          "indexed": true,
          "internalType": "bytes32",
          "name": "newAdminRole",
          "type": "bytes32"
        }
      ],
      "name": "RoleAdminChanged",
      "type": "event"
    },
    {
      "anonymous": false,
      "inputs": [
        {
          "indexed": true,
          "internalType": "bytes32",
          "name": "role",
          "type": "bytes32"
        },
        {
          "indexed": true,
          "internalType": "address",
          "name": "account",
          "type": "address"
        },
        {
          "indexed": true,
          "internalType": "address",
          "name": "sender",
          "type": "address"
        }
      ],
      "name": "RoleGranted",
      "type": "event"
    },
    {
      "anonymous": false,
      "inputs": [
        {
          "indexed": true,
          "internalType": "bytes32",
          "name": "role",
          "type": "bytes32"
        },
        {
          "indexed": true,
          "internalType": "address",
          "name": "account",
          "type": "address"
        },
        {
          "indexed": true,
          "internalType": "address",
          "name": "sender",
          "type": "address"
        }
      ],
      "name": "RoleRevoked",
      "type": "event"
    },
    {
      "anonymous": false,
      "inputs": [
        {
          "indexed": false,
          "internalType": "uint256",
          "name": "tokenId",
          "type": "uint256"
        }
      ],
      "name": "UnlistedNFT",
      "type": "event"
    },
    {
      "anonymous": false,
      "inputs": [
        {
          "indexed": false,
          "internalType": "address",
          "name": "_payee",
          "type": "address"
        },
        {
          "indexed": false,
          "internalType": "uint256",
          "name": "_amount",
          "type": "uint256"
        }
      ],
      "name": "Withdrawal",
      "type": "event"
    },
    {
      "inputs": [],
      "name": "DEFAULT_ADMIN_ROLE",
      "outputs": [
        {
          "internalType": "bytes32",
          "name": "",
          "type": "bytes32"
        }
      ],
      "stateMutability": "view",
      "type": "function"
    },
    {
      "inputs": [],
      "name": "_serviceFees",
      "outputs": [
        {
          "internalType": "uint256",
          "name": "",
          "type": "uint256"
        }
      ],
      "stateMutability": "view",
      "type": "function"
    },
    {
      "inputs": [],
      "name": "commonUtils",
      "outputs": [
        {
          "internalType": "contract ICommonUtils",
          "name": "",
          "type": "address"
        }
      ],
      "stateMutability": "view",
      "type": "function"
    },
    {
      "inputs": [],
      "name": "getChainID",
      "outputs": [
        {
          "internalType": "uint256",
          "name": "",
          "type": "uint256"
        }
      ],
      "stateMutability": "view",
      "type": "function"
    },
    {
      "inputs": [
        {
          "internalType": "bytes32",
          "name": "role",
          "type": "bytes32"
        }
      ],
      "name": "getRoleAdmin",
      "outputs": [
        {
          "internalType": "bytes32",
          "name": "",
          "type": "bytes32"
        }
      ],
      "stateMutability": "view",
      "type": "function"
    },
    {
      "inputs": [
        {
          "internalType": "bytes32",
          "name": "role",
          "type": "bytes32"
        },
        {
          "internalType": "uint256",
          "name": "index",
          "type": "uint256"
        }
      ],
      "name": "getRoleMember",
      "outputs": [
        {
          "internalType": "address",
          "name": "",
          "type": "address"
        }
      ],
      "stateMutability": "view",
      "type": "function"
    },
    {
      "inputs": [
        {
          "internalType": "bytes32",
          "name": "role",
          "type": "bytes32"
        }
      ],
      "name": "getRoleMemberCount",
      "outputs": [
        {
          "internalType": "uint256",
          "name": "",
          "type": "uint256"
        }
      ],
      "stateMutability": "view",
      "type": "function"
    },
    {
      "inputs": [
        {
          "internalType": "bytes32",
          "name": "role",
          "type": "bytes32"
        },
        {
          "internalType": "address",
          "name": "account",
          "type": "address"
        }
      ],
      "name": "grantRole",
      "outputs": [],
      "stateMutability": "nonpayable",
      "type": "function"
    },
    {
      "inputs": [
        {
          "internalType": "bytes32",
          "name": "role",
          "type": "bytes32"
        },
        {
          "internalType": "address",
          "name": "account",
          "type": "address"
        }
      ],
      "name": "hasRole",
      "outputs": [
        {
          "internalType": "bool",
          "name": "",
          "type": "bool"
        }
      ],
      "stateMutability": "view",
      "type": "function"
    },
    {
      "inputs": [],
      "name": "licensesContract",
      "outputs": [
        {
          "internalType": "contract ILicense",
          "name": "",
          "type": "address"
        }
      ],
      "stateMutability": "view",
      "type": "function"
    },
    {
      "inputs": [],
      "name": "masterContract",
      "outputs": [
        {
          "internalType": "contract IMaster",
          "name": "",
          "type": "address"
        }
      ],
      "stateMutability": "view",
      "type": "function"
    },
    {
      "inputs": [],
      "name": "owner",
      "outputs": [
        {
          "internalType": "address",
          "name": "",
          "type": "address"
        }
      ],
      "stateMutability": "view",
      "type": "function"
    },
    {
      "inputs": [
        {
          "internalType": "address",
          "name": "_buyer",
          "type": "address"
        },
        {
          "internalType": "uint256",
          "name": "_amountToPurchase",
          "type": "uint256"
        },
        {
          "components": [
            {
              "internalType": "address",
              "name": "nftContractAddress",
              "type": "address"
            },
            {
              "internalType": "uint256",
              "name": "price",
              "type": "uint256"
            },
            {
              "internalType": "uint256",
              "name": "sellCount",
              "type": "uint256"
            },
            {
              "internalType": "string",
              "name": "tokenUri",
              "type": "string"
            },
            {
              "internalType": "uint256",
              "name": "tokenId",
              "type": "uint256"
            },
            {
              "internalType": "uint256",
              "name": "supply",
              "type": "uint256"
            },
            {
              "internalType": "bool",
              "name": "isMaster",
              "type": "bool"
            },
            {
              "internalType": "bytes",
              "name": "signature",
              "type": "bytes"
            }
          ],
          "internalType": "struct MarketContract.MintVoucher",
          "name": "_mintVoucher",
          "type": "tuple"
        }
      ],
      "name": "redeemItem",
      "outputs": [],
      "stateMutability": "payable",
      "type": "function"
    },
    {
      "inputs": [],
      "name": "renounceOwnership",
      "outputs": [],
      "stateMutability": "nonpayable",
      "type": "function"
    },
    {
      "inputs": [
        {
          "internalType": "bytes32",
          "name": "role",
          "type": "bytes32"
        },
        {
          "internalType": "address",
          "name": "account",
          "type": "address"
        }
      ],
      "name": "renounceRole",
      "outputs": [],
      "stateMutability": "nonpayable",
      "type": "function"
    },
    {
      "inputs": [
        {
          "internalType": "bytes32",
          "name": "role",
          "type": "bytes32"
        },
        {
          "internalType": "address",
          "name": "account",
          "type": "address"
        }
      ],
      "name": "revokeRole",
      "outputs": [],
      "stateMutability": "nonpayable",
      "type": "function"
    },
    {
      "inputs": [
        {
          "internalType": "address",
          "name": "",
          "type": "address"
        },
        {
          "internalType": "address",
          "name": "",
          "type": "address"
        }
      ],
      "name": "sellCounts",
      "outputs": [
        {
          "internalType": "uint256",
          "name": "tokenId",
          "type": "uint256"
        },
        {
          "internalType": "uint256",
          "name": "sellCount",
          "type": "uint256"
        }
      ],
      "stateMutability": "view",
      "type": "function"
    },
    {
      "inputs": [],
      "name": "serviceFees",
      "outputs": [
        {
          "internalType": "uint256",
          "name": "",
          "type": "uint256"
        }
      ],
      "stateMutability": "view",
      "type": "function"
    },
    {
      "inputs": [
        {
          "internalType": "bytes4",
          "name": "interfaceId",
          "type": "bytes4"
        }
      ],
      "name": "supportsInterface",
      "outputs": [
        {
          "internalType": "bool",
          "name": "",
          "type": "bool"
        }
      ],
      "stateMutability": "view",
      "type": "function"
    },
    {
      "inputs": [
        {
          "internalType": "address",
          "name": "newOwner",
          "type": "address"
        }
      ],
      "name": "transferOwnership",
      "outputs": [],
      "stateMutability": "nonpayable",
      "type": "function"
    },
    {
      "inputs": [
        {
          "internalType": "address",
          "name": "_ownerAddress",
          "type": "address"
        },
        {
          "internalType": "address",
          "name": "_nftContractAddress",
          "type": "address"
        },
        {
          "internalType": "uint256",
          "name": "_tokenId",
          "type": "uint256"
        }
      ],
      "name": "unlistItem",
      "outputs": [],
      "stateMutability": "nonpayable",
      "type": "function"
    },
    {
      "inputs": [
        {
          "internalType": "uint256",
          "name": "_calculatedFees",
          "type": "uint256"
        }
      ],
      "name": "withdrawFees",
      "outputs": [],
      "stateMutability": "payable",
      "type": "function"
    }
  ],
  "bytecode": "0x6101406040523480156200001257600080fd5b50604051620041bc380380620041bc8339818101604052810190620000389190620005c5565b6040518060400160405280600a81526020017f53562d566f7563686572000000000000000000000000000000000000000000008152506040518060400160405280600181526020017f310000000000000000000000000000000000000000000000000000000000000081525060008280519060200120905060008280519060200120905060007f8b73c3c69bb8fe3d512ecc4cf759cc79239f7b179b0ffacaa9a75d522b39400f90508260e081815250508161010081815250504660a081815250506200010d8184846200047a60201b60201c565b608081815250503073ffffffffffffffffffffffffffffffffffffffff1660c08173ffffffffffffffffffffffffffffffffffffffff1660601b815250508061012081815250505050505050620001796200016d620004b660201b60201c565b620004be60201b60201c565b6001600381905550620001916200058460201b60201c565b600460006101000a81548173ffffffffffffffffffffffffffffffffffffffff021916908373ffffffffffffffffffffffffffffffffffffffff160217905550610bb860068190555080600860006101000a81548173ffffffffffffffffffffffffffffffffffffffff021916908373ffffffffffffffffffffffffffffffffffffffff1602179055506000600860009054906101000a900473ffffffffffffffffffffffffffffffffffffffff1673ffffffffffffffffffffffffffffffffffffffff1663824ea29f6040518060400160405280600781526020017f4c6963656e7365000000000000000000000000000000000000000000000000008152506040518263ffffffff1660e01b8152600401620002af9190620006c2565b60206040518083038186803b158015620002c857600080fd5b505afa158015620002dd573d6000803e3d6000fd5b505050506040513d601f19601f82011682018060405250810190620003039190620005c5565b90506000600860009054906101000a900473ffffffffffffffffffffffffffffffffffffffff1673ffffffffffffffffffffffffffffffffffffffff1663824ea29f6040518060400160405280600681526020017f4d617374657200000000000000000000000000000000000000000000000000008152506040518263ffffffff1660e01b8152600401620003999190620006c2565b60206040518083038186803b158015620003b257600080fd5b505afa158015620003c7573d6000803e3d6000fd5b505050506040513d601f19601f82011682018060405250810190620003ed9190620005c5565b905081600960006101000a81548173ffffffffffffffffffffffffffffffffffffffff021916908373ffffffffffffffffffffffffffffffffffffffff16021790555080600a60006101000a81548173ffffffffffffffffffffffffffffffffffffffff021916908373ffffffffffffffffffffffffffffffffffffffff160217905550505050620007ab565b600083838346306040516020016200049795949392919062000665565b6040516020818303038152906040528051906020012090509392505050565b600033905090565b6000600260009054906101000a900473ffffffffffffffffffffffffffffffffffffffff16905081600260006101000a81548173ffffffffffffffffffffffffffffffffffffffff021916908373ffffffffffffffffffffffffffffffffffffffff1602179055508173ffffffffffffffffffffffffffffffffffffffff168173ffffffffffffffffffffffffffffffffffffffff167f8be0079c531659141344cd1fd0a4f28419497f9722a3daafe3b4186f6b6457e060405160405180910390a35050565b6000600260009054906101000a900473ffffffffffffffffffffffffffffffffffffffff16905090565b600081519050620005bf8162000791565b92915050565b600060208284031215620005d857600080fd5b6000620005e884828501620005ae565b91505092915050565b620005fc8162000702565b82525050565b6200060d8162000716565b82525050565b60006200062082620006e6565b6200062c8185620006f1565b93506200063e8185602086016200074a565b620006498162000780565b840191505092915050565b6200065f8162000740565b82525050565b600060a0820190506200067c600083018862000602565b6200068b602083018762000602565b6200069a604083018662000602565b620006a9606083018562000654565b620006b86080830184620005f1565b9695505050505050565b60006020820190508181036000830152620006de818462000613565b905092915050565b600081519050919050565b600082825260208201905092915050565b60006200070f8262000720565b9050919050565b6000819050919050565b600073ffffffffffffffffffffffffffffffffffffffff82169050919050565b6000819050919050565b60005b838110156200076a5780820151818401526020810190506200074d565b838111156200077a576000848401525b50505050565b6000601f19601f8301169050919050565b6200079c8162000702565b8114620007a857600080fd5b50565b60805160a05160c05160601c60e05161010051610120516139be620007fe60003960006124be01526000612500015260006124df015260006124140152600061246a0152600061249301526139be6000f3fe6080604052600436106101355760003560e01c80638da5cb5b116100ab578063b776fcf61161006f578063b776fcf61461041c578063b985c92814610447578063ca15c87314610463578063cd446e22146104a0578063d547741f146104cb578063f2fde38b146104f457610135565b80638da5cb5b146103215780639010d07c1461034c57806391d148541461038957806397ed1328146103c6578063a217fddf146103f157610135565b80634457f9bc116100fd5780634457f9bc1461022f578063564b81ef1461025a5780635e318e0714610285578063715018a6146102a157806380857ffa146102b85780638b5873a8146102e357610135565b806301ffc9a71461013a578063216cc4d014610177578063248a9ca3146101a05780632f2ff15d146101dd57806336568abe14610206575b600080fd5b34801561014657600080fd5b50610161600480360381019061015c9190612971565b61051d565b60405161016e9190612ef2565b60405180910390f35b34801561018357600080fd5b5061019e600480360381019061019991906127f1565b610597565b005b3480156101ac57600080fd5b506101c760048036038101906101c291906128d0565b6105de565b6040516101d49190612f0d565b60405180910390f35b3480156101e957600080fd5b5061020460048036038101906101ff91906128f9565b6105fd565b005b34801561021257600080fd5b5061022d600480360381019061022891906128f9565b610626565b005b34801561023b57600080fd5b506102446106a9565b6040516102519190613029565b60405180910390f35b34801561026657600080fd5b5061026f6106cf565b60405161027c9190613205565b60405180910390f35b61029f600480360381019061029a919061299a565b6106dc565b005b3480156102ad57600080fd5b506102b66107a3565b005b3480156102c457600080fd5b506102cd61082b565b6040516102da9190613205565b60405180910390f35b3480156102ef57600080fd5b5061030a600480360381019061030591906127b5565b610835565b604051610318929190613249565b60405180910390f35b34801561032d57600080fd5b50610336610866565b6040516103439190612dc9565b60405180910390f35b34801561035857600080fd5b50610373600480360381019061036e9190612935565b610890565b6040516103809190612dc9565b60405180910390f35b34801561039557600080fd5b506103b060048036038101906103ab91906128f9565b6108bf565b6040516103bd9190612ef2565b60405180910390f35b3480156103d257600080fd5b506103db610929565b6040516103e8919061300e565b60405180910390f35b3480156103fd57600080fd5b5061040661094f565b6040516104139190612f0d565b60405180910390f35b34801561042857600080fd5b50610431610956565b60405161043e9190613205565b60405180910390f35b610461600480360381019061045c9190612840565b61095c565b005b34801561046f57600080fd5b5061048a600480360381019061048591906128d0565b61114d565b6040516104979190613205565b60405180910390f35b3480156104ac57600080fd5b506104b5611171565b6040516104c29190613044565b60405180910390f35b3480156104d757600080fd5b506104f260048036038101906104ed91906128f9565b611197565b005b34801561050057600080fd5b5061051b6004803603810190610516919061278c565b6111c0565b005b60007f5a05180f000000000000000000000000000000000000000000000000000000007bffffffffffffffffffffffffffffffffffffffffffffffffffffffff1916827bffffffffffffffffffffffffffffffffffffffffffffffffffffffff19161480610590575061058f826112b8565b5b9050919050565b6105a2838383611332565b7fea74652770373f387d6584b754b6891e43f3a870c309196353a4083872960e31816040516105d19190613205565b60405180910390a1505050565b6000806000838152602001908152602001600020600101549050919050565b610606826105de565b61061781610612611456565b61145e565b61062183836114fb565b505050565b61062e611456565b73ffffffffffffffffffffffffffffffffffffffff168173ffffffffffffffffffffffffffffffffffffffff161461069b576040517f08c379a0000000000000000000000000000000000000000000000000000000008152600401610692906131e5565b60405180910390fd5b6106a5828261152f565b5050565b600960009054906101000a900473ffffffffffffffffffffffffffffffffffffffff1681565b6000804690508091505090565b600460009054906101000a900473ffffffffffffffffffffffffffffffffffffffff1673ffffffffffffffffffffffffffffffffffffffff166108fc829081150290604051600060405180830381858888f19350505050158015610744573d6000803e3d6000fd5b507f7fcf532c15f0a6db0bd6d0e038bea71d30d808c7d98cb3bf7268a95bf5081b65600460009054906101000a900473ffffffffffffffffffffffffffffffffffffffff1682604051610798929190612de4565b60405180910390a150565b6107ab611456565b73ffffffffffffffffffffffffffffffffffffffff166107c9610866565b73ffffffffffffffffffffffffffffffffffffffff161461081f576040517f08c379a000000000000000000000000000000000000000000000000000000000815260040161081690613185565b60405180910390fd5b6108296000611563565b565b6000600654905090565b6007602052816000526040600020602052806000526040600020600091509150508060000154908060010154905082565b6000600260009054906101000a900473ffffffffffffffffffffffffffffffffffffffff16905090565b60006108b7826001600086815260200190815260200160002061162990919063ffffffff16565b905092915050565b600080600084815260200190815260200160002060000160008373ffffffffffffffffffffffffffffffffffffffff1673ffffffffffffffffffffffffffffffffffffffff16815260200190815260200160002060009054906101000a900460ff16905092915050565b600860009054906101000a900473ffffffffffffffffffffffffffffffffffffffff1681565b6000801b81565b60065481565b600260035414156109a2576040517f08c379a0000000000000000000000000000000000000000000000000000000008152600401610999906131c5565b60405180910390fd5b600260038190555060006109b582611643565b90506109e17f9f2df0fed2c77648de5860a4cc508cd0818c85b8b8a1ab4ceeef8d981c8956a6826108bf565b610a20576040517f08c379a0000000000000000000000000000000000000000000000000000000008152600401610a17906131a5565b60405180910390fd5b6000610a2a61082b565b9050600073__$30982415e8a4a7841dba8c5dcc5d2212fe$__63c5f859608560200135846040518363ffffffff1660e01b8152600401610a6b929190613220565b60206040518083038186803b158015610a8357600080fd5b505af4158015610a97573d6000803e3d6000fd5b505050506040513d601f19601f82011682018060405250810190610abb91906129c3565b90506000600115158560c0016020810190610ad691906128a7565b15151415610af557610aee85602001358360016116b5565b9050610b07565b610b04856020013583886116b5565b90505b6000610b1c83836116f790919063ffffffff16565b905081341015610b61576040517f08c379a0000000000000000000000000000000000000000000000000000000008152600401610b5890613165565b60405180910390fd5b8560800135600760008773ffffffffffffffffffffffffffffffffffffffff1673ffffffffffffffffffffffffffffffffffffffff1681526020019081526020016000206000886000016020810190610bba919061278c565b73ffffffffffffffffffffffffffffffffffffffff1673ffffffffffffffffffffffffffffffffffffffff16815260200190815260200160002060000154148015610c995750600760008673ffffffffffffffffffffffffffffffffffffffff1673ffffffffffffffffffffffffffffffffffffffff1681526020019081526020016000206000876000016020810190610c54919061278c565b73ffffffffffffffffffffffffffffffffffffffff1673ffffffffffffffffffffffffffffffffffffffff168152602001908152602001600020600101548660400135145b610ca257600080fd5b6000600a60009054906101000a900473ffffffffffffffffffffffffffffffffffffffff1673ffffffffffffffffffffffffffffffffffffffff1663ed310117888060600190610cf291906132c9565b6040518363ffffffff1660e01b8152600401610d0f92919061305f565b602060405180830381600087803b158015610d2957600080fd5b505af1158015610d3d573d6000803e3d6000fd5b505050506040513d601f19601f82011682018060405250810190610d6191906129c3565b90506000811415610e3457600a60009054906101000a900473ffffffffffffffffffffffffffffffffffffffff1673ffffffffffffffffffffffffffffffffffffffff166349c031e087898060600190610dbb91906132c9565b8b60a001356040518563ffffffff1660e01b8152600401610ddf9493929190612e89565b602060405180830381600087803b158015610df957600080fd5b505af1158015610e0d573d6000803e3d6000fd5b505050506040513d601f19601f82011682018060405250810190610e3191906129c3565b90505b6000600115158860c0016020810190610e4d91906128a7565b1515141561107f578673ffffffffffffffffffffffffffffffffffffffff166108fc849081150290604051600060405180830381858888f19350505050158015610e9b573d6000803e3d6000fd5b50600a60009054906101000a900473ffffffffffffffffffffffffffffffffffffffff1673ffffffffffffffffffffffffffffffffffffffff1663d84f316e888c856040518463ffffffff1660e01b8152600401610efb93929190612e0d565b600060405180830381600087803b158015610f1557600080fd5b505af1158015610f29573d6000803e3d6000fd5b50505050600960009054906101000a900473ffffffffffffffffffffffffffffffffffffffff1673ffffffffffffffffffffffffffffffffffffffff1662fdd58e88846040518363ffffffff1660e01b8152600401610f89929190612ec9565b602060405180830381600087803b158015610fa357600080fd5b505af1158015610fb7573d6000803e3d6000fd5b505050506040513d601f19601f82011682018060405250810190610fdb91906129c3565b9050600960009054906101000a900473ffffffffffffffffffffffffffffffffffffffff1673ffffffffffffffffffffffffffffffffffffffff16635eb9873a888c85856040518563ffffffff1660e01b815260040161103e9493929190612e44565b600060405180830381600087803b15801561105857600080fd5b505af115801561106c573d6000803e3d6000fd5b5050505061107a600561170d565b611113565b600960009054906101000a900473ffffffffffffffffffffffffffffffffffffffff1673ffffffffffffffffffffffffffffffffffffffff16635eb9873a888c858d6040518563ffffffff1660e01b81526004016110e09493929190612e44565b600060405180830381600087803b1580156110fa57600080fd5b505af115801561110e573d6000803e3d6000fd5b505050505b6111308a89600001602081019061112a919061278c565b84611332565b611139856106dc565b505050505050506001600381905550505050565b600061116a60016000848152602001908152602001600020611723565b9050919050565b600a60009054906101000a900473ffffffffffffffffffffffffffffffffffffffff1681565b6111a0826105de565b6111b1816111ac611456565b61145e565b6111bb838361152f565b505050565b6111c8611456565b73ffffffffffffffffffffffffffffffffffffffff166111e6610866565b73ffffffffffffffffffffffffffffffffffffffff161461123c576040517f08c379a000000000000000000000000000000000000000000000000000000000815260040161123390613185565b60405180910390fd5b600073ffffffffffffffffffffffffffffffffffffffff168173ffffffffffffffffffffffffffffffffffffffff1614156112ac576040517f08c379a00000000000000000000000000000000000000000000000000000000081526004016112a390613105565b60405180910390fd5b6112b581611563565b50565b60007f7965db0b000000000000000000000000000000000000000000000000000000007bffffffffffffffffffffffffffffffffffffffffffffffffffffffff1916827bffffffffffffffffffffffffffffffffffffffffffffffffffffffff1916148061132b575061132a82611738565b5b9050919050565b80600760008573ffffffffffffffffffffffffffffffffffffffff1673ffffffffffffffffffffffffffffffffffffffff16815260200190815260200160002060008473ffffffffffffffffffffffffffffffffffffffff1673ffffffffffffffffffffffffffffffffffffffff168152602001908152602001600020600001541415611451576001600760008573ffffffffffffffffffffffffffffffffffffffff1673ffffffffffffffffffffffffffffffffffffffff16815260200190815260200160002060008473ffffffffffffffffffffffffffffffffffffffff1673ffffffffffffffffffffffffffffffffffffffff16815260200190815260200160002060010160008282546114499190613352565b925050819055505b505050565b600033905090565b61146882826108bf565b6114f75761148d8173ffffffffffffffffffffffffffffffffffffffff1660146117a2565b61149b8360001c60206117a2565b6040516020016114ac929190612d8f565b6040516020818303038152906040526040517f08c379a00000000000000000000000000000000000000000000000000000000081526004016114ee9190613083565b60405180910390fd5b5050565b6115058282611a9c565b61152a8160016000858152602001908152602001600020611b7c90919063ffffffff16565b505050565b6115398282611bac565b61155e8160016000858152602001908152602001600020611c8d90919063ffffffff16565b505050565b6000600260009054906101000a900473ffffffffffffffffffffffffffffffffffffffff16905081600260006101000a81548173ffffffffffffffffffffffffffffffffffffffff021916908373ffffffffffffffffffffffffffffffffffffffff1602179055508173ffffffffffffffffffffffffffffffffffffffff168173ffffffffffffffffffffffffffffffffffffffff167f8be0079c531659141344cd1fd0a4f28419497f9722a3daafe3b4186f6b6457e060405160405180910390a35050565b60006116388360000183611cbd565b60001c905092915050565b60008061164f83611d0e565b90506116ad81848060e001906116659190613272565b8080601f016020809104026020016040519081016040528093929190818152602001838380828437600081840152601f19601f82011690508083019250505050505050611da5565b915050919050565b60006116ee6116cd8385611dcc90919063ffffffff16565b6116e08487611dcc90919063ffffffff16565b611de290919063ffffffff16565b90509392505050565b600081836117059190613402565b905092915050565b6001816000016000828254019250508190555050565b600061173182600001611df8565b9050919050565b60007f01ffc9a7000000000000000000000000000000000000000000000000000000007bffffffffffffffffffffffffffffffffffffffffffffffffffffffff1916827bffffffffffffffffffffffffffffffffffffffffffffffffffffffff1916149050919050565b6060600060028360026117b591906133a8565b6117bf9190613352565b67ffffffffffffffff8111156117fe577f4e487b7100000000000000000000000000000000000000000000000000000000600052604160045260246000fd5b6040519080825280601f01601f1916602001820160405280156118305781602001600182028036833780820191505090505b5090507f30000000000000000000000000000000000000000000000000000000000000008160008151811061188e577f4e487b7100000000000000000000000000000000000000000000000000000000600052603260045260246000fd5b60200101907effffffffffffffffffffffffffffffffffffffffffffffffffffffffffffff1916908160001a9053507f780000000000000000000000000000000000000000000000000000000000000081600181518110611918577f4e487b7100000000000000000000000000000000000000000000000000000000600052603260045260246000fd5b60200101907effffffffffffffffffffffffffffffffffffffffffffffffffffffffffffff1916908160001a9053506000600184600261195891906133a8565b6119629190613352565b90505b6001811115611a4e577f3031323334353637383961626364656600000000000000000000000000000000600f8616601081106119ca577f4e487b7100000000000000000000000000000000000000000000000000000000600052603260045260246000fd5b1a60f81b828281518110611a07577f4e487b7100000000000000000000000000000000000000000000000000000000600052603260045260246000fd5b60200101907effffffffffffffffffffffffffffffffffffffffffffffffffffffffffffff1916908160001a905350600485901c945080611a47906135a5565b9050611965565b5060008414611a92576040517f08c379a0000000000000000000000000000000000000000000000000000000008152600401611a89906130c5565b60405180910390fd5b8091505092915050565b611aa682826108bf565b611b7857600160008084815260200190815260200160002060000160008373ffffffffffffffffffffffffffffffffffffffff1673ffffffffffffffffffffffffffffffffffffffff16815260200190815260200160002060006101000a81548160ff021916908315150217905550611b1d611456565b73ffffffffffffffffffffffffffffffffffffffff168173ffffffffffffffffffffffffffffffffffffffff16837f2f8788117e7eff1d82e926ec794901d17c78024a50270940304540a733656f0d60405160405180910390a45b5050565b6000611ba4836000018373ffffffffffffffffffffffffffffffffffffffff1660001b611e09565b905092915050565b611bb682826108bf565b15611c8957600080600084815260200190815260200160002060000160008373ffffffffffffffffffffffffffffffffffffffff1673ffffffffffffffffffffffffffffffffffffffff16815260200190815260200160002060006101000a81548160ff021916908315150217905550611c2e611456565b73ffffffffffffffffffffffffffffffffffffffff168173ffffffffffffffffffffffffffffffffffffffff16837ff6391f5c32d9c69d2a47ea670b442974b53935d1edc7fd64eb21e047a839171b60405160405180910390a45b5050565b6000611cb5836000018373ffffffffffffffffffffffffffffffffffffffff1660001b611e79565b905092915050565b6000826000018281548110611cfb577f4e487b7100000000000000000000000000000000000000000000000000000000600052603260045260246000fd5b9060005260206000200154905092915050565b6000611d9e7f2e8261caf322c56b8af89f82d72bc3d774662a78cae239e9aaa226972e545ea4838060600190611d4491906132c9565b8560200135868060600190611d5991906132c9565b604051611d67929190612d3f565b6040518091039020604051602001611d83959493929190612f7b565b60405160208183030381529060405280519060200120611fff565b9050919050565b6000806000611db48585612019565b91509150611dc18161209c565b819250505092915050565b60008183611dda91906133a8565b905092915050565b60008183611df09190613352565b905092915050565b600081600001805490509050919050565b6000611e1583836123ed565b611e6e578260000182908060018154018082558091505060019003906000526020600020016000909190919091505582600001805490508360010160008481526020019081526020016000208190555060019050611e73565b600090505b92915050565b60008083600101600084815260200190815260200160002054905060008114611ff3576000600182611eab9190613402565b9050600060018660000180549050611ec39190613402565b9050818114611f7e576000866000018281548110611f0a577f4e487b7100000000000000000000000000000000000000000000000000000000600052603260045260246000fd5b9060005260206000200154905080876000018481548110611f54577f4e487b7100000000000000000000000000000000000000000000000000000000600052603260045260246000fd5b90600052602060002001819055508387600101600083815260200190815260200160002081905550505b85600001805480611fb8577f4e487b7100000000000000000000000000000000000000000000000000000000600052603160045260246000fd5b600190038181906000526020600020016000905590558560010160008681526020019081526020016000206000905560019350505050611ff9565b60009150505b92915050565b600061201261200c612410565b8361252a565b9050919050565b60008060418351141561205b5760008060006020860151925060408601519150606086015160001a905061204f8782858561255d565b94509450505050612095565b60408351141561208c57600080602085015191506040850151905061208186838361266a565b935093505050612095565b60006002915091505b9250929050565b600060048111156120d6577f4e487b7100000000000000000000000000000000000000000000000000000000600052602160045260246000fd5b81600481111561210f577f4e487b7100000000000000000000000000000000000000000000000000000000600052602160045260246000fd5b141561211a576123ea565b60016004811115612154577f4e487b7100000000000000000000000000000000000000000000000000000000600052602160045260246000fd5b81600481111561218d577f4e487b7100000000000000000000000000000000000000000000000000000000600052602160045260246000fd5b14156121ce576040517f08c379a00000000000000000000000000000000000000000000000000000000081526004016121c5906130a5565b60405180910390fd5b60026004811115612208577f4e487b7100000000000000000000000000000000000000000000000000000000600052602160045260246000fd5b816004811115612241577f4e487b7100000000000000000000000000000000000000000000000000000000600052602160045260246000fd5b1415612282576040517f08c379a0000000000000000000000000000000000000000000000000000000008152600401612279906130e5565b60405180910390fd5b600360048111156122bc577f4e487b7100000000000000000000000000000000000000000000000000000000600052602160045260246000fd5b8160048111156122f5577f4e487b7100000000000000000000000000000000000000000000000000000000600052602160045260246000fd5b1415612336576040517f08c379a000000000000000000000000000000000000000000000000000000000815260040161232d90613125565b60405180910390fd5b60048081111561236f577f4e487b7100000000000000000000000000000000000000000000000000000000600052602160045260246000fd5b8160048111156123a8577f4e487b7100000000000000000000000000000000000000000000000000000000600052602160045260246000fd5b14156123e9576040517f08c379a00000000000000000000000000000000000000000000000000000000081526004016123e090613145565b60405180910390fd5b5b50565b600080836001016000848152602001908152602001600020541415905092915050565b60007f000000000000000000000000000000000000000000000000000000000000000073ffffffffffffffffffffffffffffffffffffffff163073ffffffffffffffffffffffffffffffffffffffff1614801561248c57507f000000000000000000000000000000000000000000000000000000000000000046145b156124b9577f00000000000000000000000000000000000000000000000000000000000000009050612527565b6125247f00000000000000000000000000000000000000000000000000000000000000007f00000000000000000000000000000000000000000000000000000000000000007f00000000000000000000000000000000000000000000000000000000000000006126b8565b90505b90565b6000828260405160200161253f929190612d58565b60405160208183030381529060405280519060200120905092915050565b6000807f7fffffffffffffffffffffffffffffff5d576e7357a4501ddfe92f46681b20a08360001c1115612598576000600391509150612661565b601b8560ff16141580156125b05750601c8560ff1614155b156125c2576000600491509150612661565b6000600187878787604051600081526020016040526040516125e79493929190612fc9565b6020604051602081039080840390855afa158015612609573d6000803e3d6000fd5b505050602060405103519050600073ffffffffffffffffffffffffffffffffffffffff168173ffffffffffffffffffffffffffffffffffffffff16141561265857600060019250925050612661565b80600092509250505b94509492505050565b6000806000807f7fffffffffffffffffffffffffffffffffffffffffffffffffffffffffffffff85169150601b8560ff1c0190506126aa8782888561255d565b935093505050935093915050565b600083838346306040516020016126d3959493929190612f28565b6040516020818303038152906040528051906020012090509392505050565b60008135905061270181613915565b92915050565b6000813590506127168161392c565b92915050565b60008135905061272b81613943565b92915050565b6000813590506127408161395a565b92915050565b6000610100828403121561275957600080fd5b81905092915050565b60008135905061277181613971565b92915050565b60008151905061278681613971565b92915050565b60006020828403121561279e57600080fd5b60006127ac848285016126f2565b91505092915050565b600080604083850312156127c857600080fd5b60006127d6858286016126f2565b92505060206127e7858286016126f2565b9150509250929050565b60008060006060848603121561280657600080fd5b6000612814868287016126f2565b9350506020612825868287016126f2565b925050604061283686828701612762565b9150509250925092565b60008060006060848603121561285557600080fd5b6000612863868287016126f2565b935050602061287486828701612762565b925050604084013567ffffffffffffffff81111561289157600080fd5b61289d86828701612746565b9150509250925092565b6000602082840312156128b957600080fd5b60006128c784828501612707565b91505092915050565b6000602082840312156128e257600080fd5b60006128f08482850161271c565b91505092915050565b6000806040838503121561290c57600080fd5b600061291a8582860161271c565b925050602061292b858286016126f2565b9150509250929050565b6000806040838503121561294857600080fd5b60006129568582860161271c565b925050602061296785828601612762565b9150509250929050565b60006020828403121561298357600080fd5b600061299184828501612731565b91505092915050565b6000602082840312156129ac57600080fd5b60006129ba84828501612762565b91505092915050565b6000602082840312156129d557600080fd5b60006129e384828501612777565b91505092915050565b6129f5816134c1565b82525050565b612a0481613436565b82525050565b612a1381613448565b82525050565b612a2281613454565b82525050565b612a39612a3482613454565b6135cf565b82525050565b6000612a4b838561332b565b9350612a58838584613563565b82840190509392505050565b612a6d816134d3565b82525050565b612a7c816134f7565b82525050565b612a8b8161351b565b82525050565b6000612a9d8385613336565b9350612aaa838584613563565b612ab383613608565b840190509392505050565b6000612ac982613320565b612ad38185613336565b9350612ae3818560208601613572565b612aec81613608565b840191505092915050565b6000612b0282613320565b612b0c8185613347565b9350612b1c818560208601613572565b80840191505092915050565b6000612b35601883613336565b9150612b4082613619565b602082019050919050565b6000612b58602083613336565b9150612b6382613642565b602082019050919050565b6000612b7b601f83613336565b9150612b868261366b565b602082019050919050565b6000612b9e602683613336565b9150612ba982613694565b604082019050919050565b6000612bc1600283613347565b9150612bcc826136e3565b600282019050919050565b6000612be4602283613336565b9150612bef8261370c565b604082019050919050565b6000612c07602283613336565b9150612c128261375b565b604082019050919050565b6000612c2a601c83613336565b9150612c35826137aa565b602082019050919050565b6000612c4d602083613336565b9150612c58826137d3565b602082019050919050565b6000612c70602183613336565b9150612c7b826137fc565b604082019050919050565b6000612c93601783613347565b9150612c9e8261384b565b601782019050919050565b6000612cb6601f83613336565b9150612cc182613874565b602082019050919050565b6000612cd9601183613347565b9150612ce48261389d565b601182019050919050565b6000612cfc602f83613336565b9150612d07826138c6565b604082019050919050565b612d1b816134aa565b82525050565b612d2a816134aa565b82525050565b612d39816134b4565b82525050565b6000612d4c828486612a3f565b91508190509392505050565b6000612d6382612bb4565b9150612d6f8285612a28565b602082019150612d7f8284612a28565b6020820191508190509392505050565b6000612d9a82612c86565b9150612da68285612af7565b9150612db182612ccc565b9150612dbd8284612af7565b91508190509392505050565b6000602082019050612dde60008301846129fb565b92915050565b6000604082019050612df960008301856129ec565b612e066020830184612d12565b9392505050565b6000606082019050612e2260008301866129fb565b612e2f60208301856129fb565b612e3c6040830184612d12565b949350505050565b6000608082019050612e5960008301876129fb565b612e6660208301866129fb565b612e736040830185612d12565b612e806060830184612d12565b95945050505050565b6000606082019050612e9e60008301876129fb565b8181036020830152612eb1818587612a91565b9050612ec06040830184612d12565b95945050505050565b6000604082019050612ede60008301856129fb565b612eeb6020830184612d12565b9392505050565b6000602082019050612f076000830184612a0a565b92915050565b6000602082019050612f226000830184612a19565b92915050565b600060a082019050612f3d6000830188612a19565b612f4a6020830187612a19565b612f576040830186612a19565b612f646060830185612d12565b612f7160808301846129fb565b9695505050505050565b6000608082019050612f906000830188612a19565b8181036020830152612fa3818688612a91565b9050612fb26040830185612d12565b612fbf6060830184612a19565b9695505050505050565b6000608082019050612fde6000830187612a19565b612feb6020830186612d30565b612ff86040830185612a19565b6130056060830184612a19565b95945050505050565b60006020820190506130236000830184612a64565b92915050565b600060208201905061303e6000830184612a73565b92915050565b60006020820190506130596000830184612a82565b92915050565b6000602082019050818103600083015261307a818486612a91565b90509392505050565b6000602082019050818103600083015261309d8184612abe565b905092915050565b600060208201905081810360008301526130be81612b28565b9050919050565b600060208201905081810360008301526130de81612b4b565b9050919050565b600060208201905081810360008301526130fe81612b6e565b9050919050565b6000602082019050818103600083015261311e81612b91565b9050919050565b6000602082019050818103600083015261313e81612bd7565b9050919050565b6000602082019050818103600083015261315e81612bfa565b9050919050565b6000602082019050818103600083015261317e81612c1d565b9050919050565b6000602082019050818103600083015261319e81612c40565b9050919050565b600060208201905081810360008301526131be81612c63565b9050919050565b600060208201905081810360008301526131de81612ca9565b9050919050565b600060208201905081810360008301526131fe81612cef565b9050919050565b600060208201905061321a6000830184612d12565b92915050565b60006040820190506132356000830185612d21565b6132426020830184612d21565b9392505050565b600060408201905061325e6000830185612d12565b61326b6020830184612d12565b9392505050565b6000808335600160200384360303811261328b57600080fd5b80840192508235915067ffffffffffffffff8211156132a957600080fd5b6020830192506001820236038313156132c157600080fd5b509250929050565b600080833560016020038436030381126132e257600080fd5b80840192508235915067ffffffffffffffff82111561330057600080fd5b60208301925060018202360383131561331857600080fd5b509250929050565b600081519050919050565b600081905092915050565b600082825260208201905092915050565b600081905092915050565b600061335d826134aa565b9150613368836134aa565b9250827fffffffffffffffffffffffffffffffffffffffffffffffffffffffffffffffff0382111561339d5761339c6135d9565b5b828201905092915050565b60006133b3826134aa565b91506133be836134aa565b9250817fffffffffffffffffffffffffffffffffffffffffffffffffffffffffffffffff04831182151516156133f7576133f66135d9565b5b828202905092915050565b600061340d826134aa565b9150613418836134aa565b92508282101561342b5761342a6135d9565b5b828203905092915050565b60006134418261348a565b9050919050565b60008115159050919050565b6000819050919050565b60007fffffffff0000000000000000000000000000000000000000000000000000000082169050919050565b600073ffffffffffffffffffffffffffffffffffffffff82169050919050565b6000819050919050565b600060ff82169050919050565b60006134cc8261353f565b9050919050565b60006134de826134e5565b9050919050565b60006134f08261348a565b9050919050565b600061350282613509565b9050919050565b60006135148261348a565b9050919050565b60006135268261352d565b9050919050565b60006135388261348a565b9050919050565b600061354a82613551565b9050919050565b600061355c8261348a565b9050919050565b82818337600083830152505050565b60005b83811015613590578082015181840152602081019050613575565b8381111561359f576000848401525b50505050565b60006135b0826134aa565b915060008214156135c4576135c36135d9565b5b600182039050919050565b6000819050919050565b7f4e487b7100000000000000000000000000000000000000000000000000000000600052601160045260246000fd5b6000601f19601f8301169050919050565b7f45434453413a20696e76616c6964207369676e61747572650000000000000000600082015250565b7f537472696e67733a20686578206c656e67746820696e73756666696369656e74600082015250565b7f45434453413a20696e76616c6964207369676e6174757265206c656e67746800600082015250565b7f4f776e61626c653a206e6577206f776e657220697320746865207a65726f206160008201527f6464726573730000000000000000000000000000000000000000000000000000602082015250565b7f1901000000000000000000000000000000000000000000000000000000000000600082015250565b7f45434453413a20696e76616c6964207369676e6174757265202773272076616c60008201527f7565000000000000000000000000000000000000000000000000000000000000602082015250565b7f45434453413a20696e76616c6964207369676e6174757265202776272076616c60008201527f7565000000000000000000000000000000000000000000000000000000000000602082015250565b7f496e73756666696369656e742066756e647320746f2072656465656d00000000600082015250565b7f4f776e61626c653a2063616c6c6572206973206e6f7420746865206f776e6572600082015250565b7f5369676e617475726520696e76616c6964206f7220756e617574686f72697a6560008201527f6400000000000000000000000000000000000000000000000000000000000000602082015250565b7f416363657373436f6e74726f6c3a206163636f756e7420000000000000000000600082015250565b7f5265656e7472616e637947756172643a207265656e7472616e742063616c6c00600082015250565b7f206973206d697373696e6720726f6c6520000000000000000000000000000000600082015250565b7f416363657373436f6e74726f6c3a2063616e206f6e6c792072656e6f756e636560008201527f20726f6c657320666f722073656c660000000000000000000000000000000000602082015250565b61391e81613436565b811461392957600080fd5b50565b61393581613448565b811461394057600080fd5b50565b61394c81613454565b811461395757600080fd5b50565b6139638161345e565b811461396e57600080fd5b50565b61397a816134aa565b811461398557600080fd5b5056fea2646970667358221220e453819e8110b03eb3d7c31533735f74ae0b9c680a444f06ef6b5377e25740e364736f6c63430008040033",
  "linkReferences": {
    "contracts/libs/PercentageUtils.sol": {
      "PercentageUtils": [
        {
          "length": 20,
          "start": 4654
        }
      ]
    }
  },
  "deployedLinkReferences": {
    "contracts/libs/PercentageUtils.sol": {
      "PercentageUtils": [
        {
          "length": 20,
          "start": 2608
        }
      ]
    }
  }
}