{
  "_format": "hh-sol-artifact-1",
  "contractName": "MarketContract",
  "sourceName": "contracts/MarketContract.sol",
  "abi": [
    {
      "inputs": [
        {
          "internalType": "address",
          "name": "_commonUtilsAddress",
          "type": "address"
        }
      ],
      "stateMutability": "nonpayable",
      "type": "constructor"
    },
    {
      "anonymous": false,
      "inputs": [
        {
          "indexed": true,
          "internalType": "address",
          "name": "previousOwner",
          "type": "address"
        },
        {
          "indexed": true,
          "internalType": "address",
          "name": "newOwner",
          "type": "address"
        }
      ],
      "name": "OwnershipTransferred",
      "type": "event"
    },
    {
      "anonymous": false,
      "inputs": [
        {
          "indexed": false,
          "internalType": "bytes",
          "name": "signature",
          "type": "bytes"
        },
        {
          "indexed": false,
          "internalType": "address",
          "name": "buyer",
          "type": "address"
        },
        {
          "indexed": false,
          "internalType": "uint256",
          "name": "soldAmount",
          "type": "uint256"
        }
      ],
      "name": "RedeemedMintVoucher",
      "type": "event"
    },
    {
      "anonymous": false,
      "inputs": [
        {
          "indexed": false,
          "internalType": "bytes",
          "name": "signature",
          "type": "bytes"
        },
        {
          "indexed": false,
          "internalType": "address",
          "name": "buyer",
          "type": "address"
        },
        {
          "indexed": false,
          "internalType": "uint256",
          "name": "soldAmount",
          "type": "uint256"
        }
      ],
      "name": "RedeemedSaleVoucher",
      "type": "event"
    },
    {
      "anonymous": false,
      "inputs": [
        {
          "indexed": true,
          "internalType": "bytes32",
          "name": "role",
          "type": "bytes32"
        },
        {
          "indexed": true,
          "internalType": "bytes32",
          "name": "previousAdminRole",
          "type": "bytes32"
        },
        {
          "indexed": true,
          "internalType": "bytes32",
          "name": "newAdminRole",
          "type": "bytes32"
        }
      ],
      "name": "RoleAdminChanged",
      "type": "event"
    },
    {
      "anonymous": false,
      "inputs": [
        {
          "indexed": true,
          "internalType": "bytes32",
          "name": "role",
          "type": "bytes32"
        },
        {
          "indexed": true,
          "internalType": "address",
          "name": "account",
          "type": "address"
        },
        {
          "indexed": true,
          "internalType": "address",
          "name": "sender",
          "type": "address"
        }
      ],
      "name": "RoleGranted",
      "type": "event"
    },
    {
      "anonymous": false,
      "inputs": [
        {
          "indexed": true,
          "internalType": "bytes32",
          "name": "role",
          "type": "bytes32"
        },
        {
          "indexed": true,
          "internalType": "address",
          "name": "account",
          "type": "address"
        },
        {
          "indexed": true,
          "internalType": "address",
          "name": "sender",
          "type": "address"
        }
      ],
      "name": "RoleRevoked",
      "type": "event"
    },
    {
      "anonymous": false,
      "inputs": [
        {
          "indexed": false,
          "internalType": "bytes",
          "name": "signature",
          "type": "bytes"
        }
      ],
      "name": "UnlistedNFT",
      "type": "event"
    },
    {
      "inputs": [],
      "name": "DEFAULT_ADMIN_ROLE",
      "outputs": [
        {
          "internalType": "bytes32",
          "name": "",
          "type": "bytes32"
        }
      ],
      "stateMutability": "view",
      "type": "function"
    },
    {
      "inputs": [
        {
          "internalType": "uint256",
          "name": "_tokenId",
          "type": "uint256"
        },
        {
          "internalType": "uint256",
          "name": "_salePrice",
          "type": "uint256"
        }
      ],
      "name": "_royaltySplitLicense",
      "outputs": [
        {
          "internalType": "uint256",
          "name": "",
          "type": "uint256"
        },
        {
          "internalType": "uint256",
          "name": "",
          "type": "uint256"
        },
        {
          "internalType": "uint256",
          "name": "",
          "type": "uint256"
        }
      ],
      "stateMutability": "view",
      "type": "function"
    },
    {
      "inputs": [
        {
          "internalType": "uint256",
          "name": "_tokenId",
          "type": "uint256"
        },
        {
          "internalType": "uint256",
          "name": "_salePrice",
          "type": "uint256"
        }
      ],
      "name": "_royaltySplitMaster",
      "outputs": [
        {
          "internalType": "uint256",
          "name": "",
          "type": "uint256"
        },
        {
          "internalType": "uint256",
          "name": "",
          "type": "uint256"
        }
      ],
      "stateMutability": "view",
      "type": "function"
    },
    {
      "inputs": [],
      "name": "_serviceFees",
      "outputs": [
        {
          "internalType": "uint256",
          "name": "",
          "type": "uint256"
        }
      ],
      "stateMutability": "view",
      "type": "function"
    },
    {
      "inputs": [],
      "name": "commonUtils",
      "outputs": [
        {
          "internalType": "contract ICommonUtils",
          "name": "",
          "type": "address"
        }
      ],
      "stateMutability": "view",
      "type": "function"
    },
    {
      "inputs": [
        {
          "internalType": "bytes32",
          "name": "role",
          "type": "bytes32"
        }
      ],
      "name": "getRoleAdmin",
      "outputs": [
        {
          "internalType": "bytes32",
          "name": "",
          "type": "bytes32"
        }
      ],
      "stateMutability": "view",
      "type": "function"
    },
    {
      "inputs": [
        {
          "internalType": "bytes32",
          "name": "role",
          "type": "bytes32"
        },
        {
          "internalType": "uint256",
          "name": "index",
          "type": "uint256"
        }
      ],
      "name": "getRoleMember",
      "outputs": [
        {
          "internalType": "address",
          "name": "",
          "type": "address"
        }
      ],
      "stateMutability": "view",
      "type": "function"
    },
    {
      "inputs": [
        {
          "internalType": "bytes32",
          "name": "role",
          "type": "bytes32"
        }
      ],
      "name": "getRoleMemberCount",
      "outputs": [
        {
          "internalType": "uint256",
          "name": "",
          "type": "uint256"
        }
      ],
      "stateMutability": "view",
      "type": "function"
    },
    {
      "inputs": [],
      "name": "getServiceFees",
      "outputs": [
        {
          "internalType": "uint256",
          "name": "",
          "type": "uint256"
        }
      ],
      "stateMutability": "view",
      "type": "function"
    },
    {
      "inputs": [
        {
          "internalType": "bytes32",
          "name": "role",
          "type": "bytes32"
        },
        {
          "internalType": "address",
          "name": "account",
          "type": "address"
        }
      ],
      "name": "grantRole",
      "outputs": [],
      "stateMutability": "nonpayable",
      "type": "function"
    },
    {
      "inputs": [
        {
          "internalType": "bytes32",
          "name": "role",
          "type": "bytes32"
        },
        {
          "internalType": "address",
          "name": "account",
          "type": "address"
        }
      ],
      "name": "hasRole",
      "outputs": [
        {
          "internalType": "bool",
          "name": "",
          "type": "bool"
        }
      ],
      "stateMutability": "view",
      "type": "function"
    },
    {
      "inputs": [
        {
          "internalType": "bytes",
          "name": "",
          "type": "bytes"
        }
      ],
      "name": "isVoucherInvalid",
      "outputs": [
        {
          "internalType": "bool",
          "name": "",
          "type": "bool"
        }
      ],
      "stateMutability": "view",
      "type": "function"
    },
    {
      "inputs": [],
      "name": "owner",
      "outputs": [
        {
          "internalType": "address",
          "name": "",
          "type": "address"
        }
      ],
      "stateMutability": "view",
      "type": "function"
    },
    {
      "inputs": [
        {
          "internalType": "uint256",
          "name": "_amountToPurchase",
          "type": "uint256"
        },
        {
          "components": [
            {
              "internalType": "uint256",
              "name": "price",
              "type": "uint256"
            },
            {
              "internalType": "string",
              "name": "tokenUri",
              "type": "string"
            },
            {
              "internalType": "uint256",
              "name": "supply",
              "type": "uint256"
            },
            {
              "internalType": "uint256",
              "name": "maxSupply",
              "type": "uint256"
            },
            {
              "internalType": "bool",
              "name": "isMaster",
              "type": "bool"
            },
            {
              "internalType": "bytes",
              "name": "signature",
              "type": "bytes"
            },
            {
              "internalType": "string",
              "name": "currency",
              "type": "string"
            },
            {
              "internalType": "uint96",
              "name": "royaltyFeeMaster",
              "type": "uint96"
            },
            {
              "internalType": "uint96",
              "name": "royaltyFeeLicense",
              "type": "uint96"
            },
            {
              "internalType": "uint96",
              "name": "creatorOwnerSplit",
              "type": "uint96"
            },
            {
              "internalType": "uint256",
              "name": "validUntil",
              "type": "uint256"
            }
          ],
          "internalType": "struct MarketContract.MintVoucher",
          "name": "_mintVoucher",
          "type": "tuple"
        }
      ],
      "name": "redeemMintVoucher",
      "outputs": [],
      "stateMutability": "payable",
      "type": "function"
    },
    {
      "inputs": [
        {
          "internalType": "uint256",
          "name": "_amountToPurchase",
          "type": "uint256"
        },
        {
          "components": [
            {
              "internalType": "address",
              "name": "nftContractAddress",
              "type": "address"
            },
            {
              "internalType": "uint256",
              "name": "price",
              "type": "uint256"
            },
            {
              "internalType": "string",
              "name": "tokenUri",
              "type": "string"
            },
            {
              "internalType": "uint256",
              "name": "supply",
              "type": "uint256"
            },
            {
              "internalType": "bool",
              "name": "isMaster",
              "type": "bool"
            },
            {
              "internalType": "bytes",
              "name": "signature",
              "type": "bytes"
            },
            {
              "internalType": "string",
              "name": "currency",
              "type": "string"
            },
            {
              "internalType": "uint256",
              "name": "validUntil",
              "type": "uint256"
            }
          ],
          "internalType": "struct MarketContract.SaleVoucher",
          "name": "_saleVoucher",
          "type": "tuple"
        }
      ],
      "name": "redeemSaleVoucher",
      "outputs": [],
      "stateMutability": "payable",
      "type": "function"
    },
    {
      "inputs": [],
      "name": "renounceOwnership",
      "outputs": [],
      "stateMutability": "nonpayable",
      "type": "function"
    },
    {
      "inputs": [
        {
          "internalType": "bytes32",
          "name": "role",
          "type": "bytes32"
        },
        {
          "internalType": "address",
          "name": "account",
          "type": "address"
        }
      ],
      "name": "renounceRole",
      "outputs": [],
      "stateMutability": "nonpayable",
      "type": "function"
    },
    {
      "inputs": [
        {
          "internalType": "bytes32",
          "name": "role",
          "type": "bytes32"
        },
        {
          "internalType": "address",
          "name": "account",
          "type": "address"
        }
      ],
      "name": "revokeRole",
      "outputs": [],
      "stateMutability": "nonpayable",
      "type": "function"
    },
    {
      "inputs": [
        {
          "internalType": "uint256",
          "name": "_tokenId",
          "type": "uint256"
        },
        {
          "internalType": "uint256",
          "name": "_salePrice",
          "type": "uint256"
        }
      ],
      "name": "royaltySplitLicense",
      "outputs": [
        {
          "internalType": "uint256",
          "name": "",
          "type": "uint256"
        },
        {
          "internalType": "uint256",
          "name": "",
          "type": "uint256"
        },
        {
          "internalType": "uint256",
          "name": "",
          "type": "uint256"
        }
      ],
      "stateMutability": "view",
      "type": "function"
    },
    {
      "inputs": [
        {
          "internalType": "uint256",
          "name": "_tokenId",
          "type": "uint256"
        },
        {
          "internalType": "uint256",
          "name": "_salePrice",
          "type": "uint256"
        }
      ],
      "name": "royaltySplitMaster",
      "outputs": [
        {
          "internalType": "uint256",
          "name": "",
          "type": "uint256"
        },
        {
          "internalType": "uint256",
          "name": "",
          "type": "uint256"
        }
      ],
      "stateMutability": "view",
      "type": "function"
    },
    {
      "inputs": [
        {
          "internalType": "uint256",
          "name": "tokenId",
          "type": "uint256"
        },
        {
          "internalType": "uint96",
          "name": "royaltyFeeMaster",
          "type": "uint96"
        },
        {
          "internalType": "uint96",
          "name": "royaltyFeeLicense",
          "type": "uint96"
        },
        {
          "internalType": "uint96",
          "name": "creatorOwnerRoyaltySplit",
          "type": "uint96"
        }
      ],
      "name": "setTokenRoyaltySplit",
      "outputs": [],
      "stateMutability": "nonpayable",
      "type": "function"
    },
    {
      "inputs": [
        {
          "internalType": "bytes4",
          "name": "interfaceId",
          "type": "bytes4"
        }
      ],
      "name": "supportsInterface",
      "outputs": [
        {
          "internalType": "bool",
          "name": "",
          "type": "bool"
        }
      ],
      "stateMutability": "view",
      "type": "function"
    },
    {
      "inputs": [
        {
          "internalType": "address",
          "name": "newOwner",
          "type": "address"
        }
      ],
      "name": "transferOwnership",
      "outputs": [],
      "stateMutability": "nonpayable",
      "type": "function"
    },
    {
      "inputs": [
        {
          "components": [
            {
              "internalType": "uint256",
              "name": "price",
              "type": "uint256"
            },
            {
              "internalType": "string",
              "name": "tokenUri",
              "type": "string"
            },
            {
              "internalType": "uint256",
              "name": "supply",
              "type": "uint256"
            },
            {
              "internalType": "uint256",
              "name": "maxSupply",
              "type": "uint256"
            },
            {
              "internalType": "bool",
              "name": "isMaster",
              "type": "bool"
            },
            {
              "internalType": "bytes",
              "name": "signature",
              "type": "bytes"
            },
            {
              "internalType": "string",
              "name": "currency",
              "type": "string"
            },
            {
              "internalType": "uint96",
              "name": "royaltyFeeMaster",
              "type": "uint96"
            },
            {
              "internalType": "uint96",
              "name": "royaltyFeeLicense",
              "type": "uint96"
            },
            {
              "internalType": "uint96",
              "name": "creatorOwnerSplit",
              "type": "uint96"
            },
            {
              "internalType": "uint256",
              "name": "validUntil",
              "type": "uint256"
            }
          ],
          "internalType": "struct MarketContract.MintVoucher",
          "name": "_mintVoucher",
          "type": "tuple"
        }
      ],
      "name": "unlistMintVoucher",
      "outputs": [],
      "stateMutability": "nonpayable",
      "type": "function"
    },
    {
      "inputs": [
        {
          "components": [
            {
              "internalType": "address",
              "name": "nftContractAddress",
              "type": "address"
            },
            {
              "internalType": "uint256",
              "name": "price",
              "type": "uint256"
            },
            {
              "internalType": "string",
              "name": "tokenUri",
              "type": "string"
            },
            {
              "internalType": "uint256",
              "name": "supply",
              "type": "uint256"
            },
            {
              "internalType": "bool",
              "name": "isMaster",
              "type": "bool"
            },
            {
              "internalType": "bytes",
              "name": "signature",
              "type": "bytes"
            },
            {
              "internalType": "string",
              "name": "currency",
              "type": "string"
            },
            {
              "internalType": "uint256",
              "name": "validUntil",
              "type": "uint256"
            }
          ],
          "internalType": "struct MarketContract.SaleVoucher",
          "name": "_saleVoucher",
          "type": "tuple"
        }
      ],
      "name": "unlistSaleVoucher",
      "outputs": [],
      "stateMutability": "nonpayable",
      "type": "function"
    },
    {
      "inputs": [
        {
          "internalType": "bytes",
          "name": "",
          "type": "bytes"
        }
      ],
      "name": "voucherAmountSold",
      "outputs": [
        {
          "internalType": "uint256",
          "name": "",
          "type": "uint256"
        }
      ],
      "stateMutability": "view",
      "type": "function"
    },
    {
      "inputs": [
        {
          "internalType": "uint256",
          "name": "_calculatedFees",
          "type": "uint256"
        }
      ],
      "name": "withdrawFees",
      "outputs": [],
      "stateMutability": "payable",
      "type": "function"
    }
  ],
  "bytecode": "0x6101406040523480156200001257600080fd5b506040516200327b3803806200327b8339810160408190526200003591620001cf565b604080518082018252600981526829ab2b37bab1b432b960b91b6020808301918252835180850190945260018452603160f81b908401528151902060e08190527fc89efdaa54c0f20c7adf612882df0950f5a951637e0307cdcb4c672f298b8bc66101008190524660a0529192917f8b73c3c69bb8fe3d512ecc4cf759cc79239f7b179b0ffacaa9a75d522b39400f620001148184846040805160208101859052908101839052606081018290524660808201523060a082015260009060c0016040516020818303038152906040528051906020012090509392505050565b6080523060601b60c05261012052506200013a9250620001349150503390565b6200017d565b6001600355600254600580546001600160a01b039283166001600160a01b031991821617909155610dac60065560098054939092169216919091179055620001ff565b600280546001600160a01b038381166001600160a01b0319831681179093556040519116919082907f8be0079c531659141344cd1fd0a4f28419497f9722a3daafe3b4186f6b6457e090600090a35050565b600060208284031215620001e1578081fd5b81516001600160a01b0381168114620001f8578182fd5b9392505050565b60805160a05160c05160601c60e05161010051610120516130296200025260003960006128490152600061289801526000612873015260006127cc015260006127f60152600061282001526130296000f3fe60806040526004361061019c5760003560e01c806391d14854116100ec578063bff76f661161008a578063d547741f11610064578063d547741f146104f1578063d5c4042114610511578063f2fde38b14610526578063fb9bf2741461054657600080fd5b8063bff76f6614610476578063ca15c873146104b1578063d26687e4146104d157600080fd5b8063a217fddf116100c6578063a217fddf1461040b578063b02b45a314610420578063b720f2fa14610440578063b776fcf61461046057600080fd5b806391d14854146103ab57806397ed1328146103cb57806399338f02146103eb57600080fd5b806336568abe116101595780635f11f293116101335780635f11f29314610309578063715018a6146103445780638da5cb5b146103595780639010d07c1461038b57600080fd5b806336568abe146102c35780634b291127146102e35780635e318e07146102f657600080fd5b806301ffc9a7146101a1578063147095a2146101d6578063248a9ca31461021c578063294260951461024c5780632ddb3ed31461026e5780632f2ff15d146102a3575b600080fd5b3480156101ad57600080fd5b506101c16101bc366004612ad9565b610559565b60405190151581526020015b60405180910390f35b3480156101e257600080fd5b5061020e6101f1366004612b01565b805160208183018101805160088252928201919093012091525481565b6040519081526020016101cd565b34801561022857600080fd5b5061020e610237366004612a71565b60009081526020819052604090206001015490565b34801561025857600080fd5b5061026c610267366004612ca9565b610584565b005b34801561027a57600080fd5b5061028e610289366004612ab8565b610690565b604080519283526020830191909152016101cd565b3480156102af57600080fd5b5061026c6102be366004612a89565b6106a9565b3480156102cf57600080fd5b5061026c6102de366004612a89565b6106d3565b61026c6102f1366004612c6e565b610751565b61026c610304366004612a71565b610a38565b34801561031557600080fd5b50610329610324366004612ab8565b610a72565b604080519384526020840192909252908201526060016101cd565b34801561035057600080fd5b5061026c610b39565b34801561036557600080fd5b506002546001600160a01b03165b6040516001600160a01b0390911681526020016101cd565b34801561039757600080fd5b506103736103a6366004612ab8565b610b4d565b3480156103b757600080fd5b506101c16103c6366004612a89565b610b6c565b3480156103d757600080fd5b50600954610373906001600160a01b031681565b3480156103f757600080fd5b5061028e610406366004612ab8565b610b95565b34801561041757600080fd5b5061020e600081565b34801561042c57600080fd5b5061032961043b366004612ab8565b610c18565b34801561044c57600080fd5b5061026c61045b366004612bde565b610c34565b34801561046c57600080fd5b5061020e60065481565b34801561048257600080fd5b506101c1610491366004612b01565b805160208183018101805160078252928201919093012091525460ff1681565b3480156104bd57600080fd5b5061020e6104cc366004612a71565b610d33565b3480156104dd57600080fd5b5061026c6104ec366004612bab565b610d4a565b3480156104fd57600080fd5b5061026c61050c366004612a89565b610d55565b34801561051d57600080fd5b5060065461020e565b34801561053257600080fd5b5061026c610541366004612a19565b610d7a565b61026c610554366004612c29565b610df3565b60006001600160e01b03198216635a05180f60e01b148061057e575061057e826110cb565b92915050565b6127106001600160601b03841611156105b85760405162461bcd60e51b81526004016105af90612e6a565b60405180910390fd5b6127106001600160601b03831611156105e35760405162461bcd60e51b81526004016105af90612e6a565b6127106001600160601b038216111561060e5760405162461bcd60e51b81526004016105af90612e6a565b604080516060810182526001600160601b03948516815292841660208085019182529285168483019081526000968752600490935294209151825494518416600160601b026001600160c01b031990951690841617939093178155915160019092018054929091166bffffffffffffffffffffffff1992909216919091179055565b60008061069d8484610b95565b915091505b9250929050565b6000828152602081905260409020600101546106c481611100565b6106ce838361110a565b505050565b6001600160a01b03811633146107435760405162461bcd60e51b815260206004820152602f60248201527f416363657373436f6e74726f6c3a2063616e206f6e6c792072656e6f756e636560448201526e103937b632b9903337b91039b2b63360891b60648201526084016105af565b61074d828261112c565b5050565b600260035414156107a45760405162461bcd60e51b815260206004820152601f60248201527f5265656e7472616e637947756172643a207265656e7472616e742063616c6c0060448201526064016105af565b60026003556107b3818361114e565b15156001146107fc5760405162461bcd60e51b815260206004820152601560248201527429b4b3b730ba3ab9329034b99034b73b30b634b21760591b60448201526064016105af565b60006108078261129f565b9050336001600160a01b0382168114156108565760405162461bcd60e51b815260206004820152601060248201526f29b2b63632b91034b990313abcb2b91760811b60448201526064016105af565b600b546000906001600160a01b03166315a2f1206108776040870187612ebc565b6040518363ffffffff1660e01b8152600401610894929190612df3565b602060405180830381600087803b1580156108ae57600080fd5b505af11580156108c2573d6000803e3d6000fd5b505050506040513d601f19601f820116820180604052508101906108e69190612c11565b905061090981838560208801358961090460a08b0160808c01612a51565b6112f8565b61094085600861091c60a0880188612ebc565b60405161092a929190612d38565b908152604051908190036020019020549061138c565b600861094f60a0870187612ebc565b60405161095d929190612d38565b908152604051908190036020019020556060840135600861098160a0870187612ebc565b60405161098f929190612d38565b90815260200160405180910390205414156109e457600060076109b560a0870187612ebc565b6040516109c3929190612d38565b908152604051908190036020019020805491151560ff199092169190911790555b7f2606ed8abefca6d80d0dc5e61b97e042aa9480b717b1c9669c7f107610cb7a09610a1260a0860186612ebc565b8488604051610a249493929190612e07565b60405180910390a150506001600355505050565b6005546040516001600160a01b039091169082156108fc029083906000818181858888f1935050505015801561074d573d6000803e3d6000fd5b6000828152600460209081526040808320815160608101835281546001600160601b038082168352600160601b9091048116948201859052600190920154909116918101919091528291829190829061271090610acf9088612f39565b610ad99190612f19565b905060006127106001600160601b031683604001516001600160601b031683610b029190612f39565b610b0c9190612f19565b90506000610b1a8383611398565b90506000610b288985611398565b929a91995091975095505050505050565b610b416113a4565b610b4b60006113fe565b565b6000828152600160205260408120610b659083611450565b9392505050565b6000918252602082815260408084206001600160a01b0393909316845291905290205460ff1690565b6000828152600460209081526040808320815160608101835281546001600160601b03808216808452600160601b90920481169583019590955260019092015490931691830191909152829190829061271090610bf29087612f39565b610bfc9190612f19565b90506000610c0a8683611398565b919791965090945050505050565b6000806000610c278585610a72565b9250925092509250925092565b6000610c3f8261129f565b9050336001600160a01b038216811480610c6657506005546001600160a01b038381169116145b610cab5760405162461bcd60e51b815260206004820152601660248201527527b7363c9037bbb732b91031b0b7103ab73634b9ba1760511b60448201526064016105af565b60016007610cbc60a0860186612ebc565b604051610cca929190612d38565b908152604051908190036020019020805491151560ff199092169190911790557f792349368881b516427610336187f9923d5ad453756de45272fd927026b815dc610d1860a0850185612ebc565b604051610d26929190612df3565b60405180910390a1505050565b600081815260016020526040812061057e9061145c565b6000610c3f82611466565b600082815260208190526040902060010154610d7081611100565b6106ce838361112c565b610d826113a4565b6001600160a01b038116610de75760405162461bcd60e51b815260206004820152602660248201527f4f776e61626c653a206e6577206f776e657220697320746865207a65726f206160448201526564647265737360d01b60648201526084016105af565b610df0816113fe565b50565b60026003541415610e465760405162461bcd60e51b815260206004820152601f60248201527f5265656e7472616e637947756172643a207265656e7472616e742063616c6c0060448201526064016105af565b6002600355610e558183611472565b1515600114610e9e5760405162461bcd60e51b815260206004820152601560248201527429b4b3b730ba3ab9329034b99034b73b30b634b21760591b60448201526064016105af565b600a546001600160a01b03161580610ebf5750600b546001600160a01b0316155b15610ecc57610ecc611596565b6000610ed782611466565b9050336001600160a01b038216811415610f265760405162461bcd60e51b815260206004820152601060248201526f29b2b63632b91034b990313abcb2b91760811b60448201526064016105af565b600b546000906001600160a01b03166315a2f120610f476020870187612ebc565b6040518363ffffffff1660e01b8152600401610f64929190612df3565b602060405180830381600087803b158015610f7e57600080fd5b505af1158015610f92573d6000803e3d6000fd5b505050506040513d601f19601f82011682018060405250810190610fb69190612c11565b905080610fca57610fc78385611701565b90505b610fe381838587358961090460a08b0160808c01612a51565b610ff685600861091c60a0880188612ebc565b600861100560a0870187612ebc565b604051611013929190612d38565b908152604080519182900360200190912091909155840135600861103a60a0870187612ebc565b604051611048929190612d38565b908152602001604051809103902054141561109d576000600761106e60a0870187612ebc565b60405161107c929190612d38565b908152604051908190036020019020805491151560ff199092169190911790555b7f7905ccf18196efffc5e9f16cecb955120de52d3e8d2146b9cd7026d23eb9060e610a1260a0860186612ebc565b60006001600160e01b03198216637965db0b60e01b148061057e57506301ffc9a760e01b6001600160e01b031983161461057e565b610df081336117db565b611114828261183f565b60008281526001602052604090206106ce90826118c3565b61113682826118d8565b60008281526001602052604090206106ce908261193d565b6000600761115f60a0850185612ebc565b60405161116d929190612d38565b9081526040519081900360200190205460ff16156111c45760405162461bcd60e51b81526020600482015260146024820152732b37bab1b432b91034b73b30b634b230ba32b21760611b60448201526064016105af565b428360e00135116112175760405162461bcd60e51b815260206004820152601b60248201527f566f75636865722074696d657374616d702065786365656465642e000000000060448201526064016105af565b61124e600861122960a0860186612ebc565b604051611237929190612d38565b90815260405190819003602001902054839061138c565b836060013510156112965760405162461bcd60e51b81526020600482015260126024820152712737ba1032b737bab3b41039bab838363c9760711b60448201526064016105af565b50600192915050565b6000806112ab83611952565b9050610b65816112be60a0860186612ebc565b8080601f016020809104026020016040519081016040528093929190818152602001838380828437600092019190915250611a5692505050565b8561133c5760405162461bcd60e51b81526020600482015260146024820152732a37b5b2b724b21031b0b73737ba10313290181760611b60448201526064016105af565b60006113488484611a7a565b9050600061135582611ae2565b9050600183151514156113745761136f8888888585611b09565b611382565b611382888888858886611dc9565b5050505050505050565b6000610b658284612f01565b6000610b658284612f58565b6002546001600160a01b03163314610b4b5760405162461bcd60e51b815260206004820181905260248201527f4f776e61626c653a2063616c6c6572206973206e6f7420746865206f776e657260448201526064016105af565b600280546001600160a01b038381166001600160a01b0319831681179093556040519116919082907f8be0079c531659141344cd1fd0a4f28419497f9722a3daafe3b4186f6b6457e090600090a35050565b6000610b65838361204f565b600061057e825490565b6000806112ab83612087565b6000600761148360a0850185612ebc565b604051611491929190612d38565b9081526040519081900360200190205460ff16156114e85760405162461bcd60e51b81526020600482015260146024820152732b37bab1b432b91034b73b30b634b230ba32b21760611b60448201526064016105af565b428361014001351161153c5760405162461bcd60e51b815260206004820152601b60248201527f566f75636865722074696d657374616d702065786365656465642e000000000060448201526064016105af565b61154e600861122960a0860186612ebc565b836040013510156112965760405162461bcd60e51b81526020600482015260126024820152712737ba1032b737bab3b41039bab838363c9760711b60448201526064016105af565b60095460408051808201825260078152664c6963656e736560c81b6020820152905163824ea29f60e01b81526001600160a01b039092169163824ea29f916115e091600401612e37565b60206040518083038186803b1580156115f857600080fd5b505afa15801561160c573d6000803e3d6000fd5b505050506040513d601f19601f820116820180604052508101906116309190612a35565b600a80546001600160a01b0319166001600160a01b03928316179055600954604080518082018252600681526526b0b9ba32b960d11b6020820152905163824ea29f60e01b8152919092169163824ea29f9161168f9190600401612e37565b60206040518083038186803b1580156116a757600080fd5b505afa1580156116bb573d6000803e3d6000fd5b505050506040513d601f19601f820116820180604052508101906116df9190612a35565b600b80546001600160a01b0319166001600160a01b0392909216919091179055565b600b5460009081906001600160a01b03166349c031e0856117256020870187612ebc565b87606001356040518563ffffffff1660e01b81526004016117499493929190612dbd565b602060405180830381600087803b15801561176357600080fd5b505af1158015611777573d6000803e3d6000fd5b505050506040513d601f19601f8201168201806040525081019061179b9190612c11565b9050610b65816117b2610100860160e08701612cf5565b6117c461012087016101008801612cf5565b6117d661014088016101208901612cf5565b6121b5565b6117e58282610b6c565b61074d576117fd816001600160a01b031660146121c7565b6118088360206121c7565b604051602001611819929190612d48565b60408051601f198184030181529082905262461bcd60e51b82526105af91600401612e37565b6118498282610b6c565b61074d576000828152602081815260408083206001600160a01b03851684529091529020805460ff1916600117905561187f3390565b6001600160a01b0316816001600160a01b0316837f2f8788117e7eff1d82e926ec794901d17c78024a50270940304540a733656f0d60405160405180910390a45050565b6000610b65836001600160a01b0384166123a9565b6118e28282610b6c565b1561074d576000828152602081815260408083206001600160a01b0385168085529252808320805460ff1916905551339285917ff6391f5c32d9c69d2a47ea670b442974b53935d1edc7fd64eb21e047a839171b9190a45050565b6000610b65836001600160a01b0384166123f8565b600061057e7fa34c14bf093fb6d3a8553c9a870279c3e29576cef02cc0a78d3977b035708bd86119856020850185612a19565b60208501356119976040870187612ebc565b6040516119a5929190612d38565b60405190819003902060608701356119c360a0890160808a01612a51565b6119d060c08a018a612ebc565b6040516119de929190612d38565b604051908190038120611a3b9796959493929160e08c0135906020019788526001600160a01b03969096166020880152604087019490945260608601929092526080850152151560a084015260c083015260e08201526101000190565b60405160208183030381529060405280519060200120612515565b6000806000611a658585612563565b91509150611a72816125a6565b509392505050565b60003481611a8885856127a7565b905080821015611ada5760405162461bcd60e51b815260206004820152601d60248201527f496e73756666696369656e742066756e647320746f2072656465656d2e00000060448201526064016105af565b949350505050565b600080611aee60065490565b90506000611ada620186a0611b0386856127a7565b906127b3565b600080611b168785610690565b600b54604051631d0abe7360e31b8152600481018b90529294509092506000916001600160a01b039091169063e855f3989060240160206040518083038186803b158015611b6357600080fd5b505afa158015611b77573d6000803e3d6000fd5b505050506040513d601f19601f82011682018060405250810190611b9b9190612a35565b6040519091506001600160a01b0382169084156108fc029085906000818181858888f19350505050158015611bd4573d6000803e3d6000fd5b506005546040516001600160a01b039091169085156108fc029086906000818181858888f19350505050158015611c0f573d6000803e3d6000fd5b506001600160a01b0386166108fc611c278487611398565b6040518115909202916000818181858888f19350505050158015611c4f573d6000803e3d6000fd5b50600b54604051636c2798b760e11b81526001600160a01b0388811660048301528981166024830152604482018b90529091169063d84f316e90606401600060405180830381600087803b158015611ca657600080fd5b505af1158015611cba573d6000803e3d6000fd5b5050600a54604051639fab879760e01b81526001600160a01b038a81166004830152602482018d9052600094509091169150639fab879790604401602060405180830381600087803b158015611d0f57600080fd5b505af1158015611d23573d6000803e3d6000fd5b505050506040513d601f19601f82011682018060405250810190611d479190612c11565b600a5460405163b6c2657d60e01b81526001600160a01b038a811660048301528b81166024830152604482018d90526064820184905292935091169063b6c2657d90608401600060405180830381600087803b158015611da657600080fd5b505af1158015611dba573d6000803e3d6000fd5b50505050505050505050505050565b6000806000611dd88987610c18565b600a54604051631d0abe7360e31b8152600481018e905293965091945092506000916001600160a01b039091169063e855f3989060240160206040518083038186803b158015611e2757600080fd5b505afa158015611e3b573d6000803e3d6000fd5b505050506040513d601f19601f82011682018060405250810190611e5f9190612a35565b600b546040516364d4eeab60e01b8152600481018d90529192506000916001600160a01b03909116906364d4eeab9060240160206040518083038186803b158015611ea957600080fd5b505afa158015611ebd573d6000803e3d6000fd5b505050506040513d601f19601f82011682018060405250810190611ee19190612a35565b6040519091506001600160a01b0383169086156108fc029087906000818181858888f19350505050158015611f1a573d6000803e3d6000fd5b506040516001600160a01b0382169085156108fc029086906000818181858888f19350505050158015611f51573d6000803e3d6000fd5b506005546040516001600160a01b039091169087156108fc029088906000818181858888f19350505050158015611f8c573d6000803e3d6000fd5b506001600160a01b0389166108fc611fa48589611398565b6040518115909202916000818181858888f19350505050158015611fcc573d6000803e3d6000fd5b50600a5460405163b6c2657d60e01b81526001600160a01b038b811660048301528c81166024830152604482018e9052606482018a90529091169063b6c2657d90608401600060405180830381600087803b15801561202a57600080fd5b505af115801561203e573d6000803e3d6000fd5b505050505050505050505050505050565b600082600001828154811061207457634e487b7160e01b600052603260045260246000fd5b9060005260206000200154905092915050565b600061057e7fc59ccd1a3aef5526abeea7256522b9550fbae5cab94665fd4fab0198c430994e83356120bc6020860186612ebc565b6040516120ca929190612d38565b6040518091039020856040013586606001358760800160208101906120ef9190612a51565b6120fc60c08a018a612ebc565b60405161210a929190612d38565b6040519081900390206121246101008b0160e08c01612cf5565b6121366101208c016101008d01612cf5565b6121486101408d016101208e01612cf5565b60408051602081019b909b528a01989098526060890196909652608088019490945260a0870192909252151560c086015260e08501526001600160601b03908116610100850152908116610120840152166101408281019190915284013561016082015261018001611a3b565b6121c184848484610584565b50505050565b606060006121d6836002612f39565b6121e1906002612f01565b67ffffffffffffffff81111561220757634e487b7160e01b600052604160045260246000fd5b6040519080825280601f01601f191660200182016040528015612231576020820181803683370190505b509050600360fc1b8160008151811061225a57634e487b7160e01b600052603260045260246000fd5b60200101906001600160f81b031916908160001a905350600f60fb1b8160018151811061229757634e487b7160e01b600052603260045260246000fd5b60200101906001600160f81b031916908160001a90535060006122bb846002612f39565b6122c6906001612f01565b90505b600181111561235a576f181899199a1a9b1b9c1cb0b131b232b360811b85600f166010811061230857634e487b7160e01b600052603260045260246000fd5b1a60f81b82828151811061232c57634e487b7160e01b600052603260045260246000fd5b60200101906001600160f81b031916908160001a90535060049490941c9361235381612f9b565b90506122c9565b508315610b655760405162461bcd60e51b815260206004820181905260248201527f537472696e67733a20686578206c656e67746820696e73756666696369656e7460448201526064016105af565b60008181526001830160205260408120546123f05750815460018181018455600084815260208082209093018490558454848252828601909352604090209190915561057e565b50600061057e565b6000818152600183016020526040812054801561250b57600061241c600183612f58565b855490915060009061243090600190612f58565b90508181146124b157600086600001828154811061245e57634e487b7160e01b600052603260045260246000fd5b906000526020600020015490508087600001848154811061248f57634e487b7160e01b600052603260045260246000fd5b6000918252602080832090910192909255918252600188019052604090208390555b85548690806124d057634e487b7160e01b600052603160045260246000fd5b60019003818190600052602060002001600090559055856001016000868152602001908152602001600020600090556001935050505061057e565b600091505061057e565b600061057e6125226127bf565b8360405161190160f01b6020820152602281018390526042810182905260009060620160405160208183030381529060405280519060200120905092915050565b60008082516041141561259a5760208301516040840151606085015160001a61258e878285856128e6565b945094505050506106a2565b506000905060026106a2565b60008160048111156125c857634e487b7160e01b600052602160045260246000fd5b14156125d15750565b60018160048111156125f357634e487b7160e01b600052602160045260246000fd5b14156126415760405162461bcd60e51b815260206004820152601860248201527f45434453413a20696e76616c6964207369676e6174757265000000000000000060448201526064016105af565b600281600481111561266357634e487b7160e01b600052602160045260246000fd5b14156126b15760405162461bcd60e51b815260206004820152601f60248201527f45434453413a20696e76616c6964207369676e6174757265206c656e6774680060448201526064016105af565b60038160048111156126d357634e487b7160e01b600052602160045260246000fd5b141561272c5760405162461bcd60e51b815260206004820152602260248201527f45434453413a20696e76616c6964207369676e6174757265202773272076616c604482015261756560f01b60648201526084016105af565b600481600481111561274e57634e487b7160e01b600052602160045260246000fd5b1415610df05760405162461bcd60e51b815260206004820152602260248201527f45434453413a20696e76616c6964207369676e6174757265202776272076616c604482015261756560f01b60648201526084016105af565b6000610b658284612f39565b6000610b658284612f19565b6000306001600160a01b037f00000000000000000000000000000000000000000000000000000000000000001614801561281857507f000000000000000000000000000000000000000000000000000000000000000046145b1561284257507f000000000000000000000000000000000000000000000000000000000000000090565b50604080517f00000000000000000000000000000000000000000000000000000000000000006020808301919091527f0000000000000000000000000000000000000000000000000000000000000000828401527f000000000000000000000000000000000000000000000000000000000000000060608301524660808301523060a0808401919091528351808403909101815260c0909201909252805191012090565b6000807f7fffffffffffffffffffffffffffffff5d576e7357a4501ddfe92f46681b20a083111561291d57506000905060036129ca565b8460ff16601b1415801561293557508460ff16601c14155b1561294657506000905060046129ca565b6040805160008082526020820180845289905260ff881692820192909252606081018690526080810185905260019060a0016020604051602081039080840390855afa15801561299a573d6000803e3d6000fd5b5050604051601f1901519150506001600160a01b0381166129c3576000600192509250506129ca565b9150600090505b94509492505050565b600061016082840312156129e5578081fd5b50919050565b600061010082840312156129e5578081fd5b80356001600160601b0381168114612a1457600080fd5b919050565b600060208284031215612a2a578081fd5b8135610b6581612fde565b600060208284031215612a46578081fd5b8151610b6581612fde565b600060208284031215612a62578081fd5b81358015158114610b65578182fd5b600060208284031215612a82578081fd5b5035919050565b60008060408385031215612a9b578081fd5b823591506020830135612aad81612fde565b809150509250929050565b60008060408385031215612aca578182fd5b50508035926020909101359150565b600060208284031215612aea578081fd5b81356001600160e01b031981168114610b65578182fd5b600060208284031215612b12578081fd5b813567ffffffffffffffff80821115612b29578283fd5b818401915084601f830112612b3c578283fd5b813581811115612b4e57612b4e612fc8565b604051601f8201601f19908116603f01168101908382118183101715612b7657612b76612fc8565b81604052828152876020848701011115612b8e578586fd5b826020860160208301379182016020019490945295945050505050565b600060208284031215612bbc578081fd5b813567ffffffffffffffff811115612bd2578182fd5b611ada848285016129d3565b600060208284031215612bef578081fd5b813567ffffffffffffffff811115612c05578182fd5b611ada848285016129eb565b600060208284031215612c22578081fd5b5051919050565b60008060408385031215612c3b578182fd5b82359150602083013567ffffffffffffffff811115612c58578182fd5b612c64858286016129d3565b9150509250929050565b60008060408385031215612c80578182fd5b82359150602083013567ffffffffffffffff811115612c9d578182fd5b612c64858286016129eb565b60008060008060808587031215612cbe578182fd5b84359350612cce602086016129fd565b9250612cdc604086016129fd565b9150612cea606086016129fd565b905092959194509250565b600060208284031215612d06578081fd5b610b65826129fd565b81835281816020850137506000828201602090810191909152601f909101601f19169091010190565b8183823760009101908152919050565b7f416363657373436f6e74726f6c3a206163636f756e7420000000000000000000815260008351612d80816017850160208801612f6f565b7001034b99036b4b9b9b4b733903937b6329607d1b6017918401918201528351612db1816028840160208801612f6f565b01602801949350505050565b6001600160a01b0385168152606060208201819052600090612de29083018587612d0f565b905082604083015295945050505050565b602081526000611ada602083018486612d0f565b606081526000612e1b606083018688612d0f565b6001600160a01b03949094166020830152506040015292915050565b6020815260008251806020840152612e56816040850160208701612f6f565b601f01601f19169190910160400192915050565b60208082526032908201527f526f79616c74794d616e616765723a20726f79616c746965732063616e6e6f74604082015271206265206d6f7265207468656e203130302560701b606082015260800190565b6000808335601e19843603018112612ed2578283fd5b83018035915067ffffffffffffffff821115612eec578283fd5b6020019150368190038213156106a257600080fd5b60008219821115612f1457612f14612fb2565b500190565b600082612f3457634e487b7160e01b81526012600452602481fd5b500490565b6000816000190483118215151615612f5357612f53612fb2565b500290565b600082821015612f6a57612f6a612fb2565b500390565b60005b83811015612f8a578181015183820152602001612f72565b838111156121c15750506000910152565b600081612faa57612faa612fb2565b506000190190565b634e487b7160e01b600052601160045260246000fd5b634e487b7160e01b600052604160045260246000fd5b6001600160a01b0381168114610df057600080fdfea26469706673582212208242a790611b7e252b86ef1a747b7fc0034741b0ff0e1c7c0c9b985620a2df5f64736f6c63430008040033",
  "linkReferences": {},
  "deployedLinkReferences": {}
}