{
  "_format": "hh-sol-artifact-1",
  "contractName": "MarketContract",
  "sourceName": "contracts/MarketContract.sol",
  "abi": [
    {
      "inputs": [
        {
          "internalType": "address",
          "name": "_commonUtilsAddress",
          "type": "address"
        }
      ],
      "stateMutability": "nonpayable",
      "type": "constructor"
    },
    {
      "anonymous": false,
      "inputs": [
        {
          "indexed": true,
          "internalType": "address",
          "name": "previousOwner",
          "type": "address"
        },
        {
          "indexed": true,
          "internalType": "address",
          "name": "newOwner",
          "type": "address"
        }
      ],
      "name": "OwnershipTransferred",
      "type": "event"
    },
    {
      "anonymous": false,
      "inputs": [
        {
          "indexed": true,
          "internalType": "bytes32",
          "name": "role",
          "type": "bytes32"
        },
        {
          "indexed": true,
          "internalType": "bytes32",
          "name": "previousAdminRole",
          "type": "bytes32"
        },
        {
          "indexed": true,
          "internalType": "bytes32",
          "name": "newAdminRole",
          "type": "bytes32"
        }
      ],
      "name": "RoleAdminChanged",
      "type": "event"
    },
    {
      "anonymous": false,
      "inputs": [
        {
          "indexed": true,
          "internalType": "bytes32",
          "name": "role",
          "type": "bytes32"
        },
        {
          "indexed": true,
          "internalType": "address",
          "name": "account",
          "type": "address"
        },
        {
          "indexed": true,
          "internalType": "address",
          "name": "sender",
          "type": "address"
        }
      ],
      "name": "RoleGranted",
      "type": "event"
    },
    {
      "anonymous": false,
      "inputs": [
        {
          "indexed": true,
          "internalType": "bytes32",
          "name": "role",
          "type": "bytes32"
        },
        {
          "indexed": true,
          "internalType": "address",
          "name": "account",
          "type": "address"
        },
        {
          "indexed": true,
          "internalType": "address",
          "name": "sender",
          "type": "address"
        }
      ],
      "name": "RoleRevoked",
      "type": "event"
    },
    {
      "anonymous": false,
      "inputs": [
        {
          "indexed": false,
          "internalType": "string",
          "name": "tokenUri",
          "type": "string"
        },
        {
          "indexed": false,
          "internalType": "address",
          "name": "contractAddress",
          "type": "address"
        },
        {
          "indexed": false,
          "internalType": "address",
          "name": "caller",
          "type": "address"
        }
      ],
      "name": "UnlistedNFT",
      "type": "event"
    },
    {
      "anonymous": false,
      "inputs": [
        {
          "indexed": false,
          "internalType": "address",
          "name": "_payee",
          "type": "address"
        },
        {
          "indexed": false,
          "internalType": "uint256",
          "name": "_amount",
          "type": "uint256"
        }
      ],
      "name": "Withdrawal",
      "type": "event"
    },
    {
      "inputs": [],
      "name": "DEFAULT_ADMIN_ROLE",
      "outputs": [
        {
          "internalType": "bytes32",
          "name": "",
          "type": "bytes32"
        }
      ],
      "stateMutability": "view",
      "type": "function"
    },
    {
      "inputs": [],
      "name": "_serviceFees",
      "outputs": [
        {
          "internalType": "uint256",
          "name": "",
          "type": "uint256"
        }
      ],
      "stateMutability": "view",
      "type": "function"
    },
    {
      "inputs": [],
      "name": "commonUtils",
      "outputs": [
        {
          "internalType": "contract ICommonUtils",
          "name": "",
          "type": "address"
        }
      ],
      "stateMutability": "view",
      "type": "function"
    },
    {
      "inputs": [],
      "name": "getChainID",
      "outputs": [
        {
          "internalType": "uint256",
          "name": "",
          "type": "uint256"
        }
      ],
      "stateMutability": "view",
      "type": "function"
    },
    {
      "inputs": [
        {
          "internalType": "bytes32",
          "name": "role",
          "type": "bytes32"
        }
      ],
      "name": "getRoleAdmin",
      "outputs": [
        {
          "internalType": "bytes32",
          "name": "",
          "type": "bytes32"
        }
      ],
      "stateMutability": "view",
      "type": "function"
    },
    {
      "inputs": [
        {
          "internalType": "bytes32",
          "name": "role",
          "type": "bytes32"
        },
        {
          "internalType": "uint256",
          "name": "index",
          "type": "uint256"
        }
      ],
      "name": "getRoleMember",
      "outputs": [
        {
          "internalType": "address",
          "name": "",
          "type": "address"
        }
      ],
      "stateMutability": "view",
      "type": "function"
    },
    {
      "inputs": [
        {
          "internalType": "bytes32",
          "name": "role",
          "type": "bytes32"
        }
      ],
      "name": "getRoleMemberCount",
      "outputs": [
        {
          "internalType": "uint256",
          "name": "",
          "type": "uint256"
        }
      ],
      "stateMutability": "view",
      "type": "function"
    },
    {
      "inputs": [
        {
          "internalType": "address",
          "name": "_ownerAddress",
          "type": "address"
        },
        {
          "internalType": "address",
          "name": "_nftContractAddress",
          "type": "address"
        },
        {
          "internalType": "string",
          "name": "_tokenUri",
          "type": "string"
        }
      ],
      "name": "getSellCount",
      "outputs": [
        {
          "internalType": "uint256",
          "name": "",
          "type": "uint256"
        }
      ],
      "stateMutability": "view",
      "type": "function"
    },
    {
      "inputs": [
        {
          "internalType": "bytes32",
          "name": "role",
          "type": "bytes32"
        },
        {
          "internalType": "address",
          "name": "account",
          "type": "address"
        }
      ],
      "name": "grantRole",
      "outputs": [],
      "stateMutability": "nonpayable",
      "type": "function"
    },
    {
      "inputs": [
        {
          "internalType": "bytes32",
          "name": "role",
          "type": "bytes32"
        },
        {
          "internalType": "address",
          "name": "account",
          "type": "address"
        }
      ],
      "name": "hasRole",
      "outputs": [
        {
          "internalType": "bool",
          "name": "",
          "type": "bool"
        }
      ],
      "stateMutability": "view",
      "type": "function"
    },
    {
      "inputs": [],
      "name": "licensesContract",
      "outputs": [
        {
          "internalType": "contract ILicense",
          "name": "",
          "type": "address"
        }
      ],
      "stateMutability": "view",
      "type": "function"
    },
    {
      "inputs": [],
      "name": "masterContract",
      "outputs": [
        {
          "internalType": "contract IMaster",
          "name": "",
          "type": "address"
        }
      ],
      "stateMutability": "view",
      "type": "function"
    },
    {
      "inputs": [],
      "name": "owner",
      "outputs": [
        {
          "internalType": "address",
          "name": "",
          "type": "address"
        }
      ],
      "stateMutability": "view",
      "type": "function"
    },
    {
      "inputs": [
        {
          "internalType": "address",
          "name": "_buyer",
          "type": "address"
        },
        {
          "internalType": "address",
          "name": "_seller",
          "type": "address"
        },
        {
          "internalType": "uint256",
          "name": "_amountToPurchase",
          "type": "uint256"
        },
        {
          "components": [
            {
              "internalType": "address",
              "name": "nftContractAddress",
              "type": "address"
            },
            {
              "internalType": "uint256",
              "name": "price",
              "type": "uint256"
            },
            {
              "internalType": "uint256",
              "name": "sellCount",
              "type": "uint256"
            },
            {
              "internalType": "string",
              "name": "tokenUri",
              "type": "string"
            },
            {
              "internalType": "uint256",
              "name": "tokenId",
              "type": "uint256"
            },
            {
              "internalType": "uint256",
              "name": "supply",
              "type": "uint256"
            },
            {
              "internalType": "uint256",
              "name": "maxSupply",
              "type": "uint256"
            },
            {
              "internalType": "bool",
              "name": "isMaster",
              "type": "bool"
            },
            {
              "internalType": "bytes",
              "name": "signature",
              "type": "bytes"
            },
            {
              "internalType": "string",
              "name": "currency",
              "type": "string"
            }
          ],
          "internalType": "struct MarketContract.NFTVoucher",
          "name": "_mintVoucher",
          "type": "tuple"
        }
      ],
      "name": "redeemItem",
      "outputs": [],
      "stateMutability": "payable",
      "type": "function"
    },
    {
      "inputs": [],
      "name": "renounceOwnership",
      "outputs": [],
      "stateMutability": "nonpayable",
      "type": "function"
    },
    {
      "inputs": [
        {
          "internalType": "bytes32",
          "name": "role",
          "type": "bytes32"
        },
        {
          "internalType": "address",
          "name": "account",
          "type": "address"
        }
      ],
      "name": "renounceRole",
      "outputs": [],
      "stateMutability": "nonpayable",
      "type": "function"
    },
    {
      "inputs": [
        {
          "internalType": "bytes32",
          "name": "role",
          "type": "bytes32"
        },
        {
          "internalType": "address",
          "name": "account",
          "type": "address"
        }
      ],
      "name": "revokeRole",
      "outputs": [],
      "stateMutability": "nonpayable",
      "type": "function"
    },
    {
      "inputs": [],
      "name": "sellCount",
      "outputs": [
        {
          "internalType": "uint256",
          "name": "",
          "type": "uint256"
        }
      ],
      "stateMutability": "view",
      "type": "function"
    },
    {
      "inputs": [
        {
          "internalType": "address",
          "name": "",
          "type": "address"
        },
        {
          "internalType": "address",
          "name": "",
          "type": "address"
        },
        {
          "internalType": "string",
          "name": "",
          "type": "string"
        }
      ],
      "name": "sellCounts",
      "outputs": [
        {
          "internalType": "uint256",
          "name": "",
          "type": "uint256"
        }
      ],
      "stateMutability": "view",
      "type": "function"
    },
    {
      "inputs": [],
      "name": "serviceFees",
      "outputs": [
        {
          "internalType": "uint256",
          "name": "",
          "type": "uint256"
        }
      ],
      "stateMutability": "view",
      "type": "function"
    },
    {
      "inputs": [
        {
          "internalType": "bytes4",
          "name": "interfaceId",
          "type": "bytes4"
        }
      ],
      "name": "supportsInterface",
      "outputs": [
        {
          "internalType": "bool",
          "name": "",
          "type": "bool"
        }
      ],
      "stateMutability": "view",
      "type": "function"
    },
    {
      "inputs": [
        {
          "internalType": "address",
          "name": "newOwner",
          "type": "address"
        }
      ],
      "name": "transferOwnership",
      "outputs": [],
      "stateMutability": "nonpayable",
      "type": "function"
    },
    {
      "inputs": [
        {
          "internalType": "address",
          "name": "_nftContractAddress",
          "type": "address"
        },
        {
          "internalType": "string",
          "name": "_tokenUri",
          "type": "string"
        }
      ],
      "name": "unlistItem",
      "outputs": [],
      "stateMutability": "nonpayable",
      "type": "function"
    },
    {
      "inputs": [
        {
          "internalType": "uint256",
          "name": "_calculatedFees",
          "type": "uint256"
        }
      ],
      "name": "withdrawFees",
      "outputs": [],
      "stateMutability": "payable",
      "type": "function"
    }
  ],
  "bytecode": "0x6101406040523480156200001257600080fd5b5060405162004b8038038062004b808339818101604052810190620000389190620005c5565b6040518060400160405280600981526020017f5356566f756368657200000000000000000000000000000000000000000000008152506040518060400160405280600181526020017f310000000000000000000000000000000000000000000000000000000000000081525060008280519060200120905060008280519060200120905060007f8b73c3c69bb8fe3d512ecc4cf759cc79239f7b179b0ffacaa9a75d522b39400f90508260e081815250508161010081815250504660a081815250506200010d8184846200047a60201b60201c565b608081815250503073ffffffffffffffffffffffffffffffffffffffff1660c08173ffffffffffffffffffffffffffffffffffffffff1660601b815250508061012081815250505050505050620001796200016d620004b660201b60201c565b620004be60201b60201c565b6001600381905550620001916200058460201b60201c565b600460006101000a81548173ffffffffffffffffffffffffffffffffffffffff021916908373ffffffffffffffffffffffffffffffffffffffff160217905550610bb860068190555080600960006101000a81548173ffffffffffffffffffffffffffffffffffffffff021916908373ffffffffffffffffffffffffffffffffffffffff1602179055506000600960009054906101000a900473ffffffffffffffffffffffffffffffffffffffff1673ffffffffffffffffffffffffffffffffffffffff1663824ea29f6040518060400160405280600781526020017f4c6963656e7365000000000000000000000000000000000000000000000000008152506040518263ffffffff1660e01b8152600401620002af9190620006c2565b60206040518083038186803b158015620002c857600080fd5b505afa158015620002dd573d6000803e3d6000fd5b505050506040513d601f19601f82011682018060405250810190620003039190620005c5565b90506000600960009054906101000a900473ffffffffffffffffffffffffffffffffffffffff1673ffffffffffffffffffffffffffffffffffffffff1663824ea29f6040518060400160405280600681526020017f4d617374657200000000000000000000000000000000000000000000000000008152506040518263ffffffff1660e01b8152600401620003999190620006c2565b60206040518083038186803b158015620003b257600080fd5b505afa158015620003c7573d6000803e3d6000fd5b505050506040513d601f19601f82011682018060405250810190620003ed9190620005c5565b905081600a60006101000a81548173ffffffffffffffffffffffffffffffffffffffff021916908373ffffffffffffffffffffffffffffffffffffffff16021790555080600b60006101000a81548173ffffffffffffffffffffffffffffffffffffffff021916908373ffffffffffffffffffffffffffffffffffffffff160217905550505050620007ab565b600083838346306040516020016200049795949392919062000665565b6040516020818303038152906040528051906020012090509392505050565b600033905090565b6000600260009054906101000a900473ffffffffffffffffffffffffffffffffffffffff16905081600260006101000a81548173ffffffffffffffffffffffffffffffffffffffff021916908373ffffffffffffffffffffffffffffffffffffffff1602179055508173ffffffffffffffffffffffffffffffffffffffff168173ffffffffffffffffffffffffffffffffffffffff167f8be0079c531659141344cd1fd0a4f28419497f9722a3daafe3b4186f6b6457e060405160405180910390a35050565b6000600260009054906101000a900473ffffffffffffffffffffffffffffffffffffffff16905090565b600081519050620005bf8162000791565b92915050565b600060208284031215620005d857600080fd5b6000620005e884828501620005ae565b91505092915050565b620005fc8162000702565b82525050565b6200060d8162000716565b82525050565b60006200062082620006e6565b6200062c8185620006f1565b93506200063e8185602086016200074a565b620006498162000780565b840191505092915050565b6200065f8162000740565b82525050565b600060a0820190506200067c600083018862000602565b6200068b602083018762000602565b6200069a604083018662000602565b620006a9606083018562000654565b620006b86080830184620005f1565b9695505050505050565b60006020820190508181036000830152620006de818462000613565b905092915050565b600081519050919050565b600082825260208201905092915050565b60006200070f8262000720565b9050919050565b6000819050919050565b600073ffffffffffffffffffffffffffffffffffffffff82169050919050565b6000819050919050565b60005b838110156200076a5780820151818401526020810190506200074d565b838111156200077a576000848401525b50505050565b6000601f19601f8301169050919050565b6200079c8162000702565b8114620007a857600080fd5b50565b60805160a05160c05160601c60e0516101005161012051614382620007fe6000396000612a7801526000612aba01526000612a99015260006129ce01526000612a2401526000612a4d01526143826000f3fe60806040526004361061014b5760003560e01c80638da5cb5b116100b6578063a42b26aa1161006f578063a42b26aa14610499578063b776fcf6146104b5578063ca15c873146104e0578063cd446e221461051d578063d547741f14610548578063f2fde38b146105715761014b565b80638da5cb5b146103615780639010d07c1461038c57806391d14854146103c957806397ed1328146104065780639c4606c614610431578063a217fddf1461046e5761014b565b806336568abe1161010857806336568abe146102845780634457f9bc146102ad578063564b81ef146102d85780635e318e0714610303578063715018a61461031f57806380857ffa146103365761014b565b8063016b1c6b1461015057806301ffc9a7146101795780630c6b6737146101b65780632129d4cc146101e1578063248a9ca31461021e5780632f2ff15d1461025b575b600080fd5b34801561015c57600080fd5b5061017760048036038101906101729190612eb9565b61059a565b005b34801561018557600080fd5b506101a0600480360381019061019b9190612fd7565b61063b565b6040516101ad9190613616565b60405180910390f35b3480156101c257600080fd5b506101cb6106b5565b6040516101d89190613a45565b60405180910390f35b3480156101ed57600080fd5b5061020860048036038101906102039190612dd7565b6106bb565b6040516102159190613a45565b60405180910390f35b34801561022a57600080fd5b5061024560048036038101906102409190612f36565b610703565b6040516102529190613631565b60405180910390f35b34801561026757600080fd5b50610282600480360381019061027d9190612f5f565b610722565b005b34801561029057600080fd5b506102ab60048036038101906102a69190612f5f565b61074b565b005b3480156102b957600080fd5b506102c26107ce565b6040516102cf919061379b565b60405180910390f35b3480156102e457600080fd5b506102ed6107f4565b6040516102fa9190613a45565b60405180910390f35b61031d60048036038101906103189190613000565b610801565b005b34801561032b57600080fd5b506103346108c8565b005b34801561034257600080fd5b5061034b610950565b6040516103589190613a45565b60405180910390f35b34801561036d57600080fd5b5061037661095a565b60405161038391906134ed565b60405180910390f35b34801561039857600080fd5b506103b360048036038101906103ae9190612f9b565b610984565b6040516103c091906134ed565b60405180910390f35b3480156103d557600080fd5b506103f060048036038101906103eb9190612f5f565b6109b3565b6040516103fd9190613616565b60405180910390f35b34801561041257600080fd5b5061041b610a1d565b6040516104289190613780565b60405180910390f35b34801561043d57600080fd5b5061045860048036038101906104539190612dd7565b610a43565b6040516104659190613a45565b60405180910390f35b34801561047a57600080fd5b50610483610b91565b6040516104909190613631565b60405180910390f35b6104b360048036038101906104ae9190612e3e565b610b98565b005b3480156104c157600080fd5b506104ca6115b5565b6040516104d79190613a45565b60405180910390f35b3480156104ec57600080fd5b5061050760048036038101906105029190612f36565b6115bb565b6040516105149190613a45565b60405180910390f35b34801561052957600080fd5b506105326115df565b60405161053f91906137b6565b60405180910390f35b34801561055457600080fd5b5061056f600480360381019061056a9190612f5f565b611605565b005b34801561057d57600080fd5b5061059860048036038101906105939190612dae565b61162e565b005b6105c66040518060600160405280602a8152602001614323602a91396105c1338585610a43565b611726565b6105d082826117c2565b6105fc6040518060600160405280602b81526020016142f8602b91396105f7338585610a43565b611726565b7f1495df5ceaa13e88c26a1cac22b107030bba5f78b3c364350cde4542877647ef81833360405161062f93929190613817565b60405180910390a15050565b60007f5a05180f000000000000000000000000000000000000000000000000000000007bffffffffffffffffffffffffffffffffffffffffffffffffffffffff1916827bffffffffffffffffffffffffffffffffffffffffffffffffffffffff191614806106ae57506106ad8261187d565b5b9050919050565b60075481565b60086020528260005260406000206020528160005260406000208180516020810182018051848252602083016020850120818352809550505050505060009250925050505481565b6000806000838152602001908152602001600020600101549050919050565b61072b82610703565b61073c816107376118f7565b6118ff565b610746838361199c565b505050565b6107536118f7565b73ffffffffffffffffffffffffffffffffffffffff168173ffffffffffffffffffffffffffffffffffffffff16146107c0576040517f08c379a00000000000000000000000000000000000000000000000000000000081526004016107b790613a25565b60405180910390fd5b6107ca82826119d0565b5050565b600a60009054906101000a900473ffffffffffffffffffffffffffffffffffffffff1681565b6000804690508091505090565b600460009054906101000a900473ffffffffffffffffffffffffffffffffffffffff1673ffffffffffffffffffffffffffffffffffffffff166108fc829081150290604051600060405180830381858888f19350505050158015610869573d6000803e3d6000fd5b507f7fcf532c15f0a6db0bd6d0e038bea71d30d808c7d98cb3bf7268a95bf5081b65600460009054906101000a900473ffffffffffffffffffffffffffffffffffffffff16826040516108bd929190613508565b60405180910390a150565b6108d06118f7565b73ffffffffffffffffffffffffffffffffffffffff166108ee61095a565b73ffffffffffffffffffffffffffffffffffffffff1614610944576040517f08c379a000000000000000000000000000000000000000000000000000000000815260040161093b906139c5565b60405180910390fd5b61094e6000611a04565b565b6000600654905090565b6000600260009054906101000a900473ffffffffffffffffffffffffffffffffffffffff16905090565b60006109ab8260016000868152602001908152602001600020611aca90919063ffffffff16565b905092915050565b600080600084815260200190815260200160002060000160008373ffffffffffffffffffffffffffffffffffffffff1673ffffffffffffffffffffffffffffffffffffffff16815260200190815260200160002060009054906101000a900460ff16905092915050565b600960009054906101000a900473ffffffffffffffffffffffffffffffffffffffff1681565b600080600860008673ffffffffffffffffffffffffffffffffffffffff1673ffffffffffffffffffffffffffffffffffffffff16815260200190815260200160002060008573ffffffffffffffffffffffffffffffffffffffff1673ffffffffffffffffffffffffffffffffffffffff16815260200190815260200160002083604051610ad09190613465565b9081526020016040518091039020541415610aee5760009050610b8a565b600860008573ffffffffffffffffffffffffffffffffffffffff1673ffffffffffffffffffffffffffffffffffffffff16815260200190815260200160002060008473ffffffffffffffffffffffffffffffffffffffff1673ffffffffffffffffffffffffffffffffffffffff16815260200190815260200160002082604051610b789190613465565b90815260200160405180910390205490505b9392505050565b6000801b81565b60026003541415610bde576040517f08c379a0000000000000000000000000000000000000000000000000000000008152600401610bd590613a05565b60405180910390fd5b6002600381905550600034905060008111610c2e576040517f08c379a0000000000000000000000000000000000000000000000000000000008152600401610c2590613985565b60405180910390fd5b6000610c3983611ae4565b90508073ffffffffffffffffffffffffffffffffffffffff168573ffffffffffffffffffffffffffffffffffffffff1614610ca9576040517f08c379a0000000000000000000000000000000000000000000000000000000008152600401610ca0906139e5565b60405180910390fd5b6000610cb3610950565b9050600073__$30982415e8a4a7841dba8c5dcc5d2212fe$__63c5f859608660200135846040518363ffffffff1660e01b8152600401610cf4929190613a60565b60206040518083038186803b158015610d0c57600080fd5b505af4158015610d20573d6000803e3d6000fd5b505050506040513d601f19601f82011682018060405250810190610d449190613029565b90506000600115158660e0016020810190610d5f9190612f0d565b15151415610d7e57610d778660200135836001611b57565b9050610d90565b610d8d86602001358389611b57565b90505b6000610da58383611b9990919063ffffffff16565b9050610df86040518060400160405280600981526020017f464545533d3d3d3d3d0000000000000000000000000000000000000000000000815250610df38389611b9990919063ffffffff16565b611726565b81861015610e3b576040517f08c379a0000000000000000000000000000000000000000000000000000000008152600401610e32906139a5565b60405180910390fd5b8660400135600860008773ffffffffffffffffffffffffffffffffffffffff1673ffffffffffffffffffffffffffffffffffffffff1681526020019081526020016000206000896000016020810190610e949190612dae565b73ffffffffffffffffffffffffffffffffffffffff1673ffffffffffffffffffffffffffffffffffffffff168152602001908152602001600020888060600190610ede9190613ae0565b604051610eec92919061344c565b90815260200160405180910390205414610f3b576040517f08c379a0000000000000000000000000000000000000000000000000000000008152600401610f3290613945565b60405180910390fd5b6000600b60009054906101000a900473ffffffffffffffffffffffffffffffffffffffff1673ffffffffffffffffffffffffffffffffffffffff1663ed310117898060600190610f8b9190613ae0565b6040518363ffffffff1660e01b8152600401610fa89291906137d1565b602060405180830381600087803b158015610fc257600080fd5b505af1158015610fd6573d6000803e3d6000fd5b505050506040513d601f19601f82011682018060405250810190610ffa9190613029565b9050600081141561110b57600b60009054906101000a900473ffffffffffffffffffffffffffffffffffffffff1673ffffffffffffffffffffffffffffffffffffffff166349c031e0878a80606001906110549190613ae0565b8c60c001356040518563ffffffff1660e01b815260040161107894939291906135ad565b602060405180830381600087803b15801561109257600080fd5b505af11580156110a6573d6000803e3d6000fd5b505050506040513d601f19601f820116820180604052508101906110ca9190613029565b905061110a6040518060400160405280601c81526020017f4963682068616220676572616465206562656e2067656d696e74657400000000815250611baf565b5b600081141561114f576040517f08c379a000000000000000000000000000000000000000000000000000000000815260040161114690613905565b60405180910390fd5b6000600115158960e00160208101906111689190612f0d565b15151415611400578673ffffffffffffffffffffffffffffffffffffffff166108fc849081150290604051600060405180830381858888f193505050501580156111b6573d6000803e3d6000fd5b50600b60009054906101000a900473ffffffffffffffffffffffffffffffffffffffff1673ffffffffffffffffffffffffffffffffffffffff1663d84f316e888e856040518463ffffffff1660e01b815260040161121693929190613531565b600060405180830381600087803b15801561123057600080fd5b505af1158015611244573d6000803e3d6000fd5b50505050600a60009054906101000a900473ffffffffffffffffffffffffffffffffffffffff1673ffffffffffffffffffffffffffffffffffffffff16639fab879788846040518363ffffffff1660e01b81526004016112a59291906135ed565b602060405180830381600087803b1580156112bf57600080fd5b505af11580156112d3573d6000803e3d6000fd5b505050506040513d601f19601f820116820180604052508101906112f79190613029565b9050600a60009054906101000a900473ffffffffffffffffffffffffffffffffffffffff1673ffffffffffffffffffffffffffffffffffffffff1663b6c2657d888e85856040518563ffffffff1660e01b815260040161135a9493929190613568565b600060405180830381600087803b15801561137457600080fd5b505af1158015611388573d6000803e3d6000fd5b505050506113b26040518060600160405280602781526020016142d1602791398a60200135611726565b6113f16040518060400160405280600f81526020017f50555243484153452050524943453d000000000000000000000000000000000081525084611726565b6113fb6005611c48565b611516565b600a60009054906101000a900473ffffffffffffffffffffffffffffffffffffffff1673ffffffffffffffffffffffffffffffffffffffff1663b6c2657d888e858e6040518563ffffffff1660e01b81526004016114619493929190613568565b600060405180830381600087803b15801561147b57600080fd5b505af115801561148f573d6000803e3d6000fd5b505050506114d66040518060400160405280601b81526020017f4a757374207472616e736665727265642061206c6963656e73652100000000008152508a60200135611726565b6115156040518060400160405280600f81526020017f50555243484153452050524943453d000000000000000000000000000000000081525084611726565b5b61158489600001602081019061152c9190612dae565b8a806060019061153c9190613ae0565b8080601f016020809104026020016040519081016040528093929190818152602001838380828437600081840152601f19601f820116905080830192505050505050506117c2565b61159f61159a848a611b9990919063ffffffff16565b610801565b5050505050505050600160038190555050505050565b60065481565b60006115d860016000848152602001908152602001600020611c5e565b9050919050565b600b60009054906101000a900473ffffffffffffffffffffffffffffffffffffffff1681565b61160e82610703565b61161f8161161a6118f7565b6118ff565b61162983836119d0565b505050565b6116366118f7565b73ffffffffffffffffffffffffffffffffffffffff1661165461095a565b73ffffffffffffffffffffffffffffffffffffffff16146116aa576040517f08c379a00000000000000000000000000000000000000000000000000000000081526004016116a1906139c5565b60405180910390fd5b600073ffffffffffffffffffffffffffffffffffffffff168173ffffffffffffffffffffffffffffffffffffffff16141561171a576040517f08c379a0000000000000000000000000000000000000000000000000000000008152600401611711906138e5565b60405180910390fd5b61172381611a04565b50565b6117be828260405160240161173c929190613855565b6040516020818303038152906040527f9710a9d0000000000000000000000000000000000000000000000000000000007bffffffffffffffffffffffffffffffffffffffffffffffffffffffff19166020820180517bffffffffffffffffffffffffffffffffffffffffffffffffffffffff8381831617835250505050611c73565b5050565b6001600860006117d06118f7565b73ffffffffffffffffffffffffffffffffffffffff1673ffffffffffffffffffffffffffffffffffffffff16815260200190815260200160002060008473ffffffffffffffffffffffffffffffffffffffff1673ffffffffffffffffffffffffffffffffffffffff168152602001908152602001600020826040516118559190613465565b908152602001604051809103902060008282546118729190613bbf565b925050819055505050565b60007f7965db0b000000000000000000000000000000000000000000000000000000007bffffffffffffffffffffffffffffffffffffffffffffffffffffffff1916827bffffffffffffffffffffffffffffffffffffffffffffffffffffffff191614806118f057506118ef82611c9c565b5b9050919050565b600033905090565b61190982826109b3565b6119985761192e8173ffffffffffffffffffffffffffffffffffffffff166014611d06565b61193c8360001c6020611d06565b60405160200161194d9291906134b3565b6040516020818303038152906040526040517f08c379a000000000000000000000000000000000000000000000000000000000815260040161198f91906137f5565b60405180910390fd5b5050565b6119a68282612000565b6119cb81600160008581526020019081526020016000206120e090919063ffffffff16565b505050565b6119da8282612110565b6119ff81600160008581526020019081526020016000206121f190919063ffffffff16565b505050565b6000600260009054906101000a900473ffffffffffffffffffffffffffffffffffffffff16905081600260006101000a81548173ffffffffffffffffffffffffffffffffffffffff021916908373ffffffffffffffffffffffffffffffffffffffff1602179055508173ffffffffffffffffffffffffffffffffffffffff168173ffffffffffffffffffffffffffffffffffffffff167f8be0079c531659141344cd1fd0a4f28419497f9722a3daafe3b4186f6b6457e060405160405180910390a35050565b6000611ad98360000183612221565b60001c905092915050565b600080611af083612272565b9050611b4f8184806101000190611b079190613a89565b8080601f016020809104026020016040519081016040528093929190818152602001838380828437600081840152601f19601f8201169050808301925050505050505061235f565b915050919050565b6000611b90611b6f838561238690919063ffffffff16565b611b82848761238690919063ffffffff16565b61239c90919063ffffffff16565b90509392505050565b60008183611ba79190613c6f565b905092915050565b611c4581604051602401611bc391906137f5565b6040516020818303038152906040527f41304fac000000000000000000000000000000000000000000000000000000007bffffffffffffffffffffffffffffffffffffffffffffffffffffffff19166020820180517bffffffffffffffffffffffffffffffffffffffffffffffffffffffff8381831617835250505050611c73565b50565b6001816000016000828254019250508190555050565b6000611c6c826000016123b2565b9050919050565b60008151905060006a636f6e736f6c652e6c6f679050602083016000808483855afa5050505050565b60007f01ffc9a7000000000000000000000000000000000000000000000000000000007bffffffffffffffffffffffffffffffffffffffffffffffffffffffff1916827bffffffffffffffffffffffffffffffffffffffffffffffffffffffff1916149050919050565b606060006002836002611d199190613c15565b611d239190613bbf565b67ffffffffffffffff811115611d62577f4e487b7100000000000000000000000000000000000000000000000000000000600052604160045260246000fd5b6040519080825280601f01601f191660200182016040528015611d945781602001600182028036833780820191505090505b5090507f300000000000000000000000000000000000000000000000000000000000000081600081518110611df2577f4e487b7100000000000000000000000000000000000000000000000000000000600052603260045260246000fd5b60200101907effffffffffffffffffffffffffffffffffffffffffffffffffffffffffffff1916908160001a9053507f780000000000000000000000000000000000000000000000000000000000000081600181518110611e7c577f4e487b7100000000000000000000000000000000000000000000000000000000600052603260045260246000fd5b60200101907effffffffffffffffffffffffffffffffffffffffffffffffffffffffffffff1916908160001a90535060006001846002611ebc9190613c15565b611ec69190613bbf565b90505b6001811115611fb2577f3031323334353637383961626364656600000000000000000000000000000000600f861660108110611f2e577f4e487b7100000000000000000000000000000000000000000000000000000000600052603260045260246000fd5b1a60f81b828281518110611f6b577f4e487b7100000000000000000000000000000000000000000000000000000000600052603260045260246000fd5b60200101907effffffffffffffffffffffffffffffffffffffffffffffffffffffffffffff1916908160001a905350600485901c945080611fab90613e12565b9050611ec9565b5060008414611ff6576040517f08c379a0000000000000000000000000000000000000000000000000000000008152600401611fed906138a5565b60405180910390fd5b8091505092915050565b61200a82826109b3565b6120dc57600160008084815260200190815260200160002060000160008373ffffffffffffffffffffffffffffffffffffffff1673ffffffffffffffffffffffffffffffffffffffff16815260200190815260200160002060006101000a81548160ff0219169083151502179055506120816118f7565b73ffffffffffffffffffffffffffffffffffffffff168173ffffffffffffffffffffffffffffffffffffffff16837f2f8788117e7eff1d82e926ec794901d17c78024a50270940304540a733656f0d60405160405180910390a45b5050565b6000612108836000018373ffffffffffffffffffffffffffffffffffffffff1660001b6123c3565b905092915050565b61211a82826109b3565b156121ed57600080600084815260200190815260200160002060000160008373ffffffffffffffffffffffffffffffffffffffff1673ffffffffffffffffffffffffffffffffffffffff16815260200190815260200160002060006101000a81548160ff0219169083151502179055506121926118f7565b73ffffffffffffffffffffffffffffffffffffffff168173ffffffffffffffffffffffffffffffffffffffff16837ff6391f5c32d9c69d2a47ea670b442974b53935d1edc7fd64eb21e047a839171b60405160405180910390a45b5050565b6000612219836000018373ffffffffffffffffffffffffffffffffffffffff1660001b612433565b905092915050565b600082600001828154811061225f577f4e487b7100000000000000000000000000000000000000000000000000000000600052603260045260246000fd5b9060005260206000200154905092915050565b60006123587f94cc3354057ebc30e177ffadcb830d3ceceab73dcbac46a4d39a5615b0f6cacf8360000160208101906122ab9190612dae565b846020013585604001358680606001906122c59190613ae0565b6040516122d3929190613433565b604051809103902087608001358860a001358960c001358a60e00160208101906122fd9190612f0d565b8b80610120019061230e9190613ae0565b60405161231c929190613433565b604051809103902060405160200161233d9a9998979695949392919061364c565b604051602081830303815290604052805190602001206125b9565b9050919050565b600080600061236e85856125d3565b9150915061237b81612656565b819250505092915050565b600081836123949190613c15565b905092915050565b600081836123aa9190613bbf565b905092915050565b600081600001805490509050919050565b60006123cf83836129a7565b61242857826000018290806001815401808255809150506001900390600052602060002001600090919091909150558260000180549050836001016000848152602001908152602001600020819055506001905061242d565b600090505b92915050565b600080836001016000848152602001908152602001600020549050600081146125ad5760006001826124659190613c6f565b905060006001866000018054905061247d9190613c6f565b90508181146125385760008660000182815481106124c4577f4e487b7100000000000000000000000000000000000000000000000000000000600052603260045260246000fd5b906000526020600020015490508087600001848154811061250e577f4e487b7100000000000000000000000000000000000000000000000000000000600052603260045260246000fd5b90600052602060002001819055508387600101600083815260200190815260200160002081905550505b85600001805480612572577f4e487b7100000000000000000000000000000000000000000000000000000000600052603160045260246000fd5b6001900381819060005260206000200160009055905585600101600086815260200190815260200160002060009055600193505050506125b3565b60009150505b92915050565b60006125cc6125c66129ca565b83612ae4565b9050919050565b6000806041835114156126155760008060006020860151925060408601519150606086015160001a905061260987828585612b17565b9450945050505061264f565b60408351141561264657600080602085015191506040850151905061263b868383612c24565b93509350505061264f565b60006002915091505b9250929050565b60006004811115612690577f4e487b7100000000000000000000000000000000000000000000000000000000600052602160045260246000fd5b8160048111156126c9577f4e487b7100000000000000000000000000000000000000000000000000000000600052602160045260246000fd5b14156126d4576129a4565b6001600481111561270e577f4e487b7100000000000000000000000000000000000000000000000000000000600052602160045260246000fd5b816004811115612747577f4e487b7100000000000000000000000000000000000000000000000000000000600052602160045260246000fd5b1415612788576040517f08c379a000000000000000000000000000000000000000000000000000000000815260040161277f90613885565b60405180910390fd5b600260048111156127c2577f4e487b7100000000000000000000000000000000000000000000000000000000600052602160045260246000fd5b8160048111156127fb577f4e487b7100000000000000000000000000000000000000000000000000000000600052602160045260246000fd5b141561283c576040517f08c379a0000000000000000000000000000000000000000000000000000000008152600401612833906138c5565b60405180910390fd5b60036004811115612876577f4e487b7100000000000000000000000000000000000000000000000000000000600052602160045260246000fd5b8160048111156128af577f4e487b7100000000000000000000000000000000000000000000000000000000600052602160045260246000fd5b14156128f0576040517f08c379a00000000000000000000000000000000000000000000000000000000081526004016128e790613925565b60405180910390fd5b600480811115612929577f4e487b7100000000000000000000000000000000000000000000000000000000600052602160045260246000fd5b816004811115612962577f4e487b7100000000000000000000000000000000000000000000000000000000600052602160045260246000fd5b14156129a3576040517f08c379a000000000000000000000000000000000000000000000000000000000815260040161299a90613965565b60405180910390fd5b5b50565b600080836001016000848152602001908152602001600020541415905092915050565b60007f000000000000000000000000000000000000000000000000000000000000000073ffffffffffffffffffffffffffffffffffffffff163073ffffffffffffffffffffffffffffffffffffffff16148015612a4657507f000000000000000000000000000000000000000000000000000000000000000046145b15612a73577f00000000000000000000000000000000000000000000000000000000000000009050612ae1565b612ade7f00000000000000000000000000000000000000000000000000000000000000007f00000000000000000000000000000000000000000000000000000000000000007f0000000000000000000000000000000000000000000000000000000000000000612c72565b90505b90565b60008282604051602001612af992919061347c565b60405160208183030381529060405280519060200120905092915050565b6000807f7fffffffffffffffffffffffffffffff5d576e7357a4501ddfe92f46681b20a08360001c1115612b52576000600391509150612c1b565b601b8560ff1614158015612b6a5750601c8560ff1614155b15612b7c576000600491509150612c1b565b600060018787878760405160008152602001604052604051612ba1949392919061373b565b6020604051602081039080840390855afa158015612bc3573d6000803e3d6000fd5b505050602060405103519050600073ffffffffffffffffffffffffffffffffffffffff168173ffffffffffffffffffffffffffffffffffffffff161415612c1257600060019250925050612c1b565b80600092509250505b94509492505050565b6000806000807f7fffffffffffffffffffffffffffffffffffffffffffffffffffffffffffffff85169150601b8560ff1c019050612c6487828885612b17565b935093505050935093915050565b60008383834630604051602001612c8d9594939291906136e8565b6040516020818303038152906040528051906020012090509392505050565b6000612cbf612cba84613b5c565b613b37565b905082815260208101848484011115612cd757600080fd5b612ce2848285613dd0565b509392505050565b600081359050612cf98161425d565b92915050565b600081359050612d0e81614274565b92915050565b600081359050612d238161428b565b92915050565b600081359050612d38816142a2565b92915050565b600082601f830112612d4f57600080fd5b8135612d5f848260208601612cac565b91505092915050565b60006101408284031215612d7b57600080fd5b81905092915050565b600081359050612d93816142b9565b92915050565b600081519050612da8816142b9565b92915050565b600060208284031215612dc057600080fd5b6000612dce84828501612cea565b91505092915050565b600080600060608486031215612dec57600080fd5b6000612dfa86828701612cea565b9350506020612e0b86828701612cea565b925050604084013567ffffffffffffffff811115612e2857600080fd5b612e3486828701612d3e565b9150509250925092565b60008060008060808587031215612e5457600080fd5b6000612e6287828801612cea565b9450506020612e7387828801612cea565b9350506040612e8487828801612d84565b925050606085013567ffffffffffffffff811115612ea157600080fd5b612ead87828801612d68565b91505092959194509250565b60008060408385031215612ecc57600080fd5b6000612eda85828601612cea565b925050602083013567ffffffffffffffff811115612ef757600080fd5b612f0385828601612d3e565b9150509250929050565b600060208284031215612f1f57600080fd5b6000612f2d84828501612cff565b91505092915050565b600060208284031215612f4857600080fd5b6000612f5684828501612d14565b91505092915050565b60008060408385031215612f7257600080fd5b6000612f8085828601612d14565b9250506020612f9185828601612cea565b9150509250929050565b60008060408385031215612fae57600080fd5b6000612fbc85828601612d14565b9250506020612fcd85828601612d84565b9150509250929050565b600060208284031215612fe957600080fd5b6000612ff784828501612d29565b91505092915050565b60006020828403121561301257600080fd5b600061302084828501612d84565b91505092915050565b60006020828403121561303b57600080fd5b600061304984828501612d99565b91505092915050565b61305b81613d2e565b82525050565b61306a81613ca3565b82525050565b61307981613cb5565b82525050565b61308881613cc1565b82525050565b61309f61309a82613cc1565b613e6d565b82525050565b60006130b18385613b98565b93506130be838584613dd0565b82840190509392505050565b6130d381613d40565b82525050565b6130e281613d64565b82525050565b6130f181613d88565b82525050565b60006131038385613ba3565b9350613110838584613dd0565b61311983613ed5565b840190509392505050565b60006131308385613bb4565b935061313d838584613dd0565b82840190509392505050565b600061315482613b8d565b61315e8185613ba3565b935061316e818560208601613ddf565b61317781613ed5565b840191505092915050565b600061318d82613b8d565b6131978185613bb4565b93506131a7818560208601613ddf565b80840191505092915050565b60006131c0601883613ba3565b91506131cb82613ee6565b602082019050919050565b60006131e3602083613ba3565b91506131ee82613f0f565b602082019050919050565b6000613206601f83613ba3565b915061321182613f38565b602082019050919050565b6000613229602683613ba3565b915061323482613f61565b604082019050919050565b600061324c600283613bb4565b915061325782613fb0565b600282019050919050565b600061326f601783613ba3565b915061327a82613fd9565b602082019050919050565b6000613292602283613ba3565b915061329d82614002565b604082019050919050565b60006132b5601383613ba3565b91506132c082614051565b602082019050919050565b60006132d8602283613ba3565b91506132e38261407a565b604082019050919050565b60006132fb601b83613ba3565b9150613306826140c9565b602082019050919050565b600061331e601c83613ba3565b9150613329826140f2565b602082019050919050565b6000613341602083613ba3565b915061334c8261411b565b602082019050919050565b6000613364602183613ba3565b915061336f82614144565b604082019050919050565b6000613387601783613bb4565b915061339282614193565b601782019050919050565b60006133aa601f83613ba3565b91506133b5826141bc565b602082019050919050565b60006133cd601183613bb4565b91506133d8826141e5565b601182019050919050565b60006133f0602f83613ba3565b91506133fb8261420e565b604082019050919050565b61340f81613d17565b82525050565b61341e81613d17565b82525050565b61342d81613d21565b82525050565b60006134408284866130a5565b91508190509392505050565b6000613459828486613124565b91508190509392505050565b60006134718284613182565b915081905092915050565b60006134878261323f565b9150613493828561308e565b6020820191506134a3828461308e565b6020820191508190509392505050565b60006134be8261337a565b91506134ca8285613182565b91506134d5826133c0565b91506134e18284613182565b91508190509392505050565b60006020820190506135026000830184613061565b92915050565b600060408201905061351d6000830185613052565b61352a6020830184613406565b9392505050565b60006060820190506135466000830186613061565b6135536020830185613061565b6135606040830184613406565b949350505050565b600060808201905061357d6000830187613061565b61358a6020830186613061565b6135976040830185613406565b6135a46060830184613406565b95945050505050565b60006060820190506135c26000830187613061565b81810360208301526135d58185876130f7565b90506135e46040830184613406565b95945050505050565b60006040820190506136026000830185613061565b61360f6020830184613406565b9392505050565b600060208201905061362b6000830184613070565b92915050565b6000602082019050613646600083018461307f565b92915050565b600061014082019050613662600083018d61307f565b61366f602083018c613061565b61367c604083018b613406565b613689606083018a613406565b613696608083018961307f565b6136a360a0830188613406565b6136b060c0830187613406565b6136bd60e0830186613406565b6136cb610100830185613070565b6136d961012083018461307f565b9b9a5050505050505050505050565b600060a0820190506136fd600083018861307f565b61370a602083018761307f565b613717604083018661307f565b6137246060830185613406565b6137316080830184613061565b9695505050505050565b6000608082019050613750600083018761307f565b61375d6020830186613424565b61376a604083018561307f565b613777606083018461307f565b95945050505050565b600060208201905061379560008301846130ca565b92915050565b60006020820190506137b060008301846130d9565b92915050565b60006020820190506137cb60008301846130e8565b92915050565b600060208201905081810360008301526137ec8184866130f7565b90509392505050565b6000602082019050818103600083015261380f8184613149565b905092915050565b600060608201905081810360008301526138318186613149565b90506138406020830185613061565b61384d6040830184613061565b949350505050565b6000604082019050818103600083015261386f8185613149565b905061387e6020830184613406565b9392505050565b6000602082019050818103600083015261389e816131b3565b9050919050565b600060208201905081810360008301526138be816131d6565b9050919050565b600060208201905081810360008301526138de816131f9565b9050919050565b600060208201905081810360008301526138fe8161321c565b9050919050565b6000602082019050818103600083015261391e81613262565b9050919050565b6000602082019050818103600083015261393e81613285565b9050919050565b6000602082019050818103600083015261395e816132a8565b9050919050565b6000602082019050818103600083015261397e816132cb565b9050919050565b6000602082019050818103600083015261399e816132ee565b9050919050565b600060208201905081810360008301526139be81613311565b9050919050565b600060208201905081810360008301526139de81613334565b9050919050565b600060208201905081810360008301526139fe81613357565b9050919050565b60006020820190508181036000830152613a1e8161339d565b9050919050565b60006020820190508181036000830152613a3e816133e3565b9050919050565b6000602082019050613a5a6000830184613406565b92915050565b6000604082019050613a756000830185613415565b613a826020830184613415565b9392505050565b60008083356001602003843603038112613aa257600080fd5b80840192508235915067ffffffffffffffff821115613ac057600080fd5b602083019250600182023603831315613ad857600080fd5b509250929050565b60008083356001602003843603038112613af957600080fd5b80840192508235915067ffffffffffffffff821115613b1757600080fd5b602083019250600182023603831315613b2f57600080fd5b509250929050565b6000613b41613b52565b9050613b4d8282613e3c565b919050565b6000604051905090565b600067ffffffffffffffff821115613b7757613b76613ea6565b5b613b8082613ed5565b9050602081019050919050565b600081519050919050565b600081905092915050565b600082825260208201905092915050565b600081905092915050565b6000613bca82613d17565b9150613bd583613d17565b9250827fffffffffffffffffffffffffffffffffffffffffffffffffffffffffffffffff03821115613c0a57613c09613e77565b5b828201905092915050565b6000613c2082613d17565b9150613c2b83613d17565b9250817fffffffffffffffffffffffffffffffffffffffffffffffffffffffffffffffff0483118215151615613c6457613c63613e77565b5b828202905092915050565b6000613c7a82613d17565b9150613c8583613d17565b925082821015613c9857613c97613e77565b5b828203905092915050565b6000613cae82613cf7565b9050919050565b60008115159050919050565b6000819050919050565b60007fffffffff0000000000000000000000000000000000000000000000000000000082169050919050565b600073ffffffffffffffffffffffffffffffffffffffff82169050919050565b6000819050919050565b600060ff82169050919050565b6000613d3982613dac565b9050919050565b6000613d4b82613d52565b9050919050565b6000613d5d82613cf7565b9050919050565b6000613d6f82613d76565b9050919050565b6000613d8182613cf7565b9050919050565b6000613d9382613d9a565b9050919050565b6000613da582613cf7565b9050919050565b6000613db782613dbe565b9050919050565b6000613dc982613cf7565b9050919050565b82818337600083830152505050565b60005b83811015613dfd578082015181840152602081019050613de2565b83811115613e0c576000848401525b50505050565b6000613e1d82613d17565b91506000821415613e3157613e30613e77565b5b600182039050919050565b613e4582613ed5565b810181811067ffffffffffffffff82111715613e6457613e63613ea6565b5b80604052505050565b6000819050919050565b7f4e487b7100000000000000000000000000000000000000000000000000000000600052601160045260246000fd5b7f4e487b7100000000000000000000000000000000000000000000000000000000600052604160045260246000fd5b6000601f19601f8301169050919050565b7f45434453413a20696e76616c6964207369676e61747572650000000000000000600082015250565b7f537472696e67733a20686578206c656e67746820696e73756666696369656e74600082015250565b7f45434453413a20696e76616c6964207369676e6174757265206c656e67746800600082015250565b7f4f776e61626c653a206e6577206f776e657220697320746865207a65726f206160008201527f6464726573730000000000000000000000000000000000000000000000000000602082015250565b7f1901000000000000000000000000000000000000000000000000000000000000600082015250565b7f4e465420636f756c64206e6f74206265206d696e746564000000000000000000600082015250565b7f45434453413a20696e76616c6964207369676e6174757265202773272076616c60008201527f7565000000000000000000000000000000000000000000000000000000000000602082015250565b7f5369676e6174757265206e6f742076616c696400000000000000000000000000600082015250565b7f45434453413a20696e76616c6964207369676e6174757265202776272076616c60008201527f7565000000000000000000000000000000000000000000000000000000000000602082015250565b7f4e6f20616d6f756e74206265696e67207472616e736665727265640000000000600082015250565b7f496e73756666696369656e742066756e647320746f2072656465656d00000000600082015250565b7f4f776e61626c653a2063616c6c6572206973206e6f7420746865206f776e6572600082015250565b7f5369676e617475726520696e76616c6964206f7220756e617574686f72697a6560008201527f6400000000000000000000000000000000000000000000000000000000000000602082015250565b7f416363657373436f6e74726f6c3a206163636f756e7420000000000000000000600082015250565b7f5265656e7472616e637947756172643a207265656e7472616e742063616c6c00600082015250565b7f206973206d697373696e6720726f6c6520000000000000000000000000000000600082015250565b7f416363657373436f6e74726f6c3a2063616e206f6e6c792072656e6f756e636560008201527f20726f6c657320666f722073656c660000000000000000000000000000000000602082015250565b61426681613ca3565b811461427157600080fd5b50565b61427d81613cb5565b811461428857600080fd5b50565b61429481613cc1565b811461429f57600080fd5b50565b6142ab81613ccb565b81146142b657600080fd5b50565b6142c281613d17565b81146142cd57600080fd5b5056fe4a757374207472616e736665727265642061206d61737465722077697468206c6963656e736521556e6c6973744d6574686f64202d2053656c6c436f69756e7420777572646520696e6372656d656e746564556e6c6973744d6574686f64202d2053656c6c436f69756e74207769726420696e6372656d656e746564a264697066735822122064ae7afbaa076628c2aa98e8530922e99cefa6ea198537023bfabeb352b21a2064736f6c63430008040033",
  "linkReferences": {
    "contracts/libs/PercentageUtils.sol": {
      "PercentageUtils": [
        {
          "length": 20,
          "start": 5303
        }
      ]
    }
  },
  "deployedLinkReferences": {
    "contracts/libs/PercentageUtils.sol": {
      "PercentageUtils": [
        {
          "length": 20,
          "start": 3257
        }
      ]
    }
  }
}