{
  "_format": "hh-sol-artifact-1",
  "contractName": "MarketContract",
  "sourceName": "contracts/MarketContract.sol",
  "abi": [
    {
      "inputs": [
        {
          "internalType": "address",
          "name": "_commonUtilsAddress",
          "type": "address"
        }
      ],
      "stateMutability": "nonpayable",
      "type": "constructor"
    },
    {
      "anonymous": false,
      "inputs": [
        {
          "indexed": true,
          "internalType": "address",
          "name": "previousOwner",
          "type": "address"
        },
        {
          "indexed": true,
          "internalType": "address",
          "name": "newOwner",
          "type": "address"
        }
      ],
      "name": "OwnershipTransferred",
      "type": "event"
    },
    {
      "anonymous": false,
      "inputs": [
        {
          "indexed": false,
          "internalType": "bytes",
          "name": "signature",
          "type": "bytes"
        },
        {
          "indexed": false,
          "internalType": "address",
          "name": "buyer",
          "type": "address"
        },
        {
          "indexed": false,
          "internalType": "uint256",
          "name": "soldAmount",
          "type": "uint256"
        }
      ],
      "name": "RedeemedMintVoucher",
      "type": "event"
    },
    {
      "anonymous": false,
      "inputs": [
        {
          "indexed": false,
          "internalType": "bytes",
          "name": "signature",
          "type": "bytes"
        },
        {
          "indexed": false,
          "internalType": "address",
          "name": "buyer",
          "type": "address"
        },
        {
          "indexed": false,
          "internalType": "uint256",
          "name": "soldAmount",
          "type": "uint256"
        }
      ],
      "name": "RedeemedSaleVoucher",
      "type": "event"
    },
    {
      "anonymous": false,
      "inputs": [
        {
          "indexed": true,
          "internalType": "bytes32",
          "name": "role",
          "type": "bytes32"
        },
        {
          "indexed": true,
          "internalType": "bytes32",
          "name": "previousAdminRole",
          "type": "bytes32"
        },
        {
          "indexed": true,
          "internalType": "bytes32",
          "name": "newAdminRole",
          "type": "bytes32"
        }
      ],
      "name": "RoleAdminChanged",
      "type": "event"
    },
    {
      "anonymous": false,
      "inputs": [
        {
          "indexed": true,
          "internalType": "bytes32",
          "name": "role",
          "type": "bytes32"
        },
        {
          "indexed": true,
          "internalType": "address",
          "name": "account",
          "type": "address"
        },
        {
          "indexed": true,
          "internalType": "address",
          "name": "sender",
          "type": "address"
        }
      ],
      "name": "RoleGranted",
      "type": "event"
    },
    {
      "anonymous": false,
      "inputs": [
        {
          "indexed": true,
          "internalType": "bytes32",
          "name": "role",
          "type": "bytes32"
        },
        {
          "indexed": true,
          "internalType": "address",
          "name": "account",
          "type": "address"
        },
        {
          "indexed": true,
          "internalType": "address",
          "name": "sender",
          "type": "address"
        }
      ],
      "name": "RoleRevoked",
      "type": "event"
    },
    {
      "anonymous": false,
      "inputs": [
        {
          "indexed": false,
          "internalType": "bytes",
          "name": "signature",
          "type": "bytes"
        }
      ],
      "name": "UnlistedNFT",
      "type": "event"
    },
    {
      "inputs": [],
      "name": "DEFAULT_ADMIN_ROLE",
      "outputs": [
        {
          "internalType": "bytes32",
          "name": "",
          "type": "bytes32"
        }
      ],
      "stateMutability": "view",
      "type": "function"
    },
    {
      "inputs": [
        {
          "internalType": "uint256",
          "name": "_tokenId",
          "type": "uint256"
        },
        {
          "internalType": "uint256",
          "name": "_salePrice",
          "type": "uint256"
        }
      ],
      "name": "_royaltySplitLicense",
      "outputs": [
        {
          "internalType": "uint256",
          "name": "",
          "type": "uint256"
        },
        {
          "internalType": "uint256",
          "name": "",
          "type": "uint256"
        },
        {
          "internalType": "uint256",
          "name": "",
          "type": "uint256"
        }
      ],
      "stateMutability": "view",
      "type": "function"
    },
    {
      "inputs": [
        {
          "internalType": "uint256",
          "name": "_tokenId",
          "type": "uint256"
        },
        {
          "internalType": "uint256",
          "name": "_salePrice",
          "type": "uint256"
        }
      ],
      "name": "_royaltySplitMaster",
      "outputs": [
        {
          "internalType": "uint256",
          "name": "",
          "type": "uint256"
        },
        {
          "internalType": "uint256",
          "name": "",
          "type": "uint256"
        }
      ],
      "stateMutability": "view",
      "type": "function"
    },
    {
      "inputs": [],
      "name": "_serviceFees",
      "outputs": [
        {
          "internalType": "uint256",
          "name": "",
          "type": "uint256"
        }
      ],
      "stateMutability": "view",
      "type": "function"
    },
    {
      "inputs": [],
      "name": "commonUtils",
      "outputs": [
        {
          "internalType": "contract ICommonUtils",
          "name": "",
          "type": "address"
        }
      ],
      "stateMutability": "view",
      "type": "function"
    },
    {
      "inputs": [
        {
          "internalType": "bytes32",
          "name": "role",
          "type": "bytes32"
        }
      ],
      "name": "getRoleAdmin",
      "outputs": [
        {
          "internalType": "bytes32",
          "name": "",
          "type": "bytes32"
        }
      ],
      "stateMutability": "view",
      "type": "function"
    },
    {
      "inputs": [
        {
          "internalType": "bytes32",
          "name": "role",
          "type": "bytes32"
        },
        {
          "internalType": "uint256",
          "name": "index",
          "type": "uint256"
        }
      ],
      "name": "getRoleMember",
      "outputs": [
        {
          "internalType": "address",
          "name": "",
          "type": "address"
        }
      ],
      "stateMutability": "view",
      "type": "function"
    },
    {
      "inputs": [
        {
          "internalType": "bytes32",
          "name": "role",
          "type": "bytes32"
        }
      ],
      "name": "getRoleMemberCount",
      "outputs": [
        {
          "internalType": "uint256",
          "name": "",
          "type": "uint256"
        }
      ],
      "stateMutability": "view",
      "type": "function"
    },
    {
      "inputs": [],
      "name": "getServiceFees",
      "outputs": [
        {
          "internalType": "uint256",
          "name": "",
          "type": "uint256"
        }
      ],
      "stateMutability": "view",
      "type": "function"
    },
    {
      "inputs": [
        {
          "internalType": "bytes32",
          "name": "role",
          "type": "bytes32"
        },
        {
          "internalType": "address",
          "name": "account",
          "type": "address"
        }
      ],
      "name": "grantRole",
      "outputs": [],
      "stateMutability": "nonpayable",
      "type": "function"
    },
    {
      "inputs": [
        {
          "internalType": "bytes32",
          "name": "role",
          "type": "bytes32"
        },
        {
          "internalType": "address",
          "name": "account",
          "type": "address"
        }
      ],
      "name": "hasRole",
      "outputs": [
        {
          "internalType": "bool",
          "name": "",
          "type": "bool"
        }
      ],
      "stateMutability": "view",
      "type": "function"
    },
    {
      "inputs": [
        {
          "internalType": "bytes",
          "name": "",
          "type": "bytes"
        }
      ],
      "name": "isVoucherInvalid",
      "outputs": [
        {
          "internalType": "bool",
          "name": "",
          "type": "bool"
        }
      ],
      "stateMutability": "view",
      "type": "function"
    },
    {
      "inputs": [],
      "name": "owner",
      "outputs": [
        {
          "internalType": "address",
          "name": "",
          "type": "address"
        }
      ],
      "stateMutability": "view",
      "type": "function"
    },
    {
      "inputs": [
        {
          "internalType": "uint256",
          "name": "_amountToPurchase",
          "type": "uint256"
        },
        {
          "components": [
            {
              "internalType": "uint256",
              "name": "price",
              "type": "uint256"
            },
            {
              "internalType": "string",
              "name": "tokenUri",
              "type": "string"
            },
            {
              "internalType": "uint256",
              "name": "supply",
              "type": "uint256"
            },
            {
              "internalType": "uint256",
              "name": "maxSupply",
              "type": "uint256"
            },
            {
              "internalType": "bool",
              "name": "isMaster",
              "type": "bool"
            },
            {
              "internalType": "bytes",
              "name": "signature",
              "type": "bytes"
            },
            {
              "internalType": "string",
              "name": "currency",
              "type": "string"
            },
            {
              "internalType": "uint96",
              "name": "royaltyFeeMaster",
              "type": "uint96"
            },
            {
              "internalType": "uint96",
              "name": "royaltyFeeLicense",
              "type": "uint96"
            },
            {
              "internalType": "uint96",
              "name": "creatorOwnerSplit",
              "type": "uint96"
            },
            {
              "internalType": "uint256",
              "name": "validUntil",
              "type": "uint256"
            }
          ],
          "internalType": "struct MarketContract.MintVoucher",
          "name": "_mintVoucher",
          "type": "tuple"
        }
      ],
      "name": "redeemMintVoucher",
      "outputs": [],
      "stateMutability": "payable",
      "type": "function"
    },
    {
      "inputs": [
        {
          "internalType": "uint256",
          "name": "_amountToPurchase",
          "type": "uint256"
        },
        {
          "components": [
            {
              "internalType": "address",
              "name": "nftContractAddress",
              "type": "address"
            },
            {
              "internalType": "uint256",
              "name": "price",
              "type": "uint256"
            },
            {
              "internalType": "string",
              "name": "tokenUri",
              "type": "string"
            },
            {
              "internalType": "uint256",
              "name": "supply",
              "type": "uint256"
            },
            {
              "internalType": "bool",
              "name": "isMaster",
              "type": "bool"
            },
            {
              "internalType": "bytes",
              "name": "signature",
              "type": "bytes"
            },
            {
              "internalType": "string",
              "name": "currency",
              "type": "string"
            },
            {
              "internalType": "uint256",
              "name": "validUntil",
              "type": "uint256"
            }
          ],
          "internalType": "struct MarketContract.SaleVoucher",
          "name": "_saleVoucher",
          "type": "tuple"
        }
      ],
      "name": "redeemSaleVoucher",
      "outputs": [],
      "stateMutability": "payable",
      "type": "function"
    },
    {
      "inputs": [],
      "name": "renounceOwnership",
      "outputs": [],
      "stateMutability": "nonpayable",
      "type": "function"
    },
    {
      "inputs": [
        {
          "internalType": "bytes32",
          "name": "role",
          "type": "bytes32"
        },
        {
          "internalType": "address",
          "name": "account",
          "type": "address"
        }
      ],
      "name": "renounceRole",
      "outputs": [],
      "stateMutability": "nonpayable",
      "type": "function"
    },
    {
      "inputs": [
        {
          "internalType": "bytes32",
          "name": "role",
          "type": "bytes32"
        },
        {
          "internalType": "address",
          "name": "account",
          "type": "address"
        }
      ],
      "name": "revokeRole",
      "outputs": [],
      "stateMutability": "nonpayable",
      "type": "function"
    },
    {
      "inputs": [
        {
          "internalType": "uint256",
          "name": "_tokenId",
          "type": "uint256"
        },
        {
          "internalType": "uint256",
          "name": "_salePrice",
          "type": "uint256"
        }
      ],
      "name": "royaltySplitLicense",
      "outputs": [
        {
          "internalType": "uint256",
          "name": "",
          "type": "uint256"
        },
        {
          "internalType": "uint256",
          "name": "",
          "type": "uint256"
        },
        {
          "internalType": "uint256",
          "name": "",
          "type": "uint256"
        }
      ],
      "stateMutability": "view",
      "type": "function"
    },
    {
      "inputs": [
        {
          "internalType": "uint256",
          "name": "_tokenId",
          "type": "uint256"
        },
        {
          "internalType": "uint256",
          "name": "_salePrice",
          "type": "uint256"
        }
      ],
      "name": "royaltySplitMaster",
      "outputs": [
        {
          "internalType": "uint256",
          "name": "",
          "type": "uint256"
        },
        {
          "internalType": "uint256",
          "name": "",
          "type": "uint256"
        }
      ],
      "stateMutability": "view",
      "type": "function"
    },
    {
      "inputs": [
        {
          "internalType": "uint256",
          "name": "tokenId",
          "type": "uint256"
        },
        {
          "internalType": "uint96",
          "name": "royaltyFeeMaster",
          "type": "uint96"
        },
        {
          "internalType": "uint96",
          "name": "royaltyFeeLicense",
          "type": "uint96"
        },
        {
          "internalType": "uint96",
          "name": "creatorOwnerRoyaltySplit",
          "type": "uint96"
        }
      ],
      "name": "setTokenRoyaltySplit",
      "outputs": [],
      "stateMutability": "nonpayable",
      "type": "function"
    },
    {
      "inputs": [
        {
          "internalType": "bytes4",
          "name": "interfaceId",
          "type": "bytes4"
        }
      ],
      "name": "supportsInterface",
      "outputs": [
        {
          "internalType": "bool",
          "name": "",
          "type": "bool"
        }
      ],
      "stateMutability": "view",
      "type": "function"
    },
    {
      "inputs": [
        {
          "internalType": "address",
          "name": "newOwner",
          "type": "address"
        }
      ],
      "name": "transferOwnership",
      "outputs": [],
      "stateMutability": "nonpayable",
      "type": "function"
    },
    {
      "inputs": [
        {
          "internalType": "bytes",
          "name": "signature",
          "type": "bytes"
        }
      ],
      "name": "unlistItem",
      "outputs": [],
      "stateMutability": "nonpayable",
      "type": "function"
    },
    {
      "inputs": [
        {
          "internalType": "bytes",
          "name": "",
          "type": "bytes"
        }
      ],
      "name": "voucherAmountSold",
      "outputs": [
        {
          "internalType": "uint256",
          "name": "",
          "type": "uint256"
        }
      ],
      "stateMutability": "view",
      "type": "function"
    },
    {
      "inputs": [
        {
          "internalType": "uint256",
          "name": "_calculatedFees",
          "type": "uint256"
        }
      ],
      "name": "withdrawFees",
      "outputs": [],
      "stateMutability": "payable",
      "type": "function"
    }
  ],
  "bytecode": "0x6101406040523480156200001257600080fd5b50604051620031e0380380620031e08339810160408190526200003591620001cf565b604080518082018252600981526829ab2b37bab1b432b960b91b6020808301918252835180850190945260018452603160f81b908401528151902060e08190527fc89efdaa54c0f20c7adf612882df0950f5a951637e0307cdcb4c672f298b8bc66101008190524660a0529192917f8b73c3c69bb8fe3d512ecc4cf759cc79239f7b179b0ffacaa9a75d522b39400f620001148184846040805160208101859052908101839052606081018290524660808201523060a082015260009060c0016040516020818303038152906040528051906020012090509392505050565b6080523060601b60c05261012052506200013a9250620001349150503390565b6200017d565b6001600355600254600580546001600160a01b039283166001600160a01b031991821617909155610dac60065560098054939092169216919091179055620001ff565b600280546001600160a01b038381166001600160a01b0319831681179093556040519116919082907f8be0079c531659141344cd1fd0a4f28419497f9722a3daafe3b4186f6b6457e090600090a35050565b600060208284031215620001e1578081fd5b81516001600160a01b0381168114620001f8578182fd5b9392505050565b60805160a05160c05160601c60e0516101005161012051612f8e6200025260003960006127db0152600061282a015260006128050152600061275e01526000612788015260006127b20152612f8e6000f3fe6080604052600436106101815760003560e01c80639010d07c116100d1578063b776fcf61161008a578063d547741f11610064578063d547741f146104b6578063d5c40421146104d6578063f2fde38b146104eb578063fb9bf2741461050b57600080fd5b8063b776fcf614610445578063bff76f661461045b578063ca15c8731461049657600080fd5b80639010d07c1461039057806391d14854146103b057806397ed1328146103d057806399338f02146103f0578063a217fddf14610410578063b02b45a31461042557600080fd5b806333dcd3381161013e5780635e318e07116101185780635e318e07146102fb5780635f11f2931461030e578063715018a6146103495780638da5cb5b1461035e57600080fd5b806333dcd338146102a857806336568abe146102c85780634b291127146102e857600080fd5b806301ffc9a714610186578063147095a2146101bb578063248a9ca31461020157806329426095146102315780632ddb3ed3146102535780632f2ff15d14610288575b600080fd5b34801561019257600080fd5b506101a66101a1366004612a7a565b61051e565b60405190151581526020015b60405180910390f35b3480156101c757600080fd5b506101f36101d6366004612aa2565b805160208183018101805160088252928201919093012091525481565b6040519081526020016101b2565b34801561020d57600080fd5b506101f361021c366004612a12565b60009081526020819052604090206001015490565b34801561023d57600080fd5b5061025161024c366004612be6565b610549565b005b34801561025f57600080fd5b5061027361026e366004612a59565b610655565b604080519283526020830191909152016101b2565b34801561029457600080fd5b506102516102a3366004612a2a565b61066e565b3480156102b457600080fd5b506102516102c3366004612aa2565b610699565b3480156102d457600080fd5b506102516102e3366004612a2a565b610704565b6102516102f6366004612ba5565b610782565b610251610309366004612a12565b610a69565b34801561031a57600080fd5b5061032e610329366004612a59565b610aa3565b604080519384526020840192909252908201526060016101b2565b34801561035557600080fd5b50610251610b6a565b34801561036a57600080fd5b506002546001600160a01b03165b6040516001600160a01b0390911681526020016101b2565b34801561039c57600080fd5b506103786103ab366004612a59565b610bd0565b3480156103bc57600080fd5b506101a66103cb366004612a2a565b610bef565b3480156103dc57600080fd5b50600954610378906001600160a01b031681565b3480156103fc57600080fd5b5061027361040b366004612a59565b610c18565b34801561041c57600080fd5b506101f3600081565b34801561043157600080fd5b5061032e610440366004612a59565b610c9b565b34801561045157600080fd5b506101f360065481565b34801561046757600080fd5b506101a6610476366004612aa2565b805160208183018101805160078252928201919093012091525460ff1681565b3480156104a257600080fd5b506101f36104b1366004612a12565b610cb7565b3480156104c257600080fd5b506102516104d1366004612a2a565b610cce565b3480156104e257600080fd5b506006546101f3565b3480156104f757600080fd5b506102516105063660046129ba565b610cf4565b610251610519366004612b64565b610dbf565b60006001600160e01b03198216635a05180f60e01b1480610543575061054382611097565b92915050565b6127106001600160601b038416111561057d5760405162461bcd60e51b815260040161057490612dcf565b60405180910390fd5b6127106001600160601b03831611156105a85760405162461bcd60e51b815260040161057490612dcf565b6127106001600160601b03821611156105d35760405162461bcd60e51b815260040161057490612dcf565b604080516060810182526001600160601b03948516815292841660208085019182529285168483019081526000968752600490935294209151825494518416600160601b026001600160c01b031990951690841617939093178155915160019092018054929091166bffffffffffffffffffffffff1992909216919091179055565b6000806106628484610c18565b915091505b9250929050565b60008281526020819052604090206001015461068a81336110cc565b6106948383611130565b505050565b60016007826040516106ab9190612cb1565b908152604051908190036020018120805492151560ff19909316929092179091557f792349368881b516427610336187f9923d5ad453756de45272fd927026b815dc906106f9908390612da8565b60405180910390a150565b6001600160a01b03811633146107745760405162461bcd60e51b815260206004820152602f60248201527f416363657373436f6e74726f6c3a2063616e206f6e6c792072656e6f756e636560448201526e103937b632b9903337b91039b2b63360891b6064820152608401610574565b61077e8282611152565b5050565b600260035414156107d55760405162461bcd60e51b815260206004820152601f60248201527f5265656e7472616e637947756172643a207265656e7472616e742063616c6c006044820152606401610574565b60026003556107e48183611174565b151560011461082d5760405162461bcd60e51b815260206004820152601560248201527429b4b3b730ba3ab9329034b99034b73b30b634b21760591b6044820152606401610574565b6000610838826112c5565b9050336001600160a01b0382168114156108875760405162461bcd60e51b815260206004820152601060248201526f29b2b63632b91034b990313abcb2b91760811b6044820152606401610574565b600b546000906001600160a01b03166315a2f1206108a86040870187612e21565b6040518363ffffffff1660e01b81526004016108c5929190612dbb565b602060405180830381600087803b1580156108df57600080fd5b505af11580156108f3573d6000803e3d6000fd5b505050506040513d601f19601f820116820180604052508101906109179190612b4c565b905061093a81838560208801358961093560a08b0160808c016129f2565b61131e565b61097185600861094d60a0880188612e21565b60405161095b929190612ca1565b90815260405190819003602001902054906113b2565b600861098060a0870187612e21565b60405161098e929190612ca1565b90815260405190819003602001902055606084013560086109b260a0870187612e21565b6040516109c0929190612ca1565b9081526020016040518091039020541415610a1557600060076109e660a0870187612e21565b6040516109f4929190612ca1565b908152604051908190036020019020805491151560ff199092169190911790555b7f2606ed8abefca6d80d0dc5e61b97e042aa9480b717b1c9669c7f107610cb7a09610a4360a0860186612e21565b8488604051610a559493929190612d78565b60405180910390a150506001600355505050565b6005546040516001600160a01b039091169082156108fc029083906000818181858888f1935050505015801561077e573d6000803e3d6000fd5b6000828152600460209081526040808320815160608101835281546001600160601b038082168352600160601b9091048116948201859052600190920154909116918101919091528291829190829061271090610b009088612e9e565b610b0a9190612e7e565b905060006127106001600160601b031683604001516001600160601b031683610b339190612e9e565b610b3d9190612e7e565b90506000610b4b83836113be565b90506000610b5989856113be565b929a91995091975095505050505050565b6002546001600160a01b03163314610bc45760405162461bcd60e51b815260206004820181905260248201527f4f776e61626c653a2063616c6c6572206973206e6f7420746865206f776e65726044820152606401610574565b610bce60006113ca565b565b6000828152600160205260408120610be8908361141c565b9392505050565b6000918252602082815260408084206001600160a01b0393909316845291905290205460ff1690565b6000828152600460209081526040808320815160608101835281546001600160601b03808216808452600160601b90920481169583019590955260019092015490931691830191909152829190829061271090610c759087612e9e565b610c7f9190612e7e565b90506000610c8d86836113be565b919791965090945050505050565b6000806000610caa8585610aa3565b9250925092509250925092565b600081815260016020526040812061054390611428565b600082815260208190526040902060010154610cea81336110cc565b6106948383611152565b6002546001600160a01b03163314610d4e5760405162461bcd60e51b815260206004820181905260248201527f4f776e61626c653a2063616c6c6572206973206e6f7420746865206f776e65726044820152606401610574565b6001600160a01b038116610db35760405162461bcd60e51b815260206004820152602660248201527f4f776e61626c653a206e6577206f776e657220697320746865207a65726f206160448201526564647265737360d01b6064820152608401610574565b610dbc816113ca565b50565b60026003541415610e125760405162461bcd60e51b815260206004820152601f60248201527f5265656e7472616e637947756172643a207265656e7472616e742063616c6c006044820152606401610574565b6002600355610e218183611432565b1515600114610e6a5760405162461bcd60e51b815260206004820152601560248201527429b4b3b730ba3ab9329034b99034b73b30b634b21760591b6044820152606401610574565b600a546001600160a01b03161580610e8b5750600b546001600160a01b0316155b15610e9857610e98611556565b6000610ea3826116c1565b9050336001600160a01b038216811415610ef25760405162461bcd60e51b815260206004820152601060248201526f29b2b63632b91034b990313abcb2b91760811b6044820152606401610574565b600b546000906001600160a01b03166315a2f120610f136020870187612e21565b6040518363ffffffff1660e01b8152600401610f30929190612dbb565b602060405180830381600087803b158015610f4a57600080fd5b505af1158015610f5e573d6000803e3d6000fd5b505050506040513d601f19601f82011682018060405250810190610f829190612b4c565b905080610f9657610f9383856116cd565b90505b610faf81838587358961093560a08b0160808c016129f2565b610fc285600861094d60a0880188612e21565b6008610fd160a0870187612e21565b604051610fdf929190612ca1565b908152604080519182900360200190912091909155840135600861100660a0870187612e21565b604051611014929190612ca1565b9081526020016040518091039020541415611069576000600761103a60a0870187612e21565b604051611048929190612ca1565b908152604051908190036020019020805491151560ff199092169190911790555b7f7905ccf18196efffc5e9f16cecb955120de52d3e8d2146b9cd7026d23eb9060e610a4360a0860186612e21565b60006001600160e01b03198216637965db0b60e01b148061054357506301ffc9a760e01b6001600160e01b0319831614610543565b6110d68282610bef565b61077e576110ee816001600160a01b031660146117a7565b6110f98360206117a7565b60405160200161110a929190612ccd565b60408051601f198184030181529082905262461bcd60e51b825261057491600401612da8565b61113a8282611989565b60008281526001602052604090206106949082611a0d565b61115c8282611a22565b60008281526001602052604090206106949082611a87565b6000600761118560a0850185612e21565b604051611193929190612ca1565b9081526040519081900360200190205460ff16156111ea5760405162461bcd60e51b81526020600482015260146024820152732b37bab1b432b91034b73b30b634b230ba32b21760611b6044820152606401610574565b428360e001351161123d5760405162461bcd60e51b815260206004820152601b60248201527f566f75636865722074696d657374616d702065786365656465642e00000000006044820152606401610574565b611274600861124f60a0860186612e21565b60405161125d929190612ca1565b9081526040519081900360200190205483906113b2565b836060013510156112bc5760405162461bcd60e51b81526020600482015260126024820152712737ba1032b737bab3b41039bab838363c9760711b6044820152606401610574565b50600192915050565b6000806112d183611a9c565b9050610be8816112e460a0860186612e21565b8080601f016020809104026020016040519081016040528093929190818152602001838380828437600092019190915250611ba092505050565b856113625760405162461bcd60e51b81526020600482015260146024820152732a37b5b2b724b21031b0b73737ba10313290181760611b6044820152606401610574565b600061136e8484611bc4565b9050600061137b82611c2c565b90506001831515141561139a576113958888888585611c53565b6113a8565b6113a8888888858886611f13565b5050505050505050565b6000610be88284612e66565b6000610be88284612ebd565b600280546001600160a01b038381166001600160a01b0319831681179093556040519116919082907f8be0079c531659141344cd1fd0a4f28419497f9722a3daafe3b4186f6b6457e090600090a35050565b6000610be88383612199565b6000610543825490565b6000600761144360a0850185612e21565b604051611451929190612ca1565b9081526040519081900360200190205460ff16156114a85760405162461bcd60e51b81526020600482015260146024820152732b37bab1b432b91034b73b30b634b230ba32b21760611b6044820152606401610574565b42836101400135116114fc5760405162461bcd60e51b815260206004820152601b60248201527f566f75636865722074696d657374616d702065786365656465642e00000000006044820152606401610574565b61150e600861124f60a0860186612e21565b836040013510156112bc5760405162461bcd60e51b81526020600482015260126024820152712737ba1032b737bab3b41039bab838363c9760711b6044820152606401610574565b60095460408051808201825260078152664c6963656e736560c81b6020820152905163824ea29f60e01b81526001600160a01b039092169163824ea29f916115a091600401612da8565b60206040518083038186803b1580156115b857600080fd5b505afa1580156115cc573d6000803e3d6000fd5b505050506040513d601f19601f820116820180604052508101906115f091906129d6565b600a80546001600160a01b0319166001600160a01b03928316179055600954604080518082018252600681526526b0b9ba32b960d11b6020820152905163824ea29f60e01b8152919092169163824ea29f9161164f9190600401612da8565b60206040518083038186803b15801561166757600080fd5b505afa15801561167b573d6000803e3d6000fd5b505050506040513d601f19601f8201168201806040525081019061169f91906129d6565b600b80546001600160a01b0319166001600160a01b0392909216919091179055565b6000806112d1836121d1565b600b5460009081906001600160a01b03166349c031e0856116f16020870187612e21565b87606001356040518563ffffffff1660e01b81526004016117159493929190612d42565b602060405180830381600087803b15801561172f57600080fd5b505af1158015611743573d6000803e3d6000fd5b505050506040513d601f19601f820116820180604052508101906117679190612b4c565b9050610be88161177e610100860160e08701612c32565b61179061012087016101008801612c32565b6117a261014088016101208901612c32565b6122ff565b606060006117b6836002612e9e565b6117c1906002612e66565b67ffffffffffffffff8111156117e757634e487b7160e01b600052604160045260246000fd5b6040519080825280601f01601f191660200182016040528015611811576020820181803683370190505b509050600360fc1b8160008151811061183a57634e487b7160e01b600052603260045260246000fd5b60200101906001600160f81b031916908160001a905350600f60fb1b8160018151811061187757634e487b7160e01b600052603260045260246000fd5b60200101906001600160f81b031916908160001a905350600061189b846002612e9e565b6118a6906001612e66565b90505b600181111561193a576f181899199a1a9b1b9c1cb0b131b232b360811b85600f16601081106118e857634e487b7160e01b600052603260045260246000fd5b1a60f81b82828151811061190c57634e487b7160e01b600052603260045260246000fd5b60200101906001600160f81b031916908160001a90535060049490941c9361193381612f00565b90506118a9565b508315610be85760405162461bcd60e51b815260206004820181905260248201527f537472696e67733a20686578206c656e67746820696e73756666696369656e746044820152606401610574565b6119938282610bef565b61077e576000828152602081815260408083206001600160a01b03851684529091529020805460ff191660011790556119c93390565b6001600160a01b0316816001600160a01b0316837f2f8788117e7eff1d82e926ec794901d17c78024a50270940304540a733656f0d60405160405180910390a45050565b6000610be8836001600160a01b038416612311565b611a2c8282610bef565b1561077e576000828152602081815260408083206001600160a01b0385168085529252808320805460ff1916905551339285917ff6391f5c32d9c69d2a47ea670b442974b53935d1edc7fd64eb21e047a839171b9190a45050565b6000610be8836001600160a01b038416612360565b60006105437fa34c14bf093fb6d3a8553c9a870279c3e29576cef02cc0a78d3977b035708bd8611acf60208501856129ba565b6020850135611ae16040870187612e21565b604051611aef929190612ca1565b6040519081900390206060870135611b0d60a0890160808a016129f2565b611b1a60c08a018a612e21565b604051611b28929190612ca1565b604051908190038120611b859796959493929160e08c0135906020019788526001600160a01b03969096166020880152604087019490945260608601929092526080850152151560a084015260c083015260e08201526101000190565b6040516020818303038152906040528051906020012061247d565b6000806000611baf85856124cb565b91509150611bbc81612538565b509392505050565b60003481611bd28585612739565b905080821015611c245760405162461bcd60e51b815260206004820152601d60248201527f496e73756666696369656e742066756e647320746f2072656465656d2e0000006044820152606401610574565b949350505050565b600080611c3860065490565b90506000611c24620186a0611c4d8685612739565b90612745565b600080611c608785610655565b600b54604051631d0abe7360e31b8152600481018b90529294509092506000916001600160a01b039091169063e855f3989060240160206040518083038186803b158015611cad57600080fd5b505afa158015611cc1573d6000803e3d6000fd5b505050506040513d601f19601f82011682018060405250810190611ce591906129d6565b6040519091506001600160a01b0382169084156108fc029085906000818181858888f19350505050158015611d1e573d6000803e3d6000fd5b506005546040516001600160a01b039091169085156108fc029086906000818181858888f19350505050158015611d59573d6000803e3d6000fd5b506001600160a01b0386166108fc611d7184876113be565b6040518115909202916000818181858888f19350505050158015611d99573d6000803e3d6000fd5b50600b54604051636c2798b760e11b81526001600160a01b0388811660048301528981166024830152604482018b90529091169063d84f316e90606401600060405180830381600087803b158015611df057600080fd5b505af1158015611e04573d6000803e3d6000fd5b5050600a54604051639fab879760e01b81526001600160a01b038a81166004830152602482018d9052600094509091169150639fab879790604401602060405180830381600087803b158015611e5957600080fd5b505af1158015611e6d573d6000803e3d6000fd5b505050506040513d601f19601f82011682018060405250810190611e919190612b4c565b600a5460405163b6c2657d60e01b81526001600160a01b038a811660048301528b81166024830152604482018d90526064820184905292935091169063b6c2657d90608401600060405180830381600087803b158015611ef057600080fd5b505af1158015611f04573d6000803e3d6000fd5b50505050505050505050505050565b6000806000611f228987610c9b565b600a54604051631d0abe7360e31b8152600481018e905293965091945092506000916001600160a01b039091169063e855f3989060240160206040518083038186803b158015611f7157600080fd5b505afa158015611f85573d6000803e3d6000fd5b505050506040513d601f19601f82011682018060405250810190611fa991906129d6565b600b546040516364d4eeab60e01b8152600481018d90529192506000916001600160a01b03909116906364d4eeab9060240160206040518083038186803b158015611ff357600080fd5b505afa158015612007573d6000803e3d6000fd5b505050506040513d601f19601f8201168201806040525081019061202b91906129d6565b6040519091506001600160a01b0383169086156108fc029087906000818181858888f19350505050158015612064573d6000803e3d6000fd5b506040516001600160a01b0382169085156108fc029086906000818181858888f1935050505015801561209b573d6000803e3d6000fd5b506005546040516001600160a01b039091169087156108fc029088906000818181858888f193505050501580156120d6573d6000803e3d6000fd5b506001600160a01b0389166108fc6120ee85896113be565b6040518115909202916000818181858888f19350505050158015612116573d6000803e3d6000fd5b50600a5460405163b6c2657d60e01b81526001600160a01b038b811660048301528c81166024830152604482018e9052606482018a90529091169063b6c2657d90608401600060405180830381600087803b15801561217457600080fd5b505af1158015612188573d6000803e3d6000fd5b505050505050505050505050505050565b60008260000182815481106121be57634e487b7160e01b600052603260045260246000fd5b9060005260206000200154905092915050565b60006105437fc59ccd1a3aef5526abeea7256522b9550fbae5cab94665fd4fab0198c430994e83356122066020860186612e21565b604051612214929190612ca1565b60405180910390208560400135866060013587608001602081019061223991906129f2565b61224660c08a018a612e21565b604051612254929190612ca1565b60405190819003902061226e6101008b0160e08c01612c32565b6122806101208c016101008d01612c32565b6122926101408d016101208e01612c32565b60408051602081019b909b528a01989098526060890196909652608088019490945260a0870192909252151560c086015260e08501526001600160601b03908116610100850152908116610120840152166101408281019190915284013561016082015261018001611b85565b61230b84848484610549565b50505050565b600081815260018301602052604081205461235857508154600181810184556000848152602080822090930184905584548482528286019093526040902091909155610543565b506000610543565b60008181526001830160205260408120548015612473576000612384600183612ebd565b855490915060009061239890600190612ebd565b90508181146124195760008660000182815481106123c657634e487b7160e01b600052603260045260246000fd5b90600052602060002001549050808760000184815481106123f757634e487b7160e01b600052603260045260246000fd5b6000918252602080832090910192909255918252600188019052604090208390555b855486908061243857634e487b7160e01b600052603160045260246000fd5b600190038181906000526020600020016000905590558560010160008681526020019081526020016000206000905560019350505050610543565b6000915050610543565b600061054361248a612751565b8360405161190160f01b6020820152602281018390526042810182905260009060620160405160208183030381529060405280519060200120905092915050565b6000808251604114156125025760208301516040840151606085015160001a6124f687828585612878565b94509450505050610667565b82516040141561252c5760208301516040840151612521868383612965565b935093505050610667565b50600090506002610667565b600081600481111561255a57634e487b7160e01b600052602160045260246000fd5b14156125635750565b600181600481111561258557634e487b7160e01b600052602160045260246000fd5b14156125d35760405162461bcd60e51b815260206004820152601860248201527f45434453413a20696e76616c6964207369676e617475726500000000000000006044820152606401610574565b60028160048111156125f557634e487b7160e01b600052602160045260246000fd5b14156126435760405162461bcd60e51b815260206004820152601f60248201527f45434453413a20696e76616c6964207369676e6174757265206c656e677468006044820152606401610574565b600381600481111561266557634e487b7160e01b600052602160045260246000fd5b14156126be5760405162461bcd60e51b815260206004820152602260248201527f45434453413a20696e76616c6964207369676e6174757265202773272076616c604482015261756560f01b6064820152608401610574565b60048160048111156126e057634e487b7160e01b600052602160045260246000fd5b1415610dbc5760405162461bcd60e51b815260206004820152602260248201527f45434453413a20696e76616c6964207369676e6174757265202776272076616c604482015261756560f01b6064820152608401610574565b6000610be88284612e9e565b6000610be88284612e7e565b6000306001600160a01b037f0000000000000000000000000000000000000000000000000000000000000000161480156127aa57507f000000000000000000000000000000000000000000000000000000000000000046145b156127d457507f000000000000000000000000000000000000000000000000000000000000000090565b50604080517f00000000000000000000000000000000000000000000000000000000000000006020808301919091527f0000000000000000000000000000000000000000000000000000000000000000828401527f000000000000000000000000000000000000000000000000000000000000000060608301524660808301523060a0808401919091528351808403909101815260c0909201909252805191012090565b6000807f7fffffffffffffffffffffffffffffff5d576e7357a4501ddfe92f46681b20a08311156128af575060009050600361295c565b8460ff16601b141580156128c757508460ff16601c14155b156128d8575060009050600461295c565b6040805160008082526020820180845289905260ff881692820192909252606081018690526080810185905260019060a0016020604051602081039080840390855afa15801561292c573d6000803e3d6000fd5b5050604051601f1901519150506001600160a01b0381166129555760006001925092505061295c565b9150600090505b94509492505050565b6000806001600160ff1b0383168161298260ff86901c601b612e66565b905061299087828885612878565b935093505050935093915050565b80356001600160601b03811681146129b557600080fd5b919050565b6000602082840312156129cb578081fd5b8135610be881612f43565b6000602082840312156129e7578081fd5b8151610be881612f43565b600060208284031215612a03578081fd5b81358015158114610be8578182fd5b600060208284031215612a23578081fd5b5035919050565b60008060408385031215612a3c578081fd5b823591506020830135612a4e81612f43565b809150509250929050565b60008060408385031215612a6b578182fd5b50508035926020909101359150565b600060208284031215612a8b578081fd5b81356001600160e01b031981168114610be8578182fd5b600060208284031215612ab3578081fd5b813567ffffffffffffffff80821115612aca578283fd5b818401915084601f830112612add578283fd5b813581811115612aef57612aef612f2d565b604051601f8201601f19908116603f01168101908382118183101715612b1757612b17612f2d565b81604052828152876020848701011115612b2f578586fd5b826020860160208301379182016020019490945295945050505050565b600060208284031215612b5d578081fd5b5051919050565b60008060408385031215612b76578182fd5b82359150602083013567ffffffffffffffff811115612b93578182fd5b83016101608186031215612a4e578182fd5b60008060408385031215612bb7578182fd5b82359150602083013567ffffffffffffffff811115612bd4578182fd5b83016101008186031215612a4e578182fd5b60008060008060808587031215612bfb578182fd5b84359350612c0b6020860161299e565b9250612c196040860161299e565b9150612c276060860161299e565b905092959194509250565b600060208284031215612c43578081fd5b610be88261299e565b81835281816020850137506000828201602090810191909152601f909101601f19169091010190565b60008151808452612c8d816020860160208601612ed4565b601f01601f19169290920160200192915050565b8183823760009101908152919050565b60008251612cc3818460208701612ed4565b9190910192915050565b7f416363657373436f6e74726f6c3a206163636f756e7420000000000000000000815260008351612d05816017850160208801612ed4565b7001034b99036b4b9b9b4b733903937b6329607d1b6017918401918201528351612d36816028840160208801612ed4565b01602801949350505050565b6001600160a01b0385168152606060208201819052600090612d679083018587612c4c565b905082604083015295945050505050565b606081526000612d8c606083018688612c4c565b6001600160a01b03949094166020830152506040015292915050565b602081526000610be86020830184612c75565b602081526000611c24602083018486612c4c565b60208082526032908201527f526f79616c74794d616e616765723a20726f79616c746965732063616e6e6f74604082015271206265206d6f7265207468656e203130302560701b606082015260800190565b6000808335601e19843603018112612e37578283fd5b83018035915067ffffffffffffffff821115612e51578283fd5b60200191503681900382131561066757600080fd5b60008219821115612e7957612e79612f17565b500190565b600082612e9957634e487b7160e01b81526012600452602481fd5b500490565b6000816000190483118215151615612eb857612eb8612f17565b500290565b600082821015612ecf57612ecf612f17565b500390565b60005b83811015612eef578181015183820152602001612ed7565b8381111561230b5750506000910152565b600081612f0f57612f0f612f17565b506000190190565b634e487b7160e01b600052601160045260246000fd5b634e487b7160e01b600052604160045260246000fd5b6001600160a01b0381168114610dbc57600080fdfea2646970667358221220b23fd4297139ca8d7c055dcc625d0d37d4c1f91243de3dd39c4f6d5657aac5ac64736f6c63430008040033",
  "linkReferences": {},
  "deployedLinkReferences": {}
}