{
  "_format": "hh-sol-artifact-1",
  "contractName": "MarketContract",
  "sourceName": "contracts/MarketContract.sol",
  "abi": [
    {
      "inputs": [
        {
          "internalType": "address",
          "name": "_commonUtilsAddress",
          "type": "address"
        }
      ],
      "stateMutability": "nonpayable",
      "type": "constructor"
    },
    {
      "anonymous": false,
      "inputs": [
        {
          "indexed": true,
          "internalType": "address",
          "name": "previousOwner",
          "type": "address"
        },
        {
          "indexed": true,
          "internalType": "address",
          "name": "newOwner",
          "type": "address"
        }
      ],
      "name": "OwnershipTransferred",
      "type": "event"
    },
    {
      "anonymous": false,
      "inputs": [
        {
          "indexed": false,
          "internalType": "bytes",
          "name": "signature",
          "type": "bytes"
        },
        {
          "indexed": false,
          "internalType": "uint256",
          "name": "soldAmount",
          "type": "uint256"
        }
      ],
      "name": "RedeemedItem",
      "type": "event"
    },
    {
      "anonymous": false,
      "inputs": [
        {
          "indexed": false,
          "internalType": "bytes",
          "name": "signature",
          "type": "bytes"
        },
        {
          "indexed": false,
          "internalType": "uint256",
          "name": "soldAmount",
          "type": "uint256"
        }
      ],
      "name": "RedeemedItemSecondarySale",
      "type": "event"
    },
    {
      "anonymous": false,
      "inputs": [
        {
          "indexed": true,
          "internalType": "bytes32",
          "name": "role",
          "type": "bytes32"
        },
        {
          "indexed": true,
          "internalType": "bytes32",
          "name": "previousAdminRole",
          "type": "bytes32"
        },
        {
          "indexed": true,
          "internalType": "bytes32",
          "name": "newAdminRole",
          "type": "bytes32"
        }
      ],
      "name": "RoleAdminChanged",
      "type": "event"
    },
    {
      "anonymous": false,
      "inputs": [
        {
          "indexed": true,
          "internalType": "bytes32",
          "name": "role",
          "type": "bytes32"
        },
        {
          "indexed": true,
          "internalType": "address",
          "name": "account",
          "type": "address"
        },
        {
          "indexed": true,
          "internalType": "address",
          "name": "sender",
          "type": "address"
        }
      ],
      "name": "RoleGranted",
      "type": "event"
    },
    {
      "anonymous": false,
      "inputs": [
        {
          "indexed": true,
          "internalType": "bytes32",
          "name": "role",
          "type": "bytes32"
        },
        {
          "indexed": true,
          "internalType": "address",
          "name": "account",
          "type": "address"
        },
        {
          "indexed": true,
          "internalType": "address",
          "name": "sender",
          "type": "address"
        }
      ],
      "name": "RoleRevoked",
      "type": "event"
    },
    {
      "anonymous": false,
      "inputs": [
        {
          "indexed": false,
          "internalType": "bytes",
          "name": "signature",
          "type": "bytes"
        }
      ],
      "name": "UnlistedNFT",
      "type": "event"
    },
    {
      "anonymous": false,
      "inputs": [
        {
          "indexed": false,
          "internalType": "address",
          "name": "_payee",
          "type": "address"
        },
        {
          "indexed": false,
          "internalType": "uint256",
          "name": "_amount",
          "type": "uint256"
        }
      ],
      "name": "Withdrawal",
      "type": "event"
    },
    {
      "inputs": [],
      "name": "DEFAULT_ADMIN_ROLE",
      "outputs": [
        {
          "internalType": "bytes32",
          "name": "",
          "type": "bytes32"
        }
      ],
      "stateMutability": "view",
      "type": "function"
    },
    {
      "inputs": [
        {
          "internalType": "uint256",
          "name": "_tokenId",
          "type": "uint256"
        },
        {
          "internalType": "uint256",
          "name": "_salePrice",
          "type": "uint256"
        }
      ],
      "name": "_royaltySplitLicense",
      "outputs": [
        {
          "internalType": "uint256",
          "name": "",
          "type": "uint256"
        },
        {
          "internalType": "uint256",
          "name": "",
          "type": "uint256"
        },
        {
          "internalType": "uint256",
          "name": "",
          "type": "uint256"
        }
      ],
      "stateMutability": "view",
      "type": "function"
    },
    {
      "inputs": [
        {
          "internalType": "uint256",
          "name": "_tokenId",
          "type": "uint256"
        },
        {
          "internalType": "uint256",
          "name": "_salePrice",
          "type": "uint256"
        }
      ],
      "name": "_royaltySplitMaster",
      "outputs": [
        {
          "internalType": "uint256",
          "name": "",
          "type": "uint256"
        },
        {
          "internalType": "uint256",
          "name": "",
          "type": "uint256"
        }
      ],
      "stateMutability": "view",
      "type": "function"
    },
    {
      "inputs": [],
      "name": "_serviceFees",
      "outputs": [
        {
          "internalType": "uint256",
          "name": "",
          "type": "uint256"
        }
      ],
      "stateMutability": "view",
      "type": "function"
    },
    {
      "inputs": [],
      "name": "commonUtils",
      "outputs": [
        {
          "internalType": "contract ICommonUtils",
          "name": "",
          "type": "address"
        }
      ],
      "stateMutability": "view",
      "type": "function"
    },
    {
      "inputs": [],
      "name": "getChainID",
      "outputs": [
        {
          "internalType": "uint256",
          "name": "",
          "type": "uint256"
        }
      ],
      "stateMutability": "view",
      "type": "function"
    },
    {
      "inputs": [
        {
          "internalType": "bytes32",
          "name": "role",
          "type": "bytes32"
        }
      ],
      "name": "getRoleAdmin",
      "outputs": [
        {
          "internalType": "bytes32",
          "name": "",
          "type": "bytes32"
        }
      ],
      "stateMutability": "view",
      "type": "function"
    },
    {
      "inputs": [
        {
          "internalType": "bytes32",
          "name": "role",
          "type": "bytes32"
        },
        {
          "internalType": "uint256",
          "name": "index",
          "type": "uint256"
        }
      ],
      "name": "getRoleMember",
      "outputs": [
        {
          "internalType": "address",
          "name": "",
          "type": "address"
        }
      ],
      "stateMutability": "view",
      "type": "function"
    },
    {
      "inputs": [
        {
          "internalType": "bytes32",
          "name": "role",
          "type": "bytes32"
        }
      ],
      "name": "getRoleMemberCount",
      "outputs": [
        {
          "internalType": "uint256",
          "name": "",
          "type": "uint256"
        }
      ],
      "stateMutability": "view",
      "type": "function"
    },
    {
      "inputs": [
        {
          "internalType": "bytes32",
          "name": "role",
          "type": "bytes32"
        },
        {
          "internalType": "address",
          "name": "account",
          "type": "address"
        }
      ],
      "name": "grantRole",
      "outputs": [],
      "stateMutability": "nonpayable",
      "type": "function"
    },
    {
      "inputs": [
        {
          "internalType": "bytes32",
          "name": "role",
          "type": "bytes32"
        },
        {
          "internalType": "address",
          "name": "account",
          "type": "address"
        }
      ],
      "name": "hasRole",
      "outputs": [
        {
          "internalType": "bool",
          "name": "",
          "type": "bool"
        }
      ],
      "stateMutability": "view",
      "type": "function"
    },
    {
      "inputs": [
        {
          "internalType": "bytes",
          "name": "",
          "type": "bytes"
        }
      ],
      "name": "isVoucherInvalid",
      "outputs": [
        {
          "internalType": "bool",
          "name": "",
          "type": "bool"
        }
      ],
      "stateMutability": "view",
      "type": "function"
    },
    {
      "inputs": [],
      "name": "licensesContract",
      "outputs": [
        {
          "internalType": "contract ILicense",
          "name": "",
          "type": "address"
        }
      ],
      "stateMutability": "view",
      "type": "function"
    },
    {
      "inputs": [],
      "name": "masterContract",
      "outputs": [
        {
          "internalType": "contract IMaster",
          "name": "",
          "type": "address"
        }
      ],
      "stateMutability": "view",
      "type": "function"
    },
    {
      "inputs": [],
      "name": "owner",
      "outputs": [
        {
          "internalType": "address",
          "name": "",
          "type": "address"
        }
      ],
      "stateMutability": "view",
      "type": "function"
    },
    {
      "inputs": [
        {
          "internalType": "address",
          "name": "_buyer",
          "type": "address"
        },
        {
          "internalType": "address",
          "name": "_seller",
          "type": "address"
        },
        {
          "internalType": "uint256",
          "name": "_amountToPurchase",
          "type": "uint256"
        },
        {
          "components": [
            {
              "internalType": "uint256",
              "name": "price",
              "type": "uint256"
            },
            {
              "internalType": "string",
              "name": "tokenUri",
              "type": "string"
            },
            {
              "internalType": "uint256",
              "name": "supply",
              "type": "uint256"
            },
            {
              "internalType": "uint256",
              "name": "maxSupply",
              "type": "uint256"
            },
            {
              "internalType": "bool",
              "name": "isMaster",
              "type": "bool"
            },
            {
              "internalType": "bytes",
              "name": "signature",
              "type": "bytes"
            },
            {
              "internalType": "string",
              "name": "currency",
              "type": "string"
            },
            {
              "internalType": "uint96",
              "name": "royaltyFeeMaster",
              "type": "uint96"
            },
            {
              "internalType": "uint96",
              "name": "royaltyFeeLicense",
              "type": "uint96"
            },
            {
              "internalType": "uint96",
              "name": "creatorOwnerSplit",
              "type": "uint96"
            },
            {
              "internalType": "uint256",
              "name": "validUntil",
              "type": "uint256"
            }
          ],
          "internalType": "struct MarketContract.MintVoucher",
          "name": "_mintVoucher",
          "type": "tuple"
        }
      ],
      "name": "redeemItem",
      "outputs": [],
      "stateMutability": "payable",
      "type": "function"
    },
    {
      "inputs": [
        {
          "internalType": "address",
          "name": "_buyer",
          "type": "address"
        },
        {
          "internalType": "address",
          "name": "_seller",
          "type": "address"
        },
        {
          "internalType": "uint256",
          "name": "_amountToPurchase",
          "type": "uint256"
        },
        {
          "components": [
            {
              "internalType": "address",
              "name": "nftContractAddress",
              "type": "address"
            },
            {
              "internalType": "uint256",
              "name": "price",
              "type": "uint256"
            },
            {
              "internalType": "string",
              "name": "tokenUri",
              "type": "string"
            },
            {
              "internalType": "uint256",
              "name": "supply",
              "type": "uint256"
            },
            {
              "internalType": "bool",
              "name": "isMaster",
              "type": "bool"
            },
            {
              "internalType": "bytes",
              "name": "signature",
              "type": "bytes"
            },
            {
              "internalType": "string",
              "name": "currency",
              "type": "string"
            },
            {
              "internalType": "uint256",
              "name": "validUntil",
              "type": "uint256"
            }
          ],
          "internalType": "struct MarketContract.SaleVoucher",
          "name": "_saleVoucher",
          "type": "tuple"
        }
      ],
      "name": "redeemItemSecondarySale",
      "outputs": [],
      "stateMutability": "payable",
      "type": "function"
    },
    {
      "inputs": [],
      "name": "renounceOwnership",
      "outputs": [],
      "stateMutability": "nonpayable",
      "type": "function"
    },
    {
      "inputs": [
        {
          "internalType": "bytes32",
          "name": "role",
          "type": "bytes32"
        },
        {
          "internalType": "address",
          "name": "account",
          "type": "address"
        }
      ],
      "name": "renounceRole",
      "outputs": [],
      "stateMutability": "nonpayable",
      "type": "function"
    },
    {
      "inputs": [
        {
          "internalType": "bytes32",
          "name": "role",
          "type": "bytes32"
        },
        {
          "internalType": "address",
          "name": "account",
          "type": "address"
        }
      ],
      "name": "revokeRole",
      "outputs": [],
      "stateMutability": "nonpayable",
      "type": "function"
    },
    {
      "inputs": [
        {
          "internalType": "uint256",
          "name": "_tokenId",
          "type": "uint256"
        },
        {
          "internalType": "uint256",
          "name": "_salePrice",
          "type": "uint256"
        }
      ],
      "name": "royaltySplitLicense",
      "outputs": [
        {
          "internalType": "uint256",
          "name": "",
          "type": "uint256"
        },
        {
          "internalType": "uint256",
          "name": "",
          "type": "uint256"
        },
        {
          "internalType": "uint256",
          "name": "",
          "type": "uint256"
        }
      ],
      "stateMutability": "view",
      "type": "function"
    },
    {
      "inputs": [
        {
          "internalType": "uint256",
          "name": "_tokenId",
          "type": "uint256"
        },
        {
          "internalType": "uint256",
          "name": "_salePrice",
          "type": "uint256"
        }
      ],
      "name": "royaltySplitMaster",
      "outputs": [
        {
          "internalType": "uint256",
          "name": "",
          "type": "uint256"
        },
        {
          "internalType": "uint256",
          "name": "",
          "type": "uint256"
        }
      ],
      "stateMutability": "view",
      "type": "function"
    },
    {
      "inputs": [],
      "name": "serviceFees",
      "outputs": [
        {
          "internalType": "uint256",
          "name": "",
          "type": "uint256"
        }
      ],
      "stateMutability": "view",
      "type": "function"
    },
    {
      "inputs": [
        {
          "internalType": "bytes4",
          "name": "interfaceId",
          "type": "bytes4"
        }
      ],
      "name": "supportsInterface",
      "outputs": [
        {
          "internalType": "bool",
          "name": "",
          "type": "bool"
        }
      ],
      "stateMutability": "view",
      "type": "function"
    },
    {
      "inputs": [
        {
          "internalType": "address",
          "name": "newOwner",
          "type": "address"
        }
      ],
      "name": "transferOwnership",
      "outputs": [],
      "stateMutability": "nonpayable",
      "type": "function"
    },
    {
      "inputs": [
        {
          "internalType": "bytes",
          "name": "signature",
          "type": "bytes"
        }
      ],
      "name": "unlistItem",
      "outputs": [],
      "stateMutability": "nonpayable",
      "type": "function"
    },
    {
      "inputs": [
        {
          "internalType": "bytes",
          "name": "",
          "type": "bytes"
        }
      ],
      "name": "voucherAmountSold",
      "outputs": [
        {
          "internalType": "uint256",
          "name": "",
          "type": "uint256"
        }
      ],
      "stateMutability": "view",
      "type": "function"
    },
    {
      "inputs": [
        {
          "internalType": "uint256",
          "name": "_calculatedFees",
          "type": "uint256"
        }
      ],
      "name": "withdrawFees",
      "outputs": [],
      "stateMutability": "payable",
      "type": "function"
    }
  ],
  "bytecode": "0x6101406040523480156200001257600080fd5b506040516200352a3803806200352a8339810160408190526200003591620001cf565b604080518082018252600981526829ab2b37bab1b432b960b91b6020808301918252835180850190945260018452603160f81b908401528151902060e08190527fc89efdaa54c0f20c7adf612882df0950f5a951637e0307cdcb4c672f298b8bc66101008190524660a0529192917f8b73c3c69bb8fe3d512ecc4cf759cc79239f7b179b0ffacaa9a75d522b39400f620001148184846040805160208101859052908101839052606081018290524660808201523060a082015260009060c0016040516020818303038152906040528051906020012090509392505050565b6080523060601b60c05261012052506200013a9250620001349150503390565b6200017d565b6001600355600254600580546001600160a01b039283166001600160a01b031991821617909155610bb8600755600a805493909216921691909117905562000201565b600280546001600160a01b038381166001600160a01b0319831681179093556040519116919082907f8be0079c531659141344cd1fd0a4f28419497f9722a3daafe3b4186f6b6457e090600090a35050565b600060208284031215620001e257600080fd5b81516001600160a01b0381168114620001fa57600080fd5b9392505050565b60805160a05160c05160601c60e05161010051610120516132d6620002546000396000612ab201526000612b0101526000612adc01526000612a3501526000612a5f01526000612a8901526132d66000f3fe6080604052600436106101b75760003560e01c806380857ffa116100ec578063b02b45a31161008a578063ca15c87311610064578063ca15c8731461050b578063cd446e221461052b578063d547741f1461054b578063f2fde38b1461056b57600080fd5b8063b02b45a31461049a578063b776fcf6146104ba578063bff76f66146104d057600080fd5b806391d14854116100c657806391d148541461042557806397ed13281461044557806399338f0214610465578063a217fddf1461048557600080fd5b806380857ffa146103d25780638da5cb5b146103e75780639010d07c1461040557600080fd5b80633b21e7cd1161015957806357927a8f1161013357806357927a8f1461035c5780635e318e071461036f5780635f11f29314610382578063715018a6146103bd57600080fd5b80633b21e7cd146102fe5780634457f9bc14610311578063564b81ef1461034957600080fd5b80632ddb3ed3116101955780632ddb3ed3146102675780632f2ff15d1461029c57806333dcd338146102be57806336568abe146102de57600080fd5b806301ffc9a7146101bc578063147095a2146101f1578063248a9ca314610237575b600080fd5b3480156101c857600080fd5b506101dc6101d7366004612c75565b61058b565b60405190151581526020015b60405180910390f35b3480156101fd57600080fd5b5061022961020c366004612cb5565b805160208183018101805160098252928201919093012091525481565b6040519081526020016101e8565b34801561024357600080fd5b50610229610252366004612d66565b60009081526020819052604090206001015490565b34801561027357600080fd5b50610287610282366004612d7f565b6105b6565b604080519283526020830191909152016101e8565b3480156102a857600080fd5b506102bc6102b7366004612db6565b6105cf565b005b3480156102ca57600080fd5b506102bc6102d9366004612cb5565b6105fa565b3480156102ea57600080fd5b506102bc6102f9366004612db6565b610665565b6102bc61030c366004612de6565b6106e8565b34801561031d57600080fd5b50600b54610331906001600160a01b031681565b6040516001600160a01b0390911681526020016101e8565b34801561035557600080fd5b5046610229565b6102bc61036a366004612e58565b610b09565b6102bc61037d366004612d66565b610f4f565b34801561038e57600080fd5b506103a261039d366004612d7f565b610fcd565b604080519384526020840192909252908201526060016101e8565b3480156103c957600080fd5b506102bc611094565b3480156103de57600080fd5b50600754610229565b3480156103f357600080fd5b506002546001600160a01b0316610331565b34801561041157600080fd5b50610331610420366004612d7f565b6110fa565b34801561043157600080fd5b506101dc610440366004612db6565b611119565b34801561045157600080fd5b50600a54610331906001600160a01b031681565b34801561047157600080fd5b50610287610480366004612d7f565b611142565b34801561049157600080fd5b50610229600081565b3480156104a657600080fd5b506103a26104b5366004612d7f565b6111c5565b3480156104c657600080fd5b5061022960075481565b3480156104dc57600080fd5b506101dc6104eb366004612cb5565b805160208183018101805160088252928201919093012091525460ff1681565b34801561051757600080fd5b50610229610526366004612d66565b6111e1565b34801561053757600080fd5b50600c54610331906001600160a01b031681565b34801561055757600080fd5b506102bc610566366004612db6565b6111f8565b34801561057757600080fd5b506102bc610586366004612ebf565b61121e565b60006001600160e01b03198216635a05180f60e01b14806105b057506105b0826112e9565b92915050565b6000806105c38484611142565b915091505b9250929050565b6000828152602081905260409020600101546105eb813361131e565b6105f58383611382565b505050565b600060088260405161060c9190612f08565b908152604051908190036020018120805492151560ff19909316929092179091557f792349368881b516427610336187f9923d5ad453756de45272fd927026b815dc9061065a908390612f50565b60405180910390a150565b6001600160a01b03811633146106da5760405162461bcd60e51b815260206004820152602f60248201527f416363657373436f6e74726f6c3a2063616e206f6e6c792072656e6f756e636560448201526e103937b632b9903337b91039b2b63360891b60648201526084015b60405180910390fd5b6106e482826113a4565b5050565b6002600354141561073b5760405162461bcd60e51b815260206004820152601f60248201527f5265656e7472616e637947756172643a207265656e7472616e742063616c6c0060448201526064016106d1565b60026003556040805180820190915260178152762922a222a2a6a4aa22a69029aa20a92a24a7239717171760491b6020820152610777906113c6565b600861078660a0830183612f63565b604051610794929190612faa565b9081526040519081900360200190205460ff16156107f45760405162461bcd60e51b815260206004820152601b60248201527f52656465656d4974656d3a20566f756368657220696e76616c6964000000000060448201526064016106d1565b428160e0013511156108485760405162461bcd60e51b815260206004820152601e60248201527f52656465656d4974656d3a2054696d657374616d70206578636565646564000060448201526064016106d1565b61087f600961085a60a0840184612f63565b604051610868929190612faa565b908152604051908190036020019020548390611409565b816060013510156108e55760405162461bcd60e51b815260206004820152602a60248201527f72656465656d4974656d5365636f6e6461727953616c653a204e6f7420656e6f60448201526975676820737570706c7960b01b60648201526084016106d1565b6000806108f183611415565b90506109138582602086013561090d60a0880160808901612fba565b8861146e565b600c549092506000906001600160a01b031663ed3101176109376040870187612f63565b6040518363ffffffff1660e01b8152600401610954929190613005565b602060405180830381600087803b15801561096e57600080fd5b505af1158015610982573d6000803e3d6000fd5b505050506040513d601f19601f820116820180604052508101906109a69190613019565b90506109b68184848a89896115c8565b60006109ce85602001356109c960075490565b61160e565b9050610a078660096109e360a0890189612f63565b6040516109f1929190612faa565b9081526040519081900360200190205490611409565b6009610a1660a0880188612f63565b604051610a24929190612faa565b908152604051908190036020019020557f99a5798b72d52629c41477be941c1c8a35ce2c3dc4e11b9cfa39b601fd635bae610a6260a0870187612f63565b88604051610a7293929190613032565b60405180910390a160608501356009610a8e60a0880188612f63565b604051610a9c929190612faa565b9081526020016040518091039020541415610af15760006008610ac260a0880188612f63565b604051610ad0929190612faa565b908152604051908190036020019020805491151560ff199092169190911790555b610afa81610f4f565b50506001600355505050505050565b60026003541415610b5c5760405162461bcd60e51b815260206004820152601f60248201527f5265656e7472616e637947756172643a207265656e7472616e742063616c6c0060448201526064016106d1565b60026003556040805180820190915260178152762922a222a2a6a4aa22a69029aa20a92a24a7239717171760491b6020820152610b98906113c6565b6008610ba760a0830183612f63565b604051610bb5929190612faa565b9081526040519081900360200190205460ff1615610c155760405162461bcd60e51b815260206004820152601b60248201527f52656465656d4974656d3a20566f756368657220696e76616c6964000000000060448201526064016106d1565b428161014001351115610c6a5760405162461bcd60e51b815260206004820152601e60248201527f52656465656d4974656d3a2054696d657374616d70206578636565646564000060448201526064016106d1565b610c7c600961085a60a0840184612f63565b81604001351015610ccf5760405162461bcd60e51b815260206004820152601d60248201527f72656465656d4974656d3a204e6f7420656e6f75676820737570706c7900000060448201526064016106d1565b610cd761169b565b600080610cea60a0840160808501612fba565b151560011415610d065750600e546001600160a01b0316610d14565b50600d546001600160a01b03165b6000610d1f84611821565b9050610d3e86828635610d3860a0890160808a01612fba565b8961146e565b600c549093506000906001600160a01b031663ed310117610d626020880188612f63565b6040518363ffffffff1660e01b8152600401610d7f929190613005565b602060405180830381600087803b158015610d9957600080fd5b505af1158015610dad573d6000803e3d6000fd5b505050506040513d601f19601f82011682018060405250810190610dd19190613019565b90508015610e1a5760405162461bcd60e51b8152602060048201526016602482015275151bdad95b9259081b5d5cdd081b9bdd08195e1a5cdd60521b60448201526064016106d1565b610e2784838a898961182d565b6000610e3786356109c960075490565b9050610e4c8760096109e360a08a018a612f63565b6009610e5b60a0890189612f63565b604051610e69929190612faa565b908152604051908190036020019020557ff9fffeced3e5cc708021999b7ca3504e8801595991b099403dc8bf05fb035571610ea760a0880188612f63565b89604051610eb793929190613032565b60405180910390a160408601356009610ed360a0890189612f63565b604051610ee1929190612faa565b9081526020016040518091039020541415610f365760006008610f0760a0890189612f63565b604051610f15929190612faa565b908152604051908190036020019020805491151560ff199092169190911790555b610f3f81610f4f565b5050600160035550505050505050565b6005546040516001600160a01b039091169082156108fc029083906000818181858888f19350505050158015610f89573d6000803e3d6000fd5b50600554604080516001600160a01b039092168252602082018390527f7fcf532c15f0a6db0bd6d0e038bea71d30d808c7d98cb3bf7268a95bf5081b65910161065a565b6000828152600460209081526040808320815160608101835281546001600160601b038082168352600160601b909104811694820185905260019092015490911691810191909152829182919082906127109061102a908861306c565b611034919061308b565b905060006127106001600160601b031683604001516001600160601b03168361105d919061306c565b611067919061308b565b90506000611075838361193e565b90506000611083898561193e565b929a91995091975095505050505050565b6002546001600160a01b031633146110ee5760405162461bcd60e51b815260206004820181905260248201527f4f776e61626c653a2063616c6c6572206973206e6f7420746865206f776e657260448201526064016106d1565b6110f8600061194a565b565b6000828152600160205260408120611112908361199c565b9392505050565b6000918252602082815260408084206001600160a01b0393909316845291905290205460ff1690565b6000828152600460209081526040808320815160608101835281546001600160601b03808216808452600160601b9092048116958301959095526001909201549093169183019190915282919082906127109061119f908761306c565b6111a9919061308b565b905060006111b7868361193e565b919791965090945050505050565b60008060006111d48585610fcd565b9250925092509250925092565b60008181526001602052604081206105b0906119a8565b600082815260208190526040902060010154611214813361131e565b6105f583836113a4565b6002546001600160a01b031633146112785760405162461bcd60e51b815260206004820181905260248201527f4f776e61626c653a2063616c6c6572206973206e6f7420746865206f776e657260448201526064016106d1565b6001600160a01b0381166112dd5760405162461bcd60e51b815260206004820152602660248201527f4f776e61626c653a206e6577206f776e657220697320746865207a65726f206160448201526564647265737360d01b60648201526084016106d1565b6112e68161194a565b50565b60006001600160e01b03198216637965db0b60e01b14806105b057506301ffc9a760e01b6001600160e01b03198316146105b0565b6113288282611119565b6106e457611340816001600160a01b031660146119b2565b61134b8360206119b2565b60405160200161135c9291906130ad565b60408051601f198184030181529082905262461bcd60e51b82526106d191600401612f50565b61138c8282611b4e565b60008281526001602052604090206105f59082611bd2565b6113ae8282611be7565b60008281526001602052604090206105f59082611c4c565b6112e6816040516024016113da9190612f50565b60408051601f198184030181529190526020810180516001600160e01b031663104c13eb60e21b179052611c61565b60006111128284613122565b60008061142183611c82565b90506111128161143460a0860186612f63565b8080601f016020809104026020016040519081016040528093929190818152602001838380828437600092019190915250611d8692505050565b600034806114be5760405162461bcd60e51b815260206004820152601b60248201527f4e6f20616d6f756e74206265696e67207472616e73666572726564000000000060448201526064016106d1565b856001600160a01b0316876001600160a01b0316146115135760405162461bcd60e51b815260206004820152601160248201527014da59db985d1d5c99481a5b9d985b1a59607a1b60448201526064016106d1565b600061151e60075490565b9050600061152c878361160e565b905060006001871515141561154e5761154788836001611daa565b905061155c565b611559888388611daa565b90505b6000611568828461193e565b9050818510156115ba5760405162461bcd60e51b815260206004820152601c60248201527f496e73756666696369656e742066756e647320746f2072656465656d0000000060448201526064016106d1565b9a9950505050505050505050565b6115e9604051806060016040528060268152602001613252602691396113c6565b611606868486888661160160a0880160808901612fba565b611dd1565b505050505050565b60405163062fc2cb60e51b8152600481018390526024810182905260009073__$30982415e8a4a7841dba8c5dcc5d2212fe$__9063c5f859609060440160206040518083038186803b15801561166357600080fd5b505af4158015611677573d6000803e3d6000fd5b505050506040513d601f19601f820116820180604052508101906111129190613019565b600a5460408051808201825260078152664c6963656e736560c81b6020820152905163824ea29f60e01b81526001600160a01b039092169163824ea29f916116e591600401612f50565b60206040518083038186803b1580156116fd57600080fd5b505afa158015611711573d6000803e3d6000fd5b505050506040513d601f19601f82011682018060405250810190611735919061313a565b600d80546001600160a01b0319166001600160a01b03928316179055600a54604080518082018252600681526526b0b9ba32b960d11b6020820152905163824ea29f60e01b8152919092169163824ea29f916117949190600401612f50565b60206040518083038186803b1580156117ac57600080fd5b505afa1580156117c0573d6000803e3d6000fd5b505050506040513d601f19601f820116820180604052508101906117e4919061313a565b600e80546001600160a01b039283166001600160a01b03199182168117909255600d54600b805483169190941617909255600c8054909216179055565b600080611421836122fe565b61184e604051806060016040528060298152602001613278602991396113c6565b600c546000906001600160a01b03166349c031e0866118706020860186612f63565b86606001356040518563ffffffff1660e01b81526004016118949493929190613157565b602060405180830381600087803b1580156118ae57600080fd5b505af11580156118c2573d6000803e3d6000fd5b505050506040513d601f19601f820116820180604052508101906118e69190613019565b9050611926816118fd610100850160e0860161318d565b61190f6101208601610100870161318d565b6119216101408701610120880161318d565b61242c565b611606818587898761160160a0890160808a01612fba565b600061111282846131b6565b600280546001600160a01b038381166001600160a01b0319831681179093556040519116919082907f8be0079c531659141344cd1fd0a4f28419497f9722a3daafe3b4186f6b6457e090600090a35050565b6000611112838361243e565b60006105b0825490565b606060006119c183600261306c565b6119cc906002613122565b67ffffffffffffffff8111156119e4576119e4612c9f565b6040519080825280601f01601f191660200182016040528015611a0e576020820181803683370190505b509050600360fc1b81600081518110611a2957611a296131cd565b60200101906001600160f81b031916908160001a905350600f60fb1b81600181518110611a5857611a586131cd565b60200101906001600160f81b031916908160001a9053506000611a7c84600261306c565b611a87906001613122565b90505b6001811115611aff576f181899199a1a9b1b9c1cb0b131b232b360811b85600f1660108110611abb57611abb6131cd565b1a60f81b828281518110611ad157611ad16131cd565b60200101906001600160f81b031916908160001a90535060049490941c93611af8816131e3565b9050611a8a565b5083156111125760405162461bcd60e51b815260206004820181905260248201527f537472696e67733a20686578206c656e67746820696e73756666696369656e7460448201526064016106d1565b611b588282611119565b6106e4576000828152602081815260408083206001600160a01b03851684529091529020805460ff19166001179055611b8e3390565b6001600160a01b0316816001600160a01b0316837f2f8788117e7eff1d82e926ec794901d17c78024a50270940304540a733656f0d60405160405180910390a45050565b6000611112836001600160a01b038416612468565b611bf18282611119565b156106e4576000828152602081815260408083206001600160a01b0385168085529252808320805460ff1916905551339285917ff6391f5c32d9c69d2a47ea670b442974b53935d1edc7fd64eb21e047a839171b9190a45050565b6000611112836001600160a01b0384166124b7565b80516a636f6e736f6c652e6c6f67602083016000808483855afa5050505050565b60006105b07fa34c14bf093fb6d3a8553c9a870279c3e29576cef02cc0a78d3977b035708bd8611cb56020850185612ebf565b6020850135611cc76040870187612f63565b604051611cd5929190612faa565b6040519081900390206060870135611cf360a0890160808a01612fba565b611d0060c08a018a612f63565b604051611d0e929190612faa565b604051908190038120611d6b9796959493929160e08c0135906020019788526001600160a01b03969096166020880152604087019490945260608601929092526080850152151560a084015260c083015260e08201526101000190565b604051602081830303815290604052805190602001206125aa565b6000806000611d9585856125f8565b91509150611da281612665565b509392505050565b6000611dc9611db98484612820565b611dc38685612820565b90611409565b949350505050565b85611e1e5760405162461bcd60e51b815260206004820152601760248201527f4e465420636f756c64206e6f74206265206d696e74656400000000000000000060448201526064016106d1565b6000808080600185151514156120bf57611e388a886105b6565b600c54604051631d0abe7360e31b8152600481018e90529295509092506000916001600160a01b039091169063e855f3989060240160206040518083038186803b158015611e8557600080fd5b505afa158015611e99573d6000803e3d6000fd5b505050506040513d601f19601f82011682018060405250810190611ebd919061313a565b6040519091506001600160a01b0382169085156108fc029086906000818181858888f19350505050158015611ef6573d6000803e3d6000fd5b506040516001600160a01b038a169083156108fc029084906000818181858888f19350505050158015611f2d573d6000803e3d6000fd5b50600c54604051636c2798b760e11b81526001600160a01b038b811660048301528c81166024830152604482018e90529091169063d84f316e90606401600060405180830381600087803b158015611f8457600080fd5b505af1158015611f98573d6000803e3d6000fd5b5050600b54604051639fab879760e01b81526001600160a01b039091169250639fab87979150611fe2908c908f906004016001600160a01b03929092168252602082015260400190565b602060405180830381600087803b158015611ffc57600080fd5b505af1158015612010573d6000803e3d6000fd5b505050506040513d601f19601f820116820180604052508101906120349190613019565b600b5460405163b6c2657d60e01b81526001600160a01b038c811660048301528d81166024830152604482018f90526064820184905292975091169063b6c2657d90608401600060405180830381600087803b15801561209357600080fd5b505af11580156120a7573d6000803e3d6000fd5b505050506120b9600680546001019055565b506122f2565b6120c98a886111c5565b600b54604051631d0abe7360e31b8152600481018f905293965091945092506000916001600160a01b039091169063e855f3989060240160206040518083038186803b15801561211857600080fd5b505afa15801561212c573d6000803e3d6000fd5b505050506040513d601f19601f82011682018060405250810190612150919061313a565b600c546040516364d4eeab60e01b8152600481018e90529192506000916001600160a01b03909116906364d4eeab9060240160206040518083038186803b15801561219a57600080fd5b505afa1580156121ae573d6000803e3d6000fd5b505050506040513d601f19601f820116820180604052508101906121d2919061313a565b6040519091506001600160a01b0383169086156108fc029087906000818181858888f1935050505015801561220b573d6000803e3d6000fd5b506040516001600160a01b0382169085156108fc029086906000818181858888f19350505050158015612242573d6000803e3d6000fd5b506040516001600160a01b038b169084156108fc029085906000818181858888f19350505050158015612279573d6000803e3d6000fd5b50600b5460405163b6c2657d60e01b81526001600160a01b038c811660048301528d81166024830152604482018f9052606482018b90529091169063b6c2657d90608401600060405180830381600087803b1580156122d757600080fd5b505af11580156122eb573d6000803e3d6000fd5b5050505050505b50505050505050505050565b60006105b07fc59ccd1a3aef5526abeea7256522b9550fbae5cab94665fd4fab0198c430994e83356123336020860186612f63565b604051612341929190612faa565b6040518091039020856040013586606001358760800160208101906123669190612fba565b61237360c08a018a612f63565b604051612381929190612faa565b60405190819003902061239b6101008b0160e08c0161318d565b6123ad6101208c016101008d0161318d565b6123bf6101408d016101208e0161318d565b60408051602081019b909b528a01989098526060890196909652608088019490945260a0870192909252151560c086015260e08501526001600160601b03908116610100850152908116610120840152166101408281019190915284013561016082015261018001611d6b565b6124388484848461282c565b50505050565b6000826000018281548110612455576124556131cd565b9060005260206000200154905092915050565b60008181526001830160205260408120546124af575081546001818101845560008481526020808220909301849055845484825282860190935260409020919091556105b0565b5060006105b0565b600081815260018301602052604081205480156125a05760006124db6001836131b6565b85549091506000906124ef906001906131b6565b905081811461255457600086600001828154811061250f5761250f6131cd565b9060005260206000200154905080876000018481548110612532576125326131cd565b6000918252602080832090910192909255918252600188019052604090208390555b8554869080612565576125656131fa565b6001900381819060005260206000200160009055905585600101600086815260200190815260200160002060009055600193505050506105b0565b60009150506105b0565b60006105b06125b7612a28565b8360405161190160f01b6020820152602281018390526042810182905260009060620160405160208183030381529060405280519060200120905092915050565b60008082516041141561262f5760208301516040840151606085015160001a61262387828585612b4f565b945094505050506105c8565b825160401415612659576020830151604084015161264e868383612c3c565b9350935050506105c8565b506000905060026105c8565b600081600481111561267957612679613210565b14156126825750565b600181600481111561269657612696613210565b14156126e45760405162461bcd60e51b815260206004820152601860248201527f45434453413a20696e76616c6964207369676e6174757265000000000000000060448201526064016106d1565b60028160048111156126f8576126f8613210565b14156127465760405162461bcd60e51b815260206004820152601f60248201527f45434453413a20696e76616c6964207369676e6174757265206c656e6774680060448201526064016106d1565b600381600481111561275a5761275a613210565b14156127b35760405162461bcd60e51b815260206004820152602260248201527f45434453413a20696e76616c6964207369676e6174757265202773272076616c604482015261756560f01b60648201526084016106d1565b60048160048111156127c7576127c7613210565b14156112e65760405162461bcd60e51b815260206004820152602260248201527f45434453413a20696e76616c6964207369676e6174757265202776272076616c604482015261756560f01b60648201526084016106d1565b6000611112828461306c565b6127106001600160601b03841611156128ad5760405162461bcd60e51b815260206004820152603e60248201527f526f79616c747953706c69747465723a20726f79616c74792066656520666f7260448201527f2063726561746f722077696c6c206578636565642073616c655072696365000060648201526084016106d1565b6127106001600160601b038316111561292e5760405162461bcd60e51b815260206004820152603c60248201527f526f79616c747953706c69747465723a20726f79616c74792066656520666f7260448201527f206f776e65722077696c6c206578636565642073616c6550726963650000000060648201526084016106d1565b61271061293b8385613226565b6001600160601b0316146129a65760405162461bcd60e51b815260206004820152602c60248201527f526f79616c74794d616e616765723a2053756d206f6620726f79616c7469657360448201526b206973206e6f74203130302560a01b60648201526084016106d1565b604080516060810182526001600160601b03948516815292841660208085019182529285168483019081526000968752600490935294209151825494518416600160601b026001600160c01b031990951690841617939093178155915160019092018054929091166bffffffffffffffffffffffff1992909216919091179055565b6000306001600160a01b037f000000000000000000000000000000000000000000000000000000000000000016148015612a8157507f000000000000000000000000000000000000000000000000000000000000000046145b15612aab57507f000000000000000000000000000000000000000000000000000000000000000090565b50604080517f00000000000000000000000000000000000000000000000000000000000000006020808301919091527f0000000000000000000000000000000000000000000000000000000000000000828401527f000000000000000000000000000000000000000000000000000000000000000060608301524660808301523060a0808401919091528351808403909101815260c0909201909252805191012090565b6000807f7fffffffffffffffffffffffffffffff5d576e7357a4501ddfe92f46681b20a0831115612b865750600090506003612c33565b8460ff16601b14158015612b9e57508460ff16601c14155b15612baf5750600090506004612c33565b6040805160008082526020820180845289905260ff881692820192909252606081018690526080810185905260019060a0016020604051602081039080840390855afa158015612c03573d6000803e3d6000fd5b5050604051601f1901519150506001600160a01b038116612c2c57600060019250925050612c33565b9150600090505b94509492505050565b6000806001600160ff1b03831681612c5960ff86901c601b613122565b9050612c6787828885612b4f565b935093505050935093915050565b600060208284031215612c8757600080fd5b81356001600160e01b03198116811461111257600080fd5b634e487b7160e01b600052604160045260246000fd5b600060208284031215612cc757600080fd5b813567ffffffffffffffff80821115612cdf57600080fd5b818401915084601f830112612cf357600080fd5b813581811115612d0557612d05612c9f565b604051601f8201601f19908116603f01168101908382118183101715612d2d57612d2d612c9f565b81604052828152876020848701011115612d4657600080fd5b826020860160208301376000928101602001929092525095945050505050565b600060208284031215612d7857600080fd5b5035919050565b60008060408385031215612d9257600080fd5b50508035926020909101359150565b6001600160a01b03811681146112e657600080fd5b60008060408385031215612dc957600080fd5b823591506020830135612ddb81612da1565b809150509250929050565b60008060008060808587031215612dfc57600080fd5b8435612e0781612da1565b93506020850135612e1781612da1565b925060408501359150606085013567ffffffffffffffff811115612e3a57600080fd5b85016101008188031215612e4d57600080fd5b939692955090935050565b60008060008060808587031215612e6e57600080fd5b8435612e7981612da1565b93506020850135612e8981612da1565b925060408501359150606085013567ffffffffffffffff811115612eac57600080fd5b85016101608188031215612e4d57600080fd5b600060208284031215612ed157600080fd5b813561111281612da1565b60005b83811015612ef7578181015183820152602001612edf565b838111156124385750506000910152565b60008251612f1a818460208701612edc565b9190910192915050565b60008151808452612f3c816020860160208601612edc565b601f01601f19169290920160200192915050565b6020815260006111126020830184612f24565b6000808335601e19843603018112612f7a57600080fd5b83018035915067ffffffffffffffff821115612f9557600080fd5b6020019150368190038213156105c857600080fd5b8183823760009101908152919050565b600060208284031215612fcc57600080fd5b8135801515811461111257600080fd5b81835281816020850137506000828201602090810191909152601f909101601f19169091010190565b602081526000611dc9602083018486612fdc565b60006020828403121561302b57600080fd5b5051919050565b604081526000613046604083018587612fdc565b9050826020830152949350505050565b634e487b7160e01b600052601160045260246000fd5b600081600019048311821515161561308657613086613056565b500290565b6000826130a857634e487b7160e01b600052601260045260246000fd5b500490565b7f416363657373436f6e74726f6c3a206163636f756e74200000000000000000008152600083516130e5816017850160208801612edc565b7001034b99036b4b9b9b4b733903937b6329607d1b6017918401918201528351613116816028840160208801612edc565b01602801949350505050565b6000821982111561313557613135613056565b500190565b60006020828403121561314c57600080fd5b815161111281612da1565b6001600160a01b038516815260606020820181905260009061317c9083018587612fdc565b905082604083015295945050505050565b60006020828403121561319f57600080fd5b81356001600160601b038116811461111257600080fd5b6000828210156131c8576131c8613056565b500390565b634e487b7160e01b600052603260045260246000fd5b6000816131f2576131f2613056565b506000190190565b634e487b7160e01b600052603160045260246000fd5b634e487b7160e01b600052602160045260246000fd5b60006001600160601b0380831681851680830382111561324857613248613056565b0194935050505056fe50555243484153454e46543a20526f79616c747920496e666f205354415254494e472e2e2e2e435245415445204d4153544552204954454d2061626f757420746f2062652063616c6c65642e2e2e2ea2646970667358221220619399af03febb3e347ae6ce7acfd06e31126287cbb47210de2ef956aa20ffd664736f6c63430008080033",
  "linkReferences": {
    "contracts/libs/PercentageUtils.sol": {
      "PercentageUtils": [
        {
          "length": 20,
          "start": 6274
        }
      ]
    }
  },
  "deployedLinkReferences": {
    "contracts/libs/PercentageUtils.sol": {
      "PercentageUtils": [
        {
          "length": 20,
          "start": 5678
        }
      ]
    }
  }
}