{
  "_format": "hh-sol-artifact-1",
  "contractName": "MarketContract",
  "sourceName": "contracts/MarketContract.sol",
  "abi": [
    {
      "inputs": [
        {
          "internalType": "address",
          "name": "_commonUtilsAddress",
          "type": "address"
        }
      ],
      "stateMutability": "nonpayable",
      "type": "constructor"
    },
    {
      "anonymous": false,
      "inputs": [
        {
          "indexed": true,
          "internalType": "address",
          "name": "previousOwner",
          "type": "address"
        },
        {
          "indexed": true,
          "internalType": "address",
          "name": "newOwner",
          "type": "address"
        }
      ],
      "name": "OwnershipTransferred",
      "type": "event"
    },
    {
      "anonymous": false,
      "inputs": [
        {
          "indexed": true,
          "internalType": "bytes32",
          "name": "role",
          "type": "bytes32"
        },
        {
          "indexed": true,
          "internalType": "bytes32",
          "name": "previousAdminRole",
          "type": "bytes32"
        },
        {
          "indexed": true,
          "internalType": "bytes32",
          "name": "newAdminRole",
          "type": "bytes32"
        }
      ],
      "name": "RoleAdminChanged",
      "type": "event"
    },
    {
      "anonymous": false,
      "inputs": [
        {
          "indexed": true,
          "internalType": "bytes32",
          "name": "role",
          "type": "bytes32"
        },
        {
          "indexed": true,
          "internalType": "address",
          "name": "account",
          "type": "address"
        },
        {
          "indexed": true,
          "internalType": "address",
          "name": "sender",
          "type": "address"
        }
      ],
      "name": "RoleGranted",
      "type": "event"
    },
    {
      "anonymous": false,
      "inputs": [
        {
          "indexed": true,
          "internalType": "bytes32",
          "name": "role",
          "type": "bytes32"
        },
        {
          "indexed": true,
          "internalType": "address",
          "name": "account",
          "type": "address"
        },
        {
          "indexed": true,
          "internalType": "address",
          "name": "sender",
          "type": "address"
        }
      ],
      "name": "RoleRevoked",
      "type": "event"
    },
    {
      "anonymous": false,
      "inputs": [
        {
          "indexed": false,
          "internalType": "string",
          "name": "tokenUri",
          "type": "string"
        },
        {
          "indexed": false,
          "internalType": "address",
          "name": "contractAddress",
          "type": "address"
        },
        {
          "indexed": false,
          "internalType": "address",
          "name": "caller",
          "type": "address"
        }
      ],
      "name": "UnlistedNFT",
      "type": "event"
    },
    {
      "anonymous": false,
      "inputs": [
        {
          "indexed": false,
          "internalType": "address",
          "name": "_payee",
          "type": "address"
        },
        {
          "indexed": false,
          "internalType": "uint256",
          "name": "_amount",
          "type": "uint256"
        }
      ],
      "name": "Withdrawal",
      "type": "event"
    },
    {
      "inputs": [],
      "name": "DEFAULT_ADMIN_ROLE",
      "outputs": [
        {
          "internalType": "bytes32",
          "name": "",
          "type": "bytes32"
        }
      ],
      "stateMutability": "view",
      "type": "function"
    },
    {
      "inputs": [],
      "name": "_serviceFees",
      "outputs": [
        {
          "internalType": "uint256",
          "name": "",
          "type": "uint256"
        }
      ],
      "stateMutability": "view",
      "type": "function"
    },
    {
      "inputs": [],
      "name": "commonUtils",
      "outputs": [
        {
          "internalType": "contract ICommonUtils",
          "name": "",
          "type": "address"
        }
      ],
      "stateMutability": "view",
      "type": "function"
    },
    {
      "inputs": [],
      "name": "getChainID",
      "outputs": [
        {
          "internalType": "uint256",
          "name": "",
          "type": "uint256"
        }
      ],
      "stateMutability": "view",
      "type": "function"
    },
    {
      "inputs": [
        {
          "internalType": "bytes32",
          "name": "role",
          "type": "bytes32"
        }
      ],
      "name": "getRoleAdmin",
      "outputs": [
        {
          "internalType": "bytes32",
          "name": "",
          "type": "bytes32"
        }
      ],
      "stateMutability": "view",
      "type": "function"
    },
    {
      "inputs": [
        {
          "internalType": "bytes32",
          "name": "role",
          "type": "bytes32"
        },
        {
          "internalType": "uint256",
          "name": "index",
          "type": "uint256"
        }
      ],
      "name": "getRoleMember",
      "outputs": [
        {
          "internalType": "address",
          "name": "",
          "type": "address"
        }
      ],
      "stateMutability": "view",
      "type": "function"
    },
    {
      "inputs": [
        {
          "internalType": "bytes32",
          "name": "role",
          "type": "bytes32"
        }
      ],
      "name": "getRoleMemberCount",
      "outputs": [
        {
          "internalType": "uint256",
          "name": "",
          "type": "uint256"
        }
      ],
      "stateMutability": "view",
      "type": "function"
    },
    {
      "inputs": [
        {
          "internalType": "address",
          "name": "_ownerAddress",
          "type": "address"
        },
        {
          "internalType": "address",
          "name": "_nftContractAddress",
          "type": "address"
        },
        {
          "internalType": "string",
          "name": "_tokenUri",
          "type": "string"
        }
      ],
      "name": "getSellCount",
      "outputs": [
        {
          "internalType": "uint256",
          "name": "",
          "type": "uint256"
        }
      ],
      "stateMutability": "view",
      "type": "function"
    },
    {
      "inputs": [
        {
          "internalType": "bytes32",
          "name": "role",
          "type": "bytes32"
        },
        {
          "internalType": "address",
          "name": "account",
          "type": "address"
        }
      ],
      "name": "grantRole",
      "outputs": [],
      "stateMutability": "nonpayable",
      "type": "function"
    },
    {
      "inputs": [
        {
          "internalType": "bytes32",
          "name": "role",
          "type": "bytes32"
        },
        {
          "internalType": "address",
          "name": "account",
          "type": "address"
        }
      ],
      "name": "hasRole",
      "outputs": [
        {
          "internalType": "bool",
          "name": "",
          "type": "bool"
        }
      ],
      "stateMutability": "view",
      "type": "function"
    },
    {
      "inputs": [],
      "name": "licensesContract",
      "outputs": [
        {
          "internalType": "contract ILicense",
          "name": "",
          "type": "address"
        }
      ],
      "stateMutability": "view",
      "type": "function"
    },
    {
      "inputs": [],
      "name": "masterContract",
      "outputs": [
        {
          "internalType": "contract IMaster",
          "name": "",
          "type": "address"
        }
      ],
      "stateMutability": "view",
      "type": "function"
    },
    {
      "inputs": [],
      "name": "owner",
      "outputs": [
        {
          "internalType": "address",
          "name": "",
          "type": "address"
        }
      ],
      "stateMutability": "view",
      "type": "function"
    },
    {
      "inputs": [
        {
          "internalType": "address",
          "name": "_buyer",
          "type": "address"
        },
        {
          "internalType": "address",
          "name": "_seller",
          "type": "address"
        },
        {
          "internalType": "uint256",
          "name": "_amountToPurchase",
          "type": "uint256"
        },
        {
          "components": [
            {
              "internalType": "address",
              "name": "nftContractAddress",
              "type": "address"
            },
            {
              "internalType": "uint256",
              "name": "price",
              "type": "uint256"
            },
            {
              "internalType": "uint256",
              "name": "sellCount",
              "type": "uint256"
            },
            {
              "internalType": "string",
              "name": "tokenUri",
              "type": "string"
            },
            {
              "internalType": "uint256",
              "name": "tokenId",
              "type": "uint256"
            },
            {
              "internalType": "uint256",
              "name": "supply",
              "type": "uint256"
            },
            {
              "internalType": "bool",
              "name": "isMaster",
              "type": "bool"
            },
            {
              "internalType": "bytes",
              "name": "signature",
              "type": "bytes"
            },
            {
              "internalType": "string",
              "name": "currency",
              "type": "string"
            }
          ],
          "internalType": "struct MarketContract.NFTVoucher",
          "name": "_mintVoucher",
          "type": "tuple"
        }
      ],
      "name": "redeemItem",
      "outputs": [],
      "stateMutability": "payable",
      "type": "function"
    },
    {
      "inputs": [],
      "name": "renounceOwnership",
      "outputs": [],
      "stateMutability": "nonpayable",
      "type": "function"
    },
    {
      "inputs": [
        {
          "internalType": "bytes32",
          "name": "role",
          "type": "bytes32"
        },
        {
          "internalType": "address",
          "name": "account",
          "type": "address"
        }
      ],
      "name": "renounceRole",
      "outputs": [],
      "stateMutability": "nonpayable",
      "type": "function"
    },
    {
      "inputs": [
        {
          "internalType": "bytes32",
          "name": "role",
          "type": "bytes32"
        },
        {
          "internalType": "address",
          "name": "account",
          "type": "address"
        }
      ],
      "name": "revokeRole",
      "outputs": [],
      "stateMutability": "nonpayable",
      "type": "function"
    },
    {
      "inputs": [],
      "name": "sellCount",
      "outputs": [
        {
          "internalType": "uint256",
          "name": "",
          "type": "uint256"
        }
      ],
      "stateMutability": "view",
      "type": "function"
    },
    {
      "inputs": [
        {
          "internalType": "address",
          "name": "",
          "type": "address"
        },
        {
          "internalType": "address",
          "name": "",
          "type": "address"
        },
        {
          "internalType": "string",
          "name": "",
          "type": "string"
        }
      ],
      "name": "sellCounts",
      "outputs": [
        {
          "internalType": "uint256",
          "name": "",
          "type": "uint256"
        }
      ],
      "stateMutability": "view",
      "type": "function"
    },
    {
      "inputs": [],
      "name": "serviceFees",
      "outputs": [
        {
          "internalType": "uint256",
          "name": "",
          "type": "uint256"
        }
      ],
      "stateMutability": "view",
      "type": "function"
    },
    {
      "inputs": [
        {
          "internalType": "bytes4",
          "name": "interfaceId",
          "type": "bytes4"
        }
      ],
      "name": "supportsInterface",
      "outputs": [
        {
          "internalType": "bool",
          "name": "",
          "type": "bool"
        }
      ],
      "stateMutability": "view",
      "type": "function"
    },
    {
      "inputs": [
        {
          "internalType": "address",
          "name": "newOwner",
          "type": "address"
        }
      ],
      "name": "transferOwnership",
      "outputs": [],
      "stateMutability": "nonpayable",
      "type": "function"
    },
    {
      "inputs": [
        {
          "internalType": "address",
          "name": "_nftContractAddress",
          "type": "address"
        },
        {
          "internalType": "string",
          "name": "_tokenUri",
          "type": "string"
        }
      ],
      "name": "unlistItem",
      "outputs": [],
      "stateMutability": "nonpayable",
      "type": "function"
    },
    {
      "inputs": [
        {
          "internalType": "uint256",
          "name": "_calculatedFees",
          "type": "uint256"
        }
      ],
      "name": "withdrawFees",
      "outputs": [],
      "stateMutability": "payable",
      "type": "function"
    }
  ],
  "bytecode": "0x6101406040523480156200001257600080fd5b5060405162004b6a38038062004b6a8339818101604052810190620000389190620005c5565b6040518060400160405280600981526020017f5356566f756368657200000000000000000000000000000000000000000000008152506040518060400160405280600181526020017f310000000000000000000000000000000000000000000000000000000000000081525060008280519060200120905060008280519060200120905060007f8b73c3c69bb8fe3d512ecc4cf759cc79239f7b179b0ffacaa9a75d522b39400f90508260e081815250508161010081815250504660a081815250506200010d8184846200047a60201b60201c565b608081815250503073ffffffffffffffffffffffffffffffffffffffff1660c08173ffffffffffffffffffffffffffffffffffffffff1660601b815250508061012081815250505050505050620001796200016d620004b660201b60201c565b620004be60201b60201c565b6001600381905550620001916200058460201b60201c565b600460006101000a81548173ffffffffffffffffffffffffffffffffffffffff021916908373ffffffffffffffffffffffffffffffffffffffff160217905550610bb860068190555080600960006101000a81548173ffffffffffffffffffffffffffffffffffffffff021916908373ffffffffffffffffffffffffffffffffffffffff1602179055506000600960009054906101000a900473ffffffffffffffffffffffffffffffffffffffff1673ffffffffffffffffffffffffffffffffffffffff1663824ea29f6040518060400160405280600781526020017f4c6963656e7365000000000000000000000000000000000000000000000000008152506040518263ffffffff1660e01b8152600401620002af9190620006c2565b60206040518083038186803b158015620002c857600080fd5b505afa158015620002dd573d6000803e3d6000fd5b505050506040513d601f19601f82011682018060405250810190620003039190620005c5565b90506000600960009054906101000a900473ffffffffffffffffffffffffffffffffffffffff1673ffffffffffffffffffffffffffffffffffffffff1663824ea29f6040518060400160405280600681526020017f4d617374657200000000000000000000000000000000000000000000000000008152506040518263ffffffff1660e01b8152600401620003999190620006c2565b60206040518083038186803b158015620003b257600080fd5b505afa158015620003c7573d6000803e3d6000fd5b505050506040513d601f19601f82011682018060405250810190620003ed9190620005c5565b905081600a60006101000a81548173ffffffffffffffffffffffffffffffffffffffff021916908373ffffffffffffffffffffffffffffffffffffffff16021790555080600b60006101000a81548173ffffffffffffffffffffffffffffffffffffffff021916908373ffffffffffffffffffffffffffffffffffffffff160217905550505050620007ab565b600083838346306040516020016200049795949392919062000665565b6040516020818303038152906040528051906020012090509392505050565b600033905090565b6000600260009054906101000a900473ffffffffffffffffffffffffffffffffffffffff16905081600260006101000a81548173ffffffffffffffffffffffffffffffffffffffff021916908373ffffffffffffffffffffffffffffffffffffffff1602179055508173ffffffffffffffffffffffffffffffffffffffff168173ffffffffffffffffffffffffffffffffffffffff167f8be0079c531659141344cd1fd0a4f28419497f9722a3daafe3b4186f6b6457e060405160405180910390a35050565b6000600260009054906101000a900473ffffffffffffffffffffffffffffffffffffffff16905090565b600081519050620005bf8162000791565b92915050565b600060208284031215620005d857600080fd5b6000620005e884828501620005ae565b91505092915050565b620005fc8162000702565b82525050565b6200060d8162000716565b82525050565b60006200062082620006e6565b6200062c8185620006f1565b93506200063e8185602086016200074a565b620006498162000780565b840191505092915050565b6200065f8162000740565b82525050565b600060a0820190506200067c600083018862000602565b6200068b602083018762000602565b6200069a604083018662000602565b620006a9606083018562000654565b620006b86080830184620005f1565b9695505050505050565b60006020820190508181036000830152620006de818462000613565b905092915050565b600081519050919050565b600082825260208201905092915050565b60006200070f8262000720565b9050919050565b6000819050919050565b600073ffffffffffffffffffffffffffffffffffffffff82169050919050565b6000819050919050565b60005b838110156200076a5780820151818401526020810190506200074d565b838111156200077a576000848401525b50505050565b6000601f19601f8301169050919050565b6200079c8162000702565b8114620007a857600080fd5b50565b60805160a05160c05160601c60e051610100516101205161436c620007fe6000396000612a7101526000612ab301526000612a92015260006129c701526000612a1d01526000612a46015261436c6000f3fe60806040526004361061014b5760003560e01c806380857ffa116100b6578063a217fddf1161006f578063a217fddf1461048a578063b776fcf6146104b5578063ca15c873146104e0578063cd446e221461051d578063d547741f14610548578063f2fde38b146105715761014b565b806380857ffa146103525780638da5cb5b1461037d5780639010d07c146103a857806391d14854146103e557806397ed1328146104225780639c4606c61461044d5761014b565b806336568abe1161010857806336568abe146102845780634457f9bc146102ad578063564b81ef146102d85780635ccd66d8146103035780635e318e071461031f578063715018a61461033b5761014b565b8063016b1c6b1461015057806301ffc9a7146101795780630c6b6737146101b65780632129d4cc146101e1578063248a9ca31461021e5780632f2ff15d1461025b575b600080fd5b34801561015c57600080fd5b5061017760048036038101906101729190612eb2565b61059a565b005b34801561018557600080fd5b506101a0600480360381019061019b9190612fd0565b61063b565b6040516101ad919061360f565b60405180910390f35b3480156101c257600080fd5b506101cb6106b5565b6040516101d89190613a2f565b60405180910390f35b3480156101ed57600080fd5b5061020860048036038101906102039190612dd0565b6106bb565b6040516102159190613a2f565b60405180910390f35b34801561022a57600080fd5b5061024560048036038101906102409190612f2f565b610703565b604051610252919061362a565b60405180910390f35b34801561026757600080fd5b50610282600480360381019061027d9190612f58565b610722565b005b34801561029057600080fd5b506102ab60048036038101906102a69190612f58565b61074b565b005b3480156102b957600080fd5b506102c26107ce565b6040516102cf9190613785565b60405180910390f35b3480156102e457600080fd5b506102ed6107f4565b6040516102fa9190613a2f565b60405180910390f35b61031d60048036038101906103189190612e37565b610801565b005b61033960048036038101906103349190612ff9565b61121e565b005b34801561034757600080fd5b506103506112e5565b005b34801561035e57600080fd5b5061036761136d565b6040516103749190613a2f565b60405180910390f35b34801561038957600080fd5b50610392611377565b60405161039f91906134e6565b60405180910390f35b3480156103b457600080fd5b506103cf60048036038101906103ca9190612f94565b6113a1565b6040516103dc91906134e6565b60405180910390f35b3480156103f157600080fd5b5061040c60048036038101906104079190612f58565b6113d0565b604051610419919061360f565b60405180910390f35b34801561042e57600080fd5b5061043761143a565b604051610444919061376a565b60405180910390f35b34801561045957600080fd5b50610474600480360381019061046f9190612dd0565b611460565b6040516104819190613a2f565b60405180910390f35b34801561049657600080fd5b5061049f6115ae565b6040516104ac919061362a565b60405180910390f35b3480156104c157600080fd5b506104ca6115b5565b6040516104d79190613a2f565b60405180910390f35b3480156104ec57600080fd5b5061050760048036038101906105029190612f2f565b6115bb565b6040516105149190613a2f565b60405180910390f35b34801561052957600080fd5b506105326115df565b60405161053f91906137a0565b60405180910390f35b34801561055457600080fd5b5061056f600480360381019061056a9190612f58565b611605565b005b34801561057d57600080fd5b5061059860048036038101906105939190612da7565b61162e565b005b6105c66040518060600160405280602a815260200161430d602a91396105c1338585611460565b611726565b6105d082826117c2565b6105fc6040518060600160405280602b81526020016142e2602b91396105f7338585611460565b611726565b7f1495df5ceaa13e88c26a1cac22b107030bba5f78b3c364350cde4542877647ef81833360405161062f93929190613801565b60405180910390a15050565b60007f5a05180f000000000000000000000000000000000000000000000000000000007bffffffffffffffffffffffffffffffffffffffffffffffffffffffff1916827bffffffffffffffffffffffffffffffffffffffffffffffffffffffff191614806106ae57506106ad8261187d565b5b9050919050565b60075481565b60086020528260005260406000206020528160005260406000208180516020810182018051848252602083016020850120818352809550505050505060009250925050505481565b6000806000838152602001908152602001600020600101549050919050565b61072b82610703565b61073c816107376118f7565b6118ff565b610746838361199c565b505050565b6107536118f7565b73ffffffffffffffffffffffffffffffffffffffff168173ffffffffffffffffffffffffffffffffffffffff16146107c0576040517f08c379a00000000000000000000000000000000000000000000000000000000081526004016107b790613a0f565b60405180910390fd5b6107ca82826119d0565b5050565b600a60009054906101000a900473ffffffffffffffffffffffffffffffffffffffff1681565b6000804690508091505090565b60026003541415610847576040517f08c379a000000000000000000000000000000000000000000000000000000000815260040161083e906139ef565b60405180910390fd5b6002600381905550600034905060008111610897576040517f08c379a000000000000000000000000000000000000000000000000000000000815260040161088e9061396f565b60405180910390fd5b60006108a283611a04565b90508073ffffffffffffffffffffffffffffffffffffffff168573ffffffffffffffffffffffffffffffffffffffff1614610912576040517f08c379a0000000000000000000000000000000000000000000000000000000008152600401610909906139cf565b60405180910390fd5b600061091c61136d565b9050600073__$30982415e8a4a7841dba8c5dcc5d2212fe$__63c5f859608660200135846040518363ffffffff1660e01b815260040161095d929190613a4a565b60206040518083038186803b15801561097557600080fd5b505af4158015610989573d6000803e3d6000fd5b505050506040513d601f19601f820116820180604052508101906109ad9190613022565b90506000600115158660c00160208101906109c89190612f06565b151514156109e7576109e08660200135836001611a76565b90506109f9565b6109f686602001358389611a76565b90505b6000610a0e8383611ab890919063ffffffff16565b9050610a616040518060400160405280600981526020017f464545533d3d3d3d3d0000000000000000000000000000000000000000000000815250610a5c8389611ab890919063ffffffff16565b611726565b81861015610aa4576040517f08c379a0000000000000000000000000000000000000000000000000000000008152600401610a9b9061398f565b60405180910390fd5b8660400135600860008773ffffffffffffffffffffffffffffffffffffffff1673ffffffffffffffffffffffffffffffffffffffff1681526020019081526020016000206000896000016020810190610afd9190612da7565b73ffffffffffffffffffffffffffffffffffffffff1673ffffffffffffffffffffffffffffffffffffffff168152602001908152602001600020888060600190610b479190613aca565b604051610b55929190613445565b90815260200160405180910390205414610ba4576040517f08c379a0000000000000000000000000000000000000000000000000000000008152600401610b9b9061392f565b60405180910390fd5b6000600b60009054906101000a900473ffffffffffffffffffffffffffffffffffffffff1673ffffffffffffffffffffffffffffffffffffffff1663ed310117898060600190610bf49190613aca565b6040518363ffffffff1660e01b8152600401610c119291906137bb565b602060405180830381600087803b158015610c2b57600080fd5b505af1158015610c3f573d6000803e3d6000fd5b505050506040513d601f19601f82011682018060405250810190610c639190613022565b90506000811415610d7457600b60009054906101000a900473ffffffffffffffffffffffffffffffffffffffff1673ffffffffffffffffffffffffffffffffffffffff166349c031e0878a8060600190610cbd9190613aca565b8c60a001356040518563ffffffff1660e01b8152600401610ce194939291906135a6565b602060405180830381600087803b158015610cfb57600080fd5b505af1158015610d0f573d6000803e3d6000fd5b505050506040513d601f19601f82011682018060405250810190610d339190613022565b9050610d736040518060400160405280601c81526020017f4963682068616220676572616465206562656e2067656d696e74657400000000815250611ace565b5b6000811415610db8576040517f08c379a0000000000000000000000000000000000000000000000000000000008152600401610daf906138ef565b60405180910390fd5b6000600115158960c0016020810190610dd19190612f06565b15151415611069578673ffffffffffffffffffffffffffffffffffffffff166108fc849081150290604051600060405180830381858888f19350505050158015610e1f573d6000803e3d6000fd5b50600b60009054906101000a900473ffffffffffffffffffffffffffffffffffffffff1673ffffffffffffffffffffffffffffffffffffffff1663d84f316e888e856040518463ffffffff1660e01b8152600401610e7f9392919061352a565b600060405180830381600087803b158015610e9957600080fd5b505af1158015610ead573d6000803e3d6000fd5b50505050600a60009054906101000a900473ffffffffffffffffffffffffffffffffffffffff1673ffffffffffffffffffffffffffffffffffffffff16639fab879788846040518363ffffffff1660e01b8152600401610f0e9291906135e6565b602060405180830381600087803b158015610f2857600080fd5b505af1158015610f3c573d6000803e3d6000fd5b505050506040513d601f19601f82011682018060405250810190610f609190613022565b9050600a60009054906101000a900473ffffffffffffffffffffffffffffffffffffffff1673ffffffffffffffffffffffffffffffffffffffff1663b6c2657d888e85856040518563ffffffff1660e01b8152600401610fc39493929190613561565b600060405180830381600087803b158015610fdd57600080fd5b505af1158015610ff1573d6000803e3d6000fd5b5050505061101b6040518060600160405280602781526020016142bb602791398a60200135611726565b61105a6040518060400160405280600f81526020017f50555243484153452050524943453d000000000000000000000000000000000081525084611726565b6110646005611b67565b61117f565b600a60009054906101000a900473ffffffffffffffffffffffffffffffffffffffff1673ffffffffffffffffffffffffffffffffffffffff1663b6c2657d888e858e6040518563ffffffff1660e01b81526004016110ca9493929190613561565b600060405180830381600087803b1580156110e457600080fd5b505af11580156110f8573d6000803e3d6000fd5b5050505061113f6040518060400160405280601b81526020017f4a757374207472616e736665727265642061206c6963656e73652100000000008152508a60200135611726565b61117e6040518060400160405280600f81526020017f50555243484153452050524943453d000000000000000000000000000000000081525084611726565b5b6111ed8960000160208101906111959190612da7565b8a80606001906111a59190613aca565b8080601f016020809104026020016040519081016040528093929190818152602001838380828437600081840152601f19601f820116905080830192505050505050506117c2565b611208611203848a611ab890919063ffffffff16565b61121e565b5050505050505050600160038190555050505050565b600460009054906101000a900473ffffffffffffffffffffffffffffffffffffffff1673ffffffffffffffffffffffffffffffffffffffff166108fc829081150290604051600060405180830381858888f19350505050158015611286573d6000803e3d6000fd5b507f7fcf532c15f0a6db0bd6d0e038bea71d30d808c7d98cb3bf7268a95bf5081b65600460009054906101000a900473ffffffffffffffffffffffffffffffffffffffff16826040516112da929190613501565b60405180910390a150565b6112ed6118f7565b73ffffffffffffffffffffffffffffffffffffffff1661130b611377565b73ffffffffffffffffffffffffffffffffffffffff1614611361576040517f08c379a0000000000000000000000000000000000000000000000000000000008152600401611358906139af565b60405180910390fd5b61136b6000611b7d565b565b6000600654905090565b6000600260009054906101000a900473ffffffffffffffffffffffffffffffffffffffff16905090565b60006113c88260016000868152602001908152602001600020611c4390919063ffffffff16565b905092915050565b600080600084815260200190815260200160002060000160008373ffffffffffffffffffffffffffffffffffffffff1673ffffffffffffffffffffffffffffffffffffffff16815260200190815260200160002060009054906101000a900460ff16905092915050565b600960009054906101000a900473ffffffffffffffffffffffffffffffffffffffff1681565b600080600860008673ffffffffffffffffffffffffffffffffffffffff1673ffffffffffffffffffffffffffffffffffffffff16815260200190815260200160002060008573ffffffffffffffffffffffffffffffffffffffff1673ffffffffffffffffffffffffffffffffffffffff168152602001908152602001600020836040516114ed919061345e565b908152602001604051809103902054141561150b57600090506115a7565b600860008573ffffffffffffffffffffffffffffffffffffffff1673ffffffffffffffffffffffffffffffffffffffff16815260200190815260200160002060008473ffffffffffffffffffffffffffffffffffffffff1673ffffffffffffffffffffffffffffffffffffffff16815260200190815260200160002082604051611595919061345e565b90815260200160405180910390205490505b9392505050565b6000801b81565b60065481565b60006115d860016000848152602001908152602001600020611c5d565b9050919050565b600b60009054906101000a900473ffffffffffffffffffffffffffffffffffffffff1681565b61160e82610703565b61161f8161161a6118f7565b6118ff565b61162983836119d0565b505050565b6116366118f7565b73ffffffffffffffffffffffffffffffffffffffff16611654611377565b73ffffffffffffffffffffffffffffffffffffffff16146116aa576040517f08c379a00000000000000000000000000000000000000000000000000000000081526004016116a1906139af565b60405180910390fd5b600073ffffffffffffffffffffffffffffffffffffffff168173ffffffffffffffffffffffffffffffffffffffff16141561171a576040517f08c379a0000000000000000000000000000000000000000000000000000000008152600401611711906138cf565b60405180910390fd5b61172381611b7d565b50565b6117be828260405160240161173c92919061383f565b6040516020818303038152906040527f9710a9d0000000000000000000000000000000000000000000000000000000007bffffffffffffffffffffffffffffffffffffffffffffffffffffffff19166020820180517bffffffffffffffffffffffffffffffffffffffffffffffffffffffff8381831617835250505050611c72565b5050565b6001600860006117d06118f7565b73ffffffffffffffffffffffffffffffffffffffff1673ffffffffffffffffffffffffffffffffffffffff16815260200190815260200160002060008473ffffffffffffffffffffffffffffffffffffffff1673ffffffffffffffffffffffffffffffffffffffff16815260200190815260200160002082604051611855919061345e565b908152602001604051809103902060008282546118729190613ba9565b925050819055505050565b60007f7965db0b000000000000000000000000000000000000000000000000000000007bffffffffffffffffffffffffffffffffffffffffffffffffffffffff1916827bffffffffffffffffffffffffffffffffffffffffffffffffffffffff191614806118f057506118ef82611c9b565b5b9050919050565b600033905090565b61190982826113d0565b6119985761192e8173ffffffffffffffffffffffffffffffffffffffff166014611d05565b61193c8360001c6020611d05565b60405160200161194d9291906134ac565b6040516020818303038152906040526040517f08c379a000000000000000000000000000000000000000000000000000000000815260040161198f91906137df565b60405180910390fd5b5050565b6119a68282611fff565b6119cb81600160008581526020019081526020016000206120df90919063ffffffff16565b505050565b6119da828261210f565b6119ff81600160008581526020019081526020016000206121f090919063ffffffff16565b505050565b600080611a1083612220565b9050611a6e81848060e00190611a269190613a73565b8080601f016020809104026020016040519081016040528093929190818152602001838380828437600081840152601f19601f82011690508083019250505050505050612307565b915050919050565b6000611aaf611a8e838561232e90919063ffffffff16565b611aa1848761232e90919063ffffffff16565b61234490919063ffffffff16565b90509392505050565b60008183611ac69190613c59565b905092915050565b611b6481604051602401611ae291906137df565b6040516020818303038152906040527f41304fac000000000000000000000000000000000000000000000000000000007bffffffffffffffffffffffffffffffffffffffffffffffffffffffff19166020820180517bffffffffffffffffffffffffffffffffffffffffffffffffffffffff8381831617835250505050611c72565b50565b6001816000016000828254019250508190555050565b6000600260009054906101000a900473ffffffffffffffffffffffffffffffffffffffff16905081600260006101000a81548173ffffffffffffffffffffffffffffffffffffffff021916908373ffffffffffffffffffffffffffffffffffffffff1602179055508173ffffffffffffffffffffffffffffffffffffffff168173ffffffffffffffffffffffffffffffffffffffff167f8be0079c531659141344cd1fd0a4f28419497f9722a3daafe3b4186f6b6457e060405160405180910390a35050565b6000611c52836000018361235a565b60001c905092915050565b6000611c6b826000016123ab565b9050919050565b60008151905060006a636f6e736f6c652e6c6f679050602083016000808483855afa5050505050565b60007f01ffc9a7000000000000000000000000000000000000000000000000000000007bffffffffffffffffffffffffffffffffffffffffffffffffffffffff1916827bffffffffffffffffffffffffffffffffffffffffffffffffffffffff1916149050919050565b606060006002836002611d189190613bff565b611d229190613ba9565b67ffffffffffffffff811115611d61577f4e487b7100000000000000000000000000000000000000000000000000000000600052604160045260246000fd5b6040519080825280601f01601f191660200182016040528015611d935781602001600182028036833780820191505090505b5090507f300000000000000000000000000000000000000000000000000000000000000081600081518110611df1577f4e487b7100000000000000000000000000000000000000000000000000000000600052603260045260246000fd5b60200101907effffffffffffffffffffffffffffffffffffffffffffffffffffffffffffff1916908160001a9053507f780000000000000000000000000000000000000000000000000000000000000081600181518110611e7b577f4e487b7100000000000000000000000000000000000000000000000000000000600052603260045260246000fd5b60200101907effffffffffffffffffffffffffffffffffffffffffffffffffffffffffffff1916908160001a90535060006001846002611ebb9190613bff565b611ec59190613ba9565b90505b6001811115611fb1577f3031323334353637383961626364656600000000000000000000000000000000600f861660108110611f2d577f4e487b7100000000000000000000000000000000000000000000000000000000600052603260045260246000fd5b1a60f81b828281518110611f6a577f4e487b7100000000000000000000000000000000000000000000000000000000600052603260045260246000fd5b60200101907effffffffffffffffffffffffffffffffffffffffffffffffffffffffffffff1916908160001a905350600485901c945080611faa90613dfc565b9050611ec8565b5060008414611ff5576040517f08c379a0000000000000000000000000000000000000000000000000000000008152600401611fec9061388f565b60405180910390fd5b8091505092915050565b61200982826113d0565b6120db57600160008084815260200190815260200160002060000160008373ffffffffffffffffffffffffffffffffffffffff1673ffffffffffffffffffffffffffffffffffffffff16815260200190815260200160002060006101000a81548160ff0219169083151502179055506120806118f7565b73ffffffffffffffffffffffffffffffffffffffff168173ffffffffffffffffffffffffffffffffffffffff16837f2f8788117e7eff1d82e926ec794901d17c78024a50270940304540a733656f0d60405160405180910390a45b5050565b6000612107836000018373ffffffffffffffffffffffffffffffffffffffff1660001b6123bc565b905092915050565b61211982826113d0565b156121ec57600080600084815260200190815260200160002060000160008373ffffffffffffffffffffffffffffffffffffffff1673ffffffffffffffffffffffffffffffffffffffff16815260200190815260200160002060006101000a81548160ff0219169083151502179055506121916118f7565b73ffffffffffffffffffffffffffffffffffffffff168173ffffffffffffffffffffffffffffffffffffffff16837ff6391f5c32d9c69d2a47ea670b442974b53935d1edc7fd64eb21e047a839171b60405160405180910390a45b5050565b6000612218836000018373ffffffffffffffffffffffffffffffffffffffff1660001b61242c565b905092915050565b60006123007fee911ebe07060e5d167ce48e73fda154f322fb019f066aceed9b4b11d231e6608360000160208101906122599190612da7565b846020013585604001358680606001906122739190613aca565b60405161228192919061342c565b604051809103902087608001358860a001358960c00160208101906122a69190612f06565b8a8061010001906122b79190613aca565b6040516122c592919061342c565b60405180910390206040516020016122e599989796959493929190613645565b604051602081830303815290604052805190602001206125b2565b9050919050565b600080600061231685856125cc565b915091506123238161264f565b819250505092915050565b6000818361233c9190613bff565b905092915050565b600081836123529190613ba9565b905092915050565b6000826000018281548110612398577f4e487b7100000000000000000000000000000000000000000000000000000000600052603260045260246000fd5b9060005260206000200154905092915050565b600081600001805490509050919050565b60006123c883836129a0565b612421578260000182908060018154018082558091505060019003906000526020600020016000909190919091505582600001805490508360010160008481526020019081526020016000208190555060019050612426565b600090505b92915050565b600080836001016000848152602001908152602001600020549050600081146125a657600060018261245e9190613c59565b90506000600186600001805490506124769190613c59565b90508181146125315760008660000182815481106124bd577f4e487b7100000000000000000000000000000000000000000000000000000000600052603260045260246000fd5b9060005260206000200154905080876000018481548110612507577f4e487b7100000000000000000000000000000000000000000000000000000000600052603260045260246000fd5b90600052602060002001819055508387600101600083815260200190815260200160002081905550505b8560000180548061256b577f4e487b7100000000000000000000000000000000000000000000000000000000600052603160045260246000fd5b6001900381819060005260206000200160009055905585600101600086815260200190815260200160002060009055600193505050506125ac565b60009150505b92915050565b60006125c56125bf6129c3565b83612add565b9050919050565b60008060418351141561260e5760008060006020860151925060408601519150606086015160001a905061260287828585612b10565b94509450505050612648565b60408351141561263f576000806020850151915060408501519050612634868383612c1d565b935093505050612648565b60006002915091505b9250929050565b60006004811115612689577f4e487b7100000000000000000000000000000000000000000000000000000000600052602160045260246000fd5b8160048111156126c2577f4e487b7100000000000000000000000000000000000000000000000000000000600052602160045260246000fd5b14156126cd5761299d565b60016004811115612707577f4e487b7100000000000000000000000000000000000000000000000000000000600052602160045260246000fd5b816004811115612740577f4e487b7100000000000000000000000000000000000000000000000000000000600052602160045260246000fd5b1415612781576040517f08c379a00000000000000000000000000000000000000000000000000000000081526004016127789061386f565b60405180910390fd5b600260048111156127bb577f4e487b7100000000000000000000000000000000000000000000000000000000600052602160045260246000fd5b8160048111156127f4577f4e487b7100000000000000000000000000000000000000000000000000000000600052602160045260246000fd5b1415612835576040517f08c379a000000000000000000000000000000000000000000000000000000000815260040161282c906138af565b60405180910390fd5b6003600481111561286f577f4e487b7100000000000000000000000000000000000000000000000000000000600052602160045260246000fd5b8160048111156128a8577f4e487b7100000000000000000000000000000000000000000000000000000000600052602160045260246000fd5b14156128e9576040517f08c379a00000000000000000000000000000000000000000000000000000000081526004016128e09061390f565b60405180910390fd5b600480811115612922577f4e487b7100000000000000000000000000000000000000000000000000000000600052602160045260246000fd5b81600481111561295b577f4e487b7100000000000000000000000000000000000000000000000000000000600052602160045260246000fd5b141561299c576040517f08c379a00000000000000000000000000000000000000000000000000000000081526004016129939061394f565b60405180910390fd5b5b50565b600080836001016000848152602001908152602001600020541415905092915050565b60007f000000000000000000000000000000000000000000000000000000000000000073ffffffffffffffffffffffffffffffffffffffff163073ffffffffffffffffffffffffffffffffffffffff16148015612a3f57507f000000000000000000000000000000000000000000000000000000000000000046145b15612a6c577f00000000000000000000000000000000000000000000000000000000000000009050612ada565b612ad77f00000000000000000000000000000000000000000000000000000000000000007f00000000000000000000000000000000000000000000000000000000000000007f0000000000000000000000000000000000000000000000000000000000000000612c6b565b90505b90565b60008282604051602001612af2929190613475565b60405160208183030381529060405280519060200120905092915050565b6000807f7fffffffffffffffffffffffffffffff5d576e7357a4501ddfe92f46681b20a08360001c1115612b4b576000600391509150612c14565b601b8560ff1614158015612b635750601c8560ff1614155b15612b75576000600491509150612c14565b600060018787878760405160008152602001604052604051612b9a9493929190613725565b6020604051602081039080840390855afa158015612bbc573d6000803e3d6000fd5b505050602060405103519050600073ffffffffffffffffffffffffffffffffffffffff168173ffffffffffffffffffffffffffffffffffffffff161415612c0b57600060019250925050612c14565b80600092509250505b94509492505050565b6000806000807f7fffffffffffffffffffffffffffffffffffffffffffffffffffffffffffffff85169150601b8560ff1c019050612c5d87828885612b10565b935093505050935093915050565b60008383834630604051602001612c869594939291906136d2565b6040516020818303038152906040528051906020012090509392505050565b6000612cb8612cb384613b46565b613b21565b905082815260208101848484011115612cd057600080fd5b612cdb848285613dba565b509392505050565b600081359050612cf281614247565b92915050565b600081359050612d078161425e565b92915050565b600081359050612d1c81614275565b92915050565b600081359050612d318161428c565b92915050565b600082601f830112612d4857600080fd5b8135612d58848260208601612ca5565b91505092915050565b60006101208284031215612d7457600080fd5b81905092915050565b600081359050612d8c816142a3565b92915050565b600081519050612da1816142a3565b92915050565b600060208284031215612db957600080fd5b6000612dc784828501612ce3565b91505092915050565b600080600060608486031215612de557600080fd5b6000612df386828701612ce3565b9350506020612e0486828701612ce3565b925050604084013567ffffffffffffffff811115612e2157600080fd5b612e2d86828701612d37565b9150509250925092565b60008060008060808587031215612e4d57600080fd5b6000612e5b87828801612ce3565b9450506020612e6c87828801612ce3565b9350506040612e7d87828801612d7d565b925050606085013567ffffffffffffffff811115612e9a57600080fd5b612ea687828801612d61565b91505092959194509250565b60008060408385031215612ec557600080fd5b6000612ed385828601612ce3565b925050602083013567ffffffffffffffff811115612ef057600080fd5b612efc85828601612d37565b9150509250929050565b600060208284031215612f1857600080fd5b6000612f2684828501612cf8565b91505092915050565b600060208284031215612f4157600080fd5b6000612f4f84828501612d0d565b91505092915050565b60008060408385031215612f6b57600080fd5b6000612f7985828601612d0d565b9250506020612f8a85828601612ce3565b9150509250929050565b60008060408385031215612fa757600080fd5b6000612fb585828601612d0d565b9250506020612fc685828601612d7d565b9150509250929050565b600060208284031215612fe257600080fd5b6000612ff084828501612d22565b91505092915050565b60006020828403121561300b57600080fd5b600061301984828501612d7d565b91505092915050565b60006020828403121561303457600080fd5b600061304284828501612d92565b91505092915050565b61305481613d18565b82525050565b61306381613c8d565b82525050565b61307281613c9f565b82525050565b61308181613cab565b82525050565b61309861309382613cab565b613e57565b82525050565b60006130aa8385613b82565b93506130b7838584613dba565b82840190509392505050565b6130cc81613d2a565b82525050565b6130db81613d4e565b82525050565b6130ea81613d72565b82525050565b60006130fc8385613b8d565b9350613109838584613dba565b61311283613ebf565b840190509392505050565b60006131298385613b9e565b9350613136838584613dba565b82840190509392505050565b600061314d82613b77565b6131578185613b8d565b9350613167818560208601613dc9565b61317081613ebf565b840191505092915050565b600061318682613b77565b6131908185613b9e565b93506131a0818560208601613dc9565b80840191505092915050565b60006131b9601883613b8d565b91506131c482613ed0565b602082019050919050565b60006131dc602083613b8d565b91506131e782613ef9565b602082019050919050565b60006131ff601f83613b8d565b915061320a82613f22565b602082019050919050565b6000613222602683613b8d565b915061322d82613f4b565b604082019050919050565b6000613245600283613b9e565b915061325082613f9a565b600282019050919050565b6000613268601783613b8d565b915061327382613fc3565b602082019050919050565b600061328b602283613b8d565b915061329682613fec565b604082019050919050565b60006132ae601383613b8d565b91506132b98261403b565b602082019050919050565b60006132d1602283613b8d565b91506132dc82614064565b604082019050919050565b60006132f4601b83613b8d565b91506132ff826140b3565b602082019050919050565b6000613317601c83613b8d565b9150613322826140dc565b602082019050919050565b600061333a602083613b8d565b915061334582614105565b602082019050919050565b600061335d602183613b8d565b91506133688261412e565b604082019050919050565b6000613380601783613b9e565b915061338b8261417d565b601782019050919050565b60006133a3601f83613b8d565b91506133ae826141a6565b602082019050919050565b60006133c6601183613b9e565b91506133d1826141cf565b601182019050919050565b60006133e9602f83613b8d565b91506133f4826141f8565b604082019050919050565b61340881613d01565b82525050565b61341781613d01565b82525050565b61342681613d0b565b82525050565b600061343982848661309e565b91508190509392505050565b600061345282848661311d565b91508190509392505050565b600061346a828461317b565b915081905092915050565b600061348082613238565b915061348c8285613087565b60208201915061349c8284613087565b6020820191508190509392505050565b60006134b782613373565b91506134c3828561317b565b91506134ce826133b9565b91506134da828461317b565b91508190509392505050565b60006020820190506134fb600083018461305a565b92915050565b6000604082019050613516600083018561304b565b61352360208301846133ff565b9392505050565b600060608201905061353f600083018661305a565b61354c602083018561305a565b61355960408301846133ff565b949350505050565b6000608082019050613576600083018761305a565b613583602083018661305a565b61359060408301856133ff565b61359d60608301846133ff565b95945050505050565b60006060820190506135bb600083018761305a565b81810360208301526135ce8185876130f0565b90506135dd60408301846133ff565b95945050505050565b60006040820190506135fb600083018561305a565b61360860208301846133ff565b9392505050565b60006020820190506136246000830184613069565b92915050565b600060208201905061363f6000830184613078565b92915050565b60006101208201905061365b600083018c613078565b613668602083018b61305a565b613675604083018a6133ff565b61368260608301896133ff565b61368f6080830188613078565b61369c60a08301876133ff565b6136a960c08301866133ff565b6136b660e0830185613069565b6136c4610100830184613078565b9a9950505050505050505050565b600060a0820190506136e76000830188613078565b6136f46020830187613078565b6137016040830186613078565b61370e60608301856133ff565b61371b608083018461305a565b9695505050505050565b600060808201905061373a6000830187613078565b613747602083018661341d565b6137546040830185613078565b6137616060830184613078565b95945050505050565b600060208201905061377f60008301846130c3565b92915050565b600060208201905061379a60008301846130d2565b92915050565b60006020820190506137b560008301846130e1565b92915050565b600060208201905081810360008301526137d68184866130f0565b90509392505050565b600060208201905081810360008301526137f98184613142565b905092915050565b6000606082019050818103600083015261381b8186613142565b905061382a602083018561305a565b613837604083018461305a565b949350505050565b600060408201905081810360008301526138598185613142565b905061386860208301846133ff565b9392505050565b60006020820190508181036000830152613888816131ac565b9050919050565b600060208201905081810360008301526138a8816131cf565b9050919050565b600060208201905081810360008301526138c8816131f2565b9050919050565b600060208201905081810360008301526138e881613215565b9050919050565b600060208201905081810360008301526139088161325b565b9050919050565b600060208201905081810360008301526139288161327e565b9050919050565b60006020820190508181036000830152613948816132a1565b9050919050565b60006020820190508181036000830152613968816132c4565b9050919050565b60006020820190508181036000830152613988816132e7565b9050919050565b600060208201905081810360008301526139a88161330a565b9050919050565b600060208201905081810360008301526139c88161332d565b9050919050565b600060208201905081810360008301526139e881613350565b9050919050565b60006020820190508181036000830152613a0881613396565b9050919050565b60006020820190508181036000830152613a28816133dc565b9050919050565b6000602082019050613a4460008301846133ff565b92915050565b6000604082019050613a5f600083018561340e565b613a6c602083018461340e565b9392505050565b60008083356001602003843603038112613a8c57600080fd5b80840192508235915067ffffffffffffffff821115613aaa57600080fd5b602083019250600182023603831315613ac257600080fd5b509250929050565b60008083356001602003843603038112613ae357600080fd5b80840192508235915067ffffffffffffffff821115613b0157600080fd5b602083019250600182023603831315613b1957600080fd5b509250929050565b6000613b2b613b3c565b9050613b378282613e26565b919050565b6000604051905090565b600067ffffffffffffffff821115613b6157613b60613e90565b5b613b6a82613ebf565b9050602081019050919050565b600081519050919050565b600081905092915050565b600082825260208201905092915050565b600081905092915050565b6000613bb482613d01565b9150613bbf83613d01565b9250827fffffffffffffffffffffffffffffffffffffffffffffffffffffffffffffffff03821115613bf457613bf3613e61565b5b828201905092915050565b6000613c0a82613d01565b9150613c1583613d01565b9250817fffffffffffffffffffffffffffffffffffffffffffffffffffffffffffffffff0483118215151615613c4e57613c4d613e61565b5b828202905092915050565b6000613c6482613d01565b9150613c6f83613d01565b925082821015613c8257613c81613e61565b5b828203905092915050565b6000613c9882613ce1565b9050919050565b60008115159050919050565b6000819050919050565b60007fffffffff0000000000000000000000000000000000000000000000000000000082169050919050565b600073ffffffffffffffffffffffffffffffffffffffff82169050919050565b6000819050919050565b600060ff82169050919050565b6000613d2382613d96565b9050919050565b6000613d3582613d3c565b9050919050565b6000613d4782613ce1565b9050919050565b6000613d5982613d60565b9050919050565b6000613d6b82613ce1565b9050919050565b6000613d7d82613d84565b9050919050565b6000613d8f82613ce1565b9050919050565b6000613da182613da8565b9050919050565b6000613db382613ce1565b9050919050565b82818337600083830152505050565b60005b83811015613de7578082015181840152602081019050613dcc565b83811115613df6576000848401525b50505050565b6000613e0782613d01565b91506000821415613e1b57613e1a613e61565b5b600182039050919050565b613e2f82613ebf565b810181811067ffffffffffffffff82111715613e4e57613e4d613e90565b5b80604052505050565b6000819050919050565b7f4e487b7100000000000000000000000000000000000000000000000000000000600052601160045260246000fd5b7f4e487b7100000000000000000000000000000000000000000000000000000000600052604160045260246000fd5b6000601f19601f8301169050919050565b7f45434453413a20696e76616c6964207369676e61747572650000000000000000600082015250565b7f537472696e67733a20686578206c656e67746820696e73756666696369656e74600082015250565b7f45434453413a20696e76616c6964207369676e6174757265206c656e67746800600082015250565b7f4f776e61626c653a206e6577206f776e657220697320746865207a65726f206160008201527f6464726573730000000000000000000000000000000000000000000000000000602082015250565b7f1901000000000000000000000000000000000000000000000000000000000000600082015250565b7f4e465420636f756c64206e6f74206265206d696e746564000000000000000000600082015250565b7f45434453413a20696e76616c6964207369676e6174757265202773272076616c60008201527f7565000000000000000000000000000000000000000000000000000000000000602082015250565b7f5369676e6174757265206e6f742076616c696400000000000000000000000000600082015250565b7f45434453413a20696e76616c6964207369676e6174757265202776272076616c60008201527f7565000000000000000000000000000000000000000000000000000000000000602082015250565b7f4e6f20616d6f756e74206265696e67207472616e736665727265640000000000600082015250565b7f496e73756666696369656e742066756e647320746f2072656465656d00000000600082015250565b7f4f776e61626c653a2063616c6c6572206973206e6f7420746865206f776e6572600082015250565b7f5369676e617475726520696e76616c6964206f7220756e617574686f72697a6560008201527f6400000000000000000000000000000000000000000000000000000000000000602082015250565b7f416363657373436f6e74726f6c3a206163636f756e7420000000000000000000600082015250565b7f5265656e7472616e637947756172643a207265656e7472616e742063616c6c00600082015250565b7f206973206d697373696e6720726f6c6520000000000000000000000000000000600082015250565b7f416363657373436f6e74726f6c3a2063616e206f6e6c792072656e6f756e636560008201527f20726f6c657320666f722073656c660000000000000000000000000000000000602082015250565b61425081613c8d565b811461425b57600080fd5b50565b61426781613c9f565b811461427257600080fd5b50565b61427e81613cab565b811461428957600080fd5b50565b61429581613cb5565b81146142a057600080fd5b50565b6142ac81613d01565b81146142b757600080fd5b5056fe4a757374207472616e736665727265642061206d61737465722077697468206c6963656e736521556e6c6973744d6574686f64202d2053656c6c436f69756e7420777572646520696e6372656d656e746564556e6c6973744d6574686f64202d2053656c6c436f69756e74207769726420696e6372656d656e746564a2646970667358221220eecdf168bd155fcab4817750d76aaa7d56dd7fcd37b211d2658f8fa8702681e164736f6c63430008040033",
  "linkReferences": {
    "contracts/libs/PercentageUtils.sol": {
      "PercentageUtils": [
        {
          "length": 20,
          "start": 4384
        }
      ]
    }
  },
  "deployedLinkReferences": {
    "contracts/libs/PercentageUtils.sol": {
      "PercentageUtils": [
        {
          "length": 20,
          "start": 2338
        }
      ]
    }
  }
}