{
  "_format": "hh-sol-artifact-1",
  "contractName": "MarketContract",
  "sourceName": "contracts/MarketContract.sol",
  "abi": [
    {
      "inputs": [
        {
          "internalType": "address",
          "name": "_commonUtilsAddress",
          "type": "address"
        }
      ],
      "stateMutability": "nonpayable",
      "type": "constructor"
    },
    {
      "anonymous": false,
      "inputs": [
        {
          "indexed": true,
          "internalType": "address",
          "name": "previousOwner",
          "type": "address"
        },
        {
          "indexed": true,
          "internalType": "address",
          "name": "newOwner",
          "type": "address"
        }
      ],
      "name": "OwnershipTransferred",
      "type": "event"
    },
    {
      "anonymous": false,
      "inputs": [
        {
          "indexed": true,
          "internalType": "bytes32",
          "name": "role",
          "type": "bytes32"
        },
        {
          "indexed": true,
          "internalType": "bytes32",
          "name": "previousAdminRole",
          "type": "bytes32"
        },
        {
          "indexed": true,
          "internalType": "bytes32",
          "name": "newAdminRole",
          "type": "bytes32"
        }
      ],
      "name": "RoleAdminChanged",
      "type": "event"
    },
    {
      "anonymous": false,
      "inputs": [
        {
          "indexed": true,
          "internalType": "bytes32",
          "name": "role",
          "type": "bytes32"
        },
        {
          "indexed": true,
          "internalType": "address",
          "name": "account",
          "type": "address"
        },
        {
          "indexed": true,
          "internalType": "address",
          "name": "sender",
          "type": "address"
        }
      ],
      "name": "RoleGranted",
      "type": "event"
    },
    {
      "anonymous": false,
      "inputs": [
        {
          "indexed": true,
          "internalType": "bytes32",
          "name": "role",
          "type": "bytes32"
        },
        {
          "indexed": true,
          "internalType": "address",
          "name": "account",
          "type": "address"
        },
        {
          "indexed": true,
          "internalType": "address",
          "name": "sender",
          "type": "address"
        }
      ],
      "name": "RoleRevoked",
      "type": "event"
    },
    {
      "anonymous": false,
      "inputs": [
        {
          "indexed": false,
          "internalType": "uint256",
          "name": "tokenId",
          "type": "uint256"
        },
        {
          "indexed": false,
          "internalType": "address",
          "name": "contractAddress",
          "type": "address"
        }
      ],
      "name": "UnlistedNFT",
      "type": "event"
    },
    {
      "anonymous": false,
      "inputs": [
        {
          "indexed": false,
          "internalType": "address",
          "name": "_payee",
          "type": "address"
        },
        {
          "indexed": false,
          "internalType": "uint256",
          "name": "_amount",
          "type": "uint256"
        }
      ],
      "name": "Withdrawal",
      "type": "event"
    },
    {
      "inputs": [],
      "name": "DEFAULT_ADMIN_ROLE",
      "outputs": [
        {
          "internalType": "bytes32",
          "name": "",
          "type": "bytes32"
        }
      ],
      "stateMutability": "view",
      "type": "function"
    },
    {
      "inputs": [],
      "name": "_serviceFees",
      "outputs": [
        {
          "internalType": "uint256",
          "name": "",
          "type": "uint256"
        }
      ],
      "stateMutability": "view",
      "type": "function"
    },
    {
      "inputs": [],
      "name": "commonUtils",
      "outputs": [
        {
          "internalType": "contract ICommonUtils",
          "name": "",
          "type": "address"
        }
      ],
      "stateMutability": "view",
      "type": "function"
    },
    {
      "inputs": [],
      "name": "getChainID",
      "outputs": [
        {
          "internalType": "uint256",
          "name": "",
          "type": "uint256"
        }
      ],
      "stateMutability": "view",
      "type": "function"
    },
    {
      "inputs": [
        {
          "internalType": "bytes32",
          "name": "role",
          "type": "bytes32"
        }
      ],
      "name": "getRoleAdmin",
      "outputs": [
        {
          "internalType": "bytes32",
          "name": "",
          "type": "bytes32"
        }
      ],
      "stateMutability": "view",
      "type": "function"
    },
    {
      "inputs": [
        {
          "internalType": "bytes32",
          "name": "role",
          "type": "bytes32"
        },
        {
          "internalType": "uint256",
          "name": "index",
          "type": "uint256"
        }
      ],
      "name": "getRoleMember",
      "outputs": [
        {
          "internalType": "address",
          "name": "",
          "type": "address"
        }
      ],
      "stateMutability": "view",
      "type": "function"
    },
    {
      "inputs": [
        {
          "internalType": "bytes32",
          "name": "role",
          "type": "bytes32"
        }
      ],
      "name": "getRoleMemberCount",
      "outputs": [
        {
          "internalType": "uint256",
          "name": "",
          "type": "uint256"
        }
      ],
      "stateMutability": "view",
      "type": "function"
    },
    {
      "inputs": [
        {
          "internalType": "address",
          "name": "_ownerAddress",
          "type": "address"
        },
        {
          "internalType": "address",
          "name": "_nftContractAddress",
          "type": "address"
        },
        {
          "internalType": "uint256",
          "name": "_tokenId",
          "type": "uint256"
        }
      ],
      "name": "getSellCount",
      "outputs": [
        {
          "internalType": "uint256",
          "name": "",
          "type": "uint256"
        }
      ],
      "stateMutability": "view",
      "type": "function"
    },
    {
      "inputs": [
        {
          "internalType": "bytes32",
          "name": "role",
          "type": "bytes32"
        },
        {
          "internalType": "address",
          "name": "account",
          "type": "address"
        }
      ],
      "name": "grantRole",
      "outputs": [],
      "stateMutability": "nonpayable",
      "type": "function"
    },
    {
      "inputs": [
        {
          "internalType": "bytes32",
          "name": "role",
          "type": "bytes32"
        },
        {
          "internalType": "address",
          "name": "account",
          "type": "address"
        }
      ],
      "name": "hasRole",
      "outputs": [
        {
          "internalType": "bool",
          "name": "",
          "type": "bool"
        }
      ],
      "stateMutability": "view",
      "type": "function"
    },
    {
      "inputs": [
        {
          "internalType": "address",
          "name": "_nftContractAddress",
          "type": "address"
        },
        {
          "internalType": "uint256",
          "name": "_tokenId",
          "type": "uint256"
        }
      ],
      "name": "incrementSellCount",
      "outputs": [],
      "stateMutability": "nonpayable",
      "type": "function"
    },
    {
      "inputs": [],
      "name": "licensesContract",
      "outputs": [
        {
          "internalType": "contract ILicense",
          "name": "",
          "type": "address"
        }
      ],
      "stateMutability": "view",
      "type": "function"
    },
    {
      "inputs": [],
      "name": "masterContract",
      "outputs": [
        {
          "internalType": "contract IMaster",
          "name": "",
          "type": "address"
        }
      ],
      "stateMutability": "view",
      "type": "function"
    },
    {
      "inputs": [],
      "name": "owner",
      "outputs": [
        {
          "internalType": "address",
          "name": "",
          "type": "address"
        }
      ],
      "stateMutability": "view",
      "type": "function"
    },
    {
      "inputs": [
        {
          "internalType": "address",
          "name": "_buyer",
          "type": "address"
        },
        {
          "internalType": "address",
          "name": "_seller",
          "type": "address"
        },
        {
          "internalType": "uint256",
          "name": "_amountToPurchase",
          "type": "uint256"
        },
        {
          "components": [
            {
              "internalType": "address",
              "name": "nftContractAddress",
              "type": "address"
            },
            {
              "internalType": "uint256",
              "name": "price",
              "type": "uint256"
            },
            {
              "internalType": "uint256",
              "name": "sellCount",
              "type": "uint256"
            },
            {
              "internalType": "string",
              "name": "tokenUri",
              "type": "string"
            },
            {
              "internalType": "uint256",
              "name": "tokenId",
              "type": "uint256"
            },
            {
              "internalType": "uint256",
              "name": "supply",
              "type": "uint256"
            },
            {
              "internalType": "bool",
              "name": "isMaster",
              "type": "bool"
            },
            {
              "internalType": "bytes",
              "name": "signature",
              "type": "bytes"
            },
            {
              "internalType": "string",
              "name": "currency",
              "type": "string"
            }
          ],
          "internalType": "struct MarketContract.NFTVoucher",
          "name": "_mintVoucher",
          "type": "tuple"
        }
      ],
      "name": "redeemItem",
      "outputs": [],
      "stateMutability": "payable",
      "type": "function"
    },
    {
      "inputs": [],
      "name": "renounceOwnership",
      "outputs": [],
      "stateMutability": "nonpayable",
      "type": "function"
    },
    {
      "inputs": [
        {
          "internalType": "bytes32",
          "name": "role",
          "type": "bytes32"
        },
        {
          "internalType": "address",
          "name": "account",
          "type": "address"
        }
      ],
      "name": "renounceRole",
      "outputs": [],
      "stateMutability": "nonpayable",
      "type": "function"
    },
    {
      "inputs": [
        {
          "internalType": "bytes32",
          "name": "role",
          "type": "bytes32"
        },
        {
          "internalType": "address",
          "name": "account",
          "type": "address"
        }
      ],
      "name": "revokeRole",
      "outputs": [],
      "stateMutability": "nonpayable",
      "type": "function"
    },
    {
      "inputs": [
        {
          "internalType": "address",
          "name": "",
          "type": "address"
        },
        {
          "internalType": "address",
          "name": "",
          "type": "address"
        }
      ],
      "name": "sellCounts",
      "outputs": [
        {
          "internalType": "uint256",
          "name": "tokenId",
          "type": "uint256"
        },
        {
          "internalType": "uint256",
          "name": "sellCount",
          "type": "uint256"
        }
      ],
      "stateMutability": "view",
      "type": "function"
    },
    {
      "inputs": [],
      "name": "serviceFees",
      "outputs": [
        {
          "internalType": "uint256",
          "name": "",
          "type": "uint256"
        }
      ],
      "stateMutability": "view",
      "type": "function"
    },
    {
      "inputs": [
        {
          "internalType": "bytes4",
          "name": "interfaceId",
          "type": "bytes4"
        }
      ],
      "name": "supportsInterface",
      "outputs": [
        {
          "internalType": "bool",
          "name": "",
          "type": "bool"
        }
      ],
      "stateMutability": "view",
      "type": "function"
    },
    {
      "inputs": [
        {
          "internalType": "address",
          "name": "newOwner",
          "type": "address"
        }
      ],
      "name": "transferOwnership",
      "outputs": [],
      "stateMutability": "nonpayable",
      "type": "function"
    },
    {
      "inputs": [
        {
          "internalType": "address",
          "name": "_nftContractAddress",
          "type": "address"
        },
        {
          "internalType": "uint256",
          "name": "_tokenId",
          "type": "uint256"
        }
      ],
      "name": "unlistItem",
      "outputs": [],
      "stateMutability": "nonpayable",
      "type": "function"
    },
    {
      "inputs": [
        {
          "internalType": "uint256",
          "name": "_calculatedFees",
          "type": "uint256"
        }
      ],
      "name": "withdrawFees",
      "outputs": [],
      "stateMutability": "payable",
      "type": "function"
    }
  ],
  "bytecode": "0x6101406040523480156200001257600080fd5b5060405162004469380380620044698339818101604052810190620000389190620005c5565b6040518060400160405280600a81526020017f53562d566f7563686572000000000000000000000000000000000000000000008152506040518060400160405280600181526020017f310000000000000000000000000000000000000000000000000000000000000081525060008280519060200120905060008280519060200120905060007f8b73c3c69bb8fe3d512ecc4cf759cc79239f7b179b0ffacaa9a75d522b39400f90508260e081815250508161010081815250504660a081815250506200010d8184846200047a60201b60201c565b608081815250503073ffffffffffffffffffffffffffffffffffffffff1660c08173ffffffffffffffffffffffffffffffffffffffff1660601b815250508061012081815250505050505050620001796200016d620004b660201b60201c565b620004be60201b60201c565b6001600381905550620001916200058460201b60201c565b600460006101000a81548173ffffffffffffffffffffffffffffffffffffffff021916908373ffffffffffffffffffffffffffffffffffffffff160217905550610bb860068190555080600860006101000a81548173ffffffffffffffffffffffffffffffffffffffff021916908373ffffffffffffffffffffffffffffffffffffffff1602179055506000600860009054906101000a900473ffffffffffffffffffffffffffffffffffffffff1673ffffffffffffffffffffffffffffffffffffffff1663824ea29f6040518060400160405280600781526020017f4c6963656e7365000000000000000000000000000000000000000000000000008152506040518263ffffffff1660e01b8152600401620002af9190620006c2565b60206040518083038186803b158015620002c857600080fd5b505afa158015620002dd573d6000803e3d6000fd5b505050506040513d601f19601f82011682018060405250810190620003039190620005c5565b90506000600860009054906101000a900473ffffffffffffffffffffffffffffffffffffffff1673ffffffffffffffffffffffffffffffffffffffff1663824ea29f6040518060400160405280600681526020017f4d617374657200000000000000000000000000000000000000000000000000008152506040518263ffffffff1660e01b8152600401620003999190620006c2565b60206040518083038186803b158015620003b257600080fd5b505afa158015620003c7573d6000803e3d6000fd5b505050506040513d601f19601f82011682018060405250810190620003ed9190620005c5565b905081600960006101000a81548173ffffffffffffffffffffffffffffffffffffffff021916908373ffffffffffffffffffffffffffffffffffffffff16021790555080600a60006101000a81548173ffffffffffffffffffffffffffffffffffffffff021916908373ffffffffffffffffffffffffffffffffffffffff160217905550505050620007ab565b600083838346306040516020016200049795949392919062000665565b6040516020818303038152906040528051906020012090509392505050565b600033905090565b6000600260009054906101000a900473ffffffffffffffffffffffffffffffffffffffff16905081600260006101000a81548173ffffffffffffffffffffffffffffffffffffffff021916908373ffffffffffffffffffffffffffffffffffffffff1602179055508173ffffffffffffffffffffffffffffffffffffffff168173ffffffffffffffffffffffffffffffffffffffff167f8be0079c531659141344cd1fd0a4f28419497f9722a3daafe3b4186f6b6457e060405160405180910390a35050565b6000600260009054906101000a900473ffffffffffffffffffffffffffffffffffffffff16905090565b600081519050620005bf8162000791565b92915050565b600060208284031215620005d857600080fd5b6000620005e884828501620005ae565b91505092915050565b620005fc8162000702565b82525050565b6200060d8162000716565b82525050565b60006200062082620006e6565b6200062c8185620006f1565b93506200063e8185602086016200074a565b620006498162000780565b840191505092915050565b6200065f8162000740565b82525050565b600060a0820190506200067c600083018862000602565b6200068b602083018762000602565b6200069a604083018662000602565b620006a9606083018562000654565b620006b86080830184620005f1565b9695505050505050565b60006020820190508181036000830152620006de818462000613565b905092915050565b600081519050919050565b600082825260208201905092915050565b60006200070f8262000720565b9050919050565b6000819050919050565b600073ffffffffffffffffffffffffffffffffffffffff82169050919050565b6000819050919050565b60005b838110156200076a5780820151818401526020810190506200074d565b838111156200077a576000848401525b50505050565b6000601f19601f8301169050919050565b6200079c8162000702565b8114620007a857600080fd5b50565b60805160a05160c05160601c60e0516101005161012051613c6b620007fe60003960006126f20152600061273401526000612713015260006126480152600061269e015260006126c70152613c6b6000f3fe60806040526004361061014b5760003560e01c80638da5cb5b116100b6578063b776fcf61161006f578063b776fcf614610477578063bf97b9e9146104a2578063ca15c873146104df578063cd446e221461051c578063d547741f14610547578063f2fde38b146105705761014b565b80638da5cb5b146103535780639010d07c1461037e57806391d14854146103bb57806397ed1328146103f857806399bd17e414610423578063a217fddf1461044c5761014b565b8063564b81ef11610108578063564b81ef146102705780635ccd66d81461029b5780635e318e07146102b7578063715018a6146102d357806380857ffa146102ea5780638b5873a8146103155761014b565b806301ffc9a714610150578063248a9ca31461018d5780632f2ff15d146101ca5780633000dab5146101f357806336568abe1461021c5780634457f9bc14610245575b600080fd5b34801561015c57600080fd5b5061017760048036038101906101729190612bf5565b610599565b6040516101849190613176565b60405180910390f35b34801561019957600080fd5b506101b460048036038101906101af9190612b54565b610613565b6040516101c19190613191565b60405180910390f35b3480156101d657600080fd5b506101f160048036038101906101ec9190612b7d565b610632565b005b3480156101ff57600080fd5b5061021a60048036038101906102159190612aef565b61065b565b005b34801561022857600080fd5b50610243600480360381019061023e9190612b7d565b61078c565b005b34801561025157600080fd5b5061025a61080f565b60405161026791906132ad565b60405180910390f35b34801561027c57600080fd5b50610285610835565b6040516102929190613489565b60405180910390f35b6102b560048036038101906102b09190612a74565b610842565b005b6102d160048036038101906102cc9190612c1e565b611038565b005b3480156102df57600080fd5b506102e86110ff565b005b3480156102f657600080fd5b506102ff611187565b60405161030c9190613489565b60405180910390f35b34801561032157600080fd5b5061033c600480360381019061033791906129e9565b611191565b60405161034a9291906134f6565b60405180910390f35b34801561035f57600080fd5b506103686111c2565b604051610375919061304d565b60405180910390f35b34801561038a57600080fd5b506103a560048036038101906103a09190612bb9565b6111ec565b6040516103b2919061304d565b60405180910390f35b3480156103c757600080fd5b506103e260048036038101906103dd9190612b7d565b61121b565b6040516103ef9190613176565b60405180910390f35b34801561040457600080fd5b5061040d611285565b60405161041a9190613292565b60405180910390f35b34801561042f57600080fd5b5061044a60048036038101906104459190612aef565b6112ab565b005b34801561045857600080fd5b506104616112f2565b60405161046e9190613191565b60405180910390f35b34801561048357600080fd5b5061048c6112f9565b6040516104999190613489565b60405180910390f35b3480156104ae57600080fd5b506104c960048036038101906104c49190612a25565b6112ff565b6040516104d69190613489565b60405180910390f35b3480156104eb57600080fd5b5061050660048036038101906105019190612b54565b6114a5565b6040516105139190613489565b60405180910390f35b34801561052857600080fd5b506105316114c9565b60405161053e91906132c8565b60405180910390f35b34801561055357600080fd5b5061056e60048036038101906105699190612b7d565b6114ef565b005b34801561057c57600080fd5b50610597600480360381019061059291906129c0565b611518565b005b60007f5a05180f000000000000000000000000000000000000000000000000000000007bffffffffffffffffffffffffffffffffffffffffffffffffffffffff1916827bffffffffffffffffffffffffffffffffffffffffffffffffffffffff1916148061060c575061060b82611610565b5b9050919050565b6000806000838152602001908152602001600020600101549050919050565b61063b82610613565b61064c8161064761168a565b611692565b610656838361172f565b505050565b806007600061066861168a565b73ffffffffffffffffffffffffffffffffffffffff1673ffffffffffffffffffffffffffffffffffffffff16815260200190815260200160002060008473ffffffffffffffffffffffffffffffffffffffff1673ffffffffffffffffffffffffffffffffffffffff168152602001908152602001600020600001541415610788576001600760006106f761168a565b73ffffffffffffffffffffffffffffffffffffffff1673ffffffffffffffffffffffffffffffffffffffff16815260200190815260200160002060008473ffffffffffffffffffffffffffffffffffffffff1673ffffffffffffffffffffffffffffffffffffffff168152602001908152602001600020600101600082825461078091906135ff565b925050819055505b5050565b61079461168a565b73ffffffffffffffffffffffffffffffffffffffff168173ffffffffffffffffffffffffffffffffffffffff1614610801576040517f08c379a00000000000000000000000000000000000000000000000000000000081526004016107f890613469565b60405180910390fd5b61080b8282611763565b5050565b600960009054906101000a900473ffffffffffffffffffffffffffffffffffffffff1681565b6000804690508091505090565b60026003541415610888576040517f08c379a000000000000000000000000000000000000000000000000000000000815260040161087f90613449565b60405180910390fd5b6002600381905550600061089b82611797565b90508073ffffffffffffffffffffffffffffffffffffffff168473ffffffffffffffffffffffffffffffffffffffff161461090b576040517f08c379a000000000000000000000000000000000000000000000000000000000815260040161090290613429565b60405180910390fd5b6000610915611187565b9050600073__$30982415e8a4a7841dba8c5dcc5d2212fe$__63c5f859608560200135846040518363ffffffff1660e01b81526004016109569291906134cd565b60206040518083038186803b15801561096e57600080fd5b505af4158015610982573d6000803e3d6000fd5b505050506040513d601f19601f820116820180604052508101906109a69190612c47565b90506000600115158560c00160208101906109c19190612b2b565b151514156109e0576109d98560200135836001611809565b90506109f2565b6109ef85602001358388611809565b90505b6000610a07838361184b90919063ffffffff16565b905081341015610a4c576040517f08c379a0000000000000000000000000000000000000000000000000000000008152600401610a43906133e9565b60405180910390fd5b8560800135600760008773ffffffffffffffffffffffffffffffffffffffff1673ffffffffffffffffffffffffffffffffffffffff1681526020019081526020016000206000886000016020810190610aa591906129c0565b73ffffffffffffffffffffffffffffffffffffffff1673ffffffffffffffffffffffffffffffffffffffff16815260200190815260200160002060000154148015610b845750600760008673ffffffffffffffffffffffffffffffffffffffff1673ffffffffffffffffffffffffffffffffffffffff1681526020019081526020016000206000876000016020810190610b3f91906129c0565b73ffffffffffffffffffffffffffffffffffffffff1673ffffffffffffffffffffffffffffffffffffffff168152602001908152602001600020600101548660400135145b610b8d57600080fd5b6000600a60009054906101000a900473ffffffffffffffffffffffffffffffffffffffff1673ffffffffffffffffffffffffffffffffffffffff1663ed310117888060600190610bdd9190613576565b6040518363ffffffff1660e01b8152600401610bfa9291906132e3565b602060405180830381600087803b158015610c1457600080fd5b505af1158015610c28573d6000803e3d6000fd5b505050506040513d601f19601f82011682018060405250810190610c4c9190612c47565b90506000811415610d1f57600a60009054906101000a900473ffffffffffffffffffffffffffffffffffffffff1673ffffffffffffffffffffffffffffffffffffffff166349c031e087898060600190610ca69190613576565b8b60a001356040518563ffffffff1660e01b8152600401610cca949392919061310d565b602060405180830381600087803b158015610ce457600080fd5b505af1158015610cf8573d6000803e3d6000fd5b505050506040513d601f19601f82011682018060405250810190610d1c9190612c47565b90505b6000600115158860c0016020810190610d389190612b2b565b15151415610f6a578673ffffffffffffffffffffffffffffffffffffffff166108fc849081150290604051600060405180830381858888f19350505050158015610d86573d6000803e3d6000fd5b50600a60009054906101000a900473ffffffffffffffffffffffffffffffffffffffff1673ffffffffffffffffffffffffffffffffffffffff1663d84f316e888d856040518463ffffffff1660e01b8152600401610de693929190613091565b600060405180830381600087803b158015610e0057600080fd5b505af1158015610e14573d6000803e3d6000fd5b50505050600960009054906101000a900473ffffffffffffffffffffffffffffffffffffffff1673ffffffffffffffffffffffffffffffffffffffff1662fdd58e88846040518363ffffffff1660e01b8152600401610e7492919061314d565b602060405180830381600087803b158015610e8e57600080fd5b505af1158015610ea2573d6000803e3d6000fd5b505050506040513d601f19601f82011682018060405250810190610ec69190612c47565b9050600960009054906101000a900473ffffffffffffffffffffffffffffffffffffffff1673ffffffffffffffffffffffffffffffffffffffff16635eb9873a888d85856040518563ffffffff1660e01b8152600401610f2994939291906130c8565b600060405180830381600087803b158015610f4357600080fd5b505af1158015610f57573d6000803e3d6000fd5b50505050610f656005611861565b610ffe565b600960009054906101000a900473ffffffffffffffffffffffffffffffffffffffff1673ffffffffffffffffffffffffffffffffffffffff16635eb9873a888d858d6040518563ffffffff1660e01b8152600401610fcb94939291906130c8565b600060405180830381600087803b158015610fe557600080fd5b505af1158015610ff9573d6000803e3d6000fd5b505050505b61101a88600001602081019061101491906129c0565b8361065b565b61102385611038565b50505050505050600160038190555050505050565b600460009054906101000a900473ffffffffffffffffffffffffffffffffffffffff1673ffffffffffffffffffffffffffffffffffffffff166108fc829081150290604051600060405180830381858888f193505050501580156110a0573d6000803e3d6000fd5b507f7fcf532c15f0a6db0bd6d0e038bea71d30d808c7d98cb3bf7268a95bf5081b65600460009054906101000a900473ffffffffffffffffffffffffffffffffffffffff16826040516110f4929190613068565b60405180910390a150565b61110761168a565b73ffffffffffffffffffffffffffffffffffffffff166111256111c2565b73ffffffffffffffffffffffffffffffffffffffff161461117b576040517f08c379a000000000000000000000000000000000000000000000000000000000815260040161117290613409565b60405180910390fd5b6111856000611877565b565b6000600654905090565b6007602052816000526040600020602052806000526040600020600091509150508060000154908060010154905082565b6000600260009054906101000a900473ffffffffffffffffffffffffffffffffffffffff16905090565b6000611213826001600086815260200190815260200160002061193d90919063ffffffff16565b905092915050565b600080600084815260200190815260200160002060000160008373ffffffffffffffffffffffffffffffffffffffff1673ffffffffffffffffffffffffffffffffffffffff16815260200190815260200160002060009054906101000a900460ff16905092915050565b600860009054906101000a900473ffffffffffffffffffffffffffffffffffffffff1681565b6112b5828261065b565b7f772b47775e2d8fcc2c65492d0c873fb247767293ec4784ae743d03e08d8aab9a81836040516112e69291906134a4565b60405180910390a15050565b6000801b81565b60065481565b600080600760008673ffffffffffffffffffffffffffffffffffffffff1673ffffffffffffffffffffffffffffffffffffffff16815260200190815260200160002060008573ffffffffffffffffffffffffffffffffffffffff1673ffffffffffffffffffffffffffffffffffffffff16815260200190815260200160002060000154148061140d575081600760008673ffffffffffffffffffffffffffffffffffffffff1673ffffffffffffffffffffffffffffffffffffffff16815260200190815260200160002060008573ffffffffffffffffffffffffffffffffffffffff1673ffffffffffffffffffffffffffffffffffffffff1681526020019081526020016000206000015414155b1561141b576000905061149e565b600760008573ffffffffffffffffffffffffffffffffffffffff1673ffffffffffffffffffffffffffffffffffffffff16815260200190815260200160002060008473ffffffffffffffffffffffffffffffffffffffff1673ffffffffffffffffffffffffffffffffffffffff1681526020019081526020016000206001015490505b9392505050565b60006114c260016000848152602001908152602001600020611957565b9050919050565b600a60009054906101000a900473ffffffffffffffffffffffffffffffffffffffff1681565b6114f882610613565b6115098161150461168a565b611692565b6115138383611763565b505050565b61152061168a565b73ffffffffffffffffffffffffffffffffffffffff1661153e6111c2565b73ffffffffffffffffffffffffffffffffffffffff1614611594576040517f08c379a000000000000000000000000000000000000000000000000000000000815260040161158b90613409565b60405180910390fd5b600073ffffffffffffffffffffffffffffffffffffffff168173ffffffffffffffffffffffffffffffffffffffff161415611604576040517f08c379a00000000000000000000000000000000000000000000000000000000081526004016115fb90613389565b60405180910390fd5b61160d81611877565b50565b60007f7965db0b000000000000000000000000000000000000000000000000000000007bffffffffffffffffffffffffffffffffffffffffffffffffffffffff1916827bffffffffffffffffffffffffffffffffffffffffffffffffffffffff1916148061168357506116828261196c565b5b9050919050565b600033905090565b61169c828261121b565b61172b576116c18173ffffffffffffffffffffffffffffffffffffffff1660146119d6565b6116cf8360001c60206119d6565b6040516020016116e0929190613013565b6040516020818303038152906040526040517f08c379a00000000000000000000000000000000000000000000000000000000081526004016117229190613307565b60405180910390fd5b5050565b6117398282611cd0565b61175e8160016000858152602001908152602001600020611db090919063ffffffff16565b505050565b61176d8282611de0565b6117928160016000858152602001908152602001600020611ec190919063ffffffff16565b505050565b6000806117a383611ef1565b905061180181848060e001906117b9919061351f565b8080601f016020809104026020016040519081016040528093929190818152602001838380828437600081840152601f19601f82011690508083019250505050505050611f88565b915050919050565b60006118426118218385611faf90919063ffffffff16565b6118348487611faf90919063ffffffff16565b611fc590919063ffffffff16565b90509392505050565b6000818361185991906136af565b905092915050565b6001816000016000828254019250508190555050565b6000600260009054906101000a900473ffffffffffffffffffffffffffffffffffffffff16905081600260006101000a81548173ffffffffffffffffffffffffffffffffffffffff021916908373ffffffffffffffffffffffffffffffffffffffff1602179055508173ffffffffffffffffffffffffffffffffffffffff168173ffffffffffffffffffffffffffffffffffffffff167f8be0079c531659141344cd1fd0a4f28419497f9722a3daafe3b4186f6b6457e060405160405180910390a35050565b600061194c8360000183611fdb565b60001c905092915050565b60006119658260000161202c565b9050919050565b60007f01ffc9a7000000000000000000000000000000000000000000000000000000007bffffffffffffffffffffffffffffffffffffffffffffffffffffffff1916827bffffffffffffffffffffffffffffffffffffffffffffffffffffffff1916149050919050565b6060600060028360026119e99190613655565b6119f391906135ff565b67ffffffffffffffff811115611a32577f4e487b7100000000000000000000000000000000000000000000000000000000600052604160045260246000fd5b6040519080825280601f01601f191660200182016040528015611a645781602001600182028036833780820191505090505b5090507f300000000000000000000000000000000000000000000000000000000000000081600081518110611ac2577f4e487b7100000000000000000000000000000000000000000000000000000000600052603260045260246000fd5b60200101907effffffffffffffffffffffffffffffffffffffffffffffffffffffffffffff1916908160001a9053507f780000000000000000000000000000000000000000000000000000000000000081600181518110611b4c577f4e487b7100000000000000000000000000000000000000000000000000000000600052603260045260246000fd5b60200101907effffffffffffffffffffffffffffffffffffffffffffffffffffffffffffff1916908160001a90535060006001846002611b8c9190613655565b611b9691906135ff565b90505b6001811115611c82577f3031323334353637383961626364656600000000000000000000000000000000600f861660108110611bfe577f4e487b7100000000000000000000000000000000000000000000000000000000600052603260045260246000fd5b1a60f81b828281518110611c3b577f4e487b7100000000000000000000000000000000000000000000000000000000600052603260045260246000fd5b60200101907effffffffffffffffffffffffffffffffffffffffffffffffffffffffffffff1916908160001a905350600485901c945080611c7b90613852565b9050611b99565b5060008414611cc6576040517f08c379a0000000000000000000000000000000000000000000000000000000008152600401611cbd90613349565b60405180910390fd5b8091505092915050565b611cda828261121b565b611dac57600160008084815260200190815260200160002060000160008373ffffffffffffffffffffffffffffffffffffffff1673ffffffffffffffffffffffffffffffffffffffff16815260200190815260200160002060006101000a81548160ff021916908315150217905550611d5161168a565b73ffffffffffffffffffffffffffffffffffffffff168173ffffffffffffffffffffffffffffffffffffffff16837f2f8788117e7eff1d82e926ec794901d17c78024a50270940304540a733656f0d60405160405180910390a45b5050565b6000611dd8836000018373ffffffffffffffffffffffffffffffffffffffff1660001b61203d565b905092915050565b611dea828261121b565b15611ebd57600080600084815260200190815260200160002060000160008373ffffffffffffffffffffffffffffffffffffffff1673ffffffffffffffffffffffffffffffffffffffff16815260200190815260200160002060006101000a81548160ff021916908315150217905550611e6261168a565b73ffffffffffffffffffffffffffffffffffffffff168173ffffffffffffffffffffffffffffffffffffffff16837ff6391f5c32d9c69d2a47ea670b442974b53935d1edc7fd64eb21e047a839171b60405160405180910390a45b5050565b6000611ee9836000018373ffffffffffffffffffffffffffffffffffffffff1660001b6120ad565b905092915050565b6000611f817f6316f9ddd4d59a364f3b95c26bab9d392c3380ace0fff15e91ed76f0d8bcd15a838060600190611f279190613576565b8560200135868060600190611f3c9190613576565b604051611f4a929190612fc3565b6040518091039020604051602001611f669594939291906131ff565b60405160208183030381529060405280519060200120612233565b9050919050565b6000806000611f97858561224d565b91509150611fa4816122d0565b819250505092915050565b60008183611fbd9190613655565b905092915050565b60008183611fd391906135ff565b905092915050565b6000826000018281548110612019577f4e487b7100000000000000000000000000000000000000000000000000000000600052603260045260246000fd5b9060005260206000200154905092915050565b600081600001805490509050919050565b60006120498383612621565b6120a25782600001829080600181540180825580915050600190039060005260206000200160009091909190915055826000018054905083600101600084815260200190815260200160002081905550600190506120a7565b600090505b92915050565b600080836001016000848152602001908152602001600020549050600081146122275760006001826120df91906136af565b90506000600186600001805490506120f791906136af565b90508181146121b257600086600001828154811061213e577f4e487b7100000000000000000000000000000000000000000000000000000000600052603260045260246000fd5b9060005260206000200154905080876000018481548110612188577f4e487b7100000000000000000000000000000000000000000000000000000000600052603260045260246000fd5b90600052602060002001819055508387600101600083815260200190815260200160002081905550505b856000018054806121ec577f4e487b7100000000000000000000000000000000000000000000000000000000600052603160045260246000fd5b60019003818190600052602060002001600090559055856001016000868152602001908152602001600020600090556001935050505061222d565b60009150505b92915050565b6000612246612240612644565b8361275e565b9050919050565b60008060418351141561228f5760008060006020860151925060408601519150606086015160001a905061228387828585612791565b945094505050506122c9565b6040835114156122c05760008060208501519150604085015190506122b586838361289e565b9350935050506122c9565b60006002915091505b9250929050565b6000600481111561230a577f4e487b7100000000000000000000000000000000000000000000000000000000600052602160045260246000fd5b816004811115612343577f4e487b7100000000000000000000000000000000000000000000000000000000600052602160045260246000fd5b141561234e5761261e565b60016004811115612388577f4e487b7100000000000000000000000000000000000000000000000000000000600052602160045260246000fd5b8160048111156123c1577f4e487b7100000000000000000000000000000000000000000000000000000000600052602160045260246000fd5b1415612402576040517f08c379a00000000000000000000000000000000000000000000000000000000081526004016123f990613329565b60405180910390fd5b6002600481111561243c577f4e487b7100000000000000000000000000000000000000000000000000000000600052602160045260246000fd5b816004811115612475577f4e487b7100000000000000000000000000000000000000000000000000000000600052602160045260246000fd5b14156124b6576040517f08c379a00000000000000000000000000000000000000000000000000000000081526004016124ad90613369565b60405180910390fd5b600360048111156124f0577f4e487b7100000000000000000000000000000000000000000000000000000000600052602160045260246000fd5b816004811115612529577f4e487b7100000000000000000000000000000000000000000000000000000000600052602160045260246000fd5b141561256a576040517f08c379a0000000000000000000000000000000000000000000000000000000008152600401612561906133a9565b60405180910390fd5b6004808111156125a3577f4e487b7100000000000000000000000000000000000000000000000000000000600052602160045260246000fd5b8160048111156125dc577f4e487b7100000000000000000000000000000000000000000000000000000000600052602160045260246000fd5b141561261d576040517f08c379a0000000000000000000000000000000000000000000000000000000008152600401612614906133c9565b60405180910390fd5b5b50565b600080836001016000848152602001908152602001600020541415905092915050565b60007f000000000000000000000000000000000000000000000000000000000000000073ffffffffffffffffffffffffffffffffffffffff163073ffffffffffffffffffffffffffffffffffffffff161480156126c057507f000000000000000000000000000000000000000000000000000000000000000046145b156126ed577f0000000000000000000000000000000000000000000000000000000000000000905061275b565b6127587f00000000000000000000000000000000000000000000000000000000000000007f00000000000000000000000000000000000000000000000000000000000000007f00000000000000000000000000000000000000000000000000000000000000006128ec565b90505b90565b60008282604051602001612773929190612fdc565b60405160208183030381529060405280519060200120905092915050565b6000807f7fffffffffffffffffffffffffffffff5d576e7357a4501ddfe92f46681b20a08360001c11156127cc576000600391509150612895565b601b8560ff16141580156127e45750601c8560ff1614155b156127f6576000600491509150612895565b60006001878787876040516000815260200160405260405161281b949392919061324d565b6020604051602081039080840390855afa15801561283d573d6000803e3d6000fd5b505050602060405103519050600073ffffffffffffffffffffffffffffffffffffffff168173ffffffffffffffffffffffffffffffffffffffff16141561288c57600060019250925050612895565b80600092509250505b94509492505050565b6000806000807f7fffffffffffffffffffffffffffffffffffffffffffffffffffffffffffffff85169150601b8560ff1c0190506128de87828885612791565b935093505050935093915050565b600083838346306040516020016129079594939291906131ac565b6040516020818303038152906040528051906020012090509392505050565b60008135905061293581613bc2565b92915050565b60008135905061294a81613bd9565b92915050565b60008135905061295f81613bf0565b92915050565b60008135905061297481613c07565b92915050565b6000610120828403121561298d57600080fd5b81905092915050565b6000813590506129a581613c1e565b92915050565b6000815190506129ba81613c1e565b92915050565b6000602082840312156129d257600080fd5b60006129e084828501612926565b91505092915050565b600080604083850312156129fc57600080fd5b6000612a0a85828601612926565b9250506020612a1b85828601612926565b9150509250929050565b600080600060608486031215612a3a57600080fd5b6000612a4886828701612926565b9350506020612a5986828701612926565b9250506040612a6a86828701612996565b9150509250925092565b60008060008060808587031215612a8a57600080fd5b6000612a9887828801612926565b9450506020612aa987828801612926565b9350506040612aba87828801612996565b925050606085013567ffffffffffffffff811115612ad757600080fd5b612ae38782880161297a565b91505092959194509250565b60008060408385031215612b0257600080fd5b6000612b1085828601612926565b9250506020612b2185828601612996565b9150509250929050565b600060208284031215612b3d57600080fd5b6000612b4b8482850161293b565b91505092915050565b600060208284031215612b6657600080fd5b6000612b7484828501612950565b91505092915050565b60008060408385031215612b9057600080fd5b6000612b9e85828601612950565b9250506020612baf85828601612926565b9150509250929050565b60008060408385031215612bcc57600080fd5b6000612bda85828601612950565b9250506020612beb85828601612996565b9150509250929050565b600060208284031215612c0757600080fd5b6000612c1584828501612965565b91505092915050565b600060208284031215612c3057600080fd5b6000612c3e84828501612996565b91505092915050565b600060208284031215612c5957600080fd5b6000612c67848285016129ab565b91505092915050565b612c798161376e565b82525050565b612c88816136e3565b82525050565b612c97816136f5565b82525050565b612ca681613701565b82525050565b612cbd612cb882613701565b61387c565b82525050565b6000612ccf83856135d8565b9350612cdc838584613810565b82840190509392505050565b612cf181613780565b82525050565b612d00816137a4565b82525050565b612d0f816137c8565b82525050565b6000612d2183856135e3565b9350612d2e838584613810565b612d37836138b5565b840190509392505050565b6000612d4d826135cd565b612d5781856135e3565b9350612d6781856020860161381f565b612d70816138b5565b840191505092915050565b6000612d86826135cd565b612d9081856135f4565b9350612da081856020860161381f565b80840191505092915050565b6000612db96018836135e3565b9150612dc4826138c6565b602082019050919050565b6000612ddc6020836135e3565b9150612de7826138ef565b602082019050919050565b6000612dff601f836135e3565b9150612e0a82613918565b602082019050919050565b6000612e226026836135e3565b9150612e2d82613941565b604082019050919050565b6000612e456002836135f4565b9150612e5082613990565b600282019050919050565b6000612e686022836135e3565b9150612e73826139b9565b604082019050919050565b6000612e8b6022836135e3565b9150612e9682613a08565b604082019050919050565b6000612eae601c836135e3565b9150612eb982613a57565b602082019050919050565b6000612ed16020836135e3565b9150612edc82613a80565b602082019050919050565b6000612ef46021836135e3565b9150612eff82613aa9565b604082019050919050565b6000612f176017836135f4565b9150612f2282613af8565b601782019050919050565b6000612f3a601f836135e3565b9150612f4582613b21565b602082019050919050565b6000612f5d6011836135f4565b9150612f6882613b4a565b601182019050919050565b6000612f80602f836135e3565b9150612f8b82613b73565b604082019050919050565b612f9f81613757565b82525050565b612fae81613757565b82525050565b612fbd81613761565b82525050565b6000612fd0828486612cc3565b91508190509392505050565b6000612fe782612e38565b9150612ff38285612cac565b6020820191506130038284612cac565b6020820191508190509392505050565b600061301e82612f0a565b915061302a8285612d7b565b915061303582612f50565b91506130418284612d7b565b91508190509392505050565b60006020820190506130626000830184612c7f565b92915050565b600060408201905061307d6000830185612c70565b61308a6020830184612f96565b9392505050565b60006060820190506130a66000830186612c7f565b6130b36020830185612c7f565b6130c06040830184612f96565b949350505050565b60006080820190506130dd6000830187612c7f565b6130ea6020830186612c7f565b6130f76040830185612f96565b6131046060830184612f96565b95945050505050565b60006060820190506131226000830187612c7f565b8181036020830152613135818587612d15565b90506131446040830184612f96565b95945050505050565b60006040820190506131626000830185612c7f565b61316f6020830184612f96565b9392505050565b600060208201905061318b6000830184612c8e565b92915050565b60006020820190506131a66000830184612c9d565b92915050565b600060a0820190506131c16000830188612c9d565b6131ce6020830187612c9d565b6131db6040830186612c9d565b6131e86060830185612f96565b6131f56080830184612c7f565b9695505050505050565b60006080820190506132146000830188612c9d565b8181036020830152613227818688612d15565b90506132366040830185612f96565b6132436060830184612c9d565b9695505050505050565b60006080820190506132626000830187612c9d565b61326f6020830186612fb4565b61327c6040830185612c9d565b6132896060830184612c9d565b95945050505050565b60006020820190506132a76000830184612ce8565b92915050565b60006020820190506132c26000830184612cf7565b92915050565b60006020820190506132dd6000830184612d06565b92915050565b600060208201905081810360008301526132fe818486612d15565b90509392505050565b600060208201905081810360008301526133218184612d42565b905092915050565b6000602082019050818103600083015261334281612dac565b9050919050565b6000602082019050818103600083015261336281612dcf565b9050919050565b6000602082019050818103600083015261338281612df2565b9050919050565b600060208201905081810360008301526133a281612e15565b9050919050565b600060208201905081810360008301526133c281612e5b565b9050919050565b600060208201905081810360008301526133e281612e7e565b9050919050565b6000602082019050818103600083015261340281612ea1565b9050919050565b6000602082019050818103600083015261342281612ec4565b9050919050565b6000602082019050818103600083015261344281612ee7565b9050919050565b6000602082019050818103600083015261346281612f2d565b9050919050565b6000602082019050818103600083015261348281612f73565b9050919050565b600060208201905061349e6000830184612f96565b92915050565b60006040820190506134b96000830185612f96565b6134c66020830184612c7f565b9392505050565b60006040820190506134e26000830185612fa5565b6134ef6020830184612fa5565b9392505050565b600060408201905061350b6000830185612f96565b6135186020830184612f96565b9392505050565b6000808335600160200384360303811261353857600080fd5b80840192508235915067ffffffffffffffff82111561355657600080fd5b60208301925060018202360383131561356e57600080fd5b509250929050565b6000808335600160200384360303811261358f57600080fd5b80840192508235915067ffffffffffffffff8211156135ad57600080fd5b6020830192506001820236038313156135c557600080fd5b509250929050565b600081519050919050565b600081905092915050565b600082825260208201905092915050565b600081905092915050565b600061360a82613757565b915061361583613757565b9250827fffffffffffffffffffffffffffffffffffffffffffffffffffffffffffffffff0382111561364a57613649613886565b5b828201905092915050565b600061366082613757565b915061366b83613757565b9250817fffffffffffffffffffffffffffffffffffffffffffffffffffffffffffffffff04831182151516156136a4576136a3613886565b5b828202905092915050565b60006136ba82613757565b91506136c583613757565b9250828210156136d8576136d7613886565b5b828203905092915050565b60006136ee82613737565b9050919050565b60008115159050919050565b6000819050919050565b60007fffffffff0000000000000000000000000000000000000000000000000000000082169050919050565b600073ffffffffffffffffffffffffffffffffffffffff82169050919050565b6000819050919050565b600060ff82169050919050565b6000613779826137ec565b9050919050565b600061378b82613792565b9050919050565b600061379d82613737565b9050919050565b60006137af826137b6565b9050919050565b60006137c182613737565b9050919050565b60006137d3826137da565b9050919050565b60006137e582613737565b9050919050565b60006137f7826137fe565b9050919050565b600061380982613737565b9050919050565b82818337600083830152505050565b60005b8381101561383d578082015181840152602081019050613822565b8381111561384c576000848401525b50505050565b600061385d82613757565b9150600082141561387157613870613886565b5b600182039050919050565b6000819050919050565b7f4e487b7100000000000000000000000000000000000000000000000000000000600052601160045260246000fd5b6000601f19601f8301169050919050565b7f45434453413a20696e76616c6964207369676e61747572650000000000000000600082015250565b7f537472696e67733a20686578206c656e67746820696e73756666696369656e74600082015250565b7f45434453413a20696e76616c6964207369676e6174757265206c656e67746800600082015250565b7f4f776e61626c653a206e6577206f776e657220697320746865207a65726f206160008201527f6464726573730000000000000000000000000000000000000000000000000000602082015250565b7f1901000000000000000000000000000000000000000000000000000000000000600082015250565b7f45434453413a20696e76616c6964207369676e6174757265202773272076616c60008201527f7565000000000000000000000000000000000000000000000000000000000000602082015250565b7f45434453413a20696e76616c6964207369676e6174757265202776272076616c60008201527f7565000000000000000000000000000000000000000000000000000000000000602082015250565b7f496e73756666696369656e742066756e647320746f2072656465656d00000000600082015250565b7f4f776e61626c653a2063616c6c6572206973206e6f7420746865206f776e6572600082015250565b7f5369676e617475726520696e76616c6964206f7220756e617574686f72697a6560008201527f6400000000000000000000000000000000000000000000000000000000000000602082015250565b7f416363657373436f6e74726f6c3a206163636f756e7420000000000000000000600082015250565b7f5265656e7472616e637947756172643a207265656e7472616e742063616c6c00600082015250565b7f206973206d697373696e6720726f6c6520000000000000000000000000000000600082015250565b7f416363657373436f6e74726f6c3a2063616e206f6e6c792072656e6f756e636560008201527f20726f6c657320666f722073656c660000000000000000000000000000000000602082015250565b613bcb816136e3565b8114613bd657600080fd5b50565b613be2816136f5565b8114613bed57600080fd5b50565b613bf981613701565b8114613c0457600080fd5b50565b613c108161370b565b8114613c1b57600080fd5b50565b613c2781613757565b8114613c3257600080fd5b5056fea2646970667358221220bd610102f39271fd80376e3d8bca492cc30e1d3172cc567efa7086003198d4b064736f6c63430008040033",
  "linkReferences": {
    "contracts/libs/PercentageUtils.sol": {
      "PercentageUtils": [
        {
          "length": 20,
          "start": 4377
        }
      ]
    }
  },
  "deployedLinkReferences": {
    "contracts/libs/PercentageUtils.sol": {
      "PercentageUtils": [
        {
          "length": 20,
          "start": 2331
        }
      ]
    }
  }
}