{
  "_format": "hh-sol-artifact-1",
  "contractName": "MarketContract",
  "sourceName": "contracts/MarketContract.sol",
  "abi": [
    {
      "inputs": [
        {
          "internalType": "address",
          "name": "_commonUtilsAddress",
          "type": "address"
        }
      ],
      "stateMutability": "nonpayable",
      "type": "constructor"
    },
    {
      "anonymous": false,
      "inputs": [
        {
          "indexed": true,
          "internalType": "address",
          "name": "previousOwner",
          "type": "address"
        },
        {
          "indexed": true,
          "internalType": "address",
          "name": "newOwner",
          "type": "address"
        }
      ],
      "name": "OwnershipTransferred",
      "type": "event"
    },
    {
      "anonymous": false,
      "inputs": [
        {
          "indexed": false,
          "internalType": "bytes",
          "name": "signature",
          "type": "bytes"
        },
        {
          "indexed": false,
          "internalType": "address",
          "name": "buyer",
          "type": "address"
        },
        {
          "indexed": false,
          "internalType": "uint256",
          "name": "soldAmount",
          "type": "uint256"
        }
      ],
      "name": "RedeemedMintVoucher",
      "type": "event"
    },
    {
      "anonymous": false,
      "inputs": [
        {
          "indexed": false,
          "internalType": "bytes",
          "name": "signature",
          "type": "bytes"
        },
        {
          "indexed": false,
          "internalType": "address",
          "name": "buyer",
          "type": "address"
        },
        {
          "indexed": false,
          "internalType": "uint256",
          "name": "soldAmount",
          "type": "uint256"
        }
      ],
      "name": "RedeemedSaleVoucher",
      "type": "event"
    },
    {
      "anonymous": false,
      "inputs": [
        {
          "indexed": true,
          "internalType": "bytes32",
          "name": "role",
          "type": "bytes32"
        },
        {
          "indexed": true,
          "internalType": "bytes32",
          "name": "previousAdminRole",
          "type": "bytes32"
        },
        {
          "indexed": true,
          "internalType": "bytes32",
          "name": "newAdminRole",
          "type": "bytes32"
        }
      ],
      "name": "RoleAdminChanged",
      "type": "event"
    },
    {
      "anonymous": false,
      "inputs": [
        {
          "indexed": true,
          "internalType": "bytes32",
          "name": "role",
          "type": "bytes32"
        },
        {
          "indexed": true,
          "internalType": "address",
          "name": "account",
          "type": "address"
        },
        {
          "indexed": true,
          "internalType": "address",
          "name": "sender",
          "type": "address"
        }
      ],
      "name": "RoleGranted",
      "type": "event"
    },
    {
      "anonymous": false,
      "inputs": [
        {
          "indexed": true,
          "internalType": "bytes32",
          "name": "role",
          "type": "bytes32"
        },
        {
          "indexed": true,
          "internalType": "address",
          "name": "account",
          "type": "address"
        },
        {
          "indexed": true,
          "internalType": "address",
          "name": "sender",
          "type": "address"
        }
      ],
      "name": "RoleRevoked",
      "type": "event"
    },
    {
      "anonymous": false,
      "inputs": [
        {
          "indexed": false,
          "internalType": "bytes",
          "name": "signature",
          "type": "bytes"
        }
      ],
      "name": "UnlistedNFT",
      "type": "event"
    },
    {
      "anonymous": false,
      "inputs": [
        {
          "indexed": false,
          "internalType": "address",
          "name": "_payee",
          "type": "address"
        },
        {
          "indexed": false,
          "internalType": "uint256",
          "name": "_amount",
          "type": "uint256"
        }
      ],
      "name": "Withdrawal",
      "type": "event"
    },
    {
      "inputs": [],
      "name": "DEFAULT_ADMIN_ROLE",
      "outputs": [
        {
          "internalType": "bytes32",
          "name": "",
          "type": "bytes32"
        }
      ],
      "stateMutability": "view",
      "type": "function"
    },
    {
      "inputs": [
        {
          "internalType": "uint256",
          "name": "_tokenId",
          "type": "uint256"
        },
        {
          "internalType": "uint256",
          "name": "_salePrice",
          "type": "uint256"
        }
      ],
      "name": "_royaltySplitLicense",
      "outputs": [
        {
          "internalType": "uint256",
          "name": "",
          "type": "uint256"
        },
        {
          "internalType": "uint256",
          "name": "",
          "type": "uint256"
        },
        {
          "internalType": "uint256",
          "name": "",
          "type": "uint256"
        }
      ],
      "stateMutability": "view",
      "type": "function"
    },
    {
      "inputs": [
        {
          "internalType": "uint256",
          "name": "_tokenId",
          "type": "uint256"
        },
        {
          "internalType": "uint256",
          "name": "_salePrice",
          "type": "uint256"
        }
      ],
      "name": "_royaltySplitMaster",
      "outputs": [
        {
          "internalType": "uint256",
          "name": "",
          "type": "uint256"
        },
        {
          "internalType": "uint256",
          "name": "",
          "type": "uint256"
        }
      ],
      "stateMutability": "view",
      "type": "function"
    },
    {
      "inputs": [],
      "name": "_serviceFees",
      "outputs": [
        {
          "internalType": "uint256",
          "name": "",
          "type": "uint256"
        }
      ],
      "stateMutability": "view",
      "type": "function"
    },
    {
      "inputs": [],
      "name": "commonUtils",
      "outputs": [
        {
          "internalType": "contract ICommonUtils",
          "name": "",
          "type": "address"
        }
      ],
      "stateMutability": "view",
      "type": "function"
    },
    {
      "inputs": [
        {
          "internalType": "bytes32",
          "name": "role",
          "type": "bytes32"
        }
      ],
      "name": "getRoleAdmin",
      "outputs": [
        {
          "internalType": "bytes32",
          "name": "",
          "type": "bytes32"
        }
      ],
      "stateMutability": "view",
      "type": "function"
    },
    {
      "inputs": [
        {
          "internalType": "bytes32",
          "name": "role",
          "type": "bytes32"
        },
        {
          "internalType": "uint256",
          "name": "index",
          "type": "uint256"
        }
      ],
      "name": "getRoleMember",
      "outputs": [
        {
          "internalType": "address",
          "name": "",
          "type": "address"
        }
      ],
      "stateMutability": "view",
      "type": "function"
    },
    {
      "inputs": [
        {
          "internalType": "bytes32",
          "name": "role",
          "type": "bytes32"
        }
      ],
      "name": "getRoleMemberCount",
      "outputs": [
        {
          "internalType": "uint256",
          "name": "",
          "type": "uint256"
        }
      ],
      "stateMutability": "view",
      "type": "function"
    },
    {
      "inputs": [],
      "name": "getServiceFees",
      "outputs": [
        {
          "internalType": "uint256",
          "name": "",
          "type": "uint256"
        }
      ],
      "stateMutability": "view",
      "type": "function"
    },
    {
      "inputs": [
        {
          "internalType": "bytes32",
          "name": "role",
          "type": "bytes32"
        },
        {
          "internalType": "address",
          "name": "account",
          "type": "address"
        }
      ],
      "name": "grantRole",
      "outputs": [],
      "stateMutability": "nonpayable",
      "type": "function"
    },
    {
      "inputs": [
        {
          "internalType": "bytes32",
          "name": "role",
          "type": "bytes32"
        },
        {
          "internalType": "address",
          "name": "account",
          "type": "address"
        }
      ],
      "name": "hasRole",
      "outputs": [
        {
          "internalType": "bool",
          "name": "",
          "type": "bool"
        }
      ],
      "stateMutability": "view",
      "type": "function"
    },
    {
      "inputs": [
        {
          "internalType": "bytes",
          "name": "",
          "type": "bytes"
        }
      ],
      "name": "isVoucherInvalid",
      "outputs": [
        {
          "internalType": "bool",
          "name": "",
          "type": "bool"
        }
      ],
      "stateMutability": "view",
      "type": "function"
    },
    {
      "inputs": [],
      "name": "licensesContract",
      "outputs": [
        {
          "internalType": "contract ILicense",
          "name": "",
          "type": "address"
        }
      ],
      "stateMutability": "view",
      "type": "function"
    },
    {
      "inputs": [],
      "name": "masterContract",
      "outputs": [
        {
          "internalType": "contract IMaster",
          "name": "",
          "type": "address"
        }
      ],
      "stateMutability": "view",
      "type": "function"
    },
    {
      "inputs": [],
      "name": "owner",
      "outputs": [
        {
          "internalType": "address",
          "name": "",
          "type": "address"
        }
      ],
      "stateMutability": "view",
      "type": "function"
    },
    {
      "inputs": [
        {
          "internalType": "uint256",
          "name": "_amountToPurchase",
          "type": "uint256"
        },
        {
          "components": [
            {
              "internalType": "uint256",
              "name": "price",
              "type": "uint256"
            },
            {
              "internalType": "string",
              "name": "tokenUri",
              "type": "string"
            },
            {
              "internalType": "uint256",
              "name": "supply",
              "type": "uint256"
            },
            {
              "internalType": "uint256",
              "name": "maxSupply",
              "type": "uint256"
            },
            {
              "internalType": "bool",
              "name": "isMaster",
              "type": "bool"
            },
            {
              "internalType": "bytes",
              "name": "signature",
              "type": "bytes"
            },
            {
              "internalType": "string",
              "name": "currency",
              "type": "string"
            },
            {
              "internalType": "uint96",
              "name": "royaltyFeeMaster",
              "type": "uint96"
            },
            {
              "internalType": "uint96",
              "name": "royaltyFeeLicense",
              "type": "uint96"
            },
            {
              "internalType": "uint96",
              "name": "creatorOwnerSplit",
              "type": "uint96"
            },
            {
              "internalType": "uint256",
              "name": "validUntil",
              "type": "uint256"
            }
          ],
          "internalType": "struct MarketContract.MintVoucher",
          "name": "_mintVoucher",
          "type": "tuple"
        }
      ],
      "name": "redeemMintVoucher",
      "outputs": [],
      "stateMutability": "payable",
      "type": "function"
    },
    {
      "inputs": [
        {
          "internalType": "uint256",
          "name": "_amountToPurchase",
          "type": "uint256"
        },
        {
          "components": [
            {
              "internalType": "address",
              "name": "nftContractAddress",
              "type": "address"
            },
            {
              "internalType": "uint256",
              "name": "price",
              "type": "uint256"
            },
            {
              "internalType": "string",
              "name": "tokenUri",
              "type": "string"
            },
            {
              "internalType": "uint256",
              "name": "supply",
              "type": "uint256"
            },
            {
              "internalType": "bool",
              "name": "isMaster",
              "type": "bool"
            },
            {
              "internalType": "bytes",
              "name": "signature",
              "type": "bytes"
            },
            {
              "internalType": "string",
              "name": "currency",
              "type": "string"
            },
            {
              "internalType": "uint256",
              "name": "validUntil",
              "type": "uint256"
            }
          ],
          "internalType": "struct MarketContract.SaleVoucher",
          "name": "_saleVoucher",
          "type": "tuple"
        }
      ],
      "name": "redeemSaleVoucher",
      "outputs": [],
      "stateMutability": "payable",
      "type": "function"
    },
    {
      "inputs": [],
      "name": "renounceOwnership",
      "outputs": [],
      "stateMutability": "nonpayable",
      "type": "function"
    },
    {
      "inputs": [
        {
          "internalType": "bytes32",
          "name": "role",
          "type": "bytes32"
        },
        {
          "internalType": "address",
          "name": "account",
          "type": "address"
        }
      ],
      "name": "renounceRole",
      "outputs": [],
      "stateMutability": "nonpayable",
      "type": "function"
    },
    {
      "inputs": [
        {
          "internalType": "bytes32",
          "name": "role",
          "type": "bytes32"
        },
        {
          "internalType": "address",
          "name": "account",
          "type": "address"
        }
      ],
      "name": "revokeRole",
      "outputs": [],
      "stateMutability": "nonpayable",
      "type": "function"
    },
    {
      "inputs": [
        {
          "internalType": "uint256",
          "name": "_tokenId",
          "type": "uint256"
        },
        {
          "internalType": "uint256",
          "name": "_salePrice",
          "type": "uint256"
        }
      ],
      "name": "royaltySplitLicense",
      "outputs": [
        {
          "internalType": "uint256",
          "name": "",
          "type": "uint256"
        },
        {
          "internalType": "uint256",
          "name": "",
          "type": "uint256"
        },
        {
          "internalType": "uint256",
          "name": "",
          "type": "uint256"
        }
      ],
      "stateMutability": "view",
      "type": "function"
    },
    {
      "inputs": [
        {
          "internalType": "uint256",
          "name": "_tokenId",
          "type": "uint256"
        },
        {
          "internalType": "uint256",
          "name": "_salePrice",
          "type": "uint256"
        }
      ],
      "name": "royaltySplitMaster",
      "outputs": [
        {
          "internalType": "uint256",
          "name": "",
          "type": "uint256"
        },
        {
          "internalType": "uint256",
          "name": "",
          "type": "uint256"
        }
      ],
      "stateMutability": "view",
      "type": "function"
    },
    {
      "inputs": [
        {
          "internalType": "bytes4",
          "name": "interfaceId",
          "type": "bytes4"
        }
      ],
      "name": "supportsInterface",
      "outputs": [
        {
          "internalType": "bool",
          "name": "",
          "type": "bool"
        }
      ],
      "stateMutability": "view",
      "type": "function"
    },
    {
      "inputs": [
        {
          "internalType": "address",
          "name": "newOwner",
          "type": "address"
        }
      ],
      "name": "transferOwnership",
      "outputs": [],
      "stateMutability": "nonpayable",
      "type": "function"
    },
    {
      "inputs": [
        {
          "internalType": "bytes",
          "name": "signature",
          "type": "bytes"
        }
      ],
      "name": "unlistItem",
      "outputs": [],
      "stateMutability": "nonpayable",
      "type": "function"
    },
    {
      "inputs": [
        {
          "internalType": "bytes",
          "name": "",
          "type": "bytes"
        }
      ],
      "name": "voucherAmountSold",
      "outputs": [
        {
          "internalType": "uint256",
          "name": "",
          "type": "uint256"
        }
      ],
      "stateMutability": "view",
      "type": "function"
    },
    {
      "inputs": [
        {
          "internalType": "uint256",
          "name": "_calculatedFees",
          "type": "uint256"
        }
      ],
      "name": "withdrawFees",
      "outputs": [],
      "stateMutability": "payable",
      "type": "function"
    }
  ],
  "bytecode": "0x6101406040523480156200001257600080fd5b5060405162003089380380620030898339810160408190526200003591620001cf565b604080518082018252600981526829ab2b37bab1b432b960b91b6020808301918252835180850190945260018452603160f81b908401528151902060e08190527fc89efdaa54c0f20c7adf612882df0950f5a951637e0307cdcb4c672f298b8bc66101008190524660a0529192917f8b73c3c69bb8fe3d512ecc4cf759cc79239f7b179b0ffacaa9a75d522b39400f620001148184846040805160208101859052908101839052606081018290524660808201523060a082015260009060c0016040516020818303038152906040528051906020012090509392505050565b6080523060601b60c05261012052506200013a9250620001349150503390565b6200017d565b6001600355600254600580546001600160a01b039283166001600160a01b031991821617909155610bb86006556009805493909216921691909117905562000201565b600280546001600160a01b038381166001600160a01b0319831681179093556040519116919082907f8be0079c531659141344cd1fd0a4f28419497f9722a3daafe3b4186f6b6457e090600090a35050565b600060208284031215620001e257600080fd5b81516001600160a01b0381168114620001fa57600080fd5b9392505050565b60805160a05160c05160601c60e0516101005161012051612e3562000254600039600061267e015260006126cd015260006126a8015260006126010152600061262b015260006126550152612e356000f3fe60806040526004361061019c5760003560e01c80639010d07c116100ec578063bff76f661161008a578063d547741f11610064578063d547741f146104f5578063d5c4042114610515578063f2fde38b1461052a578063fb9bf2741461054a57600080fd5b8063bff76f661461047a578063ca15c873146104b5578063cd446e22146104d557600080fd5b806399338f02116100c657806399338f021461040f578063a217fddf1461042f578063b02b45a314610444578063b776fcf61461046457600080fd5b80639010d07c146103af57806391d14854146103cf57806397ed1328146103ef57600080fd5b806336568abe116101595780635e318e07116101335780635e318e071461032e5780635f11f29314610341578063715018a61461037c5780638da5cb5b1461039157600080fd5b806336568abe146102c35780634457f9bc146102e35780634b2911271461031b57600080fd5b806301ffc9a7146101a1578063147095a2146101d6578063248a9ca31461021c5780632ddb3ed31461024c5780632f2ff15d1461028157806333dcd338146102a3575b600080fd5b3480156101ad57600080fd5b506101c16101bc366004612841565b61055d565b60405190151581526020015b60405180910390f35b3480156101e257600080fd5b5061020e6101f1366004612881565b805160208183018101805160088252928201919093012091525481565b6040519081526020016101cd565b34801561022857600080fd5b5061020e610237366004612932565b60009081526020819052604090206001015490565b34801561025857600080fd5b5061026c61026736600461294b565b610588565b604080519283526020830191909152016101cd565b34801561028d57600080fd5b506102a161029c366004612982565b6105a1565b005b3480156102af57600080fd5b506102a16102be366004612881565b6105cc565b3480156102cf57600080fd5b506102a16102de366004612982565b610637565b3480156102ef57600080fd5b50600a54610303906001600160a01b031681565b6040516001600160a01b0390911681526020016101cd565b6102a16103293660046129b2565b6106ba565b6102a161033c366004612932565b61096d565b34801561034d57600080fd5b5061036161035c36600461294b565b6109eb565b604080519384526020840192909252908201526060016101cd565b34801561038857600080fd5b506102a1610ab2565b34801561039d57600080fd5b506002546001600160a01b0316610303565b3480156103bb57600080fd5b506103036103ca36600461294b565b610b18565b3480156103db57600080fd5b506101c16103ea366004612982565b610b37565b3480156103fb57600080fd5b50600954610303906001600160a01b031681565b34801561041b57600080fd5b5061026c61042a36600461294b565b610b60565b34801561043b57600080fd5b5061020e600081565b34801561045057600080fd5b5061036161045f36600461294b565b610be3565b34801561047057600080fd5b5061020e60065481565b34801561048657600080fd5b506101c1610495366004612881565b805160208183018101805160078252928201919093012091525460ff1681565b3480156104c157600080fd5b5061020e6104d0366004612932565b610bff565b3480156104e157600080fd5b50600b54610303906001600160a01b031681565b34801561050157600080fd5b506102a1610510366004612982565b610c16565b34801561052157600080fd5b5060065461020e565b34801561053657600080fd5b506102a16105453660046129f6565b610c3c565b6102a1610558366004612a13565b610d07565b60006001600160e01b03198216635a05180f60e01b1480610582575061058282610f7c565b92915050565b6000806105958484610b60565b915091505b9250929050565b6000828152602081905260409020600101546105bd8133610fb1565b6105c78383611015565b505050565b60006007826040516105de9190612a83565b908152604051908190036020018120805492151560ff19909316929092179091557f792349368881b516427610336187f9923d5ad453756de45272fd927026b815dc9061062c908390612acb565b60405180910390a150565b6001600160a01b03811633146106ac5760405162461bcd60e51b815260206004820152602f60248201527f416363657373436f6e74726f6c3a2063616e206f6e6c792072656e6f756e636560448201526e103937b632b9903337b91039b2b63360891b60648201526084015b60405180910390fd5b6106b68282611037565b5050565b6002600354141561070d5760405162461bcd60e51b815260206004820152601f60248201527f5265656e7472616e637947756172643a207265656e7472616e742063616c6c0060448201526064016106a3565b600260035561071c8183611059565b15156001146107655760405162461bcd60e51b815260206004820152601560248201527429b4b3b730ba3ab9329034b99034b73b30b634b21760591b60448201526064016106a3565b61076d6111aa565b600061077882611330565b905033600061078b602085013586611389565b600b549091506000906001600160a01b03166315a2f1206107af6040880188612ade565b6040518363ffffffff1660e01b81526004016107cc929190612b4e565b602060405180830381600087803b1580156107e657600080fd5b505af11580156107fa573d6000803e3d6000fd5b505050506040513d601f19601f8201168201806040525081019061081e9190612b62565b905061083d818486858a61083860a08c0160808d01612b7b565b6113f1565b61087486600861085060a0890189612ade565b60405161085e929190612b9d565b9081526040519081900360200190205490611907565b600861088360a0880188612ade565b604051610891929190612b9d565b90815260405190819003602001902055606085013560086108b560a0880188612ade565b6040516108c3929190612b9d565b908152602001604051809103902054141561091857600060076108e960a0880188612ade565b6040516108f7929190612b9d565b908152604051908190036020019020805491151560ff199092169190911790555b7f2606ed8abefca6d80d0dc5e61b97e042aa9480b717b1c9669c7f107610cb7a0961094660a0870187612ade565b85896040516109589493929190612bad565b60405180910390a15050600160035550505050565b6005546040516001600160a01b039091169082156108fc029083906000818181858888f193505050501580156109a7573d6000803e3d6000fd5b50600554604080516001600160a01b039092168252602082018390527f7fcf532c15f0a6db0bd6d0e038bea71d30d808c7d98cb3bf7268a95bf5081b65910161062c565b6000828152600460209081526040808320815160608101835281546001600160601b038082168352600160601b9091048116948201859052600190920154909116918101919091528291829190829061271090610a489088612bf3565b610a529190612c12565b905060006127106001600160601b031683604001516001600160601b031683610a7b9190612bf3565b610a859190612c12565b90506000610a938383611913565b90506000610aa18985611913565b929a91995091975095505050505050565b6002546001600160a01b03163314610b0c5760405162461bcd60e51b815260206004820181905260248201527f4f776e61626c653a2063616c6c6572206973206e6f7420746865206f776e657260448201526064016106a3565b610b16600061191f565b565b6000828152600160205260408120610b309083611971565b9392505050565b6000918252602082815260408084206001600160a01b0393909316845291905290205460ff1690565b6000828152600460209081526040808320815160608101835281546001600160601b03808216808452600160601b90920481169583019590955260019092015490931691830191909152829190829061271090610bbd9087612bf3565b610bc79190612c12565b90506000610bd58683611913565b919791965090945050505050565b6000806000610bf285856109eb565b9250925092509250925092565b60008181526001602052604081206105829061197d565b600082815260208190526040902060010154610c328133610fb1565b6105c78383611037565b6002546001600160a01b03163314610c965760405162461bcd60e51b815260206004820181905260248201527f4f776e61626c653a2063616c6c6572206973206e6f7420746865206f776e657260448201526064016106a3565b6001600160a01b038116610cfb5760405162461bcd60e51b815260206004820152602660248201527f4f776e61626c653a206e6577206f776e657220697320746865207a65726f206160448201526564647265737360d01b60648201526084016106a3565b610d048161191f565b50565b60026003541415610d5a5760405162461bcd60e51b815260206004820152601f60248201527f5265656e7472616e637947756172643a207265656e7472616e742063616c6c0060448201526064016106a3565b6002600355610d698183611987565b1515600114610db25760405162461bcd60e51b815260206004820152601560248201527429b4b3b730ba3ab9329034b99034b73b30b634b21760591b60448201526064016106a3565b610dba6111aa565b6000610dc582611aab565b9050336000610dd5843586611389565b600b549091506000906001600160a01b03166315a2f120610df96020880188612ade565b6040518363ffffffff1660e01b8152600401610e16929190612b4e565b602060405180830381600087803b158015610e3057600080fd5b505af1158015610e44573d6000803e3d6000fd5b505050506040513d601f19601f82011682018060405250810190610e689190612b62565b905080610e7c57610e798486611ab7565b90505b610e94818486858a61083860a08c0160808d01612b7b565b610ea786600861085060a0890189612ade565b6008610eb660a0880188612ade565b604051610ec4929190612b9d565b9081526040805191829003602001909120919091558501356008610eeb60a0880188612ade565b604051610ef9929190612b9d565b9081526020016040518091039020541415610f4e5760006007610f1f60a0880188612ade565b604051610f2d929190612b9d565b908152604051908190036020019020805491151560ff199092169190911790555b7f7905ccf18196efffc5e9f16cecb955120de52d3e8d2146b9cd7026d23eb9060e61094660a0870187612ade565b60006001600160e01b03198216637965db0b60e01b148061058257506301ffc9a760e01b6001600160e01b0319831614610582565b610fbb8282610b37565b6106b657610fd3816001600160a01b03166014611b91565b610fde836020611b91565b604051602001610fef929190612c34565b60408051601f198184030181529082905262461bcd60e51b82526106a391600401612acb565b61101f8282611d2d565b60008281526001602052604090206105c79082611db1565b6110418282611dc6565b60008281526001602052604090206105c79082611e2b565b6000600761106a60a0850185612ade565b604051611078929190612b9d565b9081526040519081900360200190205460ff16156110cf5760405162461bcd60e51b81526020600482015260146024820152732b37bab1b432b91034b73b30b634b230ba32b21760611b60448201526064016106a3565b428360e00135116111225760405162461bcd60e51b815260206004820152601b60248201527f566f75636865722074696d657374616d702065786365656465642e000000000060448201526064016106a3565b611159600861113460a0860186612ade565b604051611142929190612b9d565b908152604051908190036020019020548390611907565b836060013510156111a15760405162461bcd60e51b81526020600482015260126024820152712737ba1032b737bab3b41039bab838363c9760711b60448201526064016106a3565b50600192915050565b60095460408051808201825260078152664c6963656e736560c81b6020820152905163824ea29f60e01b81526001600160a01b039092169163824ea29f916111f491600401612acb565b60206040518083038186803b15801561120c57600080fd5b505afa158015611220573d6000803e3d6000fd5b505050506040513d601f19601f820116820180604052508101906112449190612ca9565b600c80546001600160a01b0319166001600160a01b03928316179055600954604080518082018252600681526526b0b9ba32b960d11b6020820152905163824ea29f60e01b8152919092169163824ea29f916112a39190600401612acb565b60206040518083038186803b1580156112bb57600080fd5b505afa1580156112cf573d6000803e3d6000fd5b505050506040513d601f19601f820116820180604052508101906112f39190612ca9565b600d80546001600160a01b039283166001600160a01b03199182168117909255600c54600a805483169190941617909255600b8054909216179055565b60008061133c83611e40565b9050610b308161134f60a0860186612ade565b8080601f016020809104026020016040519081016040528093929190818152602001838380828437600092019190915250611f4492505050565b600034816113978585611f68565b9050808210156113e95760405162461bcd60e51b815260206004820152601d60248201527f496e73756666696369656e742066756e647320746f2072656465656d2e00000060448201526064016106a3565b949350505050565b856114355760405162461bcd60e51b81526020600482015260146024820152732a37b5b2b724b21031b0b73737ba10313290181760611b60448201526064016106a3565b6000808080600185151514156116c85761144f8a88610588565b600b54604051631d0abe7360e31b8152600481018e90529295509092506000916001600160a01b039091169063e855f3989060240160206040518083038186803b15801561149c57600080fd5b505afa1580156114b0573d6000803e3d6000fd5b505050506040513d601f19601f820116820180604052508101906114d49190612ca9565b6040519091506001600160a01b0382169085156108fc029086906000818181858888f1935050505015801561150d573d6000803e3d6000fd5b506040516001600160a01b038a169083156108fc029084906000818181858888f19350505050158015611544573d6000803e3d6000fd5b50600b54604051636c2798b760e11b81526001600160a01b038b811660048301528c81166024830152604482018e90529091169063d84f316e90606401600060405180830381600087803b15801561159b57600080fd5b505af11580156115af573d6000803e3d6000fd5b5050600a54604051639fab879760e01b81526001600160a01b039091169250639fab879791506115f9908c908f906004016001600160a01b03929092168252602082015260400190565b602060405180830381600087803b15801561161357600080fd5b505af1158015611627573d6000803e3d6000fd5b505050506040513d601f19601f8201168201806040525081019061164b9190612b62565b600a5460405163b6c2657d60e01b81526001600160a01b038c811660048301528d81166024830152604482018f90526064820184905292975091169063b6c2657d90608401600060405180830381600087803b1580156116aa57600080fd5b505af11580156116be573d6000803e3d6000fd5b50505050506118fb565b6116d28a88610be3565b600a54604051631d0abe7360e31b8152600481018f905293965091945092506000916001600160a01b039091169063e855f3989060240160206040518083038186803b15801561172157600080fd5b505afa158015611735573d6000803e3d6000fd5b505050506040513d601f19601f820116820180604052508101906117599190612ca9565b600b546040516364d4eeab60e01b8152600481018e90529192506000916001600160a01b03909116906364d4eeab9060240160206040518083038186803b1580156117a357600080fd5b505afa1580156117b7573d6000803e3d6000fd5b505050506040513d601f19601f820116820180604052508101906117db9190612ca9565b6040519091506001600160a01b0383169086156108fc029087906000818181858888f19350505050158015611814573d6000803e3d6000fd5b506040516001600160a01b0382169085156108fc029086906000818181858888f1935050505015801561184b573d6000803e3d6000fd5b506040516001600160a01b038b169084156108fc029085906000818181858888f19350505050158015611882573d6000803e3d6000fd5b50600a5460405163b6c2657d60e01b81526001600160a01b038c811660048301528d81166024830152604482018f9052606482018b90529091169063b6c2657d90608401600060405180830381600087803b1580156118e057600080fd5b505af11580156118f4573d6000803e3d6000fd5b5050505050505b50505050505050505050565b6000610b308284612cc6565b6000610b308284612cde565b600280546001600160a01b038381166001600160a01b0319831681179093556040519116919082907f8be0079c531659141344cd1fd0a4f28419497f9722a3daafe3b4186f6b6457e090600090a35050565b6000610b308383611fb7565b6000610582825490565b6000600761199860a0850185612ade565b6040516119a6929190612b9d565b9081526040519081900360200190205460ff16156119fd5760405162461bcd60e51b81526020600482015260146024820152732b37bab1b432b91034b73b30b634b230ba32b21760611b60448201526064016106a3565b4283610140013511611a515760405162461bcd60e51b815260206004820152601b60248201527f566f75636865722074696d657374616d702065786365656465642e000000000060448201526064016106a3565b611a63600861113460a0860186612ade565b836040013510156111a15760405162461bcd60e51b81526020600482015260126024820152712737ba1032b737bab3b41039bab838363c9760711b60448201526064016106a3565b60008061133c83611fe1565b600b5460009081906001600160a01b03166349c031e085611adb6020870187612ade565b87606001356040518563ffffffff1660e01b8152600401611aff9493929190612cf5565b602060405180830381600087803b158015611b1957600080fd5b505af1158015611b2d573d6000803e3d6000fd5b505050506040513d601f19601f82011682018060405250810190611b519190612b62565b9050610b3081611b68610100860160e08701612d2b565b611b7a61012087016101008801612d2b565b611b8c61014088016101208901612d2b565b61210f565b60606000611ba0836002612bf3565b611bab906002612cc6565b67ffffffffffffffff811115611bc357611bc361286b565b6040519080825280601f01601f191660200182016040528015611bed576020820181803683370190505b509050600360fc1b81600081518110611c0857611c08612d54565b60200101906001600160f81b031916908160001a905350600f60fb1b81600181518110611c3757611c37612d54565b60200101906001600160f81b031916908160001a9053506000611c5b846002612bf3565b611c66906001612cc6565b90505b6001811115611cde576f181899199a1a9b1b9c1cb0b131b232b360811b85600f1660108110611c9a57611c9a612d54565b1a60f81b828281518110611cb057611cb0612d54565b60200101906001600160f81b031916908160001a90535060049490941c93611cd781612d6a565b9050611c69565b508315610b305760405162461bcd60e51b815260206004820181905260248201527f537472696e67733a20686578206c656e67746820696e73756666696369656e7460448201526064016106a3565b611d378282610b37565b6106b6576000828152602081815260408083206001600160a01b03851684529091529020805460ff19166001179055611d6d3390565b6001600160a01b0316816001600160a01b0316837f2f8788117e7eff1d82e926ec794901d17c78024a50270940304540a733656f0d60405160405180910390a45050565b6000610b30836001600160a01b038416612121565b611dd08282610b37565b156106b6576000828152602081815260408083206001600160a01b0385168085529252808320805460ff1916905551339285917ff6391f5c32d9c69d2a47ea670b442974b53935d1edc7fd64eb21e047a839171b9190a45050565b6000610b30836001600160a01b038416612170565b60006105827fa34c14bf093fb6d3a8553c9a870279c3e29576cef02cc0a78d3977b035708bd8611e7360208501856129f6565b6020850135611e856040870187612ade565b604051611e93929190612b9d565b6040519081900390206060870135611eb160a0890160808a01612b7b565b611ebe60c08a018a612ade565b604051611ecc929190612b9d565b604051908190038120611f299796959493929160e08c0135906020019788526001600160a01b03969096166020880152604087019490945260608601929092526080850152151560a084015260c083015260e08201526101000190565b60405160208183030381529060405280519060200120612263565b6000806000611f5385856122b1565b91509150611f608161231e565b509392505050565b600080611f7460065490565b90506000611f8f620186a0611f8987856124d9565b906124e5565b9050611fae611f9e82866124d9565b611fa887876124d9565b90611907565b95945050505050565b6000826000018281548110611fce57611fce612d54565b9060005260206000200154905092915050565b60006105827fc59ccd1a3aef5526abeea7256522b9550fbae5cab94665fd4fab0198c430994e83356120166020860186612ade565b604051612024929190612b9d565b6040518091039020856040013586606001358760800160208101906120499190612b7b565b61205660c08a018a612ade565b604051612064929190612b9d565b60405190819003902061207e6101008b0160e08c01612d2b565b6120906101208c016101008d01612d2b565b6120a26101408d016101208e01612d2b565b60408051602081019b909b528a01989098526060890196909652608088019490945260a0870192909252151560c086015260e08501526001600160601b03908116610100850152908116610120840152166101408281019190915284013561016082015261018001611f29565b61211b848484846124f1565b50505050565b600081815260018301602052604081205461216857508154600181810184556000848152602080822090930184905584548482528286019093526040902091909155610582565b506000610582565b60008181526001830160205260408120548015612259576000612194600183612cde565b85549091506000906121a890600190612cde565b905081811461220d5760008660000182815481106121c8576121c8612d54565b90600052602060002001549050808760000184815481106121eb576121eb612d54565b6000918252602080832090910192909255918252600188019052604090208390555b855486908061221e5761221e612d81565b600190038181906000526020600020016000905590558560010160008681526020019081526020016000206000905560019350505050610582565b6000915050610582565b60006105826122706125f4565b8360405161190160f01b6020820152602281018390526042810182905260009060620160405160208183030381529060405280519060200120905092915050565b6000808251604114156122e85760208301516040840151606085015160001a6122dc8782858561271b565b9450945050505061059a565b8251604014156123125760208301516040840151612307868383612808565b93509350505061059a565b5060009050600261059a565b600081600481111561233257612332612d97565b141561233b5750565b600181600481111561234f5761234f612d97565b141561239d5760405162461bcd60e51b815260206004820152601860248201527f45434453413a20696e76616c6964207369676e6174757265000000000000000060448201526064016106a3565b60028160048111156123b1576123b1612d97565b14156123ff5760405162461bcd60e51b815260206004820152601f60248201527f45434453413a20696e76616c6964207369676e6174757265206c656e6774680060448201526064016106a3565b600381600481111561241357612413612d97565b141561246c5760405162461bcd60e51b815260206004820152602260248201527f45434453413a20696e76616c6964207369676e6174757265202773272076616c604482015261756560f01b60648201526084016106a3565b600481600481111561248057612480612d97565b1415610d045760405162461bcd60e51b815260206004820152602260248201527f45434453413a20696e76616c6964207369676e6174757265202776272076616c604482015261756560f01b60648201526084016106a3565b6000610b308284612bf3565b6000610b308284612c12565b6127106001600160601b038416111561251c5760405162461bcd60e51b81526004016106a390612dad565b6127106001600160601b03831611156125475760405162461bcd60e51b81526004016106a390612dad565b6127106001600160601b03821611156125725760405162461bcd60e51b81526004016106a390612dad565b604080516060810182526001600160601b03948516815292841660208085019182529285168483019081526000968752600490935294209151825494518416600160601b026001600160c01b031990951690841617939093178155915160019092018054929091166bffffffffffffffffffffffff1992909216919091179055565b6000306001600160a01b037f00000000000000000000000000000000000000000000000000000000000000001614801561264d57507f000000000000000000000000000000000000000000000000000000000000000046145b1561267757507f000000000000000000000000000000000000000000000000000000000000000090565b50604080517f00000000000000000000000000000000000000000000000000000000000000006020808301919091527f0000000000000000000000000000000000000000000000000000000000000000828401527f000000000000000000000000000000000000000000000000000000000000000060608301524660808301523060a0808401919091528351808403909101815260c0909201909252805191012090565b6000807f7fffffffffffffffffffffffffffffff5d576e7357a4501ddfe92f46681b20a083111561275257506000905060036127ff565b8460ff16601b1415801561276a57508460ff16601c14155b1561277b57506000905060046127ff565b6040805160008082526020820180845289905260ff881692820192909252606081018690526080810185905260019060a0016020604051602081039080840390855afa1580156127cf573d6000803e3d6000fd5b5050604051601f1901519150506001600160a01b0381166127f8576000600192509250506127ff565b9150600090505b94509492505050565b6000806001600160ff1b0383168161282560ff86901c601b612cc6565b90506128338782888561271b565b935093505050935093915050565b60006020828403121561285357600080fd5b81356001600160e01b031981168114610b3057600080fd5b634e487b7160e01b600052604160045260246000fd5b60006020828403121561289357600080fd5b813567ffffffffffffffff808211156128ab57600080fd5b818401915084601f8301126128bf57600080fd5b8135818111156128d1576128d161286b565b604051601f8201601f19908116603f011681019083821181831017156128f9576128f961286b565b8160405282815287602084870101111561291257600080fd5b826020860160208301376000928101602001929092525095945050505050565b60006020828403121561294457600080fd5b5035919050565b6000806040838503121561295e57600080fd5b50508035926020909101359150565b6001600160a01b0381168114610d0457600080fd5b6000806040838503121561299557600080fd5b8235915060208301356129a78161296d565b809150509250929050565b600080604083850312156129c557600080fd5b82359150602083013567ffffffffffffffff8111156129e357600080fd5b830161010081860312156129a757600080fd5b600060208284031215612a0857600080fd5b8135610b308161296d565b60008060408385031215612a2657600080fd5b82359150602083013567ffffffffffffffff811115612a4457600080fd5b830161016081860312156129a757600080fd5b60005b83811015612a72578181015183820152602001612a5a565b8381111561211b5750506000910152565b60008251612a95818460208701612a57565b9190910192915050565b60008151808452612ab7816020860160208601612a57565b601f01601f19169290920160200192915050565b602081526000610b306020830184612a9f565b6000808335601e19843603018112612af557600080fd5b83018035915067ffffffffffffffff821115612b1057600080fd5b60200191503681900382131561059a57600080fd5b81835281816020850137506000828201602090810191909152601f909101601f19169091010190565b6020815260006113e9602083018486612b25565b600060208284031215612b7457600080fd5b5051919050565b600060208284031215612b8d57600080fd5b81358015158114610b3057600080fd5b8183823760009101908152919050565b606081526000612bc1606083018688612b25565b6001600160a01b03949094166020830152506040015292915050565b634e487b7160e01b600052601160045260246000fd5b6000816000190483118215151615612c0d57612c0d612bdd565b500290565b600082612c2f57634e487b7160e01b600052601260045260246000fd5b500490565b7f416363657373436f6e74726f6c3a206163636f756e7420000000000000000000815260008351612c6c816017850160208801612a57565b7001034b99036b4b9b9b4b733903937b6329607d1b6017918401918201528351612c9d816028840160208801612a57565b01602801949350505050565b600060208284031215612cbb57600080fd5b8151610b308161296d565b60008219821115612cd957612cd9612bdd565b500190565b600082821015612cf057612cf0612bdd565b500390565b6001600160a01b0385168152606060208201819052600090612d1a9083018587612b25565b905082604083015295945050505050565b600060208284031215612d3d57600080fd5b81356001600160601b0381168114610b3057600080fd5b634e487b7160e01b600052603260045260246000fd5b600081612d7957612d79612bdd565b506000190190565b634e487b7160e01b600052603160045260246000fd5b634e487b7160e01b600052602160045260246000fd5b60208082526032908201527f526f79616c74794d616e616765723a20726f79616c746965732063616e6e6f74604082015271206265206d6f7265207468656e203130302560701b60608201526080019056fea2646970667358221220c627e723f0d92fa41154227a23e907bd2faa7b86f68662a738547e7f63a879de64736f6c63430008080033",
  "linkReferences": {},
  "deployedLinkReferences": {}
}