{
  "_format": "hh-sol-artifact-1",
  "contractName": "MarketContract",
  "sourceName": "contracts/MarketContract.sol",
  "abi": [
    {
      "inputs": [
        {
          "internalType": "address",
          "name": "_commonUtilsAddress",
          "type": "address"
        }
      ],
      "stateMutability": "nonpayable",
      "type": "constructor"
    },
    {
      "anonymous": false,
      "inputs": [
        {
          "indexed": true,
          "internalType": "address",
          "name": "previousOwner",
          "type": "address"
        },
        {
          "indexed": true,
          "internalType": "address",
          "name": "newOwner",
          "type": "address"
        }
      ],
      "name": "OwnershipTransferred",
      "type": "event"
    },
    {
      "anonymous": false,
      "inputs": [
        {
          "indexed": false,
          "internalType": "bytes",
          "name": "signature",
          "type": "bytes"
        },
        {
          "indexed": false,
          "internalType": "address",
          "name": "buyer",
          "type": "address"
        },
        {
          "indexed": false,
          "internalType": "uint256",
          "name": "soldAmount",
          "type": "uint256"
        }
      ],
      "name": "RedeemedMintVoucher",
      "type": "event"
    },
    {
      "anonymous": false,
      "inputs": [
        {
          "indexed": false,
          "internalType": "bytes",
          "name": "signature",
          "type": "bytes"
        },
        {
          "indexed": false,
          "internalType": "address",
          "name": "buyer",
          "type": "address"
        },
        {
          "indexed": false,
          "internalType": "uint256",
          "name": "soldAmount",
          "type": "uint256"
        }
      ],
      "name": "RedeemedSaleVoucher",
      "type": "event"
    },
    {
      "anonymous": false,
      "inputs": [
        {
          "indexed": true,
          "internalType": "bytes32",
          "name": "role",
          "type": "bytes32"
        },
        {
          "indexed": true,
          "internalType": "bytes32",
          "name": "previousAdminRole",
          "type": "bytes32"
        },
        {
          "indexed": true,
          "internalType": "bytes32",
          "name": "newAdminRole",
          "type": "bytes32"
        }
      ],
      "name": "RoleAdminChanged",
      "type": "event"
    },
    {
      "anonymous": false,
      "inputs": [
        {
          "indexed": true,
          "internalType": "bytes32",
          "name": "role",
          "type": "bytes32"
        },
        {
          "indexed": true,
          "internalType": "address",
          "name": "account",
          "type": "address"
        },
        {
          "indexed": true,
          "internalType": "address",
          "name": "sender",
          "type": "address"
        }
      ],
      "name": "RoleGranted",
      "type": "event"
    },
    {
      "anonymous": false,
      "inputs": [
        {
          "indexed": true,
          "internalType": "bytes32",
          "name": "role",
          "type": "bytes32"
        },
        {
          "indexed": true,
          "internalType": "address",
          "name": "account",
          "type": "address"
        },
        {
          "indexed": true,
          "internalType": "address",
          "name": "sender",
          "type": "address"
        }
      ],
      "name": "RoleRevoked",
      "type": "event"
    },
    {
      "anonymous": false,
      "inputs": [
        {
          "indexed": false,
          "internalType": "bytes",
          "name": "signature",
          "type": "bytes"
        }
      ],
      "name": "UnlistedNFT",
      "type": "event"
    },
    {
      "anonymous": false,
      "inputs": [
        {
          "indexed": false,
          "internalType": "address",
          "name": "_payee",
          "type": "address"
        },
        {
          "indexed": false,
          "internalType": "uint256",
          "name": "_amount",
          "type": "uint256"
        }
      ],
      "name": "Withdrawal",
      "type": "event"
    },
    {
      "inputs": [],
      "name": "DEFAULT_ADMIN_ROLE",
      "outputs": [
        {
          "internalType": "bytes32",
          "name": "",
          "type": "bytes32"
        }
      ],
      "stateMutability": "view",
      "type": "function"
    },
    {
      "inputs": [
        {
          "internalType": "uint256",
          "name": "_tokenId",
          "type": "uint256"
        },
        {
          "internalType": "uint256",
          "name": "_salePrice",
          "type": "uint256"
        }
      ],
      "name": "_royaltySplitLicense",
      "outputs": [
        {
          "internalType": "uint256",
          "name": "",
          "type": "uint256"
        },
        {
          "internalType": "uint256",
          "name": "",
          "type": "uint256"
        },
        {
          "internalType": "uint256",
          "name": "",
          "type": "uint256"
        }
      ],
      "stateMutability": "view",
      "type": "function"
    },
    {
      "inputs": [
        {
          "internalType": "uint256",
          "name": "_tokenId",
          "type": "uint256"
        },
        {
          "internalType": "uint256",
          "name": "_salePrice",
          "type": "uint256"
        }
      ],
      "name": "_royaltySplitMaster",
      "outputs": [
        {
          "internalType": "uint256",
          "name": "",
          "type": "uint256"
        },
        {
          "internalType": "uint256",
          "name": "",
          "type": "uint256"
        }
      ],
      "stateMutability": "view",
      "type": "function"
    },
    {
      "inputs": [],
      "name": "_serviceFees",
      "outputs": [
        {
          "internalType": "uint256",
          "name": "",
          "type": "uint256"
        }
      ],
      "stateMutability": "view",
      "type": "function"
    },
    {
      "inputs": [],
      "name": "commonUtils",
      "outputs": [
        {
          "internalType": "contract ICommonUtils",
          "name": "",
          "type": "address"
        }
      ],
      "stateMutability": "view",
      "type": "function"
    },
    {
      "inputs": [
        {
          "internalType": "bytes32",
          "name": "role",
          "type": "bytes32"
        }
      ],
      "name": "getRoleAdmin",
      "outputs": [
        {
          "internalType": "bytes32",
          "name": "",
          "type": "bytes32"
        }
      ],
      "stateMutability": "view",
      "type": "function"
    },
    {
      "inputs": [
        {
          "internalType": "bytes32",
          "name": "role",
          "type": "bytes32"
        },
        {
          "internalType": "uint256",
          "name": "index",
          "type": "uint256"
        }
      ],
      "name": "getRoleMember",
      "outputs": [
        {
          "internalType": "address",
          "name": "",
          "type": "address"
        }
      ],
      "stateMutability": "view",
      "type": "function"
    },
    {
      "inputs": [
        {
          "internalType": "bytes32",
          "name": "role",
          "type": "bytes32"
        }
      ],
      "name": "getRoleMemberCount",
      "outputs": [
        {
          "internalType": "uint256",
          "name": "",
          "type": "uint256"
        }
      ],
      "stateMutability": "view",
      "type": "function"
    },
    {
      "inputs": [],
      "name": "getServiceFees",
      "outputs": [
        {
          "internalType": "uint256",
          "name": "",
          "type": "uint256"
        }
      ],
      "stateMutability": "view",
      "type": "function"
    },
    {
      "inputs": [
        {
          "internalType": "bytes32",
          "name": "role",
          "type": "bytes32"
        },
        {
          "internalType": "address",
          "name": "account",
          "type": "address"
        }
      ],
      "name": "grantRole",
      "outputs": [],
      "stateMutability": "nonpayable",
      "type": "function"
    },
    {
      "inputs": [
        {
          "internalType": "bytes32",
          "name": "role",
          "type": "bytes32"
        },
        {
          "internalType": "address",
          "name": "account",
          "type": "address"
        }
      ],
      "name": "hasRole",
      "outputs": [
        {
          "internalType": "bool",
          "name": "",
          "type": "bool"
        }
      ],
      "stateMutability": "view",
      "type": "function"
    },
    {
      "inputs": [
        {
          "internalType": "bytes",
          "name": "",
          "type": "bytes"
        }
      ],
      "name": "isVoucherInvalid",
      "outputs": [
        {
          "internalType": "bool",
          "name": "",
          "type": "bool"
        }
      ],
      "stateMutability": "view",
      "type": "function"
    },
    {
      "inputs": [],
      "name": "owner",
      "outputs": [
        {
          "internalType": "address",
          "name": "",
          "type": "address"
        }
      ],
      "stateMutability": "view",
      "type": "function"
    },
    {
      "inputs": [
        {
          "internalType": "uint256",
          "name": "_amountToPurchase",
          "type": "uint256"
        },
        {
          "components": [
            {
              "internalType": "uint256",
              "name": "price",
              "type": "uint256"
            },
            {
              "internalType": "string",
              "name": "tokenUri",
              "type": "string"
            },
            {
              "internalType": "uint256",
              "name": "supply",
              "type": "uint256"
            },
            {
              "internalType": "uint256",
              "name": "maxSupply",
              "type": "uint256"
            },
            {
              "internalType": "bool",
              "name": "isMaster",
              "type": "bool"
            },
            {
              "internalType": "bytes",
              "name": "signature",
              "type": "bytes"
            },
            {
              "internalType": "string",
              "name": "currency",
              "type": "string"
            },
            {
              "internalType": "uint96",
              "name": "royaltyFeeMaster",
              "type": "uint96"
            },
            {
              "internalType": "uint96",
              "name": "royaltyFeeLicense",
              "type": "uint96"
            },
            {
              "internalType": "uint96",
              "name": "creatorOwnerSplit",
              "type": "uint96"
            },
            {
              "internalType": "uint256",
              "name": "validUntil",
              "type": "uint256"
            }
          ],
          "internalType": "struct MarketContract.MintVoucher",
          "name": "_mintVoucher",
          "type": "tuple"
        }
      ],
      "name": "redeemMintVoucher",
      "outputs": [],
      "stateMutability": "payable",
      "type": "function"
    },
    {
      "inputs": [
        {
          "internalType": "uint256",
          "name": "_amountToPurchase",
          "type": "uint256"
        },
        {
          "components": [
            {
              "internalType": "address",
              "name": "nftContractAddress",
              "type": "address"
            },
            {
              "internalType": "uint256",
              "name": "price",
              "type": "uint256"
            },
            {
              "internalType": "string",
              "name": "tokenUri",
              "type": "string"
            },
            {
              "internalType": "uint256",
              "name": "supply",
              "type": "uint256"
            },
            {
              "internalType": "bool",
              "name": "isMaster",
              "type": "bool"
            },
            {
              "internalType": "bytes",
              "name": "signature",
              "type": "bytes"
            },
            {
              "internalType": "string",
              "name": "currency",
              "type": "string"
            },
            {
              "internalType": "uint256",
              "name": "validUntil",
              "type": "uint256"
            }
          ],
          "internalType": "struct MarketContract.SaleVoucher",
          "name": "_saleVoucher",
          "type": "tuple"
        }
      ],
      "name": "redeemSaleVoucher",
      "outputs": [],
      "stateMutability": "payable",
      "type": "function"
    },
    {
      "inputs": [],
      "name": "renounceOwnership",
      "outputs": [],
      "stateMutability": "nonpayable",
      "type": "function"
    },
    {
      "inputs": [
        {
          "internalType": "bytes32",
          "name": "role",
          "type": "bytes32"
        },
        {
          "internalType": "address",
          "name": "account",
          "type": "address"
        }
      ],
      "name": "renounceRole",
      "outputs": [],
      "stateMutability": "nonpayable",
      "type": "function"
    },
    {
      "inputs": [
        {
          "internalType": "bytes32",
          "name": "role",
          "type": "bytes32"
        },
        {
          "internalType": "address",
          "name": "account",
          "type": "address"
        }
      ],
      "name": "revokeRole",
      "outputs": [],
      "stateMutability": "nonpayable",
      "type": "function"
    },
    {
      "inputs": [],
      "name": "royaltyManagerAddress",
      "outputs": [
        {
          "internalType": "address",
          "name": "",
          "type": "address"
        }
      ],
      "stateMutability": "view",
      "type": "function"
    },
    {
      "inputs": [
        {
          "internalType": "bytes4",
          "name": "interfaceId",
          "type": "bytes4"
        }
      ],
      "name": "supportsInterface",
      "outputs": [
        {
          "internalType": "bool",
          "name": "",
          "type": "bool"
        }
      ],
      "stateMutability": "view",
      "type": "function"
    },
    {
      "inputs": [
        {
          "internalType": "address",
          "name": "newOwner",
          "type": "address"
        }
      ],
      "name": "transferOwnership",
      "outputs": [],
      "stateMutability": "nonpayable",
      "type": "function"
    },
    {
      "inputs": [
        {
          "internalType": "bytes",
          "name": "signature",
          "type": "bytes"
        }
      ],
      "name": "unlistItem",
      "outputs": [],
      "stateMutability": "nonpayable",
      "type": "function"
    },
    {
      "inputs": [
        {
          "internalType": "bytes",
          "name": "",
          "type": "bytes"
        }
      ],
      "name": "voucherAmountSold",
      "outputs": [
        {
          "internalType": "uint256",
          "name": "",
          "type": "uint256"
        }
      ],
      "stateMutability": "view",
      "type": "function"
    },
    {
      "inputs": [
        {
          "internalType": "uint256",
          "name": "_calculatedFees",
          "type": "uint256"
        }
      ],
      "name": "withdrawFees",
      "outputs": [],
      "stateMutability": "payable",
      "type": "function"
    }
  ],
  "bytecode": "0x6101406040523480156200001257600080fd5b50604051620035223803806200352283398101604081905262000035916200039e565b604080518082018252600981526829ab2b37bab1b432b960b91b6020808301918252835180850190945260018452603160f81b908401528151902060e08190527fc89efdaa54c0f20c7adf612882df0950f5a951637e0307cdcb4c672f298b8bc66101008190524660a0529192917f8b73c3c69bb8fe3d512ecc4cf759cc79239f7b179b0ffacaa9a75d522b39400f620001148184846040805160208101859052908101839052606081018290524660808201523060a082015260009060c0016040516020818303038152906040528051906020012090509392505050565b6080523060601b60c05261012052506200013a9250620001349150503390565b6200033e565b6001600355600254600480546001600160a01b039283166001600160a01b031991821617909155610bb860055560088054909116918316919091179055604051600090620001889062000390565b604051809103906000f080158015620001a5573d6000803e3d6000fd5b50600b80546001600160a01b0319166001600160a01b038381169190911790915560085460408051808201825260078152664c6963656e736560c81b6020820152905163824ea29f60e01b815293945091169163824ea29f916200020c91600401620003ce565b60206040518083038186803b1580156200022557600080fd5b505afa1580156200023a573d6000803e3d6000fd5b505050506040513d601f19601f820116820180604052508101906200026091906200039e565b600980546001600160a01b0319166001600160a01b03928316179055600854604080518082018252600681526526b0b9ba32b960d11b6020820152905163824ea29f60e01b8152919092169163824ea29f91620002c19190600401620003ce565b60206040518083038186803b158015620002da57600080fd5b505afa158015620002ef573d6000803e3d6000fd5b505050506040513d601f19601f820116820180604052508101906200031591906200039e565b600a80546001600160a01b0319166001600160a01b039290921691909117905550620004249050565b600280546001600160a01b038381166001600160a01b0319831681179093556040519116919082907f8be0079c531659141344cd1fd0a4f28419497f9722a3daafe3b4186f6b6457e090600090a35050565b6104b7806200306b83390190565b600060208284031215620003b0578081fd5b81516001600160a01b0381168114620003c7578182fd5b9392505050565b6000602080835283518082850152825b81811015620003fc57858101830151858201604001528201620003de565b818111156200040e5783604083870101525b50601f01601f1916929092016040019392505050565b60805160a05160c05160601c60e0516101005161012051612bf462000477600039600061249a015260006124e9015260006124c40152600061241d01526000612447015260006124710152612bf46000f3fe60806040526004361061014b5760003560e01c806391d14854116100b6578063ca15c8731161006f578063ca15c87314610400578063d547741f14610420578063d5c4042114610440578063e4830c3214610455578063f2fde38b14610475578063fb9bf2741461049557600080fd5b806391d148541461031f57806397ed13281461033f578063a217fddf1461035f578063b02b45a314610374578063b776fcf6146103af578063bff76f66146103c557600080fd5b806336568abe1161010857806336568abe146102725780634b291127146102925780635e318e07146102a5578063715018a6146102b85780638da5cb5b146102cd5780639010d07c146102ff57600080fd5b806301ffc9a714610150578063147095a214610185578063248a9ca3146101cb5780632ddb3ed3146101fb5780632f2ff15d1461023057806333dcd33814610252575b600080fd5b34801561015c57600080fd5b5061017061016b36600461271d565b6104a8565b60405190151581526020015b60405180910390f35b34801561019157600080fd5b506101bd6101a0366004612745565b805160208183018101805160078252928201919093012091525481565b60405190815260200161017c565b3480156101d757600080fd5b506101bd6101e63660046126b5565b60009081526020819052604090206001015490565b34801561020757600080fd5b5061021b6102163660046126fc565b6104d3565b6040805192835260208301919091520161017c565b34801561023c57600080fd5b5061025061024b3660046126cd565b610566565b005b34801561025e57600080fd5b5061025061026d366004612745565b610591565b34801561027e57600080fd5b5061025061028d3660046126cd565b6105fc565b6102506102a0366004612848565b61067f565b6102506102b33660046126b5565b610976565b3480156102c457600080fd5b506102506109f4565b3480156102d957600080fd5b506002546001600160a01b03165b6040516001600160a01b03909116815260200161017c565b34801561030b57600080fd5b506102e761031a3660046126fc565b610a5a565b34801561032b57600080fd5b5061017061033a3660046126cd565b610a79565b34801561034b57600080fd5b506008546102e7906001600160a01b031681565b34801561036b57600080fd5b506101bd600081565b34801561038057600080fd5b5061039461038f3660046126fc565b610aa2565b6040805193845260208401929092529082015260600161017c565b3480156103bb57600080fd5b506101bd60055481565b3480156103d157600080fd5b506101706103e0366004612745565b805160208183018101805160068252928201919093012091525460ff1681565b34801561040c57600080fd5b506101bd61041b3660046126b5565b610b37565b34801561042c57600080fd5b5061025061043b3660046126cd565b610b4e565b34801561044c57600080fd5b506005546101bd565b34801561046157600080fd5b50600b546102e7906001600160a01b031681565b34801561048157600080fd5b5061025061049036600461265d565b610b74565b6102506104a3366004612807565b610c3f565b60006001600160e01b03198216635a05180f60e01b14806104cd57506104cd82610ef8565b92915050565b600b54604051634c99c78160e11b8152600481018490526024810183905260009182916001600160a01b03909116906399338f0290604401604080518083038186803b15801561052257600080fd5b505afa158015610536573d6000803e3d6000fd5b505050506040513d601f19601f8201168201806040525081019061055a9190612889565b915091505b9250929050565b6000828152602081905260409020600101546105828133610f2d565b61058c8383610f91565b505050565b60016006826040516105a39190612965565b908152604051908190036020018120805492151560ff19909316929092179091557f792349368881b516427610336187f9923d5ad453756de45272fd927026b815dc906105f1908390612a5c565b60405180910390a150565b6001600160a01b03811633146106715760405162461bcd60e51b815260206004820152602f60248201527f416363657373436f6e74726f6c3a2063616e206f6e6c792072656e6f756e636560448201526e103937b632b9903337b91039b2b63360891b60648201526084015b60405180910390fd5b61067b8282610fb3565b5050565b600260035414156106d25760405162461bcd60e51b815260206004820152601f60248201527f5265656e7472616e637947756172643a207265656e7472616e742063616c6c006044820152606401610668565b60026003556106e18183610fd5565b151560011461072a5760405162461bcd60e51b815260206004820152601560248201527429b4b3b730ba3ab9329034b99034b73b30b634b21760591b6044820152606401610668565b600061073582611126565b9050336001600160a01b0382168114156107845760405162461bcd60e51b815260206004820152601060248201526f29b2b63632b91034b990313abcb2b91760811b6044820152606401610668565b600061079484602001358661117f565b600a549091506000906001600160a01b03166315a2f1206107b86040880188612a83565b6040518363ffffffff1660e01b81526004016107d5929190612a6f565b602060405180830381600087803b1580156107ef57600080fd5b505af1158015610803573d6000803e3d6000fd5b505050506040513d601f19601f8201168201806040525081019061082791906127ef565b9050610846818486858a61084160a08c0160808d01612695565b6111e7565b61087d86600761085960a0890189612a83565b604051610867929190612955565b90815260405190819003602001902054906116fd565b600761088c60a0880188612a83565b60405161089a929190612955565b90815260405190819003602001902055606085013560076108be60a0880188612a83565b6040516108cc929190612955565b908152602001604051809103902054141561092157600060066108f260a0880188612a83565b604051610900929190612955565b908152604051908190036020019020805491151560ff199092169190911790555b7f2606ed8abefca6d80d0dc5e61b97e042aa9480b717b1c9669c7f107610cb7a0961094f60a0870187612a83565b85896040516109619493929190612a2c565b60405180910390a15050600160035550505050565b6004546040516001600160a01b039091169082156108fc029083906000818181858888f193505050501580156109b0573d6000803e3d6000fd5b50600454604080516001600160a01b039092168252602082018390527f7fcf532c15f0a6db0bd6d0e038bea71d30d808c7d98cb3bf7268a95bf5081b6591016105f1565b6002546001600160a01b03163314610a4e5760405162461bcd60e51b815260206004820181905260248201527f4f776e61626c653a2063616c6c6572206973206e6f7420746865206f776e65726044820152606401610668565b610a586000611709565b565b6000828152600160205260408120610a72908361175b565b9392505050565b6000918252602082815260408084206001600160a01b0393909316845291905290205460ff1690565b600b54604051635f11f29360e01b81526004810184905260248101839052600091829182916001600160a01b031690635f11f2939060440160606040518083038186803b158015610af257600080fd5b505afa158015610b06573d6000803e3d6000fd5b505050506040513d601f19601f82011682018060405250810190610b2a91906128ac565b9250925092509250925092565b60008181526001602052604081206104cd90611767565b600082815260208190526040902060010154610b6a8133610f2d565b61058c8383610fb3565b6002546001600160a01b03163314610bce5760405162461bcd60e51b815260206004820181905260248201527f4f776e61626c653a2063616c6c6572206973206e6f7420746865206f776e65726044820152606401610668565b6001600160a01b038116610c335760405162461bcd60e51b815260206004820152602660248201527f4f776e61626c653a206e6577206f776e657220697320746865207a65726f206160448201526564647265737360d01b6064820152608401610668565b610c3c81611709565b50565b60026003541415610c925760405162461bcd60e51b815260206004820152601f60248201527f5265656e7472616e637947756172643a207265656e7472616e742063616c6c006044820152606401610668565b6002600355610ca18183611771565b1515600114610cea5760405162461bcd60e51b815260206004820152601560248201527429b4b3b730ba3ab9329034b99034b73b30b634b21760591b6044820152606401610668565b6000610cf582611895565b9050336001600160a01b038216811415610d445760405162461bcd60e51b815260206004820152601060248201526f29b2b63632b91034b990313abcb2b91760811b6044820152606401610668565b6000610d5184358661117f565b600a549091506000906001600160a01b03166315a2f120610d756020880188612a83565b6040518363ffffffff1660e01b8152600401610d92929190612a6f565b602060405180830381600087803b158015610dac57600080fd5b505af1158015610dc0573d6000803e3d6000fd5b505050506040513d601f19601f82011682018060405250810190610de491906127ef565b905080610df857610df584866118a1565b90505b610e10818486858a61084160a08c0160808d01612695565b610e2386600761085960a0890189612a83565b6007610e3260a0880188612a83565b604051610e40929190612955565b9081526040805191829003602001909120919091558501356007610e6760a0880188612a83565b604051610e75929190612955565b9081526020016040518091039020541415610eca5760006006610e9b60a0880188612a83565b604051610ea9929190612955565b908152604051908190036020019020805491151560ff199092169190911790555b7f7905ccf18196efffc5e9f16cecb955120de52d3e8d2146b9cd7026d23eb9060e61094f60a0870187612a83565b60006001600160e01b03198216637965db0b60e01b14806104cd57506301ffc9a760e01b6001600160e01b03198316146104cd565b610f378282610a79565b61067b57610f4f816001600160a01b0316601461197b565b610f5a83602061197b565b604051602001610f6b929190612981565b60408051601f198184030181529082905262461bcd60e51b825261066891600401612a5c565b610f9b8282611b5d565b600082815260016020526040902061058c9082611be1565b610fbd8282611bf6565b600082815260016020526040902061058c9082611c5b565b60006006610fe660a0850185612a83565b604051610ff4929190612955565b9081526040519081900360200190205460ff161561104b5760405162461bcd60e51b81526020600482015260146024820152732b37bab1b432b91034b73b30b634b230ba32b21760611b6044820152606401610668565b428360e001351161109e5760405162461bcd60e51b815260206004820152601b60248201527f566f75636865722074696d657374616d702065786365656465642e00000000006044820152606401610668565b6110d560076110b060a0860186612a83565b6040516110be929190612955565b9081526040519081900360200190205483906116fd565b8360600135101561111d5760405162461bcd60e51b81526020600482015260126024820152712737ba1032b737bab3b41039bab838363c9760711b6044820152606401610668565b50600192915050565b60008061113283611c70565b9050610a728161114560a0860186612a83565b8080601f016020809104026020016040519081016040528093929190818152602001838380828437600092019190915250611d7492505050565b6000348161118d8585611d98565b9050808210156111df5760405162461bcd60e51b815260206004820152601d60248201527f496e73756666696369656e742066756e647320746f2072656465656d2e0000006044820152606401610668565b949350505050565b8561122b5760405162461bcd60e51b81526020600482015260146024820152732a37b5b2b724b21031b0b73737ba10313290181760611b6044820152606401610668565b6000808080600185151514156114be576112458a886104d3565b600a54604051631d0abe7360e31b8152600481018e90529295509092506000916001600160a01b039091169063e855f3989060240160206040518083038186803b15801561129257600080fd5b505afa1580156112a6573d6000803e3d6000fd5b505050506040513d601f19601f820116820180604052508101906112ca9190612679565b6040519091506001600160a01b0382169085156108fc029086906000818181858888f19350505050158015611303573d6000803e3d6000fd5b506040516001600160a01b038a169083156108fc029084906000818181858888f1935050505015801561133a573d6000803e3d6000fd5b50600a54604051636c2798b760e11b81526001600160a01b038b811660048301528c81166024830152604482018e90529091169063d84f316e90606401600060405180830381600087803b15801561139157600080fd5b505af11580156113a5573d6000803e3d6000fd5b5050600954604051639fab879760e01b81526001600160a01b039091169250639fab879791506113ef908c908f906004016001600160a01b03929092168252602082015260400190565b602060405180830381600087803b15801561140957600080fd5b505af115801561141d573d6000803e3d6000fd5b505050506040513d601f19601f8201168201806040525081019061144191906127ef565b60095460405163b6c2657d60e01b81526001600160a01b038c811660048301528d81166024830152604482018f90526064820184905292975091169063b6c2657d90608401600060405180830381600087803b1580156114a057600080fd5b505af11580156114b4573d6000803e3d6000fd5b50505050506116f1565b6114c88a88610aa2565b600954604051631d0abe7360e31b8152600481018f905293965091945092506000916001600160a01b039091169063e855f3989060240160206040518083038186803b15801561151757600080fd5b505afa15801561152b573d6000803e3d6000fd5b505050506040513d601f19601f8201168201806040525081019061154f9190612679565b600a546040516364d4eeab60e01b8152600481018e90529192506000916001600160a01b03909116906364d4eeab9060240160206040518083038186803b15801561159957600080fd5b505afa1580156115ad573d6000803e3d6000fd5b505050506040513d601f19601f820116820180604052508101906115d19190612679565b6040519091506001600160a01b0383169086156108fc029087906000818181858888f1935050505015801561160a573d6000803e3d6000fd5b506040516001600160a01b0382169085156108fc029086906000818181858888f19350505050158015611641573d6000803e3d6000fd5b506040516001600160a01b038b169084156108fc029085906000818181858888f19350505050158015611678573d6000803e3d6000fd5b5060095460405163b6c2657d60e01b81526001600160a01b038c811660048301528d81166024830152604482018f9052606482018b90529091169063b6c2657d90608401600060405180830381600087803b1580156116d657600080fd5b505af11580156116ea573d6000803e3d6000fd5b5050505050505b50505050505050505050565b6000610a728284612ac8565b600280546001600160a01b038381166001600160a01b0319831681179093556040519116919082907f8be0079c531659141344cd1fd0a4f28419497f9722a3daafe3b4186f6b6457e090600090a35050565b6000610a728383611de7565b60006104cd825490565b6000600661178260a0850185612a83565b604051611790929190612955565b9081526040519081900360200190205460ff16156117e75760405162461bcd60e51b81526020600482015260146024820152732b37bab1b432b91034b73b30b634b230ba32b21760611b6044820152606401610668565b428361014001351161183b5760405162461bcd60e51b815260206004820152601b60248201527f566f75636865722074696d657374616d702065786365656465642e00000000006044820152606401610668565b61184d60076110b060a0860186612a83565b8360400135101561111d5760405162461bcd60e51b81526020600482015260126024820152712737ba1032b737bab3b41039bab838363c9760711b6044820152606401610668565b60008061113283611e1f565b600a5460009081906001600160a01b03166349c031e0856118c56020870187612a83565b87606001356040518563ffffffff1660e01b81526004016118e994939291906129f6565b602060405180830381600087803b15801561190357600080fd5b505af1158015611917573d6000803e3d6000fd5b505050506040513d601f19601f8201168201806040525081019061193b91906127ef565b9050610a7281611952610100860160e087016128d9565b611964610120870161010088016128d9565b611976610140880161012089016128d9565b611f4d565b6060600061198a836002612b00565b611995906002612ac8565b67ffffffffffffffff8111156119bb57634e487b7160e01b600052604160045260246000fd5b6040519080825280601f01601f1916602001820160405280156119e5576020820181803683370190505b509050600360fc1b81600081518110611a0e57634e487b7160e01b600052603260045260246000fd5b60200101906001600160f81b031916908160001a905350600f60fb1b81600181518110611a4b57634e487b7160e01b600052603260045260246000fd5b60200101906001600160f81b031916908160001a9053506000611a6f846002612b00565b611a7a906001612ac8565b90505b6001811115611b0e576f181899199a1a9b1b9c1cb0b131b232b360811b85600f1660108110611abc57634e487b7160e01b600052603260045260246000fd5b1a60f81b828281518110611ae057634e487b7160e01b600052603260045260246000fd5b60200101906001600160f81b031916908160001a90535060049490941c93611b0781612b66565b9050611a7d565b508315610a725760405162461bcd60e51b815260206004820181905260248201527f537472696e67733a20686578206c656e67746820696e73756666696369656e746044820152606401610668565b611b678282610a79565b61067b576000828152602081815260408083206001600160a01b03851684529091529020805460ff19166001179055611b9d3390565b6001600160a01b0316816001600160a01b0316837f2f8788117e7eff1d82e926ec794901d17c78024a50270940304540a733656f0d60405160405180910390a45050565b6000610a72836001600160a01b038416611fd0565b611c008282610a79565b1561067b576000828152602081815260408083206001600160a01b0385168085529252808320805460ff1916905551339285917ff6391f5c32d9c69d2a47ea670b442974b53935d1edc7fd64eb21e047a839171b9190a45050565b6000610a72836001600160a01b03841661201f565b60006104cd7fa34c14bf093fb6d3a8553c9a870279c3e29576cef02cc0a78d3977b035708bd8611ca3602085018561265d565b6020850135611cb56040870187612a83565b604051611cc3929190612955565b6040519081900390206060870135611ce160a0890160808a01612695565b611cee60c08a018a612a83565b604051611cfc929190612955565b604051908190038120611d599796959493929160e08c0135906020019788526001600160a01b03969096166020880152604087019490945260608601929092526080850152151560a084015260c083015260e08201526101000190565b6040516020818303038152906040528051906020012061213c565b6000806000611d83858561218a565b91509150611d90816121f7565b509392505050565b600080611da460055490565b90506000611dbf620186a0611db987856123f8565b90612404565b9050611dde611dce82866123f8565b611dd887876123f8565b906116fd565b95945050505050565b6000826000018281548110611e0c57634e487b7160e01b600052603260045260246000fd5b9060005260206000200154905092915050565b60006104cd7fc59ccd1a3aef5526abeea7256522b9550fbae5cab94665fd4fab0198c430994e8335611e546020860186612a83565b604051611e62929190612955565b604051809103902085604001358660600135876080016020810190611e879190612695565b611e9460c08a018a612a83565b604051611ea2929190612955565b604051908190039020611ebc6101008b0160e08c016128d9565b611ece6101208c016101008d016128d9565b611ee06101408d016101208e016128d9565b60408051602081019b909b528a01989098526060890196909652608088019490945260a0870192909252151560c086015260e08501526001600160601b03908116610100850152908116610120840152166101408281019190915284013561016082015261018001611d59565b600b54604051632942609560e01b8152600481018690526001600160601b0380861660248301528085166044830152831660648201526001600160a01b0390911690632942609590608401600060405180830381600087803b158015611fb257600080fd5b505af1158015611fc6573d6000803e3d6000fd5b5050505050505050565b6000818152600183016020526040812054612017575081546001818101845560008481526020808220909301849055845484825282860190935260409020919091556104cd565b5060006104cd565b60008181526001830160205260408120548015612132576000612043600183612b1f565b855490915060009061205790600190612b1f565b90508181146120d857600086600001828154811061208557634e487b7160e01b600052603260045260246000fd5b90600052602060002001549050808760000184815481106120b657634e487b7160e01b600052603260045260246000fd5b6000918252602080832090910192909255918252600188019052604090208390555b85548690806120f757634e487b7160e01b600052603160045260246000fd5b6001900381819060005260206000200160009055905585600101600086815260200190815260200160002060009055600193505050506104cd565b60009150506104cd565b60006104cd612149612410565b8360405161190160f01b6020820152602281018390526042810182905260009060620160405160208183030381529060405280519060200120905092915050565b6000808251604114156121c15760208301516040840151606085015160001a6121b587828585612537565b9450945050505061055f565b8251604014156121eb57602083015160408401516121e0868383612624565b93509350505061055f565b5060009050600261055f565b600081600481111561221957634e487b7160e01b600052602160045260246000fd5b14156122225750565b600181600481111561224457634e487b7160e01b600052602160045260246000fd5b14156122925760405162461bcd60e51b815260206004820152601860248201527f45434453413a20696e76616c6964207369676e617475726500000000000000006044820152606401610668565b60028160048111156122b457634e487b7160e01b600052602160045260246000fd5b14156123025760405162461bcd60e51b815260206004820152601f60248201527f45434453413a20696e76616c6964207369676e6174757265206c656e677468006044820152606401610668565b600381600481111561232457634e487b7160e01b600052602160045260246000fd5b141561237d5760405162461bcd60e51b815260206004820152602260248201527f45434453413a20696e76616c6964207369676e6174757265202773272076616c604482015261756560f01b6064820152608401610668565b600481600481111561239f57634e487b7160e01b600052602160045260246000fd5b1415610c3c5760405162461bcd60e51b815260206004820152602260248201527f45434453413a20696e76616c6964207369676e6174757265202776272076616c604482015261756560f01b6064820152608401610668565b6000610a728284612b00565b6000610a728284612ae0565b6000306001600160a01b037f00000000000000000000000000000000000000000000000000000000000000001614801561246957507f000000000000000000000000000000000000000000000000000000000000000046145b1561249357507f000000000000000000000000000000000000000000000000000000000000000090565b50604080517f00000000000000000000000000000000000000000000000000000000000000006020808301919091527f0000000000000000000000000000000000000000000000000000000000000000828401527f000000000000000000000000000000000000000000000000000000000000000060608301524660808301523060a0808401919091528351808403909101815260c0909201909252805191012090565b6000807f7fffffffffffffffffffffffffffffff5d576e7357a4501ddfe92f46681b20a083111561256e575060009050600361261b565b8460ff16601b1415801561258657508460ff16601c14155b15612597575060009050600461261b565b6040805160008082526020820180845289905260ff881692820192909252606081018690526080810185905260019060a0016020604051602081039080840390855afa1580156125eb573d6000803e3d6000fd5b5050604051601f1901519150506001600160a01b0381166126145760006001925092505061261b565b9150600090505b94509492505050565b6000806001600160ff1b0383168161264160ff86901c601b612ac8565b905061264f87828885612537565b935093505050935093915050565b60006020828403121561266e578081fd5b8135610a7281612ba9565b60006020828403121561268a578081fd5b8151610a7281612ba9565b6000602082840312156126a6578081fd5b81358015158114610a72578182fd5b6000602082840312156126c6578081fd5b5035919050565b600080604083850312156126df578081fd5b8235915060208301356126f181612ba9565b809150509250929050565b6000806040838503121561270e578182fd5b50508035926020909101359150565b60006020828403121561272e578081fd5b81356001600160e01b031981168114610a72578182fd5b600060208284031215612756578081fd5b813567ffffffffffffffff8082111561276d578283fd5b818401915084601f830112612780578283fd5b81358181111561279257612792612b93565b604051601f8201601f19908116603f011681019083821181831017156127ba576127ba612b93565b816040528281528760208487010111156127d2578586fd5b826020860160208301379182016020019490945295945050505050565b600060208284031215612800578081fd5b5051919050565b60008060408385031215612819578182fd5b82359150602083013567ffffffffffffffff811115612836578182fd5b830161016081860312156126f1578182fd5b6000806040838503121561285a578182fd5b82359150602083013567ffffffffffffffff811115612877578182fd5b830161010081860312156126f1578182fd5b6000806040838503121561289b578182fd5b505080516020909101519092909150565b6000806000606084860312156128c0578081fd5b8351925060208401519150604084015190509250925092565b6000602082840312156128ea578081fd5b81356001600160601b0381168114610a72578182fd5b81835281816020850137506000828201602090810191909152601f909101601f19169091010190565b60008151808452612941816020860160208601612b36565b601f01601f19169290920160200192915050565b8183823760009101908152919050565b60008251612977818460208701612b36565b9190910192915050565b7f416363657373436f6e74726f6c3a206163636f756e74200000000000000000008152600083516129b9816017850160208801612b36565b7001034b99036b4b9b9b4b733903937b6329607d1b60179184019182015283516129ea816028840160208801612b36565b01602801949350505050565b6001600160a01b0385168152606060208201819052600090612a1b9083018587612900565b905082604083015295945050505050565b606081526000612a40606083018688612900565b6001600160a01b03949094166020830152506040015292915050565b602081526000610a726020830184612929565b6020815260006111df602083018486612900565b6000808335601e19843603018112612a99578283fd5b83018035915067ffffffffffffffff821115612ab3578283fd5b60200191503681900382131561055f57600080fd5b60008219821115612adb57612adb612b7d565b500190565b600082612afb57634e487b7160e01b81526012600452602481fd5b500490565b6000816000190483118215151615612b1a57612b1a612b7d565b500290565b600082821015612b3157612b31612b7d565b500390565b60005b83811015612b51578181015183820152602001612b39565b83811115612b60576000848401525b50505050565b600081612b7557612b75612b7d565b506000190190565b634e487b7160e01b600052601160045260246000fd5b634e487b7160e01b600052604160045260246000fd5b6001600160a01b0381168114610c3c57600080fdfea26469706673582212206eae9126e26389db74197f813dec3f4360601a8ee01bb8f56c134dd68f177d6764736f6c63430008040033608060405234801561001057600080fd5b50610497806100206000396000f3fe608060405234801561001057600080fd5b50600436106100415760003560e01c806329426095146100465780635f11f2931461005b57806399338f021461008e575b600080fd5b610059610054366004610357565b6100b6565b005b61006e610069366004610336565b6101c1565b604080519384526020840192909252908201526060015b60405180910390f35b6100a161009c366004610336565b610286565b60408051928352602083019190915201610085565b6127106001600160601b03841611156100ea5760405162461bcd60e51b81526004016100e1906103a3565b60405180910390fd5b6127106001600160601b03831611156101155760405162461bcd60e51b81526004016100e1906103a3565b6127106001600160601b03821611156101405760405162461bcd60e51b81526004016100e1906103a3565b604080516060810182526001600160601b039485168152928416602080850191825292851684830190815260009687529286905294209151825494518416600160601b026001600160c01b031990951690841617939093178155915160019092018054929091166bffffffffffffffffffffffff1992909216919091179055565b600082815260208181526040808320815160608101835281546001600160601b038082168352600160601b909104811694820185905260019092015490911691810191909152829182919082906127109061021c9088610415565b61022691906103f5565b905060006127106001600160601b031683604001516001600160601b03168361024f9190610415565b61025991906103f5565b905060006102678383610307565b905060006102758985610307565b929a91995091975095505050505050565b600082815260208181526040808320815160608101835281546001600160601b03808216808452600160601b909204811695830195909552600190920154909316918301919091528291908290612710906102e19087610415565b6102eb91906103f5565b905060006102f98683610307565b919791965090945050505050565b60006103138284610434565b9392505050565b80356001600160601b038116811461033157600080fd5b919050565b60008060408385031215610348578182fd5b50508035926020909101359150565b6000806000806080858703121561036c578182fd5b8435935061037c6020860161031a565b925061038a6040860161031a565b91506103986060860161031a565b905092959194509250565b60208082526032908201527f526f79616c74794d616e616765723a20726f79616c746965732063616e6e6f74604082015271206265206d6f7265207468656e203130302560701b606082015260800190565b60008261041057634e487b7160e01b81526012600452602481fd5b500490565b600081600019048311821515161561042f5761042f61044b565b500290565b6000828210156104465761044661044b565b500390565b634e487b7160e01b600052601160045260246000fdfea264697066735822122031e3f9ca092e163b78e124ba36b546e89311597bd855fbb55ead2985504919ae64736f6c63430008040033",
  "linkReferences": {},
  "deployedLinkReferences": {}
}