{
  "_format": "hh-sol-artifact-1",
  "contractName": "Master",
  "sourceName": "contracts/Master.sol",
  "abi": [
    {
      "inputs": [
        {
          "internalType": "address",
          "name": "_commonUtilsAddress",
          "type": "address"
        }
      ],
      "stateMutability": "nonpayable",
      "type": "constructor"
    },
    {
      "anonymous": false,
      "inputs": [
        {
          "indexed": true,
          "internalType": "address",
          "name": "owner",
          "type": "address"
        },
        {
          "indexed": true,
          "internalType": "address",
          "name": "approved",
          "type": "address"
        },
        {
          "indexed": true,
          "internalType": "uint256",
          "name": "tokenId",
          "type": "uint256"
        }
      ],
      "name": "Approval",
      "type": "event"
    },
    {
      "anonymous": false,
      "inputs": [
        {
          "indexed": true,
          "internalType": "address",
          "name": "owner",
          "type": "address"
        },
        {
          "indexed": true,
          "internalType": "address",
          "name": "operator",
          "type": "address"
        },
        {
          "indexed": false,
          "internalType": "bool",
          "name": "approved",
          "type": "bool"
        }
      ],
      "name": "ApprovalForAll",
      "type": "event"
    },
    {
      "anonymous": false,
      "inputs": [
        {
          "indexed": true,
          "internalType": "uint256",
          "name": "id",
          "type": "uint256"
        },
        {
          "indexed": false,
          "internalType": "string",
          "name": "uri",
          "type": "string"
        }
      ],
      "name": "MasterMintEvent",
      "type": "event"
    },
    {
      "anonymous": false,
      "inputs": [
        {
          "indexed": true,
          "internalType": "address",
          "name": "previousOwner",
          "type": "address"
        },
        {
          "indexed": true,
          "internalType": "address",
          "name": "newOwner",
          "type": "address"
        }
      ],
      "name": "OwnershipTransferred",
      "type": "event"
    },
    {
      "anonymous": false,
      "inputs": [
        {
          "indexed": false,
          "internalType": "address",
          "name": "account",
          "type": "address"
        }
      ],
      "name": "Paused",
      "type": "event"
    },
    {
      "anonymous": false,
      "inputs": [
        {
          "indexed": true,
          "internalType": "bytes32",
          "name": "role",
          "type": "bytes32"
        },
        {
          "indexed": true,
          "internalType": "bytes32",
          "name": "previousAdminRole",
          "type": "bytes32"
        },
        {
          "indexed": true,
          "internalType": "bytes32",
          "name": "newAdminRole",
          "type": "bytes32"
        }
      ],
      "name": "RoleAdminChanged",
      "type": "event"
    },
    {
      "anonymous": false,
      "inputs": [
        {
          "indexed": true,
          "internalType": "bytes32",
          "name": "role",
          "type": "bytes32"
        },
        {
          "indexed": true,
          "internalType": "address",
          "name": "account",
          "type": "address"
        },
        {
          "indexed": true,
          "internalType": "address",
          "name": "sender",
          "type": "address"
        }
      ],
      "name": "RoleGranted",
      "type": "event"
    },
    {
      "anonymous": false,
      "inputs": [
        {
          "indexed": true,
          "internalType": "bytes32",
          "name": "role",
          "type": "bytes32"
        },
        {
          "indexed": true,
          "internalType": "address",
          "name": "account",
          "type": "address"
        },
        {
          "indexed": true,
          "internalType": "address",
          "name": "sender",
          "type": "address"
        }
      ],
      "name": "RoleRevoked",
      "type": "event"
    },
    {
      "anonymous": false,
      "inputs": [
        {
          "indexed": true,
          "internalType": "address",
          "name": "from",
          "type": "address"
        },
        {
          "indexed": true,
          "internalType": "address",
          "name": "to",
          "type": "address"
        },
        {
          "indexed": true,
          "internalType": "uint256",
          "name": "tokenId",
          "type": "uint256"
        }
      ],
      "name": "Transfer",
      "type": "event"
    },
    {
      "anonymous": false,
      "inputs": [
        {
          "indexed": false,
          "internalType": "address",
          "name": "account",
          "type": "address"
        }
      ],
      "name": "Unpaused",
      "type": "event"
    },
    {
      "inputs": [],
      "name": "DEFAULT_ADMIN_ROLE",
      "outputs": [
        {
          "internalType": "bytes32",
          "name": "",
          "type": "bytes32"
        }
      ],
      "stateMutability": "view",
      "type": "function"
    },
    {
      "inputs": [
        {
          "internalType": "uint256",
          "name": "",
          "type": "uint256"
        }
      ],
      "name": "_creators",
      "outputs": [
        {
          "internalType": "address",
          "name": "",
          "type": "address"
        }
      ],
      "stateMutability": "view",
      "type": "function"
    },
    {
      "inputs": [
        {
          "internalType": "uint256",
          "name": "",
          "type": "uint256"
        }
      ],
      "name": "_uris",
      "outputs": [
        {
          "internalType": "string",
          "name": "",
          "type": "string"
        }
      ],
      "stateMutability": "view",
      "type": "function"
    },
    {
      "inputs": [
        {
          "internalType": "string",
          "name": "",
          "type": "string"
        }
      ],
      "name": "_urisToIds",
      "outputs": [
        {
          "internalType": "uint256",
          "name": "",
          "type": "uint256"
        }
      ],
      "stateMutability": "view",
      "type": "function"
    },
    {
      "inputs": [
        {
          "internalType": "address",
          "name": "to",
          "type": "address"
        },
        {
          "internalType": "uint256",
          "name": "tokenId",
          "type": "uint256"
        }
      ],
      "name": "approve",
      "outputs": [],
      "stateMutability": "nonpayable",
      "type": "function"
    },
    {
      "inputs": [
        {
          "internalType": "address",
          "name": "owner",
          "type": "address"
        }
      ],
      "name": "balanceOf",
      "outputs": [
        {
          "internalType": "uint256",
          "name": "",
          "type": "uint256"
        }
      ],
      "stateMutability": "view",
      "type": "function"
    },
    {
      "inputs": [
        {
          "internalType": "uint256",
          "name": "tokenId",
          "type": "uint256"
        }
      ],
      "name": "burnUnpublishedItem",
      "outputs": [],
      "stateMutability": "nonpayable",
      "type": "function"
    },
    {
      "inputs": [
        {
          "internalType": "address",
          "name": "_signer",
          "type": "address"
        },
        {
          "internalType": "string",
          "name": "tokenURI",
          "type": "string"
        },
        {
          "internalType": "uint256",
          "name": "_licensesAmount",
          "type": "uint256"
        }
      ],
      "name": "createMasterItem",
      "outputs": [
        {
          "internalType": "uint256",
          "name": "",
          "type": "uint256"
        }
      ],
      "stateMutability": "nonpayable",
      "type": "function"
    },
    {
      "inputs": [
        {
          "internalType": "uint256",
          "name": "tokenId",
          "type": "uint256"
        }
      ],
      "name": "getApproved",
      "outputs": [
        {
          "internalType": "address",
          "name": "",
          "type": "address"
        }
      ],
      "stateMutability": "view",
      "type": "function"
    },
    {
      "inputs": [
        {
          "internalType": "bytes32",
          "name": "role",
          "type": "bytes32"
        }
      ],
      "name": "getRoleAdmin",
      "outputs": [
        {
          "internalType": "bytes32",
          "name": "",
          "type": "bytes32"
        }
      ],
      "stateMutability": "view",
      "type": "function"
    },
    {
      "inputs": [
        {
          "internalType": "bytes32",
          "name": "role",
          "type": "bytes32"
        },
        {
          "internalType": "uint256",
          "name": "index",
          "type": "uint256"
        }
      ],
      "name": "getRoleMember",
      "outputs": [
        {
          "internalType": "address",
          "name": "",
          "type": "address"
        }
      ],
      "stateMutability": "view",
      "type": "function"
    },
    {
      "inputs": [
        {
          "internalType": "bytes32",
          "name": "role",
          "type": "bytes32"
        }
      ],
      "name": "getRoleMemberCount",
      "outputs": [
        {
          "internalType": "uint256",
          "name": "",
          "type": "uint256"
        }
      ],
      "stateMutability": "view",
      "type": "function"
    },
    {
      "inputs": [
        {
          "internalType": "bytes32",
          "name": "role",
          "type": "bytes32"
        },
        {
          "internalType": "address",
          "name": "account",
          "type": "address"
        }
      ],
      "name": "grantRole",
      "outputs": [],
      "stateMutability": "nonpayable",
      "type": "function"
    },
    {
      "inputs": [
        {
          "internalType": "bytes32",
          "name": "role",
          "type": "bytes32"
        },
        {
          "internalType": "address",
          "name": "account",
          "type": "address"
        }
      ],
      "name": "hasRole",
      "outputs": [
        {
          "internalType": "bool",
          "name": "",
          "type": "bool"
        }
      ],
      "stateMutability": "view",
      "type": "function"
    },
    {
      "inputs": [
        {
          "internalType": "address",
          "name": "owner",
          "type": "address"
        },
        {
          "internalType": "address",
          "name": "operator",
          "type": "address"
        }
      ],
      "name": "isApprovedForAll",
      "outputs": [
        {
          "internalType": "bool",
          "name": "",
          "type": "bool"
        }
      ],
      "stateMutability": "view",
      "type": "function"
    },
    {
      "inputs": [],
      "name": "name",
      "outputs": [
        {
          "internalType": "string",
          "name": "",
          "type": "string"
        }
      ],
      "stateMutability": "view",
      "type": "function"
    },
    {
      "inputs": [],
      "name": "owner",
      "outputs": [
        {
          "internalType": "address",
          "name": "",
          "type": "address"
        }
      ],
      "stateMutability": "view",
      "type": "function"
    },
    {
      "inputs": [
        {
          "internalType": "uint256",
          "name": "tokenId",
          "type": "uint256"
        }
      ],
      "name": "ownerOf",
      "outputs": [
        {
          "internalType": "address",
          "name": "",
          "type": "address"
        }
      ],
      "stateMutability": "view",
      "type": "function"
    },
    {
      "inputs": [],
      "name": "pause",
      "outputs": [],
      "stateMutability": "nonpayable",
      "type": "function"
    },
    {
      "inputs": [],
      "name": "paused",
      "outputs": [
        {
          "internalType": "bool",
          "name": "",
          "type": "bool"
        }
      ],
      "stateMutability": "view",
      "type": "function"
    },
    {
      "inputs": [],
      "name": "renounceOwnership",
      "outputs": [],
      "stateMutability": "nonpayable",
      "type": "function"
    },
    {
      "inputs": [
        {
          "internalType": "bytes32",
          "name": "role",
          "type": "bytes32"
        },
        {
          "internalType": "address",
          "name": "account",
          "type": "address"
        }
      ],
      "name": "renounceRole",
      "outputs": [],
      "stateMutability": "nonpayable",
      "type": "function"
    },
    {
      "inputs": [
        {
          "internalType": "bytes32",
          "name": "role",
          "type": "bytes32"
        },
        {
          "internalType": "address",
          "name": "account",
          "type": "address"
        }
      ],
      "name": "revokeRole",
      "outputs": [],
      "stateMutability": "nonpayable",
      "type": "function"
    },
    {
      "inputs": [
        {
          "internalType": "address",
          "name": "from",
          "type": "address"
        },
        {
          "internalType": "address",
          "name": "to",
          "type": "address"
        },
        {
          "internalType": "uint256",
          "name": "tokenId",
          "type": "uint256"
        }
      ],
      "name": "safeTransferFrom",
      "outputs": [],
      "stateMutability": "nonpayable",
      "type": "function"
    },
    {
      "inputs": [
        {
          "internalType": "address",
          "name": "from",
          "type": "address"
        },
        {
          "internalType": "address",
          "name": "to",
          "type": "address"
        },
        {
          "internalType": "uint256",
          "name": "tokenId",
          "type": "uint256"
        },
        {
          "internalType": "bytes",
          "name": "_data",
          "type": "bytes"
        }
      ],
      "name": "safeTransferFrom",
      "outputs": [],
      "stateMutability": "nonpayable",
      "type": "function"
    },
    {
      "inputs": [
        {
          "internalType": "address",
          "name": "operator",
          "type": "address"
        },
        {
          "internalType": "bool",
          "name": "approved",
          "type": "bool"
        }
      ],
      "name": "setApprovalForAll",
      "outputs": [],
      "stateMutability": "nonpayable",
      "type": "function"
    },
    {
      "inputs": [
        {
          "internalType": "bytes4",
          "name": "interfaceId",
          "type": "bytes4"
        }
      ],
      "name": "supportsInterface",
      "outputs": [
        {
          "internalType": "bool",
          "name": "",
          "type": "bool"
        }
      ],
      "stateMutability": "view",
      "type": "function"
    },
    {
      "inputs": [],
      "name": "symbol",
      "outputs": [
        {
          "internalType": "string",
          "name": "",
          "type": "string"
        }
      ],
      "stateMutability": "view",
      "type": "function"
    },
    {
      "inputs": [
        {
          "internalType": "string",
          "name": "_uri",
          "type": "string"
        }
      ],
      "name": "tokenIdForURI",
      "outputs": [
        {
          "internalType": "uint256",
          "name": "",
          "type": "uint256"
        }
      ],
      "stateMutability": "view",
      "type": "function"
    },
    {
      "inputs": [
        {
          "internalType": "uint256",
          "name": "tokenId",
          "type": "uint256"
        }
      ],
      "name": "tokenURI",
      "outputs": [
        {
          "internalType": "string",
          "name": "",
          "type": "string"
        }
      ],
      "stateMutability": "view",
      "type": "function"
    },
    {
      "inputs": [],
      "name": "totalTokens",
      "outputs": [
        {
          "internalType": "uint256",
          "name": "",
          "type": "uint256"
        }
      ],
      "stateMutability": "view",
      "type": "function"
    },
    {
      "inputs": [
        {
          "internalType": "address",
          "name": "from",
          "type": "address"
        },
        {
          "internalType": "address",
          "name": "to",
          "type": "address"
        },
        {
          "internalType": "uint256",
          "name": "tokenId",
          "type": "uint256"
        }
      ],
      "name": "transferFrom",
      "outputs": [],
      "stateMutability": "nonpayable",
      "type": "function"
    },
    {
      "inputs": [
        {
          "internalType": "address",
          "name": "newOwner",
          "type": "address"
        }
      ],
      "name": "transferOwnership",
      "outputs": [],
      "stateMutability": "nonpayable",
      "type": "function"
    },
    {
      "inputs": [],
      "name": "unpause",
      "outputs": [],
      "stateMutability": "nonpayable",
      "type": "function"
    },
    {
      "inputs": [
        {
          "internalType": "uint256",
          "name": "tokenId",
          "type": "uint256"
        }
      ],
      "name": "uri",
      "outputs": [
        {
          "internalType": "string",
          "name": "",
          "type": "string"
        }
      ],
      "stateMutability": "view",
      "type": "function"
    }
  ],
  "bytecode": "0x60806040523480156200001157600080fd5b5060405162005baf38038062005baf8339818101604052810190620000379190620006ea565b6040518060400160405280601081526020017f536f756e6456657273654d6173746572000000000000000000000000000000008152506040518060400160405280600381526020017f53564d00000000000000000000000000000000000000000000000000000000008152508160029080519060200190620000bb92919062000623565b508060039080519060200190620000d492919062000623565b5050506000600960006101000a81548160ff0219169083151502179055506200011262000106620002c760201b60201c565b620002cf60201b60201c565b620001537f65d7a28e3265b37a6474929f336521b332c1681b933f6cb9f3376673440d862a62000147620002c760201b60201c565b6200039560201b60201c565b80600a60006101000a81548173ffffffffffffffffffffffffffffffffffffffff021916908373ffffffffffffffffffffffffffffffffffffffff1602179055506000600a60009054906101000a900473ffffffffffffffffffffffffffffffffffffffff1673ffffffffffffffffffffffffffffffffffffffff1663824ea29f6040518060400160405280600781526020017f4c6963656e7365000000000000000000000000000000000000000000000000008152506040518263ffffffff1660e01b815260040162000228919062000757565b60206040518083038186803b1580156200024157600080fd5b505afa15801562000256573d6000803e3d6000fd5b505050506040513d601f19601f820116820180604052508101906200027c9190620006ea565b905080600b60006101000a81548173ffffffffffffffffffffffffffffffffffffffff021916908373ffffffffffffffffffffffffffffffffffffffff160217905550505062000891565b600033905090565b6000600960019054906101000a900473ffffffffffffffffffffffffffffffffffffffff16905081600960016101000a81548173ffffffffffffffffffffffffffffffffffffffff021916908373ffffffffffffffffffffffffffffffffffffffff1602179055508173ffffffffffffffffffffffffffffffffffffffff168173ffffffffffffffffffffffffffffffffffffffff167f8be0079c531659141344cd1fd0a4f28419497f9722a3daafe3b4186f6b6457e060405160405180910390a35050565b620003a78282620003ab60201b60201c565b5050565b620003c28282620003f360201b620016731760201c565b620003ee8160016000858152602001908152602001600020620004e460201b620017531790919060201c565b505050565b6200040582826200051c60201b60201c565b620004e057600160008084815260200190815260200160002060000160008373ffffffffffffffffffffffffffffffffffffffff1673ffffffffffffffffffffffffffffffffffffffff16815260200190815260200160002060006101000a81548160ff02191690831515021790555062000485620002c760201b60201c565b73ffffffffffffffffffffffffffffffffffffffff168173ffffffffffffffffffffffffffffffffffffffff16837f2f8788117e7eff1d82e926ec794901d17c78024a50270940304540a733656f0d60405160405180910390a45b5050565b600062000514836000018373ffffffffffffffffffffffffffffffffffffffff1660001b6200058660201b60201c565b905092915050565b600080600084815260200190815260200160002060000160008373ffffffffffffffffffffffffffffffffffffffff1673ffffffffffffffffffffffffffffffffffffffff16815260200190815260200160002060009054906101000a900460ff16905092915050565b60006200059a83836200060060201b60201c565b620005f5578260000182908060018154018082558091505060019003906000526020600020016000909190919091505582600001805490508360010160008481526020019081526020016000208190555060019050620005fa565b600090505b92915050565b600080836001016000848152602001908152602001600020541415905092915050565b828054620006319062000801565b90600052602060002090601f016020900481019282620006555760008555620006a1565b82601f106200067057805160ff1916838001178555620006a1565b82800160010185558215620006a1579182015b82811115620006a057825182559160200191906001019062000683565b5b509050620006b09190620006b4565b5090565b5b80821115620006cf576000816000905550600101620006b5565b5090565b600081519050620006e48162000877565b92915050565b600060208284031215620006fd57600080fd5b60006200070d84828501620006d3565b91505092915050565b600062000723826200077b565b6200072f818562000786565b935062000741818560208601620007cb565b6200074c8162000866565b840191505092915050565b6000602082019050818103600083015262000773818462000716565b905092915050565b600081519050919050565b600082825260208201905092915050565b6000620007a482620007ab565b9050919050565b600073ffffffffffffffffffffffffffffffffffffffff82169050919050565b60005b83811015620007eb578082015181840152602081019050620007ce565b83811115620007fb576000848401525b50505050565b600060028204905060018216806200081a57607f821691505b6020821081141562000831576200083062000837565b5b50919050565b7f4e487b7100000000000000000000000000000000000000000000000000000000600052602260045260246000fd5b6000601f19601f8301169050919050565b620008828162000797565b81146200088e57600080fd5b50565b61530e80620008a16000396000f3fe608060405234801561001057600080fd5b50600436106102115760003560e01c8063715018a611610125578063a22cb465116100ad578063ca15c8731161007c578063ca15c87314610638578063d547741f14610668578063e985e9c514610684578063ed310117146106b4578063f2fde38b146106e457610211565b8063a22cb465146105b4578063b88d4fde146105d0578063c28609c2146105ec578063c87b56dd1461060857610211565b80639010d07c116100f45780639010d07c146104e857806391d148541461051857806395d89b41146105485780639c829e6614610566578063a217fddf1461059657610211565b8063715018a6146104985780637e1c0c09146104a25780638456cb59146104c05780638da5cb5b146104ca57610211565b80632f2ff15d116101a85780634816edf4116101775780634816edf4146103ba57806349c031e0146103ea5780635c975abb1461041a5780636352211e1461043857806370a082311461046857610211565b80632f2ff15d1461035c57806336568abe146103785780633f4ba83a1461039457806342842e0e1461039e57610211565b80630e89341c116101e45780630e89341c146102b05780631233ce8d146102e057806323b872dd14610310578063248a9ca31461032c57610211565b806301ffc9a71461021657806306fdde0314610246578063081812fc14610264578063095ea7b314610294575b600080fd5b610230600480360381019061022b9190613ba2565b610700565b60405161023d91906142c7565b60405180910390f35b61024e610712565b60405161025b91906142fd565b60405180910390f35b61027e60048036038101906102799190613c76565b6107a4565b60405161028b919061420d565b60405180910390f35b6102ae60048036038101906102a99190613ac5565b610829565b005b6102ca60048036038101906102c59190613c76565b610941565b6040516102d791906142fd565b60405180910390f35b6102fa60048036038101906102f59190613c76565b6109e6565b60405161030791906142fd565b60405180910390f35b61032a60048036038101906103259190613958565b610a86565b005b61034660048036038101906103419190613b01565b610ae6565b60405161035391906142e2565b60405180910390f35b61037660048036038101906103719190613b2a565b610b05565b005b610392600480360381019061038d9190613b2a565b610b2e565b005b61039c610bb1565b005b6103b860048036038101906103b39190613958565b610c2b565b005b6103d460048036038101906103cf9190613c76565b610c4b565b6040516103e1919061420d565b60405180910390f35b61040460048036038101906103ff9190613a5e565b610c7e565b60405161041191906146cf565b60405180910390f35b610422610e02565b60405161042f91906142c7565b60405180910390f35b610452600480360381019061044d9190613c76565b610e19565b60405161045f919061420d565b60405180910390f35b610482600480360381019061047d91906138ca565b610ecb565b60405161048f91906146cf565b60405180910390f35b6104a0610f83565b005b6104aa61100b565b6040516104b791906146cf565b60405180910390f35b6104c861101c565b005b6104d2611096565b6040516104df919061420d565b60405180910390f35b61050260048036038101906104fd9190613b66565b6110c0565b60405161050f919061420d565b60405180910390f35b610532600480360381019061052d9190613b2a565b6110ef565b60405161053f91906142c7565b60405180910390f35b610550611159565b60405161055d91906142fd565b60405180910390f35b610580600480360381019061057b9190613c35565b6111eb565b60405161058d91906146cf565b60405180910390f35b61059e611219565b6040516105ab91906142e2565b60405180910390f35b6105ce60048036038101906105c99190613a22565b611220565b005b6105ea60048036038101906105e591906139a7565b611236565b005b61060660048036038101906106019190613c76565b611298565b005b610622600480360381019061061d9190613c76565b611320565b60405161062f91906142fd565b60405180910390f35b610652600480360381019061064d9190613b01565b611472565b60405161065f91906146cf565b60405180910390f35b610682600480360381019061067d9190613b2a565b611496565b005b61069e6004803603810190610699919061391c565b6114bf565b6040516106ab91906142c7565b60405180910390f35b6106ce60048036038101906106c99190613c35565b611553565b6040516106db91906146cf565b60405180910390f35b6106fe60048036038101906106f991906138ca565b61157b565b005b600061070b82611783565b9050919050565b606060028054610721906149b3565b80601f016020809104026020016040519081016040528092919081815260200182805461074d906149b3565b801561079a5780601f1061076f5761010080835404028352916020019161079a565b820191906000526020600020905b81548152906001019060200180831161077d57829003601f168201915b5050505050905090565b60006107af82611865565b6107ee576040517f08c379a00000000000000000000000000000000000000000000000000000000081526004016107e5906145af565b60405180910390fd5b6006600083815260200190815260200160002060009054906101000a900473ffffffffffffffffffffffffffffffffffffffff169050919050565b600061083482610e19565b90508073ffffffffffffffffffffffffffffffffffffffff168373ffffffffffffffffffffffffffffffffffffffff1614156108a5576040517f08c379a000000000000000000000000000000000000000000000000000000000815260040161089c9061462f565b60405180910390fd5b8073ffffffffffffffffffffffffffffffffffffffff166108c46118d1565b73ffffffffffffffffffffffffffffffffffffffff1614806108f357506108f2816108ed6118d1565b6114bf565b5b610932576040517f08c379a0000000000000000000000000000000000000000000000000000000008152600401610929906144cf565b60405180910390fd5b61093c83836118d9565b505050565b6060600e60008381526020019081526020016000208054610961906149b3565b80601f016020809104026020016040519081016040528092919081815260200182805461098d906149b3565b80156109da5780601f106109af576101008083540402835291602001916109da565b820191906000526020600020905b8154815290600101906020018083116109bd57829003601f168201915b50505050509050919050565b600e6020528060005260406000206000915090508054610a05906149b3565b80601f0160208091040260200160405190810160405280929190818152602001828054610a31906149b3565b8015610a7e5780601f10610a5357610100808354040283529160200191610a7e565b820191906000526020600020905b815481529060010190602001808311610a6157829003601f168201915b505050505081565b610a97610a916118d1565b82611992565b610ad6576040517f08c379a0000000000000000000000000000000000000000000000000000000008152600401610acd9061464f565b60405180910390fd5b610ae1838383611a70565b505050565b6000806000838152602001908152602001600020600101549050919050565b610b0e82610ae6565b610b1f81610b1a6118d1565b611ccc565b610b298383611d69565b505050565b610b366118d1565b73ffffffffffffffffffffffffffffffffffffffff168173ffffffffffffffffffffffffffffffffffffffff1614610ba3576040517f08c379a0000000000000000000000000000000000000000000000000000000008152600401610b9a906146af565b60405180910390fd5b610bad8282611d9d565b5050565b610be27f65d7a28e3265b37a6474929f336521b332c1681b933f6cb9f3376673440d862a610bdd6118d1565b6110ef565b610c21576040517f08c379a0000000000000000000000000000000000000000000000000000000008152600401610c189061466f565b60405180910390fd5b610c29611dd1565b565b610c4683838360405180602001604052806000815250611236565b505050565b600d6020528060005260406000206000915054906101000a900473ffffffffffffffffffffffffffffffffffffffff1681565b6000600a60009054906101000a900473ffffffffffffffffffffffffffffffffffffffff1673ffffffffffffffffffffffffffffffffffffffff1663824ea29f6040518163ffffffff1660e01b8152600401610cd99061446f565b60206040518083038186803b158015610cf157600080fd5b505afa158015610d05573d6000803e3d6000fd5b505050506040513d601f19601f82011682018060405250810190610d2991906138f3565b73ffffffffffffffffffffffffffffffffffffffff163373ffffffffffffffffffffffffffffffffffffffff1614610d6057600080fd5b6000835111610da4576040517f08c379a0000000000000000000000000000000000000000000000000000000008152600401610d9b9061468f565b60405180910390fd5b6002821015610de8576040517f08c379a0000000000000000000000000000000000000000000000000000000008152600401610ddf906143ef565b60405180910390fd5b6000610df5858585611e73565b9050809150509392505050565b6000600960009054906101000a900460ff16905090565b6000806004600084815260200190815260200160002060009054906101000a900473ffffffffffffffffffffffffffffffffffffffff169050600073ffffffffffffffffffffffffffffffffffffffff168173ffffffffffffffffffffffffffffffffffffffff161415610ec2576040517f08c379a0000000000000000000000000000000000000000000000000000000008152600401610eb99061450f565b60405180910390fd5b80915050919050565b60008073ffffffffffffffffffffffffffffffffffffffff168273ffffffffffffffffffffffffffffffffffffffff161415610f3c576040517f08c379a0000000000000000000000000000000000000000000000000000000008152600401610f33906144ef565b60405180910390fd5b600560008373ffffffffffffffffffffffffffffffffffffffff1673ffffffffffffffffffffffffffffffffffffffff168152602001908152602001600020549050919050565b610f8b6118d1565b73ffffffffffffffffffffffffffffffffffffffff16610fa9611096565b73ffffffffffffffffffffffffffffffffffffffff1614610fff576040517f08c379a0000000000000000000000000000000000000000000000000000000008152600401610ff6906145cf565b60405180910390fd5b6110096000612128565b565b6000611017600c6121ee565b905090565b61104d7f65d7a28e3265b37a6474929f336521b332c1681b933f6cb9f3376673440d862a6110486118d1565b6110ef565b61108c576040517f08c379a00000000000000000000000000000000000000000000000000000000081526004016110839061448f565b60405180910390fd5b6110946121fc565b565b6000600960019054906101000a900473ffffffffffffffffffffffffffffffffffffffff16905090565b60006110e7826001600086815260200190815260200160002061229f90919063ffffffff16565b905092915050565b600080600084815260200190815260200160002060000160008373ffffffffffffffffffffffffffffffffffffffff1673ffffffffffffffffffffffffffffffffffffffff16815260200190815260200160002060009054906101000a900460ff16905092915050565b606060038054611168906149b3565b80601f0160208091040260200160405190810160405280929190818152602001828054611194906149b3565b80156111e15780601f106111b6576101008083540402835291602001916111e1565b820191906000526020600020905b8154815290600101906020018083116111c457829003601f168201915b5050505050905090565b600f818051602081018201805184825260208301602085012081835280955050505050506000915090505481565b6000801b81565b61123261122b6118d1565b83836122b9565b5050565b6112476112416118d1565b83611992565b611286576040517f08c379a000000000000000000000000000000000000000000000000000000000815260040161127d9061464f565b60405180910390fd5b61129284848484612426565b50505050565b6112a06118d1565b73ffffffffffffffffffffffffffffffffffffffff166112be611096565b73ffffffffffffffffffffffffffffffffffffffff1614611314576040517f08c379a000000000000000000000000000000000000000000000000000000000815260040161130b906145cf565b60405180910390fd5b61131d81612482565b50565b606061132b82611865565b61136a576040517f08c379a00000000000000000000000000000000000000000000000000000000081526004016113619061458f565b60405180910390fd5b600060086000848152602001908152602001600020805461138a906149b3565b80601f01602080910402602001604051908101604052809291908181526020018280546113b6906149b3565b80156114035780601f106113d857610100808354040283529160200191611403565b820191906000526020600020905b8154815290600101906020018083116113e657829003601f168201915b5050505050905060006114146124d5565b905060008151141561142a57819250505061146d565b60008251111561145f5780826040516020016114479291906141af565b6040516020818303038152906040529250505061146d565b611468846124ec565b925050505b919050565b600061148f60016000848152602001908152602001600020612593565b9050919050565b61149f82610ae6565b6114b0816114ab6118d1565b611ccc565b6114ba8383611d9d565b505050565b6000600760008473ffffffffffffffffffffffffffffffffffffffff1673ffffffffffffffffffffffffffffffffffffffff16815260200190815260200160002060008373ffffffffffffffffffffffffffffffffffffffff1673ffffffffffffffffffffffffffffffffffffffff16815260200190815260200160002060009054906101000a900460ff16905092915050565b6000600f826040516115659190614198565b9081526020016040518091039020549050919050565b6115836118d1565b73ffffffffffffffffffffffffffffffffffffffff166115a1611096565b73ffffffffffffffffffffffffffffffffffffffff16146115f7576040517f08c379a00000000000000000000000000000000000000000000000000000000081526004016115ee906145cf565b60405180910390fd5b600073ffffffffffffffffffffffffffffffffffffffff168173ffffffffffffffffffffffffffffffffffffffff161415611667576040517f08c379a000000000000000000000000000000000000000000000000000000000815260040161165e906143af565b60405180910390fd5b61167081612128565b50565b61167d82826110ef565b61174f57600160008084815260200190815260200160002060000160008373ffffffffffffffffffffffffffffffffffffffff1673ffffffffffffffffffffffffffffffffffffffff16815260200190815260200160002060006101000a81548160ff0219169083151502179055506116f46118d1565b73ffffffffffffffffffffffffffffffffffffffff168173ffffffffffffffffffffffffffffffffffffffff16837f2f8788117e7eff1d82e926ec794901d17c78024a50270940304540a733656f0d60405160405180910390a45b5050565b600061177b836000018373ffffffffffffffffffffffffffffffffffffffff1660001b6125a8565b905092915050565b60007f80ac58cd000000000000000000000000000000000000000000000000000000007bffffffffffffffffffffffffffffffffffffffffffffffffffffffff1916827bffffffffffffffffffffffffffffffffffffffffffffffffffffffff1916148061184e57507f5b5e139f000000000000000000000000000000000000000000000000000000007bffffffffffffffffffffffffffffffffffffffffffffffffffffffff1916827bffffffffffffffffffffffffffffffffffffffffffffffffffffffff1916145b8061185e575061185d82612618565b5b9050919050565b60008073ffffffffffffffffffffffffffffffffffffffff166004600084815260200190815260200160002060009054906101000a900473ffffffffffffffffffffffffffffffffffffffff1673ffffffffffffffffffffffffffffffffffffffff1614159050919050565b600033905090565b816006600083815260200190815260200160002060006101000a81548173ffffffffffffffffffffffffffffffffffffffff021916908373ffffffffffffffffffffffffffffffffffffffff160217905550808273ffffffffffffffffffffffffffffffffffffffff1661194c83610e19565b73ffffffffffffffffffffffffffffffffffffffff167f8c5be1e5ebec7d5bd14f71427d1e84f3dd0314c0f7b2291e5b200ac8c7c3b92560405160405180910390a45050565b600061199d82611865565b6119dc576040517f08c379a00000000000000000000000000000000000000000000000000000000081526004016119d39061444f565b60405180910390fd5b60006119e783610e19565b90508073ffffffffffffffffffffffffffffffffffffffff168473ffffffffffffffffffffffffffffffffffffffff161480611a5657508373ffffffffffffffffffffffffffffffffffffffff16611a3e846107a4565b73ffffffffffffffffffffffffffffffffffffffff16145b80611a675750611a6681856114bf565b5b91505092915050565b8273ffffffffffffffffffffffffffffffffffffffff16611a9082610e19565b73ffffffffffffffffffffffffffffffffffffffff1614611ae6576040517f08c379a0000000000000000000000000000000000000000000000000000000008152600401611add906145ef565b60405180910390fd5b600073ffffffffffffffffffffffffffffffffffffffff168273ffffffffffffffffffffffffffffffffffffffff161415611b56576040517f08c379a0000000000000000000000000000000000000000000000000000000008152600401611b4d9061440f565b60405180910390fd5b611b61838383612692565b611b6c6000826118d9565b6001600560008573ffffffffffffffffffffffffffffffffffffffff1673ffffffffffffffffffffffffffffffffffffffff1681526020019081526020016000206000828254611bbc9190614895565b925050819055506001600560008473ffffffffffffffffffffffffffffffffffffffff1673ffffffffffffffffffffffffffffffffffffffff1681526020019081526020016000206000828254611c1391906147b4565b92505081905550816004600083815260200190815260200160002060006101000a81548173ffffffffffffffffffffffffffffffffffffffff021916908373ffffffffffffffffffffffffffffffffffffffff160217905550808273ffffffffffffffffffffffffffffffffffffffff168473ffffffffffffffffffffffffffffffffffffffff167fddf252ad1be2c89b69c2b068fc378daa952ba7f163c4a11628f55a4df523b3ef60405160405180910390a4505050565b611cd682826110ef565b611d6557611cfb8173ffffffffffffffffffffffffffffffffffffffff1660146126a2565b611d098360001c60206126a2565b604051602001611d1a9291906141d3565b6040516020818303038152906040526040517f08c379a0000000000000000000000000000000000000000000000000000000008152600401611d5c91906142fd565b60405180910390fd5b5050565b611d738282611673565b611d98816001600085815260200190815260200160002061175390919063ffffffff16565b505050565b611da7828261299c565b611dcc8160016000858152602001908152602001600020612a7d90919063ffffffff16565b505050565b611dd9610e02565b611e18576040517f08c379a0000000000000000000000000000000000000000000000000000000008152600401611e0f9061436f565b60405180910390fd5b6000600960006101000a81548160ff0219169083151502179055507f5db9ee0a495bf2e6ff9c91a7834c1ba4fdd244a5e8aa4e537bd38aeae4b073aa611e5c6118d1565b604051611e69919061420d565b60405180910390a1565b6000611e7f600c612aad565b6000611e8b600c6121ee565b90506000600e60008381526020019081526020016000208054611ead906149b3565b905014611eef576040517f08c379a0000000000000000000000000000000000000000000000000000000008152600401611ee69061454f565b60405180910390fd5b611ef98186612ac3565b611f038582612b19565b611f0d8185612b37565b611f178185612bab565b807fc6b0cc0059473a4a85be6bb23c1b781584337abff398b70e19dbc29d5c3ca4e385604051611f4791906142fd565b60405180910390a2600b60009054906101000a900473ffffffffffffffffffffffffffffffffffffffff1673ffffffffffffffffffffffffffffffffffffffff16633306029d868686600a60009054906101000a900473ffffffffffffffffffffffffffffffffffffffff1673ffffffffffffffffffffffffffffffffffffffff1663775a8f5e876040518263ffffffff1660e01b8152600401611feb91906146cf565b60006040518083038186803b15801561200357600080fd5b505afa158015612017573d6000803e3d6000fd5b505050506040513d6000823e3d601f19601f820116820180604052508101906120409190613bf4565b6040518563ffffffff1660e01b815260040161205f9493929190614274565b600060405180830381600087803b15801561207957600080fd5b505af115801561208d573d6000803e3d6000fd5b505050506120d06040518060400160405280601681526020017f43555252454e5420544f4b454e204944203d3d3d3d3d0000000000000000000081525082612bd2565b60006120db85611553565b905061211c6040518060400160405280601681526020017f544f4b454e20494420464f52205552493d3d3d3d3d3d0000000000000000000081525082612bd2565b81925050509392505050565b6000600960019054906101000a900473ffffffffffffffffffffffffffffffffffffffff16905081600960016101000a81548173ffffffffffffffffffffffffffffffffffffffff021916908373ffffffffffffffffffffffffffffffffffffffff1602179055508173ffffffffffffffffffffffffffffffffffffffff168173ffffffffffffffffffffffffffffffffffffffff167f8be0079c531659141344cd1fd0a4f28419497f9722a3daafe3b4186f6b6457e060405160405180910390a35050565b600081600001549050919050565b612204610e02565b15612244576040517f08c379a000000000000000000000000000000000000000000000000000000000815260040161223b906144af565b60405180910390fd5b6001600960006101000a81548160ff0219169083151502179055507f62e78cea01bee320cd4e420270b5ea74000d11b0c9f74754ebdbfc544b05a2586122886118d1565b604051612295919061420d565b60405180910390a1565b60006122ae8360000183612c6e565b60001c905092915050565b8173ffffffffffffffffffffffffffffffffffffffff168373ffffffffffffffffffffffffffffffffffffffff161415612328576040517f08c379a000000000000000000000000000000000000000000000000000000000815260040161231f9061442f565b60405180910390fd5b80600760008573ffffffffffffffffffffffffffffffffffffffff1673ffffffffffffffffffffffffffffffffffffffff16815260200190815260200160002060008473ffffffffffffffffffffffffffffffffffffffff1673ffffffffffffffffffffffffffffffffffffffff16815260200190815260200160002060006101000a81548160ff0219169083151502179055508173ffffffffffffffffffffffffffffffffffffffff168373ffffffffffffffffffffffffffffffffffffffff167f17307eab39ab6107e8899845ad3d59bd9653f200f220920489ca2b5937696c318360405161241991906142c7565b60405180910390a3505050565b612431848484611a70565b61243d84848484612cbf565b61247c576040517f08c379a00000000000000000000000000000000000000000000000000000000081526004016124739061438f565b60405180910390fd5b50505050565b61248b81612e56565b60006008600083815260200190815260200160002080546124ab906149b3565b9050146124d2576008600082815260200190815260200160002060006124d1919061361c565b5b50565b606060405180602001604052806000815250905090565b60606124f782611865565b612536576040517f08c379a000000000000000000000000000000000000000000000000000000000815260040161252d9061460f565b60405180910390fd5b60006125406124d5565b90506000815111612560576040518060200160405280600081525061258b565b8061256a84612f67565b60405160200161257b9291906141af565b6040516020818303038152906040525b915050919050565b60006125a182600001613114565b9050919050565b60006125b48383613125565b61260d578260000182908060018154018082558091505060019003906000526020600020016000909190919091505582600001805490508360010160008481526020019081526020016000208190555060019050612612565b600090505b92915050565b60007f5a05180f000000000000000000000000000000000000000000000000000000007bffffffffffffffffffffffffffffffffffffffffffffffffffffffff1916827bffffffffffffffffffffffffffffffffffffffffffffffffffffffff1916148061268b575061268a82613148565b5b9050919050565b61269d8383836131c2565b505050565b6060600060028360026126b5919061483b565b6126bf91906147b4565b67ffffffffffffffff8111156126fe577f4e487b7100000000000000000000000000000000000000000000000000000000600052604160045260246000fd5b6040519080825280601f01601f1916602001820160405280156127305781602001600182028036833780820191505090505b5090507f30000000000000000000000000000000000000000000000000000000000000008160008151811061278e577f4e487b7100000000000000000000000000000000000000000000000000000000600052603260045260246000fd5b60200101907effffffffffffffffffffffffffffffffffffffffffffffffffffffffffffff1916908160001a9053507f780000000000000000000000000000000000000000000000000000000000000081600181518110612818577f4e487b7100000000000000000000000000000000000000000000000000000000600052603260045260246000fd5b60200101907effffffffffffffffffffffffffffffffffffffffffffffffffffffffffffff1916908160001a90535060006001846002612858919061483b565b61286291906147b4565b90505b600181111561294e577f3031323334353637383961626364656600000000000000000000000000000000600f8616601081106128ca577f4e487b7100000000000000000000000000000000000000000000000000000000600052603260045260246000fd5b1a60f81b828281518110612907577f4e487b7100000000000000000000000000000000000000000000000000000000600052603260045260246000fd5b60200101907effffffffffffffffffffffffffffffffffffffffffffffffffffffffffffff1916908160001a905350600485901c94508061294790614989565b9050612865565b5060008414612992576040517f08c379a00000000000000000000000000000000000000000000000000000000081526004016129899061434f565b60405180910390fd5b8091505092915050565b6129a682826110ef565b15612a7957600080600084815260200190815260200160002060000160008373ffffffffffffffffffffffffffffffffffffffff1673ffffffffffffffffffffffffffffffffffffffff16815260200190815260200160002060006101000a81548160ff021916908315150217905550612a1e6118d1565b73ffffffffffffffffffffffffffffffffffffffff168173ffffffffffffffffffffffffffffffffffffffff16837ff6391f5c32d9c69d2a47ea670b442974b53935d1edc7fd64eb21e047a839171b60405160405180910390a45b5050565b6000612aa5836000018373ffffffffffffffffffffffffffffffffffffffff1660001b6131c7565b905092915050565b6001816000016000828254019250508190555050565b80600d600084815260200190815260200160002060006101000a81548173ffffffffffffffffffffffffffffffffffffffff021916908373ffffffffffffffffffffffffffffffffffffffff1602179055505050565b612b3382826040518060200160405280600081525061334d565b5050565b612b4082611865565b612b7f576040517f08c379a0000000000000000000000000000000000000000000000000000000008152600401612b769061452f565b60405180910390fd5b80600860008481526020019081526020016000209080519060200190612ba692919061365c565b505050565b81600f82604051612bbc9190614198565b9081526020016040518091039020819055505050565b612c6a8282604051602401612be892919061431f565b6040516020818303038152906040527f9710a9d0000000000000000000000000000000000000000000000000000000007bffffffffffffffffffffffffffffffffffffffffffffffffffffffff19166020820180517bffffffffffffffffffffffffffffffffffffffffffffffffffffffff83818316178352505050506133a8565b5050565b6000826000018281548110612cac577f4e487b7100000000000000000000000000000000000000000000000000000000600052603260045260246000fd5b9060005260206000200154905092915050565b6000612ce08473ffffffffffffffffffffffffffffffffffffffff166133d1565b15612e49578373ffffffffffffffffffffffffffffffffffffffff1663150b7a02612d096118d1565b8786866040518563ffffffff1660e01b8152600401612d2b9493929190614228565b602060405180830381600087803b158015612d4557600080fd5b505af1925050508015612d7657506040513d601f19601f82011682018060405250810190612d739190613bcb565b60015b612df9573d8060008114612da6576040519150601f19603f3d011682016040523d82523d6000602084013e612dab565b606091505b50600081511415612df1576040517f08c379a0000000000000000000000000000000000000000000000000000000008152600401612de89061438f565b60405180910390fd5b805181602001fd5b63150b7a0260e01b7bffffffffffffffffffffffffffffffffffffffffffffffffffffffff1916817bffffffffffffffffffffffffffffffffffffffffffffffffffffffff191614915050612e4e565b600190505b949350505050565b6000612e6182610e19565b9050612e6f81600084612692565b612e7a6000836118d9565b6001600560008373ffffffffffffffffffffffffffffffffffffffff1673ffffffffffffffffffffffffffffffffffffffff1681526020019081526020016000206000828254612eca9190614895565b925050819055506004600083815260200190815260200160002060006101000a81549073ffffffffffffffffffffffffffffffffffffffff021916905581600073ffffffffffffffffffffffffffffffffffffffff168273ffffffffffffffffffffffffffffffffffffffff167fddf252ad1be2c89b69c2b068fc378daa952ba7f163c4a11628f55a4df523b3ef60405160405180910390a45050565b60606000821415612faf576040518060400160405280600181526020017f3000000000000000000000000000000000000000000000000000000000000000815250905061310f565b600082905060005b60008214612fe1578080612fca90614a16565b915050600a82612fda919061480a565b9150612fb7565b60008167ffffffffffffffff811115613023577f4e487b7100000000000000000000000000000000000000000000000000000000600052604160045260246000fd5b6040519080825280601f01601f1916602001820160405280156130555781602001600182028036833780820191505090505b5090505b600085146131085760018261306e9190614895565b9150600a8561307d9190614a5f565b603061308991906147b4565b60f81b8183815181106130c5577f4e487b7100000000000000000000000000000000000000000000000000000000600052603260045260246000fd5b60200101907effffffffffffffffffffffffffffffffffffffffffffffffffffffffffffff1916908160001a905350600a85613101919061480a565b9450613059565b8093505050505b919050565b600081600001805490509050919050565b600080836001016000848152602001908152602001600020541415905092915050565b60007f7965db0b000000000000000000000000000000000000000000000000000000007bffffffffffffffffffffffffffffffffffffffffffffffffffffffff1916827bffffffffffffffffffffffffffffffffffffffffffffffffffffffff191614806131bb57506131ba826133e4565b5b9050919050565b505050565b600080836001016000848152602001908152602001600020549050600081146133415760006001826131f99190614895565b90506000600186600001805490506132119190614895565b90508181146132cc576000866000018281548110613258577f4e487b7100000000000000000000000000000000000000000000000000000000600052603260045260246000fd5b90600052602060002001549050808760000184815481106132a2577f4e487b7100000000000000000000000000000000000000000000000000000000600052603260045260246000fd5b90600052602060002001819055508387600101600083815260200190815260200160002081905550505b85600001805480613306577f4e487b7100000000000000000000000000000000000000000000000000000000600052603160045260246000fd5b600190038181906000526020600020016000905590558560010160008681526020019081526020016000206000905560019350505050613347565b60009150505b92915050565b613357838361344e565b6133646000848484612cbf565b6133a3576040517f08c379a000000000000000000000000000000000000000000000000000000000815260040161339a9061438f565b60405180910390fd5b505050565b60008151905060006a636f6e736f6c652e6c6f679050602083016000808483855afa5050505050565b600080823b905060008111915050919050565b60007f01ffc9a7000000000000000000000000000000000000000000000000000000007bffffffffffffffffffffffffffffffffffffffffffffffffffffffff1916827bffffffffffffffffffffffffffffffffffffffffffffffffffffffff1916149050919050565b600073ffffffffffffffffffffffffffffffffffffffff168273ffffffffffffffffffffffffffffffffffffffff1614156134be576040517f08c379a00000000000000000000000000000000000000000000000000000000081526004016134b59061456f565b60405180910390fd5b6134c781611865565b15613507576040517f08c379a00000000000000000000000000000000000000000000000000000000081526004016134fe906143cf565b60405180910390fd5b61351360008383612692565b6001600560008473ffffffffffffffffffffffffffffffffffffffff1673ffffffffffffffffffffffffffffffffffffffff168152602001908152602001600020600082825461356391906147b4565b92505081905550816004600083815260200190815260200160002060006101000a81548173ffffffffffffffffffffffffffffffffffffffff021916908373ffffffffffffffffffffffffffffffffffffffff160217905550808273ffffffffffffffffffffffffffffffffffffffff16600073ffffffffffffffffffffffffffffffffffffffff167fddf252ad1be2c89b69c2b068fc378daa952ba7f163c4a11628f55a4df523b3ef60405160405180910390a45050565b508054613628906149b3565b6000825580601f1061363a5750613659565b601f01602090049060005260206000209081019061365891906136e2565b5b50565b828054613668906149b3565b90600052602060002090601f01602090048101928261368a57600085556136d1565b82601f106136a357805160ff19168380011785556136d1565b828001600101855582156136d1579182015b828111156136d05782518255916020019190600101906136b5565b5b5090506136de91906136e2565b5090565b5b808211156136fb5760008160009055506001016136e3565b5090565b600061371261370d8461470f565b6146ea565b90508281526020810184848401111561372a57600080fd5b613735848285614947565b509392505050565b600061375061374b8461470f565b6146ea565b90508281526020810184848401111561376857600080fd5b613773848285614956565b509392505050565b600061378e61378984614740565b6146ea565b9050828152602081018484840111156137a657600080fd5b6137b1848285614947565b509392505050565b6000813590506137c881615265565b92915050565b6000815190506137dd81615265565b92915050565b6000813590506137f28161527c565b92915050565b60008135905061380781615293565b92915050565b60008135905061381c816152aa565b92915050565b600081519050613831816152aa565b92915050565b600082601f83011261384857600080fd5b81356138588482602086016136ff565b91505092915050565b600082601f83011261387257600080fd5b815161388284826020860161373d565b91505092915050565b600082601f83011261389c57600080fd5b81356138ac84826020860161377b565b91505092915050565b6000813590506138c4816152c1565b92915050565b6000602082840312156138dc57600080fd5b60006138ea848285016137b9565b91505092915050565b60006020828403121561390557600080fd5b6000613913848285016137ce565b91505092915050565b6000806040838503121561392f57600080fd5b600061393d858286016137b9565b925050602061394e858286016137b9565b9150509250929050565b60008060006060848603121561396d57600080fd5b600061397b868287016137b9565b935050602061398c868287016137b9565b925050604061399d868287016138b5565b9150509250925092565b600080600080608085870312156139bd57600080fd5b60006139cb878288016137b9565b94505060206139dc878288016137b9565b93505060406139ed878288016138b5565b925050606085013567ffffffffffffffff811115613a0a57600080fd5b613a1687828801613837565b91505092959194509250565b60008060408385031215613a3557600080fd5b6000613a43858286016137b9565b9250506020613a54858286016137e3565b9150509250929050565b600080600060608486031215613a7357600080fd5b6000613a81868287016137b9565b935050602084013567ffffffffffffffff811115613a9e57600080fd5b613aaa8682870161388b565b9250506040613abb868287016138b5565b9150509250925092565b60008060408385031215613ad857600080fd5b6000613ae6858286016137b9565b9250506020613af7858286016138b5565b9150509250929050565b600060208284031215613b1357600080fd5b6000613b21848285016137f8565b91505092915050565b60008060408385031215613b3d57600080fd5b6000613b4b858286016137f8565b9250506020613b5c858286016137b9565b9150509250929050565b60008060408385031215613b7957600080fd5b6000613b87858286016137f8565b9250506020613b98858286016138b5565b9150509250929050565b600060208284031215613bb457600080fd5b6000613bc28482850161380d565b91505092915050565b600060208284031215613bdd57600080fd5b6000613beb84828501613822565b91505092915050565b600060208284031215613c0657600080fd5b600082015167ffffffffffffffff811115613c2057600080fd5b613c2c84828501613861565b91505092915050565b600060208284031215613c4757600080fd5b600082013567ffffffffffffffff811115613c6157600080fd5b613c6d8482850161388b565b91505092915050565b600060208284031215613c8857600080fd5b6000613c96848285016138b5565b91505092915050565b613ca8816148c9565b82525050565b613cb7816148db565b82525050565b613cc6816148e7565b82525050565b6000613cd782614771565b613ce18185614787565b9350613cf1818560208601614956565b613cfa81614b4c565b840191505092915050565b6000613d108261477c565b613d1a8185614798565b9350613d2a818560208601614956565b613d3381614b4c565b840191505092915050565b6000613d498261477c565b613d5381856147a9565b9350613d63818560208601614956565b80840191505092915050565b6000613d7c602083614798565b9150613d8782614b5d565b602082019050919050565b6000613d9f601483614798565b9150613daa82614b86565b602082019050919050565b6000613dc2603283614798565b9150613dcd82614baf565b604082019050919050565b6000613de5602683614798565b9150613df082614bfe565b604082019050919050565b6000613e08601c83614798565b9150613e1382614c4d565b602082019050919050565b6000613e2b601d83614798565b9150613e3682614c76565b602082019050919050565b6000613e4e602483614798565b9150613e5982614c9f565b604082019050919050565b6000613e71601983614798565b9150613e7c82614cee565b602082019050919050565b6000613e94602c83614798565b9150613e9f82614d17565b604082019050919050565b6000613eb7600e83614798565b9150613ec282614d66565b602082019050919050565b6000613eda601e83614798565b9150613ee582614d8f565b602082019050919050565b6000613efd601083614798565b9150613f0882614db8565b602082019050919050565b6000613f20603883614798565b9150613f2b82614de1565b604082019050919050565b6000613f43602a83614798565b9150613f4e82614e30565b604082019050919050565b6000613f66602983614798565b9150613f7182614e7f565b604082019050919050565b6000613f89602e83614798565b9150613f9482614ece565b604082019050919050565b6000613fac601483614798565b9150613fb782614f1d565b602082019050919050565b6000613fcf602083614798565b9150613fda82614f46565b602082019050919050565b6000613ff2603183614798565b9150613ffd82614f6f565b604082019050919050565b6000614015602c83614798565b915061402082614fbe565b604082019050919050565b6000614038602083614798565b91506140438261500d565b602082019050919050565b600061405b602983614798565b915061406682615036565b604082019050919050565b600061407e602f83614798565b915061408982615085565b604082019050919050565b60006140a1602183614798565b91506140ac826150d4565b604082019050919050565b60006140c4603183614798565b91506140cf82615123565b604082019050919050565b60006140e76017836147a9565b91506140f282615172565b601782019050919050565b600061410a602083614798565b91506141158261519b565b602082019050919050565b600061412d601883614798565b9150614138826151c4565b602082019050919050565b60006141506011836147a9565b915061415b826151ed565b601182019050919050565b6000614173602f83614798565b915061417e82615216565b604082019050919050565b6141928161493d565b82525050565b60006141a48284613d3e565b915081905092915050565b60006141bb8285613d3e565b91506141c78284613d3e565b91508190509392505050565b60006141de826140da565b91506141ea8285613d3e565b91506141f582614143565b91506142018284613d3e565b91508190509392505050565b60006020820190506142226000830184613c9f565b92915050565b600060808201905061423d6000830187613c9f565b61424a6020830186613c9f565b6142576040830185614189565b81810360608301526142698184613ccc565b905095945050505050565b60006080820190506142896000830187613c9f565b818103602083015261429b8186613d05565b90506142aa6040830185614189565b81810360608301526142bc8184613ccc565b905095945050505050565b60006020820190506142dc6000830184613cae565b92915050565b60006020820190506142f76000830184613cbd565b92915050565b600060208201905081810360008301526143178184613d05565b905092915050565b600060408201905081810360008301526143398185613d05565b90506143486020830184614189565b9392505050565b6000602082019050818103600083015261436881613d6f565b9050919050565b6000602082019050818103600083015261438881613d92565b9050919050565b600060208201905081810360008301526143a881613db5565b9050919050565b600060208201905081810360008301526143c881613dd8565b9050919050565b600060208201905081810360008301526143e881613dfb565b9050919050565b6000602082019050818103600083015261440881613e1e565b9050919050565b6000602082019050818103600083015261442881613e41565b9050919050565b6000602082019050818103600083015261444881613e64565b9050919050565b6000602082019050818103600083015261446881613e87565b9050919050565b6000602082019050818103600083015261448881613eaa565b9050919050565b600060208201905081810360008301526144a881613ecd565b9050919050565b600060208201905081810360008301526144c881613ef0565b9050919050565b600060208201905081810360008301526144e881613f13565b9050919050565b6000602082019050818103600083015261450881613f36565b9050919050565b6000602082019050818103600083015261452881613f59565b9050919050565b6000602082019050818103600083015261454881613f7c565b9050919050565b6000602082019050818103600083015261456881613f9f565b9050919050565b6000602082019050818103600083015261458881613fc2565b9050919050565b600060208201905081810360008301526145a881613fe5565b9050919050565b600060208201905081810360008301526145c881614008565b9050919050565b600060208201905081810360008301526145e88161402b565b9050919050565b600060208201905081810360008301526146088161404e565b9050919050565b6000602082019050818103600083015261462881614071565b9050919050565b6000602082019050818103600083015261464881614094565b9050919050565b60006020820190508181036000830152614668816140b7565b9050919050565b60006020820190508181036000830152614688816140fd565b9050919050565b600060208201905081810360008301526146a881614120565b9050919050565b600060208201905081810360008301526146c881614166565b9050919050565b60006020820190506146e46000830184614189565b92915050565b60006146f4614705565b905061470082826149e5565b919050565b6000604051905090565b600067ffffffffffffffff82111561472a57614729614b1d565b5b61473382614b4c565b9050602081019050919050565b600067ffffffffffffffff82111561475b5761475a614b1d565b5b61476482614b4c565b9050602081019050919050565b600081519050919050565b600081519050919050565b600082825260208201905092915050565b600082825260208201905092915050565b600081905092915050565b60006147bf8261493d565b91506147ca8361493d565b9250827fffffffffffffffffffffffffffffffffffffffffffffffffffffffffffffffff038211156147ff576147fe614a90565b5b828201905092915050565b60006148158261493d565b91506148208361493d565b9250826148305761482f614abf565b5b828204905092915050565b60006148468261493d565b91506148518361493d565b9250817fffffffffffffffffffffffffffffffffffffffffffffffffffffffffffffffff048311821515161561488a57614889614a90565b5b828202905092915050565b60006148a08261493d565b91506148ab8361493d565b9250828210156148be576148bd614a90565b5b828203905092915050565b60006148d48261491d565b9050919050565b60008115159050919050565b6000819050919050565b60007fffffffff0000000000000000000000000000000000000000000000000000000082169050919050565b600073ffffffffffffffffffffffffffffffffffffffff82169050919050565b6000819050919050565b82818337600083830152505050565b60005b83811015614974578082015181840152602081019050614959565b83811115614983576000848401525b50505050565b60006149948261493d565b915060008214156149a8576149a7614a90565b5b600182039050919050565b600060028204905060018216806149cb57607f821691505b602082108114156149df576149de614aee565b5b50919050565b6149ee82614b4c565b810181811067ffffffffffffffff82111715614a0d57614a0c614b1d565b5b80604052505050565b6000614a218261493d565b91507fffffffffffffffffffffffffffffffffffffffffffffffffffffffffffffffff821415614a5457614a53614a90565b5b600182019050919050565b6000614a6a8261493d565b9150614a758361493d565b925082614a8557614a84614abf565b5b828206905092915050565b7f4e487b7100000000000000000000000000000000000000000000000000000000600052601160045260246000fd5b7f4e487b7100000000000000000000000000000000000000000000000000000000600052601260045260246000fd5b7f4e487b7100000000000000000000000000000000000000000000000000000000600052602260045260246000fd5b7f4e487b7100000000000000000000000000000000000000000000000000000000600052604160045260246000fd5b6000601f19601f8301169050919050565b7f537472696e67733a20686578206c656e67746820696e73756666696369656e74600082015250565b7f5061757361626c653a206e6f7420706175736564000000000000000000000000600082015250565b7f4552433732313a207472616e7366657220746f206e6f6e20455243373231526560008201527f63656976657220696d706c656d656e7465720000000000000000000000000000602082015250565b7f4f776e61626c653a206e6577206f776e657220697320746865207a65726f206160008201527f6464726573730000000000000000000000000000000000000000000000000000602082015250565b7f4552433732313a20746f6b656e20616c7265616479206d696e74656400000000600082015250565b7f537570706c79206d7573742062652067726561746572207468616e2032000000600082015250565b7f4552433732313a207472616e7366657220746f20746865207a65726f2061646460008201527f7265737300000000000000000000000000000000000000000000000000000000602082015250565b7f4552433732313a20617070726f766520746f2063616c6c657200000000000000600082015250565b7f4552433732313a206f70657261746f7220717565727920666f72206e6f6e657860008201527f697374656e7420746f6b656e0000000000000000000000000000000000000000602082015250565b7f4d61726b6574436f6e7472616374000000000000000000000000000000000000600082015250565b7f4d75737420686176652070617573657220726f6c6520746f2070617573650000600082015250565b7f5061757361626c653a2070617573656400000000000000000000000000000000600082015250565b7f4552433732313a20617070726f76652063616c6c6572206973206e6f74206f7760008201527f6e6572206e6f7220617070726f76656420666f7220616c6c0000000000000000602082015250565b7f4552433732313a2062616c616e636520717565727920666f7220746865207a6560008201527f726f206164647265737300000000000000000000000000000000000000000000602082015250565b7f4552433732313a206f776e657220717565727920666f72206e6f6e657869737460008201527f656e7420746f6b656e0000000000000000000000000000000000000000000000602082015250565b7f45524337323155524953746f726167653a2055524920736574206f66206e6f6e60008201527f6578697374656e7420746f6b656e000000000000000000000000000000000000602082015250565b7f43616e6e6f742073657420555249207477696365000000000000000000000000600082015250565b7f4552433732313a206d696e7420746f20746865207a65726f2061646472657373600082015250565b7f45524337323155524953746f726167653a2055524920717565727920666f722060008201527f6e6f6e6578697374656e7420746f6b656e000000000000000000000000000000602082015250565b7f4552433732313a20617070726f76656420717565727920666f72206e6f6e657860008201527f697374656e7420746f6b656e0000000000000000000000000000000000000000602082015250565b7f4f776e61626c653a2063616c6c6572206973206e6f7420746865206f776e6572600082015250565b7f4552433732313a207472616e73666572206f6620746f6b656e2074686174206960008201527f73206e6f74206f776e0000000000000000000000000000000000000000000000602082015250565b7f4552433732314d657461646174613a2055524920717565727920666f72206e6f60008201527f6e6578697374656e7420746f6b656e0000000000000000000000000000000000602082015250565b7f4552433732313a20617070726f76616c20746f2063757272656e74206f776e6560008201527f7200000000000000000000000000000000000000000000000000000000000000602082015250565b7f4552433732313a207472616e736665722063616c6c6572206973206e6f74206f60008201527f776e6572206e6f7220617070726f766564000000000000000000000000000000602082015250565b7f416363657373436f6e74726f6c3a206163636f756e7420000000000000000000600082015250565b7f4d75737420686176652070617573657220726f6c6520746f20756e7061757365600082015250565b7f546f6b656e5572692063616e206e6f74206265206e756c6c0000000000000000600082015250565b7f206973206d697373696e6720726f6c6520000000000000000000000000000000600082015250565b7f416363657373436f6e74726f6c3a2063616e206f6e6c792072656e6f756e636560008201527f20726f6c657320666f722073656c660000000000000000000000000000000000602082015250565b61526e816148c9565b811461527957600080fd5b50565b615285816148db565b811461529057600080fd5b50565b61529c816148e7565b81146152a757600080fd5b50565b6152b3816148f1565b81146152be57600080fd5b50565b6152ca8161493d565b81146152d557600080fd5b5056fea2646970667358221220b9a046cb7bf0704726d7ae920c720f399c54f8871c0b74b8da261611586de75d64736f6c63430008040033",
  "linkReferences": {},
  "deployedLinkReferences": {}
}