{
  "_format": "hh-sol-artifact-1",
  "contractName": "Master",
  "sourceName": "contracts/Master.sol",
  "abi": [
    {
      "inputs": [
        {
          "internalType": "address",
          "name": "_commonUtilsAddress",
          "type": "address"
        }
      ],
      "stateMutability": "nonpayable",
      "type": "constructor"
    },
    {
      "anonymous": false,
      "inputs": [
        {
          "indexed": true,
          "internalType": "address",
          "name": "owner",
          "type": "address"
        },
        {
          "indexed": true,
          "internalType": "address",
          "name": "approved",
          "type": "address"
        },
        {
          "indexed": true,
          "internalType": "uint256",
          "name": "tokenId",
          "type": "uint256"
        }
      ],
      "name": "Approval",
      "type": "event"
    },
    {
      "anonymous": false,
      "inputs": [
        {
          "indexed": true,
          "internalType": "address",
          "name": "owner",
          "type": "address"
        },
        {
          "indexed": true,
          "internalType": "address",
          "name": "operator",
          "type": "address"
        },
        {
          "indexed": false,
          "internalType": "bool",
          "name": "approved",
          "type": "bool"
        }
      ],
      "name": "ApprovalForAll",
      "type": "event"
    },
    {
      "anonymous": false,
      "inputs": [
        {
          "indexed": true,
          "internalType": "uint256",
          "name": "id",
          "type": "uint256"
        },
        {
          "indexed": false,
          "internalType": "string",
          "name": "uri",
          "type": "string"
        }
      ],
      "name": "MasterMintEvent",
      "type": "event"
    },
    {
      "anonymous": false,
      "inputs": [
        {
          "indexed": true,
          "internalType": "address",
          "name": "previousOwner",
          "type": "address"
        },
        {
          "indexed": true,
          "internalType": "address",
          "name": "newOwner",
          "type": "address"
        }
      ],
      "name": "OwnershipTransferred",
      "type": "event"
    },
    {
      "anonymous": false,
      "inputs": [
        {
          "indexed": false,
          "internalType": "address",
          "name": "account",
          "type": "address"
        }
      ],
      "name": "Paused",
      "type": "event"
    },
    {
      "anonymous": false,
      "inputs": [
        {
          "indexed": true,
          "internalType": "bytes32",
          "name": "role",
          "type": "bytes32"
        },
        {
          "indexed": true,
          "internalType": "bytes32",
          "name": "previousAdminRole",
          "type": "bytes32"
        },
        {
          "indexed": true,
          "internalType": "bytes32",
          "name": "newAdminRole",
          "type": "bytes32"
        }
      ],
      "name": "RoleAdminChanged",
      "type": "event"
    },
    {
      "anonymous": false,
      "inputs": [
        {
          "indexed": true,
          "internalType": "bytes32",
          "name": "role",
          "type": "bytes32"
        },
        {
          "indexed": true,
          "internalType": "address",
          "name": "account",
          "type": "address"
        },
        {
          "indexed": true,
          "internalType": "address",
          "name": "sender",
          "type": "address"
        }
      ],
      "name": "RoleGranted",
      "type": "event"
    },
    {
      "anonymous": false,
      "inputs": [
        {
          "indexed": true,
          "internalType": "bytes32",
          "name": "role",
          "type": "bytes32"
        },
        {
          "indexed": true,
          "internalType": "address",
          "name": "account",
          "type": "address"
        },
        {
          "indexed": true,
          "internalType": "address",
          "name": "sender",
          "type": "address"
        }
      ],
      "name": "RoleRevoked",
      "type": "event"
    },
    {
      "anonymous": false,
      "inputs": [
        {
          "indexed": true,
          "internalType": "address",
          "name": "from",
          "type": "address"
        },
        {
          "indexed": true,
          "internalType": "address",
          "name": "to",
          "type": "address"
        },
        {
          "indexed": true,
          "internalType": "uint256",
          "name": "tokenId",
          "type": "uint256"
        }
      ],
      "name": "Transfer",
      "type": "event"
    },
    {
      "anonymous": false,
      "inputs": [
        {
          "indexed": false,
          "internalType": "address",
          "name": "account",
          "type": "address"
        }
      ],
      "name": "Unpaused",
      "type": "event"
    },
    {
      "inputs": [],
      "name": "DEFAULT_ADMIN_ROLE",
      "outputs": [
        {
          "internalType": "bytes32",
          "name": "",
          "type": "bytes32"
        }
      ],
      "stateMutability": "view",
      "type": "function"
    },
    {
      "inputs": [
        {
          "internalType": "uint256",
          "name": "",
          "type": "uint256"
        },
        {
          "internalType": "uint256",
          "name": "",
          "type": "uint256"
        }
      ],
      "name": "_creators",
      "outputs": [
        {
          "internalType": "address",
          "name": "",
          "type": "address"
        }
      ],
      "stateMutability": "view",
      "type": "function"
    },
    {
      "inputs": [
        {
          "internalType": "uint256",
          "name": "",
          "type": "uint256"
        }
      ],
      "name": "_uris",
      "outputs": [
        {
          "internalType": "string",
          "name": "",
          "type": "string"
        }
      ],
      "stateMutability": "view",
      "type": "function"
    },
    {
      "inputs": [
        {
          "internalType": "string",
          "name": "",
          "type": "string"
        }
      ],
      "name": "_urisToIds",
      "outputs": [
        {
          "internalType": "uint256",
          "name": "",
          "type": "uint256"
        }
      ],
      "stateMutability": "view",
      "type": "function"
    },
    {
      "inputs": [
        {
          "internalType": "address",
          "name": "to",
          "type": "address"
        },
        {
          "internalType": "uint256",
          "name": "tokenId",
          "type": "uint256"
        }
      ],
      "name": "approve",
      "outputs": [],
      "stateMutability": "nonpayable",
      "type": "function"
    },
    {
      "inputs": [
        {
          "internalType": "address",
          "name": "owner",
          "type": "address"
        }
      ],
      "name": "balanceOf",
      "outputs": [
        {
          "internalType": "uint256",
          "name": "",
          "type": "uint256"
        }
      ],
      "stateMutability": "view",
      "type": "function"
    },
    {
      "inputs": [
        {
          "internalType": "uint256",
          "name": "tokenId",
          "type": "uint256"
        }
      ],
      "name": "burnUnpublishedItem",
      "outputs": [],
      "stateMutability": "nonpayable",
      "type": "function"
    },
    {
      "inputs": [],
      "name": "cleanUpCreators",
      "outputs": [],
      "stateMutability": "nonpayable",
      "type": "function"
    },
    {
      "inputs": [
        {
          "internalType": "address",
          "name": "_signer",
          "type": "address"
        },
        {
          "internalType": "string",
          "name": "tokenURI",
          "type": "string"
        },
        {
          "internalType": "uint256",
          "name": "_licensesAmount",
          "type": "uint256"
        },
        {
          "internalType": "uint96",
          "name": "_royaltyFeeInBips",
          "type": "uint96"
        }
      ],
      "name": "createMasterItem",
      "outputs": [
        {
          "internalType": "uint256",
          "name": "",
          "type": "uint256"
        }
      ],
      "stateMutability": "nonpayable",
      "type": "function"
    },
    {
      "inputs": [
        {
          "internalType": "uint256",
          "name": "",
          "type": "uint256"
        }
      ],
      "name": "creatorArray",
      "outputs": [
        {
          "internalType": "address",
          "name": "",
          "type": "address"
        }
      ],
      "stateMutability": "view",
      "type": "function"
    },
    {
      "inputs": [
        {
          "internalType": "uint256",
          "name": "tokenId",
          "type": "uint256"
        }
      ],
      "name": "getApproved",
      "outputs": [
        {
          "internalType": "address",
          "name": "",
          "type": "address"
        }
      ],
      "stateMutability": "view",
      "type": "function"
    },
    {
      "inputs": [
        {
          "internalType": "bytes32",
          "name": "role",
          "type": "bytes32"
        }
      ],
      "name": "getRoleAdmin",
      "outputs": [
        {
          "internalType": "bytes32",
          "name": "",
          "type": "bytes32"
        }
      ],
      "stateMutability": "view",
      "type": "function"
    },
    {
      "inputs": [
        {
          "internalType": "bytes32",
          "name": "role",
          "type": "bytes32"
        },
        {
          "internalType": "uint256",
          "name": "index",
          "type": "uint256"
        }
      ],
      "name": "getRoleMember",
      "outputs": [
        {
          "internalType": "address",
          "name": "",
          "type": "address"
        }
      ],
      "stateMutability": "view",
      "type": "function"
    },
    {
      "inputs": [
        {
          "internalType": "bytes32",
          "name": "role",
          "type": "bytes32"
        }
      ],
      "name": "getRoleMemberCount",
      "outputs": [
        {
          "internalType": "uint256",
          "name": "",
          "type": "uint256"
        }
      ],
      "stateMutability": "view",
      "type": "function"
    },
    {
      "inputs": [
        {
          "internalType": "bytes32",
          "name": "role",
          "type": "bytes32"
        },
        {
          "internalType": "address",
          "name": "account",
          "type": "address"
        }
      ],
      "name": "grantRole",
      "outputs": [],
      "stateMutability": "nonpayable",
      "type": "function"
    },
    {
      "inputs": [
        {
          "internalType": "bytes32",
          "name": "role",
          "type": "bytes32"
        },
        {
          "internalType": "address",
          "name": "account",
          "type": "address"
        }
      ],
      "name": "hasRole",
      "outputs": [
        {
          "internalType": "bool",
          "name": "",
          "type": "bool"
        }
      ],
      "stateMutability": "view",
      "type": "function"
    },
    {
      "inputs": [
        {
          "internalType": "address",
          "name": "owner",
          "type": "address"
        },
        {
          "internalType": "address",
          "name": "operator",
          "type": "address"
        }
      ],
      "name": "isApprovedForAll",
      "outputs": [
        {
          "internalType": "bool",
          "name": "",
          "type": "bool"
        }
      ],
      "stateMutability": "view",
      "type": "function"
    },
    {
      "inputs": [],
      "name": "name",
      "outputs": [
        {
          "internalType": "string",
          "name": "",
          "type": "string"
        }
      ],
      "stateMutability": "view",
      "type": "function"
    },
    {
      "inputs": [],
      "name": "owner",
      "outputs": [
        {
          "internalType": "address",
          "name": "",
          "type": "address"
        }
      ],
      "stateMutability": "view",
      "type": "function"
    },
    {
      "inputs": [
        {
          "internalType": "uint256",
          "name": "tokenId",
          "type": "uint256"
        }
      ],
      "name": "ownerOf",
      "outputs": [
        {
          "internalType": "address",
          "name": "",
          "type": "address"
        }
      ],
      "stateMutability": "view",
      "type": "function"
    },
    {
      "inputs": [],
      "name": "pause",
      "outputs": [],
      "stateMutability": "nonpayable",
      "type": "function"
    },
    {
      "inputs": [],
      "name": "paused",
      "outputs": [
        {
          "internalType": "bool",
          "name": "",
          "type": "bool"
        }
      ],
      "stateMutability": "view",
      "type": "function"
    },
    {
      "inputs": [],
      "name": "renounceOwnership",
      "outputs": [],
      "stateMutability": "nonpayable",
      "type": "function"
    },
    {
      "inputs": [
        {
          "internalType": "bytes32",
          "name": "role",
          "type": "bytes32"
        },
        {
          "internalType": "address",
          "name": "account",
          "type": "address"
        }
      ],
      "name": "renounceRole",
      "outputs": [],
      "stateMutability": "nonpayable",
      "type": "function"
    },
    {
      "inputs": [
        {
          "internalType": "bytes32",
          "name": "role",
          "type": "bytes32"
        },
        {
          "internalType": "address",
          "name": "account",
          "type": "address"
        }
      ],
      "name": "revokeRole",
      "outputs": [],
      "stateMutability": "nonpayable",
      "type": "function"
    },
    {
      "inputs": [
        {
          "internalType": "uint256",
          "name": "_tokenId",
          "type": "uint256"
        },
        {
          "internalType": "uint256",
          "name": "_salePrice",
          "type": "uint256"
        }
      ],
      "name": "royaltyInfo",
      "outputs": [
        {
          "internalType": "address",
          "name": "",
          "type": "address"
        },
        {
          "internalType": "uint256",
          "name": "",
          "type": "uint256"
        }
      ],
      "stateMutability": "view",
      "type": "function"
    },
    {
      "inputs": [
        {
          "internalType": "address",
          "name": "from",
          "type": "address"
        },
        {
          "internalType": "address",
          "name": "to",
          "type": "address"
        },
        {
          "internalType": "uint256",
          "name": "tokenId",
          "type": "uint256"
        }
      ],
      "name": "safeTransferFrom",
      "outputs": [],
      "stateMutability": "nonpayable",
      "type": "function"
    },
    {
      "inputs": [
        {
          "internalType": "address",
          "name": "from",
          "type": "address"
        },
        {
          "internalType": "address",
          "name": "to",
          "type": "address"
        },
        {
          "internalType": "uint256",
          "name": "tokenId",
          "type": "uint256"
        },
        {
          "internalType": "bytes",
          "name": "_data",
          "type": "bytes"
        }
      ],
      "name": "safeTransferFrom",
      "outputs": [],
      "stateMutability": "nonpayable",
      "type": "function"
    },
    {
      "inputs": [
        {
          "internalType": "address",
          "name": "operator",
          "type": "address"
        },
        {
          "internalType": "bool",
          "name": "approved",
          "type": "bool"
        }
      ],
      "name": "setApprovalForAll",
      "outputs": [],
      "stateMutability": "nonpayable",
      "type": "function"
    },
    {
      "inputs": [
        {
          "internalType": "uint256",
          "name": "tokenId",
          "type": "uint256"
        },
        {
          "internalType": "address[]",
          "name": "_creatorsArray",
          "type": "address[]"
        }
      ],
      "name": "setTokenCreators",
      "outputs": [],
      "stateMutability": "nonpayable",
      "type": "function"
    },
    {
      "inputs": [
        {
          "internalType": "bytes4",
          "name": "interfaceId",
          "type": "bytes4"
        }
      ],
      "name": "supportsInterface",
      "outputs": [
        {
          "internalType": "bool",
          "name": "",
          "type": "bool"
        }
      ],
      "stateMutability": "view",
      "type": "function"
    },
    {
      "inputs": [],
      "name": "symbol",
      "outputs": [
        {
          "internalType": "string",
          "name": "",
          "type": "string"
        }
      ],
      "stateMutability": "view",
      "type": "function"
    },
    {
      "inputs": [
        {
          "internalType": "string",
          "name": "_uri",
          "type": "string"
        }
      ],
      "name": "tokenIdForURI",
      "outputs": [
        {
          "internalType": "uint256",
          "name": "",
          "type": "uint256"
        }
      ],
      "stateMutability": "view",
      "type": "function"
    },
    {
      "inputs": [
        {
          "internalType": "uint256",
          "name": "tokenId",
          "type": "uint256"
        }
      ],
      "name": "tokenURI",
      "outputs": [
        {
          "internalType": "string",
          "name": "",
          "type": "string"
        }
      ],
      "stateMutability": "view",
      "type": "function"
    },
    {
      "inputs": [],
      "name": "totalTokens",
      "outputs": [
        {
          "internalType": "uint256",
          "name": "",
          "type": "uint256"
        }
      ],
      "stateMutability": "view",
      "type": "function"
    },
    {
      "inputs": [
        {
          "internalType": "address",
          "name": "from",
          "type": "address"
        },
        {
          "internalType": "address",
          "name": "to",
          "type": "address"
        },
        {
          "internalType": "uint256",
          "name": "tokenId",
          "type": "uint256"
        }
      ],
      "name": "transferFrom",
      "outputs": [],
      "stateMutability": "nonpayable",
      "type": "function"
    },
    {
      "inputs": [
        {
          "internalType": "address",
          "name": "_signer",
          "type": "address"
        },
        {
          "internalType": "address",
          "name": "_buyer",
          "type": "address"
        },
        {
          "internalType": "uint256",
          "name": "_tokenId",
          "type": "uint256"
        }
      ],
      "name": "transferMaster",
      "outputs": [],
      "stateMutability": "nonpayable",
      "type": "function"
    },
    {
      "inputs": [
        {
          "internalType": "address",
          "name": "newOwner",
          "type": "address"
        }
      ],
      "name": "transferOwnership",
      "outputs": [],
      "stateMutability": "nonpayable",
      "type": "function"
    },
    {
      "inputs": [],
      "name": "unpause",
      "outputs": [],
      "stateMutability": "nonpayable",
      "type": "function"
    },
    {
      "inputs": [
        {
          "internalType": "uint256",
          "name": "tokenId",
          "type": "uint256"
        }
      ],
      "name": "uri",
      "outputs": [
        {
          "internalType": "string",
          "name": "",
          "type": "string"
        }
      ],
      "stateMutability": "view",
      "type": "function"
    }
  ],
  "bytecode": "0x60806040523480156200001157600080fd5b50604051620038e9380380620038e983398101604081905262000034916200036c565b604080518082018252601081526f29b7bab7322b32b939b2a6b0b9ba32b960811b60208083019182528351808501909452600384526253564d60e81b9084015281519192916200008791600291620002c6565b5080516200009d906003906020840190620002c6565b50506009805460ff1916905550620000b53362000107565b620000e17f65d7a28e3265b37a6474929f336521b332c1681b933f6cb9f3376673440d862a3362000161565b600c80546001600160a01b0319166001600160a01b0392909216919091179055620003d9565b600980546001600160a01b03838116610100818102610100600160a81b031985161790945560405193909204169182907f8be0079c531659141344cd1fd0a4f28419497f9722a3daafe3b4186f6b6457e090600090a35050565b6200016d828262000171565b5050565b620001888282620001b460201b620013af1760201c565b6000828152600160209081526040909120620001af9183906200143362000254821b17901c565b505050565b6000828152602081815260408083206001600160a01b038516845290915290205460ff166200016d576000828152602081815260408083206001600160a01b03851684529091529020805460ff19166001179055620002103390565b6001600160a01b0316816001600160a01b0316837f2f8788117e7eff1d82e926ec794901d17c78024a50270940304540a733656f0d60405160405180910390a45050565b60006200026b836001600160a01b03841662000274565b90505b92915050565b6000818152600183016020526040812054620002bd575081546001818101845560008481526020808220909301849055845484825282860190935260409020919091556200026e565b5060006200026e565b828054620002d4906200039c565b90600052602060002090601f016020900481019282620002f8576000855562000343565b82601f106200031357805160ff191683800117855562000343565b8280016001018555821562000343579182015b828111156200034357825182559160200191906001019062000326565b506200035192915062000355565b5090565b5b8082111562000351576000815560010162000356565b6000602082840312156200037e578081fd5b81516001600160a01b038116811462000395578182fd5b9392505050565b600181811c90821680620003b157607f821691505b60208210811415620003d357634e487b7160e01b600052602260045260246000fd5b50919050565b61350080620003e96000396000f3fe608060405234801561001057600080fd5b50600436106102485760003560e01c80638456cb591161013b578063b88d4fde116100b8578063d84f316e1161007c578063d84f316e1461051a578063e07f006f1461052d578063e985e9c514610540578063ed3101171461057c578063f2fde38b1461058f57600080fd5b8063b88d4fde146104bb578063c28609c2146104ce578063c87b56dd146104e1578063ca15c873146104f4578063d547741f1461050757600080fd5b806391d14854116100ff57806391d148541461045a57806395d89b411461046d5780639c829e6614610475578063a217fddf146104a0578063a22cb465146104a857600080fd5b80638456cb5914610403578063861f0ee21461040b5780638da5cb5b1461041e5780638ec5d9e5146104345780639010d07c1461044757600080fd5b8063338f06ee116101c95780635c975abb1161018d5780635c975abb146103c25780636352211e146103cd57806370a08231146103e0578063715018a6146103f35780637e1c0c09146103fb57600080fd5b8063338f06ee1461037957806336568abe1461038c5780633f4ba83a1461039f57806342842e0e146103a75780634ec28bbd146103ba57600080fd5b80631233ce8d116102105780631233ce8d146102dd57806323b872dd146102f0578063248a9ca3146103035780632a55205a146103345780632f2ff15d1461036657600080fd5b806301ffc9a71461024d57806306fdde0314610275578063081812fc1461028a578063095ea7b3146102b55780630e89341c146102ca575b600080fd5b61026061025b366004612e7d565b6105a2565b60405190151581526020015b60405180910390f35b61027d6105b3565b60405161026c919061319c565b61029d610298366004612e20565b610645565b6040516001600160a01b03909116815260200161026c565b6102c86102c3366004612df5565b6106d2565b005b61027d6102d8366004612e20565b6107e8565b61027d6102eb366004612e20565b61088a565b6102c86102fe366004612c92565b610924565b610326610311366004612e20565b60009081526020819052604090206001015490565b60405190815260200161026c565b610347610342366004612e5c565b610955565b604080516001600160a01b03909316835260208301919091520161026c565b6102c8610374366004612e38565b610a01565b61029d610387366004612e20565b610a27565b6102c861039a366004612e38565b610a51565b6102c8610acf565b6102c86103b5366004612c92565b610b4f565b6102c8610b6a565b60095460ff16610260565b61029d6103db366004612e20565b610c12565b6103266103ee366004612c22565b610c89565b6102c8610d10565b610326610d4a565b6102c8610d5a565b610326610419366004612d80565b610dd8565b60095461010090046001600160a01b031661029d565b61029d610442366004612e5c565b610fc8565b61029d610455366004612e5c565b611000565b610260610468366004612e38565b61101f565b61027d611048565b610326610483366004612f28565b805160208183018101805160128252928201919093012091525481565b610326600081565b6102c86104b6366004612d4f565b611057565b6102c86104c9366004612cd2565b611062565b6102c86104dc366004612e20565b61109a565b61027d6104ef366004612e20565b6110d3565b610326610502366004612e20565b611242565b6102c8610515366004612e38565b611259565b6102c8610528366004612c92565b61127f565b6102c861053b366004612f5b565b61129a565b61026061054e366004612c5a565b6001600160a01b03918216600090815260076020908152604080832093909416825291909152205460ff1690565b61032661058a366004612f28565b6112e9565b6102c861059d366004612c22565b611311565b60006105ad82611448565b92915050565b6060600280546105c290613385565b80601f01602080910402602001604051908101604052809291908181526020018280546105ee90613385565b801561063b5780601f106106105761010080835404028352916020019161063b565b820191906000526020600020905b81548152906001019060200180831161061e57829003601f168201915b5050505050905090565b60006106508261146d565b6106b65760405162461bcd60e51b815260206004820152602c60248201527f4552433732313a20617070726f76656420717565727920666f72206e6f6e657860448201526b34b9ba32b73a103a37b5b2b760a11b60648201526084015b60405180910390fd5b506000908152600660205260409020546001600160a01b031690565b60006106dd82610c12565b9050806001600160a01b0316836001600160a01b0316141561074b5760405162461bcd60e51b815260206004820152602160248201527f4552433732313a20617070726f76616c20746f2063757272656e74206f776e656044820152603960f91b60648201526084016106ad565b336001600160a01b03821614806107675750610767813361054e565b6107d95760405162461bcd60e51b815260206004820152603860248201527f4552433732313a20617070726f76652063616c6c6572206973206e6f74206f7760448201527f6e6572206e6f7220617070726f76656420666f7220616c6c000000000000000060648201526084016106ad565b6107e3838361148a565b505050565b600081815260116020526040902080546060919061080590613385565b80601f016020809104026020016040519081016040528092919081815260200182805461083190613385565b801561087e5780601f106108535761010080835404028352916020019161087e565b820191906000526020600020905b81548152906001019060200180831161086157829003601f168201915b50505050509050919050565b601160205260009081526040902080546108a390613385565b80601f01602080910402602001604051908101604052809291908181526020018280546108cf90613385565b801561091c5780601f106108f15761010080835404028352916020019161091c565b820191906000526020600020905b8154815290600101906020018083116108ff57829003601f168201915b505050505081565b61092e33826114f8565b61094a5760405162461bcd60e51b81526004016106ad90613236565b6107e38383836115de565b6000828152600b602090815260408083208151808301909252546001600160a01b038116808352600160a01b9091046001600160601b03169282019290925282916109ca575060408051808201909152600a546001600160a01b0381168252600160a01b90046001600160601b031660208201525b6020810151600090612710906109e9906001600160601b03168761330c565b6109f391906132f8565b915196919550909350505050565b600082815260208190526040902060010154610a1d813361177a565b6107e383836117de565b600f8181548110610a3757600080fd5b6000918252602090912001546001600160a01b0316905081565b6001600160a01b0381163314610ac15760405162461bcd60e51b815260206004820152602f60248201527f416363657373436f6e74726f6c3a2063616e206f6e6c792072656e6f756e636560448201526e103937b632b9903337b91039b2b63360891b60648201526084016106ad565b610acb8282611800565b5050565b610af97f65d7a28e3265b37a6474929f336521b332c1681b933f6cb9f3376673440d862a3361101f565b610b455760405162461bcd60e51b815260206004820181905260248201527f4d75737420686176652070617573657220726f6c6520746f20756e706175736560448201526064016106ad565b610b4d611822565b565b6107e383838360405180602001604052806000815250611062565b610ba86040518060400160405280601b81526020017f436c65616e75702043726561746f72732063616c6c65642e2e2e2e00000000008152506118b5565b60005b600f54811015610c0f57600f8181548110610bd657634e487b7160e01b600052603260045260246000fd5b600091825260209091200180546001600160a01b031916905580610bf9816133c0565b9150508080610c07906133c0565b915050610bab565b50565b6000818152600460205260408120546001600160a01b0316806105ad5760405162461bcd60e51b815260206004820152602960248201527f4552433732313a206f776e657220717565727920666f72206e6f6e657869737460448201526832b73a103a37b5b2b760b91b60648201526084016106ad565b60006001600160a01b038216610cf45760405162461bcd60e51b815260206004820152602a60248201527f4552433732313a2062616c616e636520717565727920666f7220746865207a65604482015269726f206164647265737360b01b60648201526084016106ad565b506001600160a01b031660009081526005602052604090205490565b6009546001600160a01b03610100909104163314610d405760405162461bcd60e51b81526004016106ad90613201565b610b4d60006118f8565b6000610d55600e5490565b905090565b610d847f65d7a28e3265b37a6474929f336521b332c1681b933f6cb9f3376673440d862a3361101f565b610dd05760405162461bcd60e51b815260206004820152601e60248201527f4d75737420686176652070617573657220726f6c6520746f207061757365000060448201526064016106ad565b610b4d611952565b600c5460405163824ea29f60e01b815260206004820152600e60248201526d13585c9ad95d10dbdb9d1c9858dd60921b60448201526000916001600160a01b03169063824ea29f9060640160206040518083038186803b158015610e3b57600080fd5b505afa158015610e4f573d6000803e3d6000fd5b505050506040513d601f19601f82011682018060405250810190610e739190612c3e565b6001600160a01b0316336001600160a01b031614610e9057600080fd5b610ece6040518060400160405280601f81526020017f435245415445204d4153544552204954454d207374617274696e672e2e2e2e008152506118b5565b6000845111610f1f5760405162461bcd60e51b815260206004820152601860248201527f546f6b656e5572692063616e206e6f74206265206e756c6c000000000000000060448201526064016106ad565b6002831015610f705760405162461bcd60e51b815260206004820152601d60248201527f537570706c79206d7573742062652067726561746572207468616e203200000060448201526064016106ad565b610fae6040518060400160405280601f81526020017f4d494e544954454d2061626f757420746f2062652063616c6c65642e2e2e2e008152506118b5565b6000610fbc868686866119cd565b9150505b949350505050565b60106020528160005260406000208181548110610fe457600080fd5b6000918252602090912001546001600160a01b03169150829050565b60008281526001602052604081206110189083611c4d565b9392505050565b6000918252602082815260408084206001600160a01b0393909316845291905290205460ff1690565b6060600380546105c290613385565b610acb338383611c59565b61106c33836114f8565b6110885760405162461bcd60e51b81526004016106ad90613236565b61109484848484611d28565b50505050565b6009546001600160a01b036101009091041633146110ca5760405162461bcd60e51b81526004016106ad90613201565b610c0f81611d5b565b60606110de8261146d565b6111445760405162461bcd60e51b815260206004820152603160248201527f45524337323155524953746f726167653a2055524920717565727920666f72206044820152703737b732bc34b9ba32b73a103a37b5b2b760791b60648201526084016106ad565b6000828152600860205260408120805461115d90613385565b80601f016020809104026020016040519081016040528092919081815260200182805461118990613385565b80156111d65780601f106111ab576101008083540402835291602001916111d6565b820191906000526020600020905b8154815290600101906020018083116111b957829003601f168201915b5050505050905060006111f460408051602081019091526000815290565b9050805160001415611207575092915050565b815115611239578082604051602001611221929190613063565b60405160208183030381529060405292505050919050565b610fc084611d9b565b60008181526001602052604081206105ad90611e72565b600082815260208190526040902060010154611275813361177a565b6107e38383611800565b6107e383838360405180602001604052806000815250611d28565b6009546001600160a01b036101009091041633146112ca5760405162461bcd60e51b81526004016106ad90613201565b600082815260106020908152604090912082516107e392840190612a5d565b60006012826040516112fb9190613047565b9081526020016040518091039020549050919050565b6009546001600160a01b036101009091041633146113415760405162461bcd60e51b81526004016106ad90613201565b6001600160a01b0381166113a65760405162461bcd60e51b815260206004820152602660248201527f4f776e61626c653a206e6577206f776e657220697320746865207a65726f206160448201526564647265737360d01b60648201526084016106ad565b610c0f816118f8565b6113b9828261101f565b610acb576000828152602081815260408083206001600160a01b03851684529091529020805460ff191660011790556113ef3390565b6001600160a01b0316816001600160a01b0316837f2f8788117e7eff1d82e926ec794901d17c78024a50270940304540a733656f0d60405160405180910390a45050565b6000611018836001600160a01b038416611e7c565b60006001600160e01b0319821663152a902d60e11b14806105ad57506105ad82611ecb565b6000908152600460205260409020546001600160a01b0316151590565b600081815260066020526040902080546001600160a01b0319166001600160a01b03841690811790915581906114bf82610c12565b6001600160a01b03167f8c5be1e5ebec7d5bd14f71427d1e84f3dd0314c0f7b2291e5b200ac8c7c3b92560405160405180910390a45050565b60006115038261146d565b6115645760405162461bcd60e51b815260206004820152602c60248201527f4552433732313a206f70657261746f7220717565727920666f72206e6f6e657860448201526b34b9ba32b73a103a37b5b2b760a11b60648201526084016106ad565b600061156f83610c12565b9050806001600160a01b0316846001600160a01b031614806115aa5750836001600160a01b031661159f84610645565b6001600160a01b0316145b80610fc057506001600160a01b0380821660009081526007602090815260408083209388168352929052205460ff16610fc0565b826001600160a01b03166115f182610c12565b6001600160a01b0316146116555760405162461bcd60e51b815260206004820152602560248201527f4552433732313a207472616e736665722066726f6d20696e636f72726563742060448201526437bbb732b960d91b60648201526084016106ad565b6001600160a01b0382166116b75760405162461bcd60e51b8152602060048201526024808201527f4552433732313a207472616e7366657220746f20746865207a65726f206164646044820152637265737360e01b60648201526084016106ad565b6116c260008261148a565b6001600160a01b03831660009081526005602052604081208054600192906116eb90849061332b565b90915550506001600160a01b03821660009081526005602052604081208054600192906117199084906132e0565b909155505060008181526004602052604080822080546001600160a01b0319166001600160a01b0386811691821790925591518493918716917fddf252ad1be2c89b69c2b068fc378daa952ba7f163c4a11628f55a4df523b3ef91a4505050565b611784828261101f565b610acb5761179c816001600160a01b03166014611f0b565b6117a7836020611f0b565b6040516020016117b8929190613092565b60408051601f198184030181529082905262461bcd60e51b82526106ad9160040161319c565b6117e882826113af565b60008281526001602052604090206107e39082611433565b61180a82826120ed565b60008281526001602052604090206107e39082612152565b60095460ff1661186b5760405162461bcd60e51b815260206004820152601460248201527314185d5cd8589b194e881b9bdd081c185d5cd95960621b60448201526064016106ad565b6009805460ff191690557f5db9ee0a495bf2e6ff9c91a7834c1ba4fdd244a5e8aa4e537bd38aeae4b073aa335b6040516001600160a01b03909116815260200160405180910390a1565b610c0f816040516024016118c9919061319c565b60408051601f198184030181529190526020810180516001600160e01b031663104c13eb60e21b179052612167565b600980546001600160a01b03838116610100818102610100600160a81b031985161790945560405193909204169182907f8be0079c531659141344cd1fd0a4f28419497f9722a3daafe3b4186f6b6457e090600090a35050565b60095460ff16156119985760405162461bcd60e51b815260206004820152601060248201526f14185d5cd8589b194e881c185d5cd95960821b60448201526064016106ad565b6009805460ff191660011790557f62e78cea01bee320cd4e420270b5ea74000d11b0c9f74754ebdbfc544b05a2586118983390565b6000611a056040518060400160405280601581526020017426a4a72a24aa22a69029aa20a92a24a7239717171760591b8152506118b5565b611a13600e80546001019055565b6000611a1e600e5490565b6000818152601160205260409020805491925090611a3b90613385565b159050611a815760405162461bcd60e51b815260206004820152601460248201527343616e6e6f74207365742055524920747769636560601b60448201526064016106ad565b611a8b8187612188565b611aac604051806060016040528060268152602001613482602691396118b5565b611ab4610b6a565b611abe86826121e7565b611ac88186612201565b611ad2818661228c565b611af360405180606001604052806025815260200161345d602591396118b5565b611afe8187856122b1565b807fc6b0cc0059473a4a85be6bb23c1b781584337abff398b70e19dbc29d5c3ca4e386604051611b2e919061319c565b60405180910390a2611b3e6122bc565b611b5f6040518060600160405280602381526020016134a8602391396118b5565b600d54600c54604051633bad47af60e11b8152600481018490526001600160a01b0392831692639ca4e846928a928a928a92169063775a8f5e9060240160006040518083038186803b158015611bb457600080fd5b505afa158015611bc8573d6000803e3d6000fd5b505050506040513d6000823e601f3d908101601f19168201604052611bf09190810190612eb5565b886040518663ffffffff1660e01b8152600401611c11959493929190613144565b600060405180830381600087803b158015611c2b57600080fd5b505af1158015611c3f573d6000803e3d6000fd5b509298975050505050505050565b6000611018838361237b565b816001600160a01b0316836001600160a01b03161415611cbb5760405162461bcd60e51b815260206004820152601960248201527f4552433732313a20617070726f766520746f2063616c6c65720000000000000060448201526064016106ad565b6001600160a01b03838116600081815260076020908152604080832094871680845294825291829020805460ff191686151590811790915591519182527f17307eab39ab6107e8899845ad3d59bd9653f200f220920489ca2b5937696c31910160405180910390a3505050565b611d338484846115de565b611d3f848484846123b3565b6110945760405162461bcd60e51b81526004016106ad906131af565b611d64816124bd565b60008181526008602052604090208054611d7d90613385565b159050610c0f576000818152600860205260408120610c0f91612ac2565b6060611da68261146d565b611e0a5760405162461bcd60e51b815260206004820152602f60248201527f4552433732314d657461646174613a2055524920717565727920666f72206e6f60448201526e3732bc34b9ba32b73a103a37b5b2b760891b60648201526084016106ad565b6000611e2160408051602081019091526000815290565b90506000815111611e415760405180602001604052806000815250611018565b80611e4b84612558565b604051602001611e5c929190613063565b6040516020818303038152906040529392505050565b60006105ad825490565b6000818152600183016020526040812054611ec3575081546001818101845560008481526020808220909301849055845484825282860190935260409020919091556105ad565b5060006105ad565b60006001600160e01b031982166380ac58cd60e01b1480611efc57506001600160e01b03198216635b5e139f60e01b145b806105ad57506105ad82612672565b60606000611f1a83600261330c565b611f259060026132e0565b67ffffffffffffffff811115611f4b57634e487b7160e01b600052604160045260246000fd5b6040519080825280601f01601f191660200182016040528015611f75576020820181803683370190505b509050600360fc1b81600081518110611f9e57634e487b7160e01b600052603260045260246000fd5b60200101906001600160f81b031916908160001a905350600f60fb1b81600181518110611fdb57634e487b7160e01b600052603260045260246000fd5b60200101906001600160f81b031916908160001a9053506000611fff84600261330c565b61200a9060016132e0565b90505b600181111561209e576f181899199a1a9b1b9c1cb0b131b232b360811b85600f166010811061204c57634e487b7160e01b600052603260045260246000fd5b1a60f81b82828151811061207057634e487b7160e01b600052603260045260246000fd5b60200101906001600160f81b031916908160001a90535060049490941c936120978161336e565b905061200d565b5083156110185760405162461bcd60e51b815260206004820181905260248201527f537472696e67733a20686578206c656e67746820696e73756666696369656e7460448201526064016106ad565b6120f7828261101f565b15610acb576000828152602081815260408083206001600160a01b0385168085529252808320805460ff1916905551339285917ff6391f5c32d9c69d2a47ea670b442974b53935d1edc7fd64eb21e047a839171b9190a45050565b6000611018836001600160a01b038416612697565b80516a636f6e736f6c652e6c6f67602083016000808483855afa5050505050565b600f80546001810182557f8d1108e10bcb7c27dddfc02ed9d693a074039d026cf4ea4240b40f7d581ac8020180546001600160a01b0319166001600160a01b038416179055600083815260106020526040902081546107e39290612afc565b610acb8282604051806020016040528060008152506127b4565b61220a8261146d565b61226d5760405162461bcd60e51b815260206004820152602e60248201527f45524337323155524953746f726167653a2055524920736574206f66206e6f6e60448201526d32bc34b9ba32b73a103a37b5b2b760911b60648201526084016106ad565b600082815260086020908152604090912082516107e392840190612b3c565b8160128260405161229d9190613047565b908152604051908190036020019020555050565b6107e38383836127e7565b600c5460408051808201825260078152664c6963656e736560c81b6020820152905163824ea29f60e01b81526000926001600160a01b03169163824ea29f91612308919060040161319c565b60206040518083038186803b15801561232057600080fd5b505afa158015612334573d6000803e3d6000fd5b505050506040513d601f19601f820116820180604052508101906123589190612c3e565b600d80546001600160a01b0319166001600160a01b039290921691909117905550565b60008260000182815481106123a057634e487b7160e01b600052603260045260246000fd5b9060005260206000200154905092915050565b60006001600160a01b0384163b156124b557604051630a85bd0160e11b81526001600160a01b0385169063150b7a02906123f7903390899088908890600401613107565b602060405180830381600087803b15801561241157600080fd5b505af1925050508015612441575060408051601f3d908101601f1916820190925261243e91810190612e99565b60015b61249b573d80801561246f576040519150601f19603f3d011682016040523d82523d6000602084013e612474565b606091505b5080516124935760405162461bcd60e51b81526004016106ad906131af565b805181602001fd5b6001600160e01b031916630a85bd0160e11b149050610fc0565b506001610fc0565b60006124c882610c12565b90506124d560008361148a565b6001600160a01b03811660009081526005602052604081208054600192906124fe90849061332b565b909155505060008281526004602052604080822080546001600160a01b0319169055518391906001600160a01b038416907fddf252ad1be2c89b69c2b068fc378daa952ba7f163c4a11628f55a4df523b3ef908390a45050565b60608161257c5750506040805180820190915260018152600360fc1b602082015290565b8160005b81156125a65780612590816133c0565b915061259f9050600a836132f8565b9150612580565b60008167ffffffffffffffff8111156125cf57634e487b7160e01b600052604160045260246000fd5b6040519080825280601f01601f1916602001820160405280156125f9576020820181803683370190505b5090505b8415610fc05761260e60018361332b565b915061261b600a866133db565b6126269060306132e0565b60f81b81838151811061264957634e487b7160e01b600052603260045260246000fd5b60200101906001600160f81b031916908160001a90535061266b600a866132f8565b94506125fd565b60006001600160e01b03198216635a05180f60e01b14806105ad57506105ad826128f5565b600081815260018301602052604081205480156127aa5760006126bb60018361332b565b85549091506000906126cf9060019061332b565b90508181146127505760008660000182815481106126fd57634e487b7160e01b600052603260045260246000fd5b906000526020600020015490508087600001848154811061272e57634e487b7160e01b600052603260045260246000fd5b6000918252602080832090910192909255918252600188019052604090208390555b855486908061276f57634e487b7160e01b600052603160045260246000fd5b6001900381819060005260206000200160009055905585600101600086815260200190815260200160002060009055600193505050506105ad565b60009150506105ad565b6127be838361292a565b6127cb60008484846123b3565b6107e35760405162461bcd60e51b81526004016106ad906131af565b6127106001600160601b03821611156128555760405162461bcd60e51b815260206004820152602a60248201527f455243323938313a20726f79616c7479206665652077696c6c206578636565646044820152692073616c65507269636560b01b60648201526084016106ad565b6001600160a01b0382166128ab5760405162461bcd60e51b815260206004820152601b60248201527f455243323938313a20496e76616c696420706172616d6574657273000000000060448201526064016106ad565b6040805180820182526001600160a01b0393841681526001600160601b0392831660208083019182526000968752600b90529190942093519051909116600160a01b029116179055565b60006001600160e01b03198216637965db0b60e01b14806105ad57506301ffc9a760e01b6001600160e01b03198316146105ad565b6001600160a01b0382166129805760405162461bcd60e51b815260206004820181905260248201527f4552433732313a206d696e7420746f20746865207a65726f206164647265737360448201526064016106ad565b6129898161146d565b156129d65760405162461bcd60e51b815260206004820152601c60248201527f4552433732313a20746f6b656e20616c7265616479206d696e7465640000000060448201526064016106ad565b6001600160a01b03821660009081526005602052604081208054600192906129ff9084906132e0565b909155505060008181526004602052604080822080546001600160a01b0319166001600160a01b03861690811790915590518392907fddf252ad1be2c89b69c2b068fc378daa952ba7f163c4a11628f55a4df523b3ef908290a45050565b828054828255906000526020600020908101928215612ab2579160200282015b82811115612ab257825182546001600160a01b0319166001600160a01b03909116178255602090920191600190910190612a7d565b50612abe929150612bb0565b5090565b508054612ace90613385565b6000825580601f10612ade575050565b601f016020900490600052602060002090810190610c0f9190612bb0565b828054828255906000526020600020908101928215612ab25760005260206000209182015b82811115612ab2578254825591600101919060010190612b21565b828054612b4890613385565b90600052602060002090601f016020900481019282612b6a5760008555612ab2565b82601f10612b8357805160ff1916838001178555612ab2565b82800160010185558215612ab2579182015b82811115612ab2578251825591602001919060010190612b95565b5b80821115612abe5760008155600101612bb1565b6000612bd8612bd3846132b8565b613287565b9050828152838383011115612bec57600080fd5b828260208301376000602084830101529392505050565b600082601f830112612c13578081fd5b61101883833560208501612bc5565b600060208284031215612c33578081fd5b813561101881613431565b600060208284031215612c4f578081fd5b815161101881613431565b60008060408385031215612c6c578081fd5b8235612c7781613431565b91506020830135612c8781613431565b809150509250929050565b600080600060608486031215612ca6578081fd5b8335612cb181613431565b92506020840135612cc181613431565b929592945050506040919091013590565b60008060008060808587031215612ce7578081fd5b8435612cf281613431565b93506020850135612d0281613431565b925060408501359150606085013567ffffffffffffffff811115612d24578182fd5b8501601f81018713612d34578182fd5b612d4387823560208401612bc5565b91505092959194509250565b60008060408385031215612d61578182fd5b8235612d6c81613431565b915060208301358015158114612c87578182fd5b60008060008060808587031215612d95578384fd5b8435612da081613431565b9350602085013567ffffffffffffffff811115612dbb578384fd5b612dc787828801612c03565b9350506040850135915060608501356001600160601b0381168114612dea578182fd5b939692955090935050565b60008060408385031215612e07578081fd5b8235612e1281613431565b946020939093013593505050565b600060208284031215612e31578081fd5b5035919050565b60008060408385031215612e4a578182fd5b823591506020830135612c8781613431565b60008060408385031215612e6e578182fd5b50508035926020909101359150565b600060208284031215612e8e578081fd5b813561101881613446565b600060208284031215612eaa578081fd5b815161101881613446565b600060208284031215612ec6578081fd5b815167ffffffffffffffff811115612edc578182fd5b8201601f81018413612eec578182fd5b8051612efa612bd3826132b8565b818152856020838501011115612f0e578384fd5b612f1f826020830160208601613342565b95945050505050565b600060208284031215612f39578081fd5b813567ffffffffffffffff811115612f4f578182fd5b610fc084828501612c03565b60008060408385031215612f6d578182fd5b8235915060208084013567ffffffffffffffff80821115612f8c578384fd5b818601915086601f830112612f9f578384fd5b813581811115612fb157612fb161341b565b8060051b9150612fc2848301613287565b8181528481019084860184860187018b1015612fdc578788fd5b8795505b8386101561300a5780359450612ff585613431565b84835260019590950194918601918601612fe0565b508096505050505050509250929050565b60008151808452613033816020860160208601613342565b601f01601f19169290920160200192915050565b60008251613059818460208701613342565b9190910192915050565b60008351613075818460208801613342565b835190830190613089818360208801613342565b01949350505050565b7f416363657373436f6e74726f6c3a206163636f756e74200000000000000000008152600083516130ca816017850160208801613342565b7001034b99036b4b9b9b4b733903937b6329607d1b60179184019182015283516130fb816028840160208801613342565b01602801949350505050565b6001600160a01b038581168252841660208201526040810183905260806060820181905260009061313a9083018461301b565b9695505050505050565b6001600160a01b038616815260a0602082018190526000906131689083018761301b565b8560408401528281036060840152613180818661301b565b9150506001600160601b03831660808301529695505050505050565b602081526000611018602083018461301b565b60208082526032908201527f4552433732313a207472616e7366657220746f206e6f6e20455243373231526560408201527131b2b4bb32b91034b6b83632b6b2b73a32b960711b606082015260800190565b6020808252818101527f4f776e61626c653a2063616c6c6572206973206e6f7420746865206f776e6572604082015260600190565b60208082526031908201527f4552433732313a207472616e736665722063616c6c6572206973206e6f74206f6040820152701ddb995c881b9bdc88185c1c1c9bdd9959607a1b606082015260800190565b604051601f8201601f1916810167ffffffffffffffff811182821017156132b0576132b061341b565b604052919050565b600067ffffffffffffffff8211156132d2576132d261341b565b50601f01601f191660200190565b600082198211156132f3576132f36133ef565b500190565b60008261330757613307613405565b500490565b6000816000190483118215151615613326576133266133ef565b500290565b60008282101561333d5761333d6133ef565b500390565b60005b8381101561335d578181015183820152602001613345565b838111156110945750506000910152565b60008161337d5761337d6133ef565b506000190190565b600181811c9082168061339957607f821691505b602082108114156133ba57634e487b7160e01b600052602260045260246000fd5b50919050565b60006000198214156133d4576133d46133ef565b5060010190565b6000826133ea576133ea613405565b500690565b634e487b7160e01b600052601160045260246000fd5b634e487b7160e01b600052601260045260246000fd5b634e487b7160e01b600052604160045260246000fd5b6001600160a01b0381168114610c0f57600080fd5b6001600160e01b031981168114610c0f57600080fdfe736574526f79616c7479466565732061626f757420746f2062652063616c6c65642e2e2e2e436c65616e757043726561746f72732061626f757420746f2062652063616c6c65642e2e2e2e4d494e544c4943454e5345532061626f757420746f2062652063616c6c65642e2e2e2ea2646970667358221220f523f0f713ebd9dd2f5472fdb3b8187f7b34071d808a9ff9372fd25df5c0d30a64736f6c63430008040033",
  "linkReferences": {},
  "deployedLinkReferences": {}
}