{
  "_format": "hh-sol-artifact-1",
  "contractName": "Master",
  "sourceName": "contracts/Master.sol",
  "abi": [
    {
      "inputs": [
        {
          "internalType": "address",
          "name": "_commonUtilsAddress",
          "type": "address"
        }
      ],
      "stateMutability": "nonpayable",
      "type": "constructor"
    },
    {
      "anonymous": false,
      "inputs": [
        {
          "indexed": true,
          "internalType": "address",
          "name": "owner",
          "type": "address"
        },
        {
          "indexed": true,
          "internalType": "address",
          "name": "approved",
          "type": "address"
        },
        {
          "indexed": true,
          "internalType": "uint256",
          "name": "tokenId",
          "type": "uint256"
        }
      ],
      "name": "Approval",
      "type": "event"
    },
    {
      "anonymous": false,
      "inputs": [
        {
          "indexed": true,
          "internalType": "address",
          "name": "owner",
          "type": "address"
        },
        {
          "indexed": true,
          "internalType": "address",
          "name": "operator",
          "type": "address"
        },
        {
          "indexed": false,
          "internalType": "bool",
          "name": "approved",
          "type": "bool"
        }
      ],
      "name": "ApprovalForAll",
      "type": "event"
    },
    {
      "anonymous": false,
      "inputs": [
        {
          "indexed": true,
          "internalType": "uint256",
          "name": "id",
          "type": "uint256"
        },
        {
          "indexed": false,
          "internalType": "string",
          "name": "uri",
          "type": "string"
        }
      ],
      "name": "MasterMintEvent",
      "type": "event"
    },
    {
      "anonymous": false,
      "inputs": [
        {
          "indexed": true,
          "internalType": "address",
          "name": "previousOwner",
          "type": "address"
        },
        {
          "indexed": true,
          "internalType": "address",
          "name": "newOwner",
          "type": "address"
        }
      ],
      "name": "OwnershipTransferred",
      "type": "event"
    },
    {
      "anonymous": false,
      "inputs": [
        {
          "indexed": false,
          "internalType": "address",
          "name": "account",
          "type": "address"
        }
      ],
      "name": "Paused",
      "type": "event"
    },
    {
      "anonymous": false,
      "inputs": [
        {
          "indexed": true,
          "internalType": "bytes32",
          "name": "role",
          "type": "bytes32"
        },
        {
          "indexed": true,
          "internalType": "bytes32",
          "name": "previousAdminRole",
          "type": "bytes32"
        },
        {
          "indexed": true,
          "internalType": "bytes32",
          "name": "newAdminRole",
          "type": "bytes32"
        }
      ],
      "name": "RoleAdminChanged",
      "type": "event"
    },
    {
      "anonymous": false,
      "inputs": [
        {
          "indexed": true,
          "internalType": "bytes32",
          "name": "role",
          "type": "bytes32"
        },
        {
          "indexed": true,
          "internalType": "address",
          "name": "account",
          "type": "address"
        },
        {
          "indexed": true,
          "internalType": "address",
          "name": "sender",
          "type": "address"
        }
      ],
      "name": "RoleGranted",
      "type": "event"
    },
    {
      "anonymous": false,
      "inputs": [
        {
          "indexed": true,
          "internalType": "bytes32",
          "name": "role",
          "type": "bytes32"
        },
        {
          "indexed": true,
          "internalType": "address",
          "name": "account",
          "type": "address"
        },
        {
          "indexed": true,
          "internalType": "address",
          "name": "sender",
          "type": "address"
        }
      ],
      "name": "RoleRevoked",
      "type": "event"
    },
    {
      "anonymous": false,
      "inputs": [
        {
          "indexed": true,
          "internalType": "address",
          "name": "from",
          "type": "address"
        },
        {
          "indexed": true,
          "internalType": "address",
          "name": "to",
          "type": "address"
        },
        {
          "indexed": true,
          "internalType": "uint256",
          "name": "tokenId",
          "type": "uint256"
        }
      ],
      "name": "Transfer",
      "type": "event"
    },
    {
      "anonymous": false,
      "inputs": [
        {
          "indexed": false,
          "internalType": "address",
          "name": "account",
          "type": "address"
        }
      ],
      "name": "Unpaused",
      "type": "event"
    },
    {
      "inputs": [],
      "name": "DEFAULT_ADMIN_ROLE",
      "outputs": [
        {
          "internalType": "bytes32",
          "name": "",
          "type": "bytes32"
        }
      ],
      "stateMutability": "view",
      "type": "function"
    },
    {
      "inputs": [
        {
          "internalType": "uint256",
          "name": "",
          "type": "uint256"
        }
      ],
      "name": "_creators",
      "outputs": [
        {
          "internalType": "address",
          "name": "",
          "type": "address"
        }
      ],
      "stateMutability": "view",
      "type": "function"
    },
    {
      "inputs": [
        {
          "internalType": "uint256",
          "name": "_tokenId",
          "type": "uint256"
        }
      ],
      "name": "_getCreator",
      "outputs": [
        {
          "internalType": "address",
          "name": "",
          "type": "address"
        }
      ],
      "stateMutability": "view",
      "type": "function"
    },
    {
      "inputs": [
        {
          "internalType": "uint256",
          "name": "_tokenId",
          "type": "uint256"
        }
      ],
      "name": "_getOwner",
      "outputs": [
        {
          "internalType": "address",
          "name": "",
          "type": "address"
        }
      ],
      "stateMutability": "view",
      "type": "function"
    },
    {
      "inputs": [
        {
          "internalType": "uint256",
          "name": "",
          "type": "uint256"
        }
      ],
      "name": "_uris",
      "outputs": [
        {
          "internalType": "string",
          "name": "",
          "type": "string"
        }
      ],
      "stateMutability": "view",
      "type": "function"
    },
    {
      "inputs": [
        {
          "internalType": "string",
          "name": "",
          "type": "string"
        }
      ],
      "name": "_urisToIds",
      "outputs": [
        {
          "internalType": "uint256",
          "name": "",
          "type": "uint256"
        }
      ],
      "stateMutability": "view",
      "type": "function"
    },
    {
      "inputs": [
        {
          "internalType": "address",
          "name": "to",
          "type": "address"
        },
        {
          "internalType": "uint256",
          "name": "tokenId",
          "type": "uint256"
        }
      ],
      "name": "approve",
      "outputs": [],
      "stateMutability": "nonpayable",
      "type": "function"
    },
    {
      "inputs": [
        {
          "internalType": "address",
          "name": "owner",
          "type": "address"
        }
      ],
      "name": "balanceOf",
      "outputs": [
        {
          "internalType": "uint256",
          "name": "",
          "type": "uint256"
        }
      ],
      "stateMutability": "view",
      "type": "function"
    },
    {
      "inputs": [
        {
          "internalType": "uint256",
          "name": "tokenId",
          "type": "uint256"
        }
      ],
      "name": "burnUnpublishedItem",
      "outputs": [],
      "stateMutability": "nonpayable",
      "type": "function"
    },
    {
      "inputs": [
        {
          "internalType": "address",
          "name": "_signer",
          "type": "address"
        },
        {
          "internalType": "string",
          "name": "tokenURI",
          "type": "string"
        },
        {
          "internalType": "uint256",
          "name": "_licensesAmount",
          "type": "uint256"
        }
      ],
      "name": "createMasterItem",
      "outputs": [
        {
          "internalType": "uint256",
          "name": "",
          "type": "uint256"
        }
      ],
      "stateMutability": "nonpayable",
      "type": "function"
    },
    {
      "inputs": [
        {
          "internalType": "uint256",
          "name": "tokenId",
          "type": "uint256"
        }
      ],
      "name": "getApproved",
      "outputs": [
        {
          "internalType": "address",
          "name": "",
          "type": "address"
        }
      ],
      "stateMutability": "view",
      "type": "function"
    },
    {
      "inputs": [
        {
          "internalType": "bytes32",
          "name": "role",
          "type": "bytes32"
        }
      ],
      "name": "getRoleAdmin",
      "outputs": [
        {
          "internalType": "bytes32",
          "name": "",
          "type": "bytes32"
        }
      ],
      "stateMutability": "view",
      "type": "function"
    },
    {
      "inputs": [
        {
          "internalType": "bytes32",
          "name": "role",
          "type": "bytes32"
        },
        {
          "internalType": "uint256",
          "name": "index",
          "type": "uint256"
        }
      ],
      "name": "getRoleMember",
      "outputs": [
        {
          "internalType": "address",
          "name": "",
          "type": "address"
        }
      ],
      "stateMutability": "view",
      "type": "function"
    },
    {
      "inputs": [
        {
          "internalType": "bytes32",
          "name": "role",
          "type": "bytes32"
        }
      ],
      "name": "getRoleMemberCount",
      "outputs": [
        {
          "internalType": "uint256",
          "name": "",
          "type": "uint256"
        }
      ],
      "stateMutability": "view",
      "type": "function"
    },
    {
      "inputs": [
        {
          "internalType": "string",
          "name": "_uri",
          "type": "string"
        }
      ],
      "name": "getTokenIdForURI",
      "outputs": [
        {
          "internalType": "uint256",
          "name": "",
          "type": "uint256"
        }
      ],
      "stateMutability": "view",
      "type": "function"
    },
    {
      "inputs": [
        {
          "internalType": "bytes32",
          "name": "role",
          "type": "bytes32"
        },
        {
          "internalType": "address",
          "name": "account",
          "type": "address"
        }
      ],
      "name": "grantRole",
      "outputs": [],
      "stateMutability": "nonpayable",
      "type": "function"
    },
    {
      "inputs": [
        {
          "internalType": "bytes32",
          "name": "role",
          "type": "bytes32"
        },
        {
          "internalType": "address",
          "name": "account",
          "type": "address"
        }
      ],
      "name": "hasRole",
      "outputs": [
        {
          "internalType": "bool",
          "name": "",
          "type": "bool"
        }
      ],
      "stateMutability": "view",
      "type": "function"
    },
    {
      "inputs": [
        {
          "internalType": "address",
          "name": "owner",
          "type": "address"
        },
        {
          "internalType": "address",
          "name": "operator",
          "type": "address"
        }
      ],
      "name": "isApprovedForAll",
      "outputs": [
        {
          "internalType": "bool",
          "name": "",
          "type": "bool"
        }
      ],
      "stateMutability": "view",
      "type": "function"
    },
    {
      "inputs": [],
      "name": "name",
      "outputs": [
        {
          "internalType": "string",
          "name": "",
          "type": "string"
        }
      ],
      "stateMutability": "view",
      "type": "function"
    },
    {
      "inputs": [],
      "name": "owner",
      "outputs": [
        {
          "internalType": "address",
          "name": "",
          "type": "address"
        }
      ],
      "stateMutability": "view",
      "type": "function"
    },
    {
      "inputs": [
        {
          "internalType": "uint256",
          "name": "tokenId",
          "type": "uint256"
        }
      ],
      "name": "ownerOf",
      "outputs": [
        {
          "internalType": "address",
          "name": "",
          "type": "address"
        }
      ],
      "stateMutability": "view",
      "type": "function"
    },
    {
      "inputs": [],
      "name": "pause",
      "outputs": [],
      "stateMutability": "nonpayable",
      "type": "function"
    },
    {
      "inputs": [],
      "name": "paused",
      "outputs": [
        {
          "internalType": "bool",
          "name": "",
          "type": "bool"
        }
      ],
      "stateMutability": "view",
      "type": "function"
    },
    {
      "inputs": [],
      "name": "renounceOwnership",
      "outputs": [],
      "stateMutability": "nonpayable",
      "type": "function"
    },
    {
      "inputs": [
        {
          "internalType": "bytes32",
          "name": "role",
          "type": "bytes32"
        },
        {
          "internalType": "address",
          "name": "account",
          "type": "address"
        }
      ],
      "name": "renounceRole",
      "outputs": [],
      "stateMutability": "nonpayable",
      "type": "function"
    },
    {
      "inputs": [
        {
          "internalType": "bytes32",
          "name": "role",
          "type": "bytes32"
        },
        {
          "internalType": "address",
          "name": "account",
          "type": "address"
        }
      ],
      "name": "revokeRole",
      "outputs": [],
      "stateMutability": "nonpayable",
      "type": "function"
    },
    {
      "inputs": [
        {
          "internalType": "address",
          "name": "from",
          "type": "address"
        },
        {
          "internalType": "address",
          "name": "to",
          "type": "address"
        },
        {
          "internalType": "uint256",
          "name": "tokenId",
          "type": "uint256"
        }
      ],
      "name": "safeTransferFrom",
      "outputs": [],
      "stateMutability": "nonpayable",
      "type": "function"
    },
    {
      "inputs": [
        {
          "internalType": "address",
          "name": "from",
          "type": "address"
        },
        {
          "internalType": "address",
          "name": "to",
          "type": "address"
        },
        {
          "internalType": "uint256",
          "name": "tokenId",
          "type": "uint256"
        },
        {
          "internalType": "bytes",
          "name": "_data",
          "type": "bytes"
        }
      ],
      "name": "safeTransferFrom",
      "outputs": [],
      "stateMutability": "nonpayable",
      "type": "function"
    },
    {
      "inputs": [
        {
          "internalType": "address",
          "name": "operator",
          "type": "address"
        },
        {
          "internalType": "bool",
          "name": "approved",
          "type": "bool"
        }
      ],
      "name": "setApprovalForAll",
      "outputs": [],
      "stateMutability": "nonpayable",
      "type": "function"
    },
    {
      "inputs": [
        {
          "internalType": "bytes4",
          "name": "interfaceId",
          "type": "bytes4"
        }
      ],
      "name": "supportsInterface",
      "outputs": [
        {
          "internalType": "bool",
          "name": "",
          "type": "bool"
        }
      ],
      "stateMutability": "view",
      "type": "function"
    },
    {
      "inputs": [],
      "name": "symbol",
      "outputs": [
        {
          "internalType": "string",
          "name": "",
          "type": "string"
        }
      ],
      "stateMutability": "view",
      "type": "function"
    },
    {
      "inputs": [
        {
          "internalType": "uint256",
          "name": "tokenId",
          "type": "uint256"
        }
      ],
      "name": "tokenURI",
      "outputs": [
        {
          "internalType": "string",
          "name": "",
          "type": "string"
        }
      ],
      "stateMutability": "view",
      "type": "function"
    },
    {
      "inputs": [],
      "name": "totalTokens",
      "outputs": [
        {
          "internalType": "uint256",
          "name": "",
          "type": "uint256"
        }
      ],
      "stateMutability": "view",
      "type": "function"
    },
    {
      "inputs": [
        {
          "internalType": "address",
          "name": "from",
          "type": "address"
        },
        {
          "internalType": "address",
          "name": "to",
          "type": "address"
        },
        {
          "internalType": "uint256",
          "name": "tokenId",
          "type": "uint256"
        }
      ],
      "name": "transferFrom",
      "outputs": [],
      "stateMutability": "nonpayable",
      "type": "function"
    },
    {
      "inputs": [
        {
          "internalType": "address",
          "name": "_signer",
          "type": "address"
        },
        {
          "internalType": "address",
          "name": "_buyer",
          "type": "address"
        },
        {
          "internalType": "uint256",
          "name": "_tokenId",
          "type": "uint256"
        }
      ],
      "name": "transferMaster",
      "outputs": [],
      "stateMutability": "nonpayable",
      "type": "function"
    },
    {
      "inputs": [
        {
          "internalType": "address",
          "name": "newOwner",
          "type": "address"
        }
      ],
      "name": "transferOwnership",
      "outputs": [],
      "stateMutability": "nonpayable",
      "type": "function"
    },
    {
      "inputs": [],
      "name": "unpause",
      "outputs": [],
      "stateMutability": "nonpayable",
      "type": "function"
    },
    {
      "inputs": [
        {
          "internalType": "uint256",
          "name": "_tokenId",
          "type": "uint256"
        }
      ],
      "name": "uri",
      "outputs": [
        {
          "internalType": "string",
          "name": "",
          "type": "string"
        }
      ],
      "stateMutability": "view",
      "type": "function"
    }
  ],
  "bytecode": "0x60806040523480156200001157600080fd5b50604051620033863803806200338683398101604081905262000034916200036c565b604080518082018252601081526f29b7bab7322b32b939b2a6b0b9ba32b960811b60208083019182528351808501909452600384526253564d60e81b9084015281519192916200008791600291620002c6565b5080516200009d906003906020840190620002c6565b50506009805460ff1916905550620000b53362000107565b620000e17f65d7a28e3265b37a6474929f336521b332c1681b933f6cb9f3376673440d862a3362000161565b600a80546001600160a01b0319166001600160a01b0392909216919091179055620003db565b600980546001600160a01b03838116610100818102610100600160a81b031985161790945560405193909204169182907f8be0079c531659141344cd1fd0a4f28419497f9722a3daafe3b4186f6b6457e090600090a35050565b6200016d828262000171565b5050565b620001888282620001b460201b620012071760201c565b6000828152600160209081526040909120620001af9183906200128b62000254821b17901c565b505050565b6000828152602081815260408083206001600160a01b038516845290915290205460ff166200016d576000828152602081815260408083206001600160a01b03851684529091529020805460ff19166001179055620002103390565b6001600160a01b0316816001600160a01b0316837f2f8788117e7eff1d82e926ec794901d17c78024a50270940304540a733656f0d60405160405180910390a45050565b60006200026b836001600160a01b03841662000274565b90505b92915050565b6000818152600183016020526040812054620002bd575081546001818101845560008481526020808220909301849055845484825282860190935260409020919091556200026e565b5060006200026e565b828054620002d4906200039e565b90600052602060002090601f016020900481019282620002f8576000855562000343565b82601f106200031357805160ff191683800117855562000343565b8280016001018555821562000343579182015b828111156200034357825182559160200191906001019062000326565b506200035192915062000355565b5090565b5b8082111562000351576000815560010162000356565b6000602082840312156200037f57600080fd5b81516001600160a01b03811681146200039757600080fd5b9392505050565b600181811c90821680620003b357607f821691505b60208210811415620003d557634e487b7160e01b600052602260045260246000fd5b50919050565b612f9b80620003eb6000396000f3fe608060405234801561001057600080fd5b50600436106102325760003560e01c8063715018a611610130578063a22cb465116100b8578063d547741f1161007c578063d547741f146104e0578063d84f316e146104f3578063e855f39814610506578063e985e9c51461052f578063f2fde38b1461056b57600080fd5b8063a22cb46514610481578063b88d4fde14610494578063c28609c2146104a7578063c87b56dd146104ba578063ca15c873146104cd57600080fd5b80639010d07c116100ff5780639010d07c1461042057806391d148541461043357806395d89b41146104465780639c829e661461044e578063a217fddf1461047957600080fd5b8063715018a6146103f25780637e1c0c09146103fa5780638456cb59146104025780638da5cb5b1461040a57600080fd5b80632f2ff15d116101be57806349c031e01161018257806349c031e01461039b5780635c975abb146103ae5780636352211e146103b957806364d4eeab146103cc57806370a08231146103df57600080fd5b80632f2ff15d1461033157806336568abe146103445780633f4ba83a1461035757806342842e0e1461035f5780634816edf41461037257600080fd5b80630e89341c116102055780630e89341c146102b45780631233ce8d146102c757806315a2f120146102da57806323b872dd146102fb578063248a9ca31461030e57600080fd5b806301ffc9a71461023757806306fdde031461025f578063081812fc14610274578063095ea7b31461029f575b600080fd5b61024a610245366004612750565b61057e565b60405190151581526020015b60405180910390f35b61026761058f565b60405161025691906127c5565b6102876102823660046127d8565b610621565b6040516001600160a01b039091168152602001610256565b6102b26102ad366004612806565b6106ae565b005b6102676102c23660046127d8565b6107c4565b6102676102d53660046127d8565b610866565b6102ed6102e83660046128ff565b610900565b604051908152602001610256565b6102b2610309366004612934565b610997565b6102ed61031c3660046127d8565b60009081526020819052604090206001015490565b6102b261033f366004612975565b6109c8565b6102b2610352366004612975565b6109ee565b6102b2610a6c565b6102b261036d366004612934565b610aec565b6102876103803660046127d8565b600d602052600090815260409020546001600160a01b031681565b6102ed6103a93660046129a5565b610b07565b60095460ff1661024a565b6102876103c73660046127d8565b610cf3565b6102876103da3660046127d8565b610d6a565b6102ed6103ed3660046129fe565b610d75565b6102b2610dfc565b6102ed610e36565b6102b2610e46565b60095461010090046001600160a01b0316610287565b61028761042e366004612a1b565b610ec4565b61024a610441366004612975565b610ee3565b610267610f0c565b6102ed61045c3660046128ff565b8051602081830181018051600f8252928201919093012091525481565b6102ed600081565b6102b261048f366004612a3d565b610f1b565b6102b26104a2366004612a70565b610f26565b6102b26104b53660046127d8565b610f5e565b6102676104c83660046127d8565b610f9a565b6102ed6104db3660046127d8565b611111565b6102b26104ee366004612975565b611128565b6102b2610501366004612934565b61114e565b6102876105143660046127d8565b6000908152600d60205260409020546001600160a01b031690565b61024a61053d366004612af0565b6001600160a01b03918216600090815260076020908152604080832093909416825291909152205460ff1690565b6102b26105793660046129fe565b611169565b6000610589826112a0565b92915050565b60606002805461059e90612b1e565b80601f01602080910402602001604051908101604052809291908181526020018280546105ca90612b1e565b80156106175780601f106105ec57610100808354040283529160200191610617565b820191906000526020600020905b8154815290600101906020018083116105fa57829003601f168201915b5050505050905090565b600061062c826112e0565b6106925760405162461bcd60e51b815260206004820152602c60248201527f4552433732313a20617070726f76656420717565727920666f72206e6f6e657860448201526b34b9ba32b73a103a37b5b2b760a11b60648201526084015b60405180910390fd5b506000908152600660205260409020546001600160a01b031690565b60006106b982610cf3565b9050806001600160a01b0316836001600160a01b031614156107275760405162461bcd60e51b815260206004820152602160248201527f4552433732313a20617070726f76616c20746f2063757272656e74206f776e656044820152603960f91b6064820152608401610689565b336001600160a01b03821614806107435750610743813361053d565b6107b55760405162461bcd60e51b815260206004820152603860248201527f4552433732313a20617070726f76652063616c6c6572206973206e6f74206f7760448201527f6e6572206e6f7220617070726f76656420666f7220616c6c00000000000000006064820152608401610689565b6107bf83836112fd565b505050565b6000818152600e602052604090208054606091906107e190612b1e565b80601f016020809104026020016040519081016040528092919081815260200182805461080d90612b1e565b801561085a5780601f1061082f5761010080835404028352916020019161085a565b820191906000526020600020905b81548152906001019060200180831161083d57829003601f168201915b50505050509050919050565b600e602052600090815260409020805461087f90612b1e565b80601f01602080910402602001604051908101604052809291908181526020018280546108ab90612b1e565b80156108f85780601f106108cd576101008083540402835291602001916108f8565b820191906000526020600020905b8154815290600101906020018083116108db57829003601f168201915b505050505081565b6000600f826040516109129190612b59565b908152602001604051809103902054600014156109715760405162461bcd60e51b815260206004820152601860248201527f4d61737465723a2055524920616c7265616479207573656400000000000000006044820152606401610689565b600f826040516109819190612b59565b9081526020016040518091039020549050919050565b6109a1338261136b565b6109bd5760405162461bcd60e51b815260040161068990612b75565b6107bf838383611451565b6000828152602081905260409020600101546109e481336115ed565b6107bf8383611651565b6001600160a01b0381163314610a5e5760405162461bcd60e51b815260206004820152602f60248201527f416363657373436f6e74726f6c3a2063616e206f6e6c792072656e6f756e636560448201526e103937b632b9903337b91039b2b63360891b6064820152608401610689565b610a688282611673565b5050565b610a967f65d7a28e3265b37a6474929f336521b332c1681b933f6cb9f3376673440d862a33610ee3565b610ae25760405162461bcd60e51b815260206004820181905260248201527f4d75737420686176652070617573657220726f6c6520746f20756e70617573656044820152606401610689565b610aea611695565b565b6107bf83838360405180602001604052806000815250610f26565b600a5460405163824ea29f60e01b815260206004820152600e60248201526d13585c9ad95d10dbdb9d1c9858dd60921b60448201526000916001600160a01b03169063824ea29f9060640160206040518083038186803b158015610b6a57600080fd5b505afa158015610b7e573d6000803e3d6000fd5b505050506040513d601f19601f82011682018060405250810190610ba29190612bc6565b6001600160a01b0316336001600160a01b031614610bbf57600080fd5b610bfd6040518060400160405280601f81526020017f435245415445204d4153544552204954454d207374617274696e672e2e2e2e00815250611728565b6000835111610c4e5760405162461bcd60e51b815260206004820152601860248201527f546f6b656e5572692063616e206e6f74206265206e756c6c00000000000000006044820152606401610689565b6002821015610c9f5760405162461bcd60e51b815260206004820152601d60248201527f537570706c79206d7573742062652067726561746572207468616e20320000006044820152606401610689565b610cdd6040518060400160405280601f81526020017f4d494e544954454d2061626f757420746f2062652063616c6c65642e2e2e2e00815250611728565b6000610cea85858561176b565b95945050505050565b6000818152600460205260408120546001600160a01b0316806105895760405162461bcd60e51b815260206004820152602960248201527f4552433732313a206f776e657220717565727920666f72206e6f6e657869737460448201526832b73a103a37b5b2b760b91b6064820152608401610689565b600061058982610cf3565b60006001600160a01b038216610de05760405162461bcd60e51b815260206004820152602a60248201527f4552433732313a2062616c616e636520717565727920666f7220746865207a65604482015269726f206164647265737360b01b6064820152608401610689565b506001600160a01b031660009081526005602052604090205490565b6009546001600160a01b03610100909104163314610e2c5760405162461bcd60e51b815260040161068990612be3565b610aea60006119d1565b6000610e41600c5490565b905090565b610e707f65d7a28e3265b37a6474929f336521b332c1681b933f6cb9f3376673440d862a33610ee3565b610ebc5760405162461bcd60e51b815260206004820152601e60248201527f4d75737420686176652070617573657220726f6c6520746f20706175736500006044820152606401610689565b610aea611a2b565b6000828152600160205260408120610edc9083611aa6565b9392505050565b6000918252602082815260408084206001600160a01b0393909316845291905290205460ff1690565b60606003805461059e90612b1e565b610a68338383611ab2565b610f30338361136b565b610f4c5760405162461bcd60e51b815260040161068990612b75565b610f5884848484611b81565b50505050565b6009546001600160a01b03610100909104163314610f8e5760405162461bcd60e51b815260040161068990612be3565b610f9781611bb4565b50565b6060610fa5826112e0565b61100b5760405162461bcd60e51b815260206004820152603160248201527f45524337323155524953746f726167653a2055524920717565727920666f72206044820152703737b732bc34b9ba32b73a103a37b5b2b760791b6064820152608401610689565b6000828152600860205260408120805461102490612b1e565b80601f016020809104026020016040519081016040528092919081815260200182805461105090612b1e565b801561109d5780601f106110725761010080835404028352916020019161109d565b820191906000526020600020905b81548152906001019060200180831161108057829003601f168201915b5050505050905060006110bb60408051602081019091526000815290565b90508051600014156110ce575092915050565b8151156111005780826040516020016110e8929190612c18565b60405160208183030381529060405292505050919050565b61110984611bf4565b949350505050565b600081815260016020526040812061058990611ccb565b60008281526020819052604090206001015461114481336115ed565b6107bf8383611673565b6107bf83838360405180602001604052806000815250611b81565b6009546001600160a01b036101009091041633146111995760405162461bcd60e51b815260040161068990612be3565b6001600160a01b0381166111fe5760405162461bcd60e51b815260206004820152602660248201527f4f776e61626c653a206e6577206f776e657220697320746865207a65726f206160448201526564647265737360d01b6064820152608401610689565b610f97816119d1565b6112118282610ee3565b610a68576000828152602081815260408083206001600160a01b03851684529091529020805460ff191660011790556112473390565b6001600160a01b0316816001600160a01b0316837f2f8788117e7eff1d82e926ec794901d17c78024a50270940304540a733656f0d60405160405180910390a45050565b6000610edc836001600160a01b038416611cd5565b60006001600160e01b031982166380ac58cd60e01b14806112d157506001600160e01b03198216635b5e139f60e01b145b80610589575061058982611d24565b6000908152600460205260409020546001600160a01b0316151590565b600081815260066020526040902080546001600160a01b0319166001600160a01b038416908117909155819061133282610cf3565b6001600160a01b03167f8c5be1e5ebec7d5bd14f71427d1e84f3dd0314c0f7b2291e5b200ac8c7c3b92560405160405180910390a45050565b6000611376826112e0565b6113d75760405162461bcd60e51b815260206004820152602c60248201527f4552433732313a206f70657261746f7220717565727920666f72206e6f6e657860448201526b34b9ba32b73a103a37b5b2b760a11b6064820152608401610689565b60006113e283610cf3565b9050806001600160a01b0316846001600160a01b0316148061141d5750836001600160a01b031661141284610621565b6001600160a01b0316145b8061110957506001600160a01b0380821660009081526007602090815260408083209388168352929052205460ff16611109565b826001600160a01b031661146482610cf3565b6001600160a01b0316146114c85760405162461bcd60e51b815260206004820152602560248201527f4552433732313a207472616e736665722066726f6d20696e636f72726563742060448201526437bbb732b960d91b6064820152608401610689565b6001600160a01b03821661152a5760405162461bcd60e51b8152602060048201526024808201527f4552433732313a207472616e7366657220746f20746865207a65726f206164646044820152637265737360e01b6064820152608401610689565b6115356000826112fd565b6001600160a01b038316600090815260056020526040812080546001929061155e908490612c5d565b90915550506001600160a01b038216600090815260056020526040812080546001929061158c908490612c74565b909155505060008181526004602052604080822080546001600160a01b0319166001600160a01b0386811691821790925591518493918716917fddf252ad1be2c89b69c2b068fc378daa952ba7f163c4a11628f55a4df523b3ef91a4505050565b6115f78282610ee3565b610a685761160f816001600160a01b03166014611d49565b61161a836020611d49565b60405160200161162b929190612c8c565b60408051601f198184030181529082905262461bcd60e51b8252610689916004016127c5565b61165b8282611207565b60008281526001602052604090206107bf908261128b565b61167d8282611ee5565b60008281526001602052604090206107bf9082611f4a565b60095460ff166116de5760405162461bcd60e51b815260206004820152601460248201527314185d5cd8589b194e881b9bdd081c185d5cd95960621b6044820152606401610689565b6009805460ff191690557f5db9ee0a495bf2e6ff9c91a7834c1ba4fdd244a5e8aa4e537bd38aeae4b073aa335b6040516001600160a01b03909116815260200160405180910390a1565b610f978160405160240161173c91906127c5565b60408051601f198184030181529190526020810180516001600160e01b031663104c13eb60e21b179052611f5f565b60006117a36040518060400160405280601581526020017426a4a72a24aa22a69029aa20a92a24a7239717171760591b815250611728565b6117b1600c80546001019055565b60006117bc600c5490565b6000818152600e602052604090208054919250906117d990612b1e565b15905061181f5760405162461bcd60e51b815260206004820152601460248201527343616e6e6f74207365742055524920747769636560601b6044820152606401610689565b6118298582611f80565b6000818152600d6020526040902080546001600160a01b0319166001600160a01b03871617905561185a8185611f9a565b6118648185612025565b611885604051806060016040528060258152602001612f1e60259139611728565b807fc6b0cc0059473a4a85be6bb23c1b781584337abff398b70e19dbc29d5c3ca4e3856040516118b591906127c5565b60405180910390a26118c561204a565b6118e6604051806060016040528060238152602001612f4360239139611728565b600b54600a54604051633bad47af60e11b8152600481018490526001600160a01b0392831692633306029d92899289928992169063775a8f5e9060240160006040518083038186803b15801561193b57600080fd5b505afa15801561194f573d6000803e3d6000fd5b505050506040513d6000823e601f3d908101601f191682016040526119779190810190612d01565b6040518563ffffffff1660e01b81526004016119969493929190612d6f565b600060405180830381600087803b1580156119b057600080fd5b505af11580156119c4573d6000803e3d6000fd5b5092979650505050505050565b600980546001600160a01b03838116610100818102610100600160a81b031985161790945560405193909204169182907f8be0079c531659141344cd1fd0a4f28419497f9722a3daafe3b4186f6b6457e090600090a35050565b60095460ff1615611a715760405162461bcd60e51b815260206004820152601060248201526f14185d5cd8589b194e881c185d5cd95960821b6044820152606401610689565b6009805460ff191660011790557f62e78cea01bee320cd4e420270b5ea74000d11b0c9f74754ebdbfc544b05a25861170b3390565b6000610edc8383612109565b816001600160a01b0316836001600160a01b03161415611b145760405162461bcd60e51b815260206004820152601960248201527f4552433732313a20617070726f766520746f2063616c6c6572000000000000006044820152606401610689565b6001600160a01b03838116600081815260076020908152604080832094871680845294825291829020805460ff191686151590811790915591519182527f17307eab39ab6107e8899845ad3d59bd9653f200f220920489ca2b5937696c31910160405180910390a3505050565b611b8c848484611451565b611b9884848484612133565b610f585760405162461bcd60e51b815260040161068990612db6565b611bbd81612240565b60008181526008602052604090208054611bd690612b1e565b159050610f97576000818152600860205260408120610f9791612667565b6060611bff826112e0565b611c635760405162461bcd60e51b815260206004820152602f60248201527f4552433732314d657461646174613a2055524920717565727920666f72206e6f60448201526e3732bc34b9ba32b73a103a37b5b2b760891b6064820152608401610689565b6000611c7a60408051602081019091526000815290565b90506000815111611c9a5760405180602001604052806000815250610edc565b80611ca4846122db565b604051602001611cb5929190612c18565b6040516020818303038152906040529392505050565b6000610589825490565b6000818152600183016020526040812054611d1c57508154600181810184556000848152602080822090930184905584548482528286019093526040902091909155610589565b506000610589565b60006001600160e01b03198216635a05180f60e01b14806105895750610589826123d9565b60606000611d58836002612e08565b611d63906002612c74565b67ffffffffffffffff811115611d7b57611d7b612832565b6040519080825280601f01601f191660200182016040528015611da5576020820181803683370190505b509050600360fc1b81600081518110611dc057611dc0612e27565b60200101906001600160f81b031916908160001a905350600f60fb1b81600181518110611def57611def612e27565b60200101906001600160f81b031916908160001a9053506000611e13846002612e08565b611e1e906001612c74565b90505b6001811115611e96576f181899199a1a9b1b9c1cb0b131b232b360811b85600f1660108110611e5257611e52612e27565b1a60f81b828281518110611e6857611e68612e27565b60200101906001600160f81b031916908160001a90535060049490941c93611e8f81612e3d565b9050611e21565b508315610edc5760405162461bcd60e51b815260206004820181905260248201527f537472696e67733a20686578206c656e67746820696e73756666696369656e746044820152606401610689565b611eef8282610ee3565b15610a68576000828152602081815260408083206001600160a01b0385168085529252808320805460ff1916905551339285917ff6391f5c32d9c69d2a47ea670b442974b53935d1edc7fd64eb21e047a839171b9190a45050565b6000610edc836001600160a01b03841661240e565b80516a636f6e736f6c652e6c6f67602083016000808483855afa5050505050565b610a68828260405180602001604052806000815250612501565b611fa3826112e0565b6120065760405162461bcd60e51b815260206004820152602e60248201527f45524337323155524953746f726167653a2055524920736574206f66206e6f6e60448201526d32bc34b9ba32b73a103a37b5b2b760911b6064820152608401610689565b600082815260086020908152604090912082516107bf928401906126a1565b81600f826040516120369190612b59565b908152604051908190036020019020555050565b600a5460408051808201825260078152664c6963656e736560c81b6020820152905163824ea29f60e01b81526000926001600160a01b03169163824ea29f9161209691906004016127c5565b60206040518083038186803b1580156120ae57600080fd5b505afa1580156120c2573d6000803e3d6000fd5b505050506040513d601f19601f820116820180604052508101906120e69190612bc6565b600b80546001600160a01b0319166001600160a01b039290921691909117905550565b600082600001828154811061212057612120612e27565b9060005260206000200154905092915050565b60006001600160a01b0384163b1561223557604051630a85bd0160e11b81526001600160a01b0385169063150b7a0290612177903390899088908890600401612e54565b602060405180830381600087803b15801561219157600080fd5b505af19250505080156121c1575060408051601f3d908101601f191682019092526121be91810190612e91565b60015b61221b573d8080156121ef576040519150601f19603f3d011682016040523d82523d6000602084013e6121f4565b606091505b5080516122135760405162461bcd60e51b815260040161068990612db6565b805181602001fd5b6001600160e01b031916630a85bd0160e11b149050611109565b506001949350505050565b600061224b82610cf3565b90506122586000836112fd565b6001600160a01b0381166000908152600560205260408120805460019290612281908490612c5d565b909155505060008281526004602052604080822080546001600160a01b0319169055518391906001600160a01b038416907fddf252ad1be2c89b69c2b068fc378daa952ba7f163c4a11628f55a4df523b3ef908390a45050565b6060816122ff5750506040805180820190915260018152600360fc1b602082015290565b8160005b8115612329578061231381612eae565b91506123229050600a83612edf565b9150612303565b60008167ffffffffffffffff81111561234457612344612832565b6040519080825280601f01601f19166020018201604052801561236e576020820181803683370190505b5090505b841561110957612383600183612c5d565b9150612390600a86612ef3565b61239b906030612c74565b60f81b8183815181106123b0576123b0612e27565b60200101906001600160f81b031916908160001a9053506123d2600a86612edf565b9450612372565b60006001600160e01b03198216637965db0b60e01b148061058957506301ffc9a760e01b6001600160e01b0319831614610589565b600081815260018301602052604081205480156124f7576000612432600183612c5d565b855490915060009061244690600190612c5d565b90508181146124ab57600086600001828154811061246657612466612e27565b906000526020600020015490508087600001848154811061248957612489612e27565b6000918252602080832090910192909255918252600188019052604090208390555b85548690806124bc576124bc612f07565b600190038181906000526020600020016000905590558560010160008681526020019081526020016000206000905560019350505050610589565b6000915050610589565b61250b8383612534565b6125186000848484612133565b6107bf5760405162461bcd60e51b815260040161068990612db6565b6001600160a01b03821661258a5760405162461bcd60e51b815260206004820181905260248201527f4552433732313a206d696e7420746f20746865207a65726f20616464726573736044820152606401610689565b612593816112e0565b156125e05760405162461bcd60e51b815260206004820152601c60248201527f4552433732313a20746f6b656e20616c7265616479206d696e746564000000006044820152606401610689565b6001600160a01b0382166000908152600560205260408120805460019290612609908490612c74565b909155505060008181526004602052604080822080546001600160a01b0319166001600160a01b03861690811790915590518392907fddf252ad1be2c89b69c2b068fc378daa952ba7f163c4a11628f55a4df523b3ef908290a45050565b50805461267390612b1e565b6000825580601f10612683575050565b601f016020900490600052602060002090810190610f979190612725565b8280546126ad90612b1e565b90600052602060002090601f0160209004810192826126cf5760008555612715565b82601f106126e857805160ff1916838001178555612715565b82800160010185558215612715579182015b828111156127155782518255916020019190600101906126fa565b50612721929150612725565b5090565b5b808211156127215760008155600101612726565b6001600160e01b031981168114610f9757600080fd5b60006020828403121561276257600080fd5b8135610edc8161273a565b60005b83811015612788578181015183820152602001612770565b83811115610f585750506000910152565b600081518084526127b181602086016020860161276d565b601f01601f19169290920160200192915050565b602081526000610edc6020830184612799565b6000602082840312156127ea57600080fd5b5035919050565b6001600160a01b0381168114610f9757600080fd5b6000806040838503121561281957600080fd5b8235612824816127f1565b946020939093013593505050565b634e487b7160e01b600052604160045260246000fd5b604051601f8201601f1916810167ffffffffffffffff8111828210171561287157612871612832565b604052919050565b600067ffffffffffffffff82111561289357612893612832565b50601f01601f191660200190565b60006128b46128af84612879565b612848565b90508281528383830111156128c857600080fd5b828260208301376000602084830101529392505050565b600082601f8301126128f057600080fd5b610edc838335602085016128a1565b60006020828403121561291157600080fd5b813567ffffffffffffffff81111561292857600080fd5b611109848285016128df565b60008060006060848603121561294957600080fd5b8335612954816127f1565b92506020840135612964816127f1565b929592945050506040919091013590565b6000806040838503121561298857600080fd5b82359150602083013561299a816127f1565b809150509250929050565b6000806000606084860312156129ba57600080fd5b83356129c5816127f1565b9250602084013567ffffffffffffffff8111156129e157600080fd5b6129ed868287016128df565b925050604084013590509250925092565b600060208284031215612a1057600080fd5b8135610edc816127f1565b60008060408385031215612a2e57600080fd5b50508035926020909101359150565b60008060408385031215612a5057600080fd5b8235612a5b816127f1565b91506020830135801515811461299a57600080fd5b60008060008060808587031215612a8657600080fd5b8435612a91816127f1565b93506020850135612aa1816127f1565b925060408501359150606085013567ffffffffffffffff811115612ac457600080fd5b8501601f81018713612ad557600080fd5b612ae4878235602084016128a1565b91505092959194509250565b60008060408385031215612b0357600080fd5b8235612b0e816127f1565b9150602083013561299a816127f1565b600181811c90821680612b3257607f821691505b60208210811415612b5357634e487b7160e01b600052602260045260246000fd5b50919050565b60008251612b6b81846020870161276d565b9190910192915050565b60208082526031908201527f4552433732313a207472616e736665722063616c6c6572206973206e6f74206f6040820152701ddb995c881b9bdc88185c1c1c9bdd9959607a1b606082015260800190565b600060208284031215612bd857600080fd5b8151610edc816127f1565b6020808252818101527f4f776e61626c653a2063616c6c6572206973206e6f7420746865206f776e6572604082015260600190565b60008351612c2a81846020880161276d565b835190830190612c3e81836020880161276d565b01949350505050565b634e487b7160e01b600052601160045260246000fd5b600082821015612c6f57612c6f612c47565b500390565b60008219821115612c8757612c87612c47565b500190565b7f416363657373436f6e74726f6c3a206163636f756e7420000000000000000000815260008351612cc481601785016020880161276d565b7001034b99036b4b9b9b4b733903937b6329607d1b6017918401918201528351612cf581602884016020880161276d565b01602801949350505050565b600060208284031215612d1357600080fd5b815167ffffffffffffffff811115612d2a57600080fd5b8201601f81018413612d3b57600080fd5b8051612d496128af82612879565b818152856020838501011115612d5e57600080fd5b610cea82602083016020860161276d565b6001600160a01b0385168152608060208201819052600090612d9390830186612799565b8460408401528281036060840152612dab8185612799565b979650505050505050565b60208082526032908201527f4552433732313a207472616e7366657220746f206e6f6e20455243373231526560408201527131b2b4bb32b91034b6b83632b6b2b73a32b960711b606082015260800190565b6000816000190483118215151615612e2257612e22612c47565b500290565b634e487b7160e01b600052603260045260246000fd5b600081612e4c57612e4c612c47565b506000190190565b6001600160a01b0385811682528416602082015260408101839052608060608201819052600090612e8790830184612799565b9695505050505050565b600060208284031215612ea357600080fd5b8151610edc8161273a565b6000600019821415612ec257612ec2612c47565b5060010190565b634e487b7160e01b600052601260045260246000fd5b600082612eee57612eee612ec9565b500490565b600082612f0257612f02612ec9565b500690565b634e487b7160e01b600052603160045260246000fdfe736574526f79616c7479466565732061626f757420746f2062652063616c6c65642e2e2e2e4d494e544c4943454e5345532061626f757420746f2062652063616c6c65642e2e2e2ea2646970667358221220995289c8b19cfc7fb740c7d44b5664033b905f1aa46d61093a35c171cc98957c64736f6c63430008080033",
  "linkReferences": {},
  "deployedLinkReferences": {}
}