{
  "_format": "hh-sol-artifact-1",
  "contractName": "Master",
  "sourceName": "contracts/Master.sol",
  "abi": [
    {
      "inputs": [
        {
          "internalType": "address",
          "name": "_commonUtilsAddress",
          "type": "address"
        }
      ],
      "stateMutability": "nonpayable",
      "type": "constructor"
    },
    {
      "anonymous": false,
      "inputs": [
        {
          "indexed": true,
          "internalType": "address",
          "name": "owner",
          "type": "address"
        },
        {
          "indexed": true,
          "internalType": "address",
          "name": "approved",
          "type": "address"
        },
        {
          "indexed": true,
          "internalType": "uint256",
          "name": "tokenId",
          "type": "uint256"
        }
      ],
      "name": "Approval",
      "type": "event"
    },
    {
      "anonymous": false,
      "inputs": [
        {
          "indexed": true,
          "internalType": "address",
          "name": "owner",
          "type": "address"
        },
        {
          "indexed": true,
          "internalType": "address",
          "name": "operator",
          "type": "address"
        },
        {
          "indexed": false,
          "internalType": "bool",
          "name": "approved",
          "type": "bool"
        }
      ],
      "name": "ApprovalForAll",
      "type": "event"
    },
    {
      "anonymous": false,
      "inputs": [
        {
          "indexed": true,
          "internalType": "uint256",
          "name": "id",
          "type": "uint256"
        },
        {
          "indexed": false,
          "internalType": "string",
          "name": "uri",
          "type": "string"
        }
      ],
      "name": "MasterMintEvent",
      "type": "event"
    },
    {
      "anonymous": false,
      "inputs": [
        {
          "indexed": true,
          "internalType": "address",
          "name": "previousOwner",
          "type": "address"
        },
        {
          "indexed": true,
          "internalType": "address",
          "name": "newOwner",
          "type": "address"
        }
      ],
      "name": "OwnershipTransferred",
      "type": "event"
    },
    {
      "anonymous": false,
      "inputs": [
        {
          "indexed": false,
          "internalType": "address",
          "name": "account",
          "type": "address"
        }
      ],
      "name": "Paused",
      "type": "event"
    },
    {
      "anonymous": false,
      "inputs": [
        {
          "indexed": true,
          "internalType": "bytes32",
          "name": "role",
          "type": "bytes32"
        },
        {
          "indexed": true,
          "internalType": "bytes32",
          "name": "previousAdminRole",
          "type": "bytes32"
        },
        {
          "indexed": true,
          "internalType": "bytes32",
          "name": "newAdminRole",
          "type": "bytes32"
        }
      ],
      "name": "RoleAdminChanged",
      "type": "event"
    },
    {
      "anonymous": false,
      "inputs": [
        {
          "indexed": true,
          "internalType": "bytes32",
          "name": "role",
          "type": "bytes32"
        },
        {
          "indexed": true,
          "internalType": "address",
          "name": "account",
          "type": "address"
        },
        {
          "indexed": true,
          "internalType": "address",
          "name": "sender",
          "type": "address"
        }
      ],
      "name": "RoleGranted",
      "type": "event"
    },
    {
      "anonymous": false,
      "inputs": [
        {
          "indexed": true,
          "internalType": "bytes32",
          "name": "role",
          "type": "bytes32"
        },
        {
          "indexed": true,
          "internalType": "address",
          "name": "account",
          "type": "address"
        },
        {
          "indexed": true,
          "internalType": "address",
          "name": "sender",
          "type": "address"
        }
      ],
      "name": "RoleRevoked",
      "type": "event"
    },
    {
      "anonymous": false,
      "inputs": [
        {
          "indexed": true,
          "internalType": "address",
          "name": "from",
          "type": "address"
        },
        {
          "indexed": true,
          "internalType": "address",
          "name": "to",
          "type": "address"
        },
        {
          "indexed": true,
          "internalType": "uint256",
          "name": "tokenId",
          "type": "uint256"
        }
      ],
      "name": "Transfer",
      "type": "event"
    },
    {
      "anonymous": false,
      "inputs": [
        {
          "indexed": false,
          "internalType": "address",
          "name": "account",
          "type": "address"
        }
      ],
      "name": "Unpaused",
      "type": "event"
    },
    {
      "inputs": [],
      "name": "DEFAULT_ADMIN_ROLE",
      "outputs": [
        {
          "internalType": "bytes32",
          "name": "",
          "type": "bytes32"
        }
      ],
      "stateMutability": "view",
      "type": "function"
    },
    {
      "inputs": [
        {
          "internalType": "uint256",
          "name": "",
          "type": "uint256"
        }
      ],
      "name": "_creators",
      "outputs": [
        {
          "internalType": "address",
          "name": "",
          "type": "address"
        }
      ],
      "stateMutability": "view",
      "type": "function"
    },
    {
      "inputs": [
        {
          "internalType": "uint256",
          "name": "_tokenId",
          "type": "uint256"
        }
      ],
      "name": "_getCreator",
      "outputs": [
        {
          "internalType": "address",
          "name": "",
          "type": "address"
        }
      ],
      "stateMutability": "view",
      "type": "function"
    },
    {
      "inputs": [
        {
          "internalType": "uint256",
          "name": "_tokenId",
          "type": "uint256"
        }
      ],
      "name": "_getOwner",
      "outputs": [
        {
          "internalType": "address",
          "name": "",
          "type": "address"
        }
      ],
      "stateMutability": "view",
      "type": "function"
    },
    {
      "inputs": [
        {
          "internalType": "uint256",
          "name": "",
          "type": "uint256"
        }
      ],
      "name": "_uris",
      "outputs": [
        {
          "internalType": "string",
          "name": "",
          "type": "string"
        }
      ],
      "stateMutability": "view",
      "type": "function"
    },
    {
      "inputs": [
        {
          "internalType": "string",
          "name": "",
          "type": "string"
        }
      ],
      "name": "_urisToIds",
      "outputs": [
        {
          "internalType": "uint256",
          "name": "",
          "type": "uint256"
        }
      ],
      "stateMutability": "view",
      "type": "function"
    },
    {
      "inputs": [
        {
          "internalType": "address",
          "name": "to",
          "type": "address"
        },
        {
          "internalType": "uint256",
          "name": "tokenId",
          "type": "uint256"
        }
      ],
      "name": "approve",
      "outputs": [],
      "stateMutability": "nonpayable",
      "type": "function"
    },
    {
      "inputs": [
        {
          "internalType": "address",
          "name": "owner",
          "type": "address"
        }
      ],
      "name": "balanceOf",
      "outputs": [
        {
          "internalType": "uint256",
          "name": "",
          "type": "uint256"
        }
      ],
      "stateMutability": "view",
      "type": "function"
    },
    {
      "inputs": [
        {
          "internalType": "uint256",
          "name": "tokenId",
          "type": "uint256"
        }
      ],
      "name": "burnUnpublishedItem",
      "outputs": [],
      "stateMutability": "nonpayable",
      "type": "function"
    },
    {
      "inputs": [
        {
          "internalType": "address",
          "name": "_signer",
          "type": "address"
        },
        {
          "internalType": "string",
          "name": "tokenURI",
          "type": "string"
        },
        {
          "internalType": "uint256",
          "name": "_licensesAmount",
          "type": "uint256"
        }
      ],
      "name": "createMasterItem",
      "outputs": [
        {
          "internalType": "uint256",
          "name": "",
          "type": "uint256"
        }
      ],
      "stateMutability": "nonpayable",
      "type": "function"
    },
    {
      "inputs": [
        {
          "internalType": "uint256",
          "name": "tokenId",
          "type": "uint256"
        }
      ],
      "name": "getApproved",
      "outputs": [
        {
          "internalType": "address",
          "name": "",
          "type": "address"
        }
      ],
      "stateMutability": "view",
      "type": "function"
    },
    {
      "inputs": [
        {
          "internalType": "bytes32",
          "name": "role",
          "type": "bytes32"
        }
      ],
      "name": "getRoleAdmin",
      "outputs": [
        {
          "internalType": "bytes32",
          "name": "",
          "type": "bytes32"
        }
      ],
      "stateMutability": "view",
      "type": "function"
    },
    {
      "inputs": [
        {
          "internalType": "bytes32",
          "name": "role",
          "type": "bytes32"
        },
        {
          "internalType": "uint256",
          "name": "index",
          "type": "uint256"
        }
      ],
      "name": "getRoleMember",
      "outputs": [
        {
          "internalType": "address",
          "name": "",
          "type": "address"
        }
      ],
      "stateMutability": "view",
      "type": "function"
    },
    {
      "inputs": [
        {
          "internalType": "bytes32",
          "name": "role",
          "type": "bytes32"
        }
      ],
      "name": "getRoleMemberCount",
      "outputs": [
        {
          "internalType": "uint256",
          "name": "",
          "type": "uint256"
        }
      ],
      "stateMutability": "view",
      "type": "function"
    },
    {
      "inputs": [
        {
          "internalType": "string",
          "name": "_uri",
          "type": "string"
        }
      ],
      "name": "getTokenIdForURI",
      "outputs": [
        {
          "internalType": "uint256",
          "name": "",
          "type": "uint256"
        }
      ],
      "stateMutability": "view",
      "type": "function"
    },
    {
      "inputs": [
        {
          "internalType": "bytes32",
          "name": "role",
          "type": "bytes32"
        },
        {
          "internalType": "address",
          "name": "account",
          "type": "address"
        }
      ],
      "name": "grantRole",
      "outputs": [],
      "stateMutability": "nonpayable",
      "type": "function"
    },
    {
      "inputs": [
        {
          "internalType": "bytes32",
          "name": "role",
          "type": "bytes32"
        },
        {
          "internalType": "address",
          "name": "account",
          "type": "address"
        }
      ],
      "name": "hasRole",
      "outputs": [
        {
          "internalType": "bool",
          "name": "",
          "type": "bool"
        }
      ],
      "stateMutability": "view",
      "type": "function"
    },
    {
      "inputs": [
        {
          "internalType": "address",
          "name": "owner",
          "type": "address"
        },
        {
          "internalType": "address",
          "name": "operator",
          "type": "address"
        }
      ],
      "name": "isApprovedForAll",
      "outputs": [
        {
          "internalType": "bool",
          "name": "",
          "type": "bool"
        }
      ],
      "stateMutability": "view",
      "type": "function"
    },
    {
      "inputs": [],
      "name": "name",
      "outputs": [
        {
          "internalType": "string",
          "name": "",
          "type": "string"
        }
      ],
      "stateMutability": "view",
      "type": "function"
    },
    {
      "inputs": [],
      "name": "owner",
      "outputs": [
        {
          "internalType": "address",
          "name": "",
          "type": "address"
        }
      ],
      "stateMutability": "view",
      "type": "function"
    },
    {
      "inputs": [
        {
          "internalType": "uint256",
          "name": "tokenId",
          "type": "uint256"
        }
      ],
      "name": "ownerOf",
      "outputs": [
        {
          "internalType": "address",
          "name": "",
          "type": "address"
        }
      ],
      "stateMutability": "view",
      "type": "function"
    },
    {
      "inputs": [],
      "name": "pause",
      "outputs": [],
      "stateMutability": "nonpayable",
      "type": "function"
    },
    {
      "inputs": [],
      "name": "paused",
      "outputs": [
        {
          "internalType": "bool",
          "name": "",
          "type": "bool"
        }
      ],
      "stateMutability": "view",
      "type": "function"
    },
    {
      "inputs": [],
      "name": "renounceOwnership",
      "outputs": [],
      "stateMutability": "nonpayable",
      "type": "function"
    },
    {
      "inputs": [
        {
          "internalType": "bytes32",
          "name": "role",
          "type": "bytes32"
        },
        {
          "internalType": "address",
          "name": "account",
          "type": "address"
        }
      ],
      "name": "renounceRole",
      "outputs": [],
      "stateMutability": "nonpayable",
      "type": "function"
    },
    {
      "inputs": [
        {
          "internalType": "bytes32",
          "name": "role",
          "type": "bytes32"
        },
        {
          "internalType": "address",
          "name": "account",
          "type": "address"
        }
      ],
      "name": "revokeRole",
      "outputs": [],
      "stateMutability": "nonpayable",
      "type": "function"
    },
    {
      "inputs": [
        {
          "internalType": "address",
          "name": "from",
          "type": "address"
        },
        {
          "internalType": "address",
          "name": "to",
          "type": "address"
        },
        {
          "internalType": "uint256",
          "name": "tokenId",
          "type": "uint256"
        }
      ],
      "name": "safeTransferFrom",
      "outputs": [],
      "stateMutability": "nonpayable",
      "type": "function"
    },
    {
      "inputs": [
        {
          "internalType": "address",
          "name": "from",
          "type": "address"
        },
        {
          "internalType": "address",
          "name": "to",
          "type": "address"
        },
        {
          "internalType": "uint256",
          "name": "tokenId",
          "type": "uint256"
        },
        {
          "internalType": "bytes",
          "name": "data",
          "type": "bytes"
        }
      ],
      "name": "safeTransferFrom",
      "outputs": [],
      "stateMutability": "nonpayable",
      "type": "function"
    },
    {
      "inputs": [
        {
          "internalType": "address",
          "name": "operator",
          "type": "address"
        },
        {
          "internalType": "bool",
          "name": "approved",
          "type": "bool"
        }
      ],
      "name": "setApprovalForAll",
      "outputs": [],
      "stateMutability": "nonpayable",
      "type": "function"
    },
    {
      "inputs": [
        {
          "internalType": "bytes4",
          "name": "interfaceId",
          "type": "bytes4"
        }
      ],
      "name": "supportsInterface",
      "outputs": [
        {
          "internalType": "bool",
          "name": "",
          "type": "bool"
        }
      ],
      "stateMutability": "view",
      "type": "function"
    },
    {
      "inputs": [],
      "name": "symbol",
      "outputs": [
        {
          "internalType": "string",
          "name": "",
          "type": "string"
        }
      ],
      "stateMutability": "view",
      "type": "function"
    },
    {
      "inputs": [
        {
          "internalType": "uint256",
          "name": "tokenId",
          "type": "uint256"
        }
      ],
      "name": "tokenURI",
      "outputs": [
        {
          "internalType": "string",
          "name": "",
          "type": "string"
        }
      ],
      "stateMutability": "view",
      "type": "function"
    },
    {
      "inputs": [],
      "name": "totalTokens",
      "outputs": [
        {
          "internalType": "uint256",
          "name": "",
          "type": "uint256"
        }
      ],
      "stateMutability": "view",
      "type": "function"
    },
    {
      "inputs": [
        {
          "internalType": "address",
          "name": "from",
          "type": "address"
        },
        {
          "internalType": "address",
          "name": "to",
          "type": "address"
        },
        {
          "internalType": "uint256",
          "name": "tokenId",
          "type": "uint256"
        }
      ],
      "name": "transferFrom",
      "outputs": [],
      "stateMutability": "nonpayable",
      "type": "function"
    },
    {
      "inputs": [
        {
          "internalType": "address",
          "name": "_signer",
          "type": "address"
        },
        {
          "internalType": "address",
          "name": "_buyer",
          "type": "address"
        },
        {
          "internalType": "uint256",
          "name": "_tokenId",
          "type": "uint256"
        }
      ],
      "name": "transferMaster",
      "outputs": [],
      "stateMutability": "nonpayable",
      "type": "function"
    },
    {
      "inputs": [
        {
          "internalType": "address",
          "name": "newOwner",
          "type": "address"
        }
      ],
      "name": "transferOwnership",
      "outputs": [],
      "stateMutability": "nonpayable",
      "type": "function"
    },
    {
      "inputs": [],
      "name": "unpause",
      "outputs": [],
      "stateMutability": "nonpayable",
      "type": "function"
    },
    {
      "inputs": [
        {
          "internalType": "uint256",
          "name": "_tokenId",
          "type": "uint256"
        }
      ],
      "name": "uri",
      "outputs": [
        {
          "internalType": "string",
          "name": "",
          "type": "string"
        }
      ],
      "stateMutability": "view",
      "type": "function"
    }
  ],
  "bytecode": "0x60806040523480156200001157600080fd5b50604051620030b6380380620030b683398101604081905262000034916200036c565b604080518082018252601081526f29b7bab7322b32b939b2a6b0b9ba32b960811b60208083019182528351808501909452600384526253564d60e81b9084015281519192916200008791600291620002c6565b5080516200009d906003906020840190620002c6565b50506009805460ff1916905550620000b53362000107565b620000e17f65d7a28e3265b37a6474929f336521b332c1681b933f6cb9f3376673440d862a3362000161565b600a80546001600160a01b0319166001600160a01b0392909216919091179055620003d9565b600980546001600160a01b03838116610100818102610100600160a81b031985161790945560405193909204169182907f8be0079c531659141344cd1fd0a4f28419497f9722a3daafe3b4186f6b6457e090600090a35050565b6200016d828262000171565b5050565b620001888282620001b460201b62000fc31760201c565b6000828152600160209081526040909120620001af9183906200104762000254821b17901c565b505050565b6000828152602081815260408083206001600160a01b038516845290915290205460ff166200016d576000828152602081815260408083206001600160a01b03851684529091529020805460ff19166001179055620002103390565b6001600160a01b0316816001600160a01b0316837f2f8788117e7eff1d82e926ec794901d17c78024a50270940304540a733656f0d60405160405180910390a45050565b60006200026b836001600160a01b03841662000274565b90505b92915050565b6000818152600183016020526040812054620002bd575081546001818101845560008481526020808220909301849055845484825282860190935260409020919091556200026e565b5060006200026e565b828054620002d4906200039c565b90600052602060002090601f016020900481019282620002f8576000855562000343565b82601f106200031357805160ff191683800117855562000343565b8280016001018555821562000343579182015b828111156200034357825182559160200191906001019062000326565b506200035192915062000355565b5090565b5b8082111562000351576000815560010162000356565b6000602082840312156200037e578081fd5b81516001600160a01b038116811462000395578182fd5b9392505050565b600181811c90821680620003b157607f821691505b60208210811415620003d357634e487b7160e01b600052602260045260246000fd5b50919050565b612ccd80620003e96000396000f3fe608060405234801561001057600080fd5b50600436106102325760003560e01c8063715018a611610130578063a22cb465116100b8578063d547741f1161007c578063d547741f146104e0578063d84f316e146104f3578063e855f39814610506578063e985e9c51461052f578063f2fde38b1461056b57600080fd5b8063a22cb46514610481578063b88d4fde14610494578063c28609c2146104a7578063c87b56dd146104ba578063ca15c873146104cd57600080fd5b80639010d07c116100ff5780639010d07c1461042057806391d148541461043357806395d89b41146104465780639c829e661461044e578063a217fddf1461047957600080fd5b8063715018a6146103f25780637e1c0c09146103fa5780638456cb59146104025780638da5cb5b1461040a57600080fd5b80632f2ff15d116101be57806349c031e01161018257806349c031e01461039b5780635c975abb146103ae5780636352211e146103b957806364d4eeab146103cc57806370a08231146103df57600080fd5b80632f2ff15d1461033157806336568abe146103445780633f4ba83a1461035757806342842e0e1461035f5780634816edf41461037257600080fd5b80630e89341c116102055780630e89341c146102b45780631233ce8d146102c757806315a2f120146102da57806323b872dd146102fb578063248a9ca31461030e57600080fd5b806301ffc9a71461023757806306fdde031461025f578063081812fc14610274578063095ea7b31461029f575b600080fd5b61024a6102453660046127ca565b61057e565b60405190151581526020015b60405180910390f35b61026761058f565b6040516102569190612a0f565b61028761028236600461276d565b610621565b6040516001600160a01b039091168152602001610256565b6102b26102ad366004612742565b610648565b005b6102676102c236600461276d565b610763565b6102676102d536600461276d565b610805565b6102ed6102e836600461286c565b61089f565b604051908152602001610256565b6102b26103093660046125fd565b6108c7565b6102ed61031c36600461276d565b60009081526020819052604090206001015490565b6102b261033f366004612785565b6108f8565b6102b2610352366004612785565b61091d565b6102b261099b565b6102b261036d3660046125fd565b610a1b565b61028761038036600461276d565b600d602052600090815260409020546001600160a01b031681565b6102ed6103a93660046126eb565b610a36565b60095460ff1661024a565b6102876103c736600461276d565b610ba6565b6102876103da36600461276d565b610c06565b6102ed6103ed36600461258d565b610c11565b6102b2610c97565b6102ed610ca9565b6102b2610cb9565b60095461010090046001600160a01b0316610287565b61028761042e3660046127a9565b610d37565b61024a610441366004612785565b610d56565b610267610d7f565b6102ed61045c36600461286c565b8051602081830181018051600f8252928201919093012091525481565b6102ed600081565b6102b261048f3660046126ba565b610d8e565b6102b26104a236600461263d565b610d99565b6102b26104b536600461276d565b610dd1565b6102676104c836600461276d565b610de5565b6102ed6104db36600461276d565b610ef6565b6102b26104ee366004612785565b610f0d565b6102b26105013660046125fd565b610f32565b61028761051436600461276d565b6000908152600d60205260409020546001600160a01b031690565b61024a61053d3660046125c5565b6001600160a01b03918216600090815260076020908152604080832093909416825291909152205460ff1690565b6102b261057936600461258d565b610f4d565b60006105898261105c565b92915050565b60606002805461059e90612bc0565b80601f01602080910402602001604051908101604052809291908181526020018280546105ca90612bc0565b80156106175780601f106105ec57610100808354040283529160200191610617565b820191906000526020600020905b8154815290600101906020018083116105fa57829003601f168201915b5050505050905090565b600061062c8261109c565b506000908152600660205260409020546001600160a01b031690565b600061065382610ba6565b9050806001600160a01b0316836001600160a01b031614156106c65760405162461bcd60e51b815260206004820152602160248201527f4552433732313a20617070726f76616c20746f2063757272656e74206f776e656044820152603960f91b60648201526084015b60405180910390fd5b336001600160a01b03821614806106e257506106e2813361053d565b6107545760405162461bcd60e51b815260206004820152603e60248201527f4552433732313a20617070726f76652063616c6c6572206973206e6f7420746f60448201527f6b656e206f776e6572206e6f7220617070726f76656420666f7220616c6c000060648201526084016106bd565b61075e83836110fb565b505050565b6000818152600e6020526040902080546060919061078090612bc0565b80601f01602080910402602001604051908101604052809291908181526020018280546107ac90612bc0565b80156107f95780601f106107ce576101008083540402835291602001916107f9565b820191906000526020600020905b8154815290600101906020018083116107dc57829003601f168201915b50505050509050919050565b600e602052600090815260409020805461081e90612bc0565b80601f016020809104026020016040519081016040528092919081815260200182805461084a90612bc0565b80156108975780601f1061086c57610100808354040283529160200191610897565b820191906000526020600020905b81548152906001019060200180831161087a57829003601f168201915b505050505081565b6000600f826040516108b191906128cb565b9081526020016040518091039020549050919050565b6108d13382611169565b6108ed5760405162461bcd60e51b81526004016106bd90612a74565b61075e8383836111e7565b60008281526020819052604090206001015461091381611383565b61075e838361138d565b6001600160a01b038116331461098d5760405162461bcd60e51b815260206004820152602f60248201527f416363657373436f6e74726f6c3a2063616e206f6e6c792072656e6f756e636560448201526e103937b632b9903337b91039b2b63360891b60648201526084016106bd565b61099782826113af565b5050565b6109c57f65d7a28e3265b37a6474929f336521b332c1681b933f6cb9f3376673440d862a33610d56565b610a115760405162461bcd60e51b815260206004820181905260248201527f4d75737420686176652070617573657220726f6c6520746f20756e706175736560448201526064016106bd565b610a196113d1565b565b61075e83838360405180602001604052806000815250610d99565b600a5460405163824ea29f60e01b815260206004820152600e60248201526d13585c9ad95d10dbdb9d1c9858dd60921b60448201526000916001600160a01b03169063824ea29f9060640160206040518083038186803b158015610a9957600080fd5b505afa158015610aad573d6000803e3d6000fd5b505050506040513d601f19601f82011682018060405250810190610ad191906125a9565b6001600160a01b0316336001600160a01b031614610aee57600080fd5b6000835111610b3f5760405162461bcd60e51b815260206004820152601860248201527f546f6b656e5572692063616e206e6f74206265206e756c6c000000000000000060448201526064016106bd565b6002821015610b905760405162461bcd60e51b815260206004820152601d60248201527f537570706c79206d7573742062652067726561746572207468616e203200000060448201526064016106bd565b6000610b9d858585611423565b95945050505050565b6000818152600460205260408120546001600160a01b0316806105895760405162461bcd60e51b8152602060048201526018602482015277115490cdcc8c4e881a5b9d985b1a59081d1bdad95b88125160421b60448201526064016106bd565b600061058982610ba6565b60006001600160a01b038216610c7b5760405162461bcd60e51b815260206004820152602960248201527f4552433732313a2061646472657373207a65726f206973206e6f7420612076616044820152683634b21037bbb732b960b91b60648201526084016106bd565b506001600160a01b031660009081526005602052604090205490565b610c9f611611565b610a196000611671565b6000610cb4600c5490565b905090565b610ce37f65d7a28e3265b37a6474929f336521b332c1681b933f6cb9f3376673440d862a33610d56565b610d2f5760405162461bcd60e51b815260206004820152601e60248201527f4d75737420686176652070617573657220726f6c6520746f207061757365000060448201526064016106bd565b610a196116cb565b6000828152600160205260408120610d4f9083611708565b9392505050565b6000918252602082815260408084206001600160a01b0393909316845291905290205460ff1690565b60606003805461059e90612bc0565b610997338383611714565b610da33383611169565b610dbf5760405162461bcd60e51b81526004016106bd90612a74565b610dcb848484846117e3565b50505050565b610dd9611611565b610de281611816565b50565b6060610df08261109c565b60008281526008602052604081208054610e0990612bc0565b80601f0160208091040260200160405190810160405280929190818152602001828054610e3590612bc0565b8015610e825780601f10610e5757610100808354040283529160200191610e82565b820191906000526020600020905b815481529060010190602001808311610e6557829003601f168201915b505050505090506000610ea060408051602081019091526000815290565b9050805160001415610eb3575092915050565b815115610ee5578082604051602001610ecd9291906128e7565b60405160208183030381529060405292505050919050565b610eee84611856565b949350505050565b6000818152600160205260408120610589906118c9565b600082815260208190526040902060010154610f2881611383565b61075e83836113af565b61075e838383604051806020016040528060008152506117e3565b610f55611611565b6001600160a01b038116610fba5760405162461bcd60e51b815260206004820152602660248201527f4f776e61626c653a206e6577206f776e657220697320746865207a65726f206160448201526564647265737360d01b60648201526084016106bd565b610de281611671565b610fcd8282610d56565b610997576000828152602081815260408083206001600160a01b03851684529091529020805460ff191660011790556110033390565b6001600160a01b0316816001600160a01b0316837f2f8788117e7eff1d82e926ec794901d17c78024a50270940304540a733656f0d60405160405180910390a45050565b6000610d4f836001600160a01b0384166118d3565b60006001600160e01b031982166380ac58cd60e01b148061108d57506001600160e01b03198216635b5e139f60e01b145b80610589575061058982611922565b6000818152600460205260409020546001600160a01b0316610de25760405162461bcd60e51b8152602060048201526018602482015277115490cdcc8c4e881a5b9d985b1a59081d1bdad95b88125160421b60448201526064016106bd565b600081815260066020526040902080546001600160a01b0319166001600160a01b038416908117909155819061113082610ba6565b6001600160a01b03167f8c5be1e5ebec7d5bd14f71427d1e84f3dd0314c0f7b2291e5b200ac8c7c3b92560405160405180910390a45050565b60008061117583610ba6565b9050806001600160a01b0316846001600160a01b031614806111bc57506001600160a01b0380821660009081526007602090815260408083209388168352929052205460ff165b80610eee5750836001600160a01b03166111d584610621565b6001600160a01b031614949350505050565b826001600160a01b03166111fa82610ba6565b6001600160a01b03161461125e5760405162461bcd60e51b815260206004820152602560248201527f4552433732313a207472616e736665722066726f6d20696e636f72726563742060448201526437bbb732b960d91b60648201526084016106bd565b6001600160a01b0382166112c05760405162461bcd60e51b8152602060048201526024808201527f4552433732313a207472616e7366657220746f20746865207a65726f206164646044820152637265737360e01b60648201526084016106bd565b6112cb6000826110fb565b6001600160a01b03831660009081526005602052604081208054600192906112f4908490612b66565b90915550506001600160a01b0382166000908152600560205260408120805460019290611322908490612b1b565b909155505060008181526004602052604080822080546001600160a01b0319166001600160a01b0386811691821790925591518493918716917fddf252ad1be2c89b69c2b068fc378daa952ba7f163c4a11628f55a4df523b3ef91a4505050565b610de28133611947565b6113978282610fc3565b600082815260016020526040902061075e9082611047565b6113b982826119ab565b600082815260016020526040902061075e9082611a10565b6113d9611a25565b6009805460ff191690557f5db9ee0a495bf2e6ff9c91a7834c1ba4fdd244a5e8aa4e537bd38aeae4b073aa335b6040516001600160a01b03909116815260200160405180910390a1565b6000611433600c80546001019055565b600061143e600c5490565b6000818152600e6020526040902080549192509061145b90612bc0565b1590506114a15760405162461bcd60e51b815260206004820152601460248201527343616e6e6f74207365742055524920747769636560601b60448201526064016106bd565b6114ab8582611a6e565b6000818152600d6020526040902080546001600160a01b0319166001600160a01b0387161790556114dc8185611a88565b6114e68185611b22565b807fc6b0cc0059473a4a85be6bb23c1b781584337abff398b70e19dbc29d5c3ca4e3856040516115169190612a0f565b60405180910390a2611526611bb5565b600b54600a54604051633bad47af60e11b8152600481018490526001600160a01b0392831692633306029d92899289928992169063775a8f5e9060240160006040518083038186803b15801561157b57600080fd5b505afa15801561158f573d6000803e3d6000fd5b505050506040513d6000823e601f3d908101601f191682016040526115b79190810190612802565b6040518563ffffffff1660e01b81526004016115d694939291906129c8565b600060405180830381600087803b1580156115f057600080fd5b505af1158015611604573d6000803e3d6000fd5b5092979650505050505050565b6009546001600160a01b03610100909104163314610a195760405162461bcd60e51b815260206004820181905260248201527f4f776e61626c653a2063616c6c6572206973206e6f7420746865206f776e657260448201526064016106bd565b600980546001600160a01b03838116610100818102610100600160a81b031985161790945560405193909204169182907f8be0079c531659141344cd1fd0a4f28419497f9722a3daafe3b4186f6b6457e090600090a35050565b6116d3611c74565b6009805460ff191660011790557f62e78cea01bee320cd4e420270b5ea74000d11b0c9f74754ebdbfc544b05a2586114063390565b6000610d4f8383611cba565b816001600160a01b0316836001600160a01b031614156117765760405162461bcd60e51b815260206004820152601960248201527f4552433732313a20617070726f766520746f2063616c6c65720000000000000060448201526064016106bd565b6001600160a01b03838116600081815260076020908152604080832094871680845294825291829020805460ff191686151590811790915591519182527f17307eab39ab6107e8899845ad3d59bd9653f200f220920489ca2b5937696c31910160405180910390a3505050565b6117ee8484846111e7565b6117fa84848484611cf2565b610dcb5760405162461bcd60e51b81526004016106bd90612a22565b61181f81611dff565b6000818152600860205260409020805461183890612bc0565b159050610de2576000818152600860205260408120610de29161245d565b60606118618261109c565b600061187860408051602081019091526000815290565b905060008151116118985760405180602001604052806000815250610d4f565b806118a284611e9a565b6040516020016118b39291906128e7565b6040516020818303038152906040529392505050565b6000610589825490565b600081815260018301602052604081205461191a57508154600181810184556000848152602080822090930184905584548482528286019093526040902091909155610589565b506000610589565b60006001600160e01b03198216635a05180f60e01b1480610589575061058982611fb4565b6119518282610d56565b61099757611969816001600160a01b03166014611fe9565b611974836020611fe9565b604051602001611985929190612916565b60408051601f198184030181529082905262461bcd60e51b82526106bd91600401612a0f565b6119b58282610d56565b15610997576000828152602081815260408083206001600160a01b0385168085529252808320805460ff1916905551339285917ff6391f5c32d9c69d2a47ea670b442974b53935d1edc7fd64eb21e047a839171b9190a45050565b6000610d4f836001600160a01b0384166121cb565b60095460ff16610a195760405162461bcd60e51b815260206004820152601460248201527314185d5cd8589b194e881b9bdd081c185d5cd95960621b60448201526064016106bd565b6109978282604051806020016040528060008152506122e8565b6000828152600460205260409020546001600160a01b0316611b035760405162461bcd60e51b815260206004820152602e60248201527f45524337323155524953746f726167653a2055524920736574206f66206e6f6e60448201526d32bc34b9ba32b73a103a37b5b2b760911b60648201526084016106bd565b6000828152600860209081526040909120825161075e92840190612497565b600f81604051611b3291906128cb565b908152602001604051809103902054600014611b905760405162461bcd60e51b815260206004820152601860248201527f4d61737465723a2055524920616c72656164792075736564000000000000000060448201526064016106bd565b81600f82604051611ba191906128cb565b908152604051908190036020019020555050565b600a5460408051808201825260078152664c6963656e736560c81b6020820152905163824ea29f60e01b81526000926001600160a01b03169163824ea29f91611c019190600401612a0f565b60206040518083038186803b158015611c1957600080fd5b505afa158015611c2d573d6000803e3d6000fd5b505050506040513d601f19601f82011682018060405250810190611c5191906125a9565b600b80546001600160a01b0319166001600160a01b039290921691909117905550565b60095460ff1615610a195760405162461bcd60e51b815260206004820152601060248201526f14185d5cd8589b194e881c185d5cd95960821b60448201526064016106bd565b6000826000018281548110611cdf57634e487b7160e01b600052603260045260246000fd5b9060005260206000200154905092915050565b60006001600160a01b0384163b15611df457604051630a85bd0160e11b81526001600160a01b0385169063150b7a0290611d3690339089908890889060040161298b565b602060405180830381600087803b158015611d5057600080fd5b505af1925050508015611d80575060408051601f3d908101601f19168201909252611d7d918101906127e6565b60015b611dda573d808015611dae576040519150601f19603f3d011682016040523d82523d6000602084013e611db3565b606091505b508051611dd25760405162461bcd60e51b81526004016106bd90612a22565b805181602001fd5b6001600160e01b031916630a85bd0160e11b149050610eee565b506001949350505050565b6000611e0a82610ba6565b9050611e176000836110fb565b6001600160a01b0381166000908152600560205260408120805460019290611e40908490612b66565b909155505060008281526004602052604080822080546001600160a01b0319169055518391906001600160a01b038416907fddf252ad1be2c89b69c2b068fc378daa952ba7f163c4a11628f55a4df523b3ef908390a45050565b606081611ebe5750506040805180820190915260018152600360fc1b602082015290565b8160005b8115611ee85780611ed281612bfb565b9150611ee19050600a83612b33565b9150611ec2565b60008167ffffffffffffffff811115611f1157634e487b7160e01b600052604160045260246000fd5b6040519080825280601f01601f191660200182016040528015611f3b576020820181803683370190505b5090505b8415610eee57611f50600183612b66565b9150611f5d600a86612c16565b611f68906030612b1b565b60f81b818381518110611f8b57634e487b7160e01b600052603260045260246000fd5b60200101906001600160f81b031916908160001a905350611fad600a86612b33565b9450611f3f565b60006001600160e01b03198216637965db0b60e01b148061058957506301ffc9a760e01b6001600160e01b0319831614610589565b60606000611ff8836002612b47565b612003906002612b1b565b67ffffffffffffffff81111561202957634e487b7160e01b600052604160045260246000fd5b6040519080825280601f01601f191660200182016040528015612053576020820181803683370190505b509050600360fc1b8160008151811061207c57634e487b7160e01b600052603260045260246000fd5b60200101906001600160f81b031916908160001a905350600f60fb1b816001815181106120b957634e487b7160e01b600052603260045260246000fd5b60200101906001600160f81b031916908160001a90535060006120dd846002612b47565b6120e8906001612b1b565b90505b600181111561217c576f181899199a1a9b1b9c1cb0b131b232b360811b85600f166010811061212a57634e487b7160e01b600052603260045260246000fd5b1a60f81b82828151811061214e57634e487b7160e01b600052603260045260246000fd5b60200101906001600160f81b031916908160001a90535060049490941c9361217581612ba9565b90506120eb565b508315610d4f5760405162461bcd60e51b815260206004820181905260248201527f537472696e67733a20686578206c656e67746820696e73756666696369656e7460448201526064016106bd565b600081815260018301602052604081205480156122de5760006121ef600183612b66565b855490915060009061220390600190612b66565b905081811461228457600086600001828154811061223157634e487b7160e01b600052603260045260246000fd5b906000526020600020015490508087600001848154811061226257634e487b7160e01b600052603260045260246000fd5b6000918252602080832090910192909255918252600188019052604090208390555b85548690806122a357634e487b7160e01b600052603160045260246000fd5b600190038181906000526020600020016000905590558560010160008681526020019081526020016000206000905560019350505050610589565b6000915050610589565b6122f2838361231b565b6122ff6000848484611cf2565b61075e5760405162461bcd60e51b81526004016106bd90612a22565b6001600160a01b0382166123715760405162461bcd60e51b815260206004820181905260248201527f4552433732313a206d696e7420746f20746865207a65726f206164647265737360448201526064016106bd565b6000818152600460205260409020546001600160a01b0316156123d65760405162461bcd60e51b815260206004820152601c60248201527f4552433732313a20746f6b656e20616c7265616479206d696e7465640000000060448201526064016106bd565b6001600160a01b03821660009081526005602052604081208054600192906123ff908490612b1b565b909155505060008181526004602052604080822080546001600160a01b0319166001600160a01b03861690811790915590518392907fddf252ad1be2c89b69c2b068fc378daa952ba7f163c4a11628f55a4df523b3ef908290a45050565b50805461246990612bc0565b6000825580601f10612479575050565b601f016020900490600052602060002090810190610de2919061251b565b8280546124a390612bc0565b90600052602060002090601f0160209004810192826124c5576000855561250b565b82601f106124de57805160ff191683800117855561250b565b8280016001018555821561250b579182015b8281111561250b5782518255916020019190600101906124f0565b5061251792915061251b565b5090565b5b80821115612517576000815560010161251c565b600061254361253e84612af3565b612ac2565b905082815283838301111561255757600080fd5b828260208301376000602084830101529392505050565b600082601f83011261257e578081fd5b610d4f83833560208501612530565b60006020828403121561259e578081fd5b8135610d4f81612c6c565b6000602082840312156125ba578081fd5b8151610d4f81612c6c565b600080604083850312156125d7578081fd5b82356125e281612c6c565b915060208301356125f281612c6c565b809150509250929050565b600080600060608486031215612611578081fd5b833561261c81612c6c565b9250602084013561262c81612c6c565b929592945050506040919091013590565b60008060008060808587031215612652578081fd5b843561265d81612c6c565b9350602085013561266d81612c6c565b925060408501359150606085013567ffffffffffffffff81111561268f578182fd5b8501601f8101871361269f578182fd5b6126ae87823560208401612530565b91505092959194509250565b600080604083850312156126cc578182fd5b82356126d781612c6c565b9150602083013580151581146125f2578182fd5b6000806000606084860312156126ff578283fd5b833561270a81612c6c565b9250602084013567ffffffffffffffff811115612725578283fd5b6127318682870161256e565b925050604084013590509250925092565b60008060408385031215612754578182fd5b823561275f81612c6c565b946020939093013593505050565b60006020828403121561277e578081fd5b5035919050565b60008060408385031215612797578182fd5b8235915060208301356125f281612c6c565b600080604083850312156127bb578182fd5b50508035926020909101359150565b6000602082840312156127db578081fd5b8135610d4f81612c81565b6000602082840312156127f7578081fd5b8151610d4f81612c81565b600060208284031215612813578081fd5b815167ffffffffffffffff811115612829578182fd5b8201601f81018413612839578182fd5b805161284761253e82612af3565b81815285602083850101111561285b578384fd5b610b9d826020830160208601612b7d565b60006020828403121561287d578081fd5b813567ffffffffffffffff811115612893578182fd5b610eee8482850161256e565b600081518084526128b7816020860160208601612b7d565b601f01601f19169290920160200192915050565b600082516128dd818460208701612b7d565b9190910192915050565b600083516128f9818460208801612b7d565b83519083019061290d818360208801612b7d565b01949350505050565b7f416363657373436f6e74726f6c3a206163636f756e742000000000000000000081526000835161294e816017850160208801612b7d565b7001034b99036b4b9b9b4b733903937b6329607d1b601791840191820152835161297f816028840160208801612b7d565b01602801949350505050565b6001600160a01b03858116825284166020820152604081018390526080606082018190526000906129be9083018461289f565b9695505050505050565b6001600160a01b03851681526080602082018190526000906129ec9083018661289f565b8460408401528281036060840152612a04818561289f565b979650505050505050565b602081526000610d4f602083018461289f565b60208082526032908201527f4552433732313a207472616e7366657220746f206e6f6e20455243373231526560408201527131b2b4bb32b91034b6b83632b6b2b73a32b960711b606082015260800190565b6020808252602e908201527f4552433732313a2063616c6c6572206973206e6f7420746f6b656e206f776e6560408201526d1c881b9bdc88185c1c1c9bdd995960921b606082015260800190565b604051601f8201601f1916810167ffffffffffffffff81118282101715612aeb57612aeb612c56565b604052919050565b600067ffffffffffffffff821115612b0d57612b0d612c56565b50601f01601f191660200190565b60008219821115612b2e57612b2e612c2a565b500190565b600082612b4257612b42612c40565b500490565b6000816000190483118215151615612b6157612b61612c2a565b500290565b600082821015612b7857612b78612c2a565b500390565b60005b83811015612b98578181015183820152602001612b80565b83811115610dcb5750506000910152565b600081612bb857612bb8612c2a565b506000190190565b600181811c90821680612bd457607f821691505b60208210811415612bf557634e487b7160e01b600052602260045260246000fd5b50919050565b6000600019821415612c0f57612c0f612c2a565b5060010190565b600082612c2557612c25612c40565b500690565b634e487b7160e01b600052601160045260246000fd5b634e487b7160e01b600052601260045260246000fd5b634e487b7160e01b600052604160045260246000fd5b6001600160a01b0381168114610de257600080fd5b6001600160e01b031981168114610de257600080fdfea26469706673582212200c95ee02a65126ca6ecdb89436d3082824d0881f6204b81da652d7350d7ad6f064736f6c63430008040033",
  "linkReferences": {},
  "deployedLinkReferences": {}
}